:020000040800F2
:100000000848002099010008814600085D42000868
:100010007D46000811060008A550000800000000F9
:1000200000000000000000000000000001010008C6
:10003000AD0A00080000000045010008294B000837
:10004000B3010008B3010008B3010008B3010008C0
:10005000B3010008B3010008B3010008550B000804
:10006000B3010008B30100085F0B0008410A000853
:10007000510A0008610A0008B3010008710A00086B
:10008000B3010008B3010008B3010008B301000880
:10009000B3010008B3010008B3010008690B0008B0
:1000A000B3010008B3010008B3010008B301000860
:1000B000B3010008B3010008B3010008B301000850
:1000C000B3010008B3010008B3010008B301000840
:1000D000B30100081D50000861500008B30100087A
:1000E000B3010008B3010008B3010008DFF80CD029
:1000F00000F0BAF900480047F95500080848002008
:10010000224B19680868B0E8F00F80F30988BFF344
:100110006F8F4FF0000080F311884EF00D0E704786
:100120000000000006480068006880F3088862B696
:1001300061B6BFF34F8FBFF36F8F00DF00BF00BF0B
:1001400008ED00E0EFF30980BFF36F8F0F4B1A68E3
:1001500020E9F00F106008B54FF0500080F31188CF
:10016000BFF34F8FBFF36F8F06F0A6FE4FF0000076
:1001700080F31188BDE8084019680868B0E8F00FFE
:1001800080F30988BFF36F8F704700BF2400002001
:10019000EFF3058070470000064880470648004797
:1001A000FEE7FEE7FEE7FEE7FEE7FEE7FEE7FEE727
:1001B000FEE7FEE7A34B0008ED000008202A04DB61
:1001C000203A21FA02F00021704721FA02F3D040D0
:1001D000C2F12002914008431946704740EA0103EA
:1001E0009B0703D009E008C9121F08C0042AFAD2ED
:1001F00003E011F8013B00F8013B521EF9D27047B1
:10020000D2B201E000F8012B491EFBD27047002258
:10021000F6E710B513460A4604461946FFF7F0FF05
:10022000204610BDF0B480EA0102D40F4200B2EBC8
:10023000410F02D20246084611464A0042D0C30D81
:10024000DDB2C1F3C752AD1A202D35DAC1F3160164
:1002500041F4000204B15242C5F1200602FA06F14F
:100260002A411044B3EBD05F23D0C4B1012DA0EBE1
:10027000C35009DCF0BC4FF0004202EAC352DBB2CB
:1002800000F5000000F0C2B8400000F1807000EB03
:10029000C350A0F1807040EAD170490009E04908DC
:1002A00041EAC071A0EBC35000F50000400800EB2C
:1002B000C350F0BC00F0A1B86142012202EB410141
:1002C000001BF6E7F0BC704781F00041AAE780F020
:1002D0000040A7E730B480EA010202F0004530F0A8
:1002E000004221F0004013D090B1C30DD40DC2F3F1
:1002F0001601C0F31600E41A41F4000140F40002B4
:100300007D34914201D3641C00E04900002C02DAE4
:1003100030BC002070474FF400000023914201D30D
:10032000891A034340084FEA4101F7D151B1914284
:1003300002D14FF0004105E002D24FF0010101E08F
:100340006FF0010103EBC450284430BC00F055B8F5
:1003500096230022114600F059B820F00040C10D4C
:10036000C0F3160040F400007F2901DA0020704736
:10037000962903DCC1F19601C84070479639884040
:1003800070470000002801DBC0F10040002901DBBC
:10039000C1F10041814270472DE9F05F0546002020
:1003A00092469B4688460646814640241BE02846E6
:1003B000414647462246FFF701FF53465A46C01AB8
:1003C000914110D311461846224600F05FF82D1ACD
:1003D00067EB01084F4622460120002100F056F845
:1003E00017EB00094E41201EA4F10104DFDC484652
:1003F00031462A464346BDE8F09F0029A8BF704712
:10040000401C490008BF20F00100704710B4B0FA4A
:1004100080FC00FA0CF050EA010404BF10BC7047E5
:1004200049B1CCF1200421FA04F411FA0CF118BFFF
:10043000012121430843A3EB0C01CB1D4FEA0061CE
:100440004FEA102042BF002010BC704700EBC350A1
:1004500010440029A4BF10BC7047401C490008BFCD
:1004600020F0010010BC7047064C074D06E0E06824
:1004700040F0010394E8070098471034AC42F6D3EB
:10048000FFF738FEFC8100081C820008202A04DBEC
:10049000203A00FA02F1002070479140C2F1200397
:1004A00020FA03F319439040704770B58C1810F888
:1004B000015B15F0070301D110F8013B2A1106D1A9
:1004C00010F8012B03E010F8016B01F8016B5B1EC3
:1004D000F9D12B0705D40023521E0DD401F8013B9E
:1004E000FAE710F8013BCB1A921C03E013F8015B0A
:1004F00001F8015B521EF9D5A142D8D3002070BD8E
:1005000070B505466C6AA06A00F05000E0B9A06AB8
:1005100040F40070A0622068806800F46020B0F5AC
:10052000602F0DD1207B58B9A06A20F48070A062A2
:10053000A06A00F4805018B9A06A40F00100A062DF
:10054000204601F027FB03E0206A016B284688471C
:1005500070BD70B505466C6AA06A40F04000A062AC
:10056000E06A40F00400E062204601F034FB70BD18
:1005700070B50446656A284601F02CFB70BD00008A
:1005800038B504460025002000902068806800F0FF
:10059000010078BB2068806840F001002168886015
:1005A000194800681949B0FBF1F0009002E000988A
:1005B000401E009000980028F9D102F015F8054679
:1005C00019E002F011F8401B022814D92068806855
:1005D00000F0010078B9A06A40F01000A062E06A63
:1005E00040F00100E06200BF002084F8240000BF5A
:1005F000012038BD05E02068806800F00100002877
:10060000DFD00020F5E700002000002040420F006E
:1006100000BFFEE710B502460023002004E0145C92
:100620001C44E3B2441CE0B28842F8DB184610BD1B
:10063000572007490870AB20487000208870054992
:10064000487002200449087001200449087070476E
:100650002D2F0020BC000020C4000020C800002076
:10066000F0B506460F46144636B1012E2BD0022EA9
:1006700047D0032E7ED15BE002204049C87008209D
:1006800008713F4810F814003E4908703C4800EBE0
:100690004400407888700020C870087148718871E3
:1006A000C8713648401D0A68026049684160401FB1
:1006B0000079401DC1B23148FFF7ACFF2F490A79DC
:1006C000491D885457E0002501202C49C87004209A
:1006D00008712D4850F82450280C2C494870280ADD
:1006E0008870CD7025480968C0F805100079401D54
:1006F000C1B22248FFF78EFF20490A79491D88546C
:1007000039E002201D49C87008712148005D214967
:1007100048701A480988A0F805100079401DC1B238
:100720001648FFF777FF15490A79491D885422E0DA
:1007300002201249C870082008711248077084709E
:1007400000201049C870087148718871C8710B4841
:10075000401D0A68026049684160401F0079401DE1
:10076000C1B20648FFF756FF04490A79491D88546B
:1007700001E0FFE700BF00BFF0BD00002D2F00200B
:1007800086800008BC00002084810008C40000208E
:10079000E8810008C800002000B585B000BF2948E6
:1007A000806940F00400274988610846806900F0AC
:1007B0000400009000BF00BF00BF0846806940F001
:1007C000080088610846806900F00800009000BFBA
:1007D00000BF002289141C4801F000FF00222021E4
:1007E0001A4801F0FBFE0120029000030190022054
:1007F00003900320049001A9134801F057FD012044
:10080000029020200190022003900320049001A96F
:100810000E4801F04BFD012220210C4801F0DEFEC4
:10082000002000F0B3F8002000F078F800F07CF829
:1008300000222021054801F0D1FEFFF7F9FE05B0A6
:1008400000BD00000010024000080140000C014003
:1008500070B505460E4600241CE02A5D00210846BE
:10086000FFF7FEFE0D480079821D4FF47A730B49A5
:100870000B4803F0F8F9012004F080FE4FF47A737E
:100880000E220849064803F0EEF9012004F076FE36
:10089000601C84B2B442E0DB70BD00002D2F00204C
:1008A0004C0100207880000870B504460D462A46A9
:1008B00021460320FFF7D4FE0B480079821D4FF438
:1008C0007A730949094803F0CEF9012004F056FE75
:1008D0004FF47A730E220649044803F0C4F901204C
:1008E00004F04CFE70BD00002D2F00204C010020B4
:1008F0007880000810B501221103074801F06EFE50
:100900004FF47A7004F03AFE00224FF4805102480E
:1009100001F064FE10BD000000080140014948706C
:1009200070470000CA00002010B58EB0302102A828
:10093000FFF76DFC124903C9CDE900010024002036
:100940000AE010490A5C411D0DF801201DF8001055
:100950002144CCB2411CC8B23728F2DB8DF83740B5
:100960004FF47A7338226946074803F07CF94FF454
:10097000FA6004F003FEFFF7BDFF0EB010BD0000EB
:10098000F4810008CA0000204C01002001490870D1
:1009900070470000CA000020EF200A4908700120BB
:1009A0004870FF200849087048708870C870EF20B0
:1009B0000649087001204870FF208870C8700871CF
:1009C00048717047B0000020B2000020B60000203F
:1009D00010B502460023002004E0145C1C44A3B2BE
:1009E000441CE0B28842F8DB481C105C545C40EACE
:1009F0000420984201D1002010BD4FF0FF30FBE7EA
:100A00002DE9F04105460C46002700262046E11757
:100A100004EB9171C1F38706E11704EB9171891022
:100A2000A4EB810109B1701CC6B2324629460348C5
:100A300001F092F907463846BDE8F081A800002091
:100A400010B5024801F020FA10BD00005402002049
:100A500010B5024801F018FA10BD0000B8300020AF
:100A600010B5024801F010FA10BD000074300020EB
:100A700010B5024801F008FA10BD00003030002027
:100A800030B590F840500124AC40C56B6C600468F0
:100A900063604468102C04D10468A2600468E160BB
:100AA00003E00468A1600468E26030BD70470000A4
:100AB00000B585B000BF2248806940F0040020499D
:100AC00088610846806900F00400009000BF00BF04
:100AD00000BF0846806940F00800886108468069C8
:100AE00000F00800009000BF00BF164802904FF4CD
:100AF00040700190012003900320049001A9124846
:100B000001F0D4FB114802900220019003900320D1
:100B1000049001A90E4801F0C9FB00220121172011
:100B200001F0E8FD172001F0D5FD0022012107208A
:100B300001F0E0FD072001F0CDFD05B000BD000093
:100B40000010024000003110000C014000001110A4
:100B50000008014010B5022001F09AFB10BD10B54D
:100B6000102001F095FB10BD10B50E48046804F488
:100B7000807048B14FF4807001F08AFB094800682A
:100B800020F480700749086004F4007048B14FF405
:100B9000007001F07DFB0348006820F400700149FB
:100BA000086010BD1404014072B600BFFEE70000EB
:100BB00000B585B000BF1A48806940F004001849AC
:100BC00088610846806900F00400009000BF00BF03
:100BD00014480290102001900220039003200490FA
:100BE00001A9114801F062FB002206210A2001F050
:100BF00081FD0A2001F06EFDFFF7CEFE00F098FFA8
:100C00000A48007A09300949C97940EA01224FF4BB
:100C10007A730649064803F026F805B000BD0000C7
:100C2000001002400000111000080140222E002098
:100C30009401002004480021016041608160C1608E
:100C40000248014908607047544100206441002077
:100C500070B5AF488079012806D0022805D0072852
:100C600005D008287ED101E050E14FE14EE1A848CF
:100C7000407A342877D2DFE800F01AFEFFFBFAF959
:100C8000F8F7F6F5F4F3F2F1F0EFEEEDECEBEAE95C
:100C9000E8E7E6E5E4E3E2E1E0DFDEDDDCDBDAD94C
:100CA000D8D7D6D5D4D3D2D1D0CFCECDCCCB0021AE
:100CB0009848006806F054F997490860084600789B
:100CC00000F00100F8B1FE2094490870222048701D
:100CD000102088700020C87020228D490A318F486A
:100CE000001DFFF77BFA24218C48FFF793FC8B490A
:100CF00081F824002521894803F0E8FE0121854878
:100D0000006806F02DF98448007800F0020058B31E
:100D1000FE2082490870042048700B208870002053
:100D2000C8707B48807A08717948C17A7B484171E4
:100D30000621FFF76FFC794988710846007903287E
:100D400003D008460079012803D10721734803F036
:100D5000BDFE72480079062810D170484079F2280B
:100D60000CD102E0D1E0CDE008E007216B4803F0B0
:100D7000ADFE02216748006806F0F2F86648007888
:100D800000F00400B8B1FE206449087002204870E9
:100D90000C2088700020C87004216048FFF73AFCDE
:100DA0005E49087105215D4803F090FE0421594811
:100DB000006806F0D5F85848007800F0080030B315
:100DC0005348807A05280ED15148017BC07A41EA08
:100DD00000244F48817B407B41EA0025294620467C
:100DE00000F0A2F800BF00F0A3FE4D48007A0930E1
:100DF0004B49C97940EA01224FF47A73484949487E
:100E000002F031FF08214348006806F0A9F87AE0B3
:100E100077E075E073E071E06FE06DE06BE069E052
:100E200067E065E063E061E05FE05DE05BE059E0C2
:100E300057E055E053E051E04FE04DE04BE049E032
:100E400047E045E043E041E03FE03DE03BE039E0A2
:100E500037E035E033E031E02FE02DE02BE029E012
:100E600027E025E00FE00DE00BE009E007E005E0FA
:100E700003E001E0FFE746E045E044E043E042E014
:100E800041E040E03FE000F053FE2548007A0930A1
:100E90002349C97940EA01224FF47A732049214855
:100EA00002F0E1FE08211B48006806F059F82AE02C
:100EB00029E028E027E026E025E024E023E022E006
:100EC00021E020E01FE01EE01DE01CE01BE01AE036
:100ED00019E018E017E016E015E014E013E012E066
:100EE00011E010E00FE00EE00DE00CE00BE00AE096
:100EF00009E008E007E006E005E004E003E002E0C6
:100F000001E000E000BF00BF00E000BF00BF70BD17
:100F1000644100200C01002010010020D14100207C
:100F2000222E0020940100202DE9FF4704460F46A1
:100F30000020039004EBC40000EB04104FF4801277
:100F400002EB8001012203A800F0EAFB9DF80C00EF
:100F500030B1012868D002287BD0032814D17CE16D
:100F6000002002900025019004EBC40000EB041067
:100F70004FF4801202EB8000411C012202A800F015
:100F8000CFFB9DF8080000B968E19DF80800C01C7F
:100F900005F048F9064604EBC40000EB04104FF4DA
:100FA000801202EB80019DF80820D21C304600F030
:100FB000B7FB9DF80800C01CC1B23046FFF720FD0A
:100FC00005462946A7A004F015F90A2005F0ECFB18
:100FD00004EBC40000EB04104FF4801202EB80001D
:100FE0009DF808201044C11C042201A800F098FBC1
:100FF000A1A0019904F0FEF80198A84210D1E021C7
:101000000020FFF751FC4FF4C87005F0CDFB9DF8B0
:101010000810F01CFFF71CFC28210020FFF744FCFF
:10102000304605F093FA19E1002002900025019066
:1010300004EBC40000EB04104FF4801202EB8000BC
:10104000411C012202A800F06BFB9DF8080008B9C2
:1010500004E146E09DF80800C01C05F0E3F80646F0
:1010600004EBC40000EB04104FF4801202EB80018B
:101070009DF80820D21C304600F052FB9DF8080075
:10108000C01CC1B23046FFF7BBFC0546294675A01F
:1010900004F0B0F80A2005F087FB04EBC40000EB75
:1010A00004104FF4801202EB80009DF808201044D9
:1010B000C11C042201A800F033FB6FA0019904F0C9
:1010C00099F80198A84208D19DF80810F01CFFF784
:1010D000BFFB28210020FFF7E7FB304605F036FA7A
:1010E000BCE00020029001900026009004EBC400B8
:1010F00000EB04104FF4801202EB8000411C01222F
:1011000002A800F00DFB9DF8080000B9A6E09DF8CC
:1011100008105DA004F06EF804EBC40000EB0410AE
:101120004FF4801202EB8000C01C9DF8082081184B
:10113000012201A800F0F4FA9DF8040000B98DE046
:101140009DF8041055A004F055F89DF808109DF87E
:1011500004201144481D05F065F805469DF8080077
:101160009DF804301844421D04EBC40000EB041049
:101170004FF4801303EB8001284600F0D1FA9DF86C
:1011800008009DF804201044401DC1B22846FFF716
:1011900037FC0646314646A004F02CF80A2005F03C
:1011A00003FB04EBC40000EB04104FF4801202EBCD
:1011B00080009DF8082010449DF804201044411D33
:1011C0000422684600F0ACFA3EA0009904F012F840
:1011D0000098B0423DD19DF8080005F023F8804604
:1011E0009DF8040005F01EF881469DF80820E91CD2
:1011F0004046FEF7F3FF9DF80800001D41199DF8D9
:1012000004204846FEF7EAFF9DF808104046FFF725
:101210001FFB0A2005F0C8FA2B210020FFF744FB32
:101220000A2005F0C1FA9DF804104846FFF710FBAC
:10123000322005F0B9FA28210020FFF735FB0A20FB
:1012400005F0B2FA404605F081F9484605F07EF90E
:1012500000BF284605F07AF900E000BF00BFBDE8F6
:10126000FF8700006372635F76616C7565203D20C7
:1012700025640D0A000000007265635F63726320DD
:101280003D202564000000006163636F756E74206B
:101290006C656E203D2025640D0A0000706173733B
:1012A000776F7264206C656E203D2025640D0A0006
:1012B0006372635F76616C7565203D2025780D0A49
:1012C000000000007265635F637263203D20257833
:1012D0000000000038B504460D46012000900C487F
:1012E000006890B100236A4621460948006806F06C
:1012F0005FF900BF009838B14FF080500549086091
:10130000BFF34F8FBFF36F8F00BF002038BD0000C9
:101310000801002004ED00E070B504466E484079F5
:1013200098B9EF2C0ED101206B494871084600682E
:10133000047008460068401C086008460079401C9C
:101340000871C7E0FFF776FCC4E06348807998B97C
:10135000012C0ED101206049887108460068047094
:1013600008460068401C086008460079401C087167
:10137000B0E0FFF75FFCADE05748C07998B9FF2CAB
:101380000ED101205449C87108460068047008460F
:101390000068401C086008460079401C087199E00C
:1013A000FFF748FC96E04C48007A98B9FF2C0ED124
:1013B0000120494908720846006804700846006820
:1013C000401C086008460079401C087182E0FFF765
:1013D00031FC7FE04048407A98B9FF2C0ED10120C3
:1013E0003D49487208460068047008460068401C81
:1013F000086008460079401C08716BE0FFF71AFC92
:1014000068E03548807A98B9FF2C0ED10120324926
:10141000887208460068047008460068401C08602E
:1014200008460079401C087154E0FFF703FC51E0C6
:101430002948007909280CDA2748006804702648F2
:101440000068401C2449086008460079401C087167
:1014500012E02148007909280ED101201E49C872E6
:101460001E48007A1D49C97940EA01201A4988813D
:1014700008460079401C08711748C07A012829D114
:1014800015488089401E60B113488089401E12496A
:10149000888108460068047008460068401C08609F
:1014A00018E00D48006804700C48007A0B4AD279A5
:1014B00040EA0220401CC1B20848801DFFF788FAAC
:1014C000054625B9FFF7C4FBFFF7B4FB01E0FFF7C2
:1014D000B1FB00BF002070BD5441002064410020DA
:1014E00010B50446240300F0C3F800F0B7F84FF03D
:1014F000805007490860202000F070F8204600F076
:101500009FF84FF480500249086000F0A7F810BD22
:10151000100C014000B585B000BF0E48806940F056
:1015200008000C4988610846806900F008000090B6
:1015300000BF00BF88140190012002900390032097
:10154000049001A9044800F0B1FE03F0F3F805B0DF
:1015500000BD000000100240000C014070B50446C0
:101560000D4616464FF0805006490860032000F0F3
:1015700035F8284600F064F832462146024801F06A
:1015800075FD70BD100C0140FC30002070B50446A4
:1015900000250026012C04D0022C04D0032C06D1F7
:1015A00003E0052605E0352603E0152601E00526C3
:1015B00000BF00BF4FF0805007490860304600F080
:1015C0000DF8FF2000F00AF805464FF4805002495C
:1015D0000860284670BD0000100C014001B582B0C3
:1015E0004FF47A70012301AA02A90090024801F089
:1015F000E4FD9DF804000EBDFC30002010B54FF056
:1016000080500E4908609020FFF7E8FF0020FFF7A8
:10161000E5FF0020FFF7E2FF0020FFF7DFFFFF20DC
:10162000FFF7DCFF0402FF20FFF7D8FF04434FF46D
:10163000805002490860204610BD0000100C014097
:1016400010B50446C4F30740FFF7C8FFC4F30720F2
:10165000FFF7C4FFE0B2FFF7C1FF10BD10B500BF38
:101660000120FFF793FF00F001000028F8D110BD22
:1016700010B54FF08050054908600620FFF7AEFF17
:101680004FF480500149086010BD0000100C01406B
:101690002DE9F04105460E461746FFF7E9FF4FF0EA
:1016A00080500C4908600220FFF798FF3046FFF792
:1016B000C7FF002404E0285DFFF790FF601C84B2A0
:1016C000BC42F8DB4FF4805002490860FFF7C6FFC8
:1016D000BDE8F081100C01402DE9F04107460E46AF
:1016E0001446F0B2C0F58075AC4200DC254612E02D
:1016F0002A4631463846FFF7CBFFAC4200D10BE01B
:101700002F442E44601B84B2B4F5807F02DD4FF479
:10171000807500E02546EBE700BFBDE8F0810000E2
:101720002DE9F04105460E4617464FF080500C4912
:1017300008600320FFF752FF3046FFF781FF0024C7
:1017400005E0FF20FFF74AFF2855601C84B2BC4229
:10175000F7DB4FF4805002490860BDE8F0810000DB
:10176000100C01402DE9F05F81460F461646DFF868
:10177000A8B04FEA1738C7F30B0ACAF58054A6423F
:1017800000DC344644E04FEA08314FF480525846BA
:10179000FFF7C6FF002508E00AEB05001BF8000074
:1017A000FF2800D003E0681C85B2A542F4DB00BF2F
:1017B000A54216DA4046FFF793FE002507E019F828
:1017C000050005EB0A010BF80100681C85B2A54273
:1017D000F5DB4FEA08314FF480525846FFF77CFFA3
:1017E00004E0224639464846FFF776FFA64200D17C
:1017F0000FE008F101084FF0000AA1442744301B14
:1018000086B2B6F5805F02DD4FF4805400E03446C6
:10181000B9E700BFBDE8F09F543100202DE9F04149
:1018200004460E46154600271848194909880180C4
:1018300018490968C0F80210012014498871164837
:101840000078C871144841781048017231200F495E
:101850004872201288720846C472067328124873B0
:1018600008468573007A0A46D27940EA0220401C75
:1018700081B20648801D00F051F80746381203492E
:10188000C87308460774BDE8F0810000E42D00200D
:10189000B0000020B20000200F8000082DE9F041C8
:1018A00006460C4615460027184819490988018044
:1018B00018490968C0F802100120144988711648B7
:1018C0000078C871144841781048017232200F49DD
:1018D0004872084686722012C8720846047328129D
:1018E000487308468573007A0A46D27940EA022096
:1018F000401C81B20548801D00F010F807463812E0
:101900000249C87308460774BDE8F081F52D002030
:10191000B0000020B20000201280000810B502467E
:101920000023002004E0145C1C44A3B2441CA0B2B9
:101930008842F8DB184610BD2DE9F04104460D46FB
:1019400016461F464FF000081748184909880180BD
:1019500017490968C0F80210012013498871154819
:101960000078C871134841780F4801723C200E4935
:10197000487208468472C57206734773007A0A4635
:10198000D27940EA0220401C81B20748801DFFF74F
:10199000C5FF80464FEA282003498873084680F82F
:1019A0000F80BDE8F0810000092F0020B00000206A
:1019B000B2000020518000082DE9F05F04460D467A
:1019C00016461F46DDE90BABDDF828904FF0000806
:1019D0001B481C49098801801B490968C0F802108E
:1019E00001201749887119480078C8711748417853
:1019F000134801723C201249487207208872084639
:101A0000C47205734673877380F80F9080F810A036
:101A100080F811B0007A0A46D27940EA0220401CD0
:101A200081B20748801DFFF779FF80464FEA2820E2
:101A300003498874084680F81380BDE8F09F0000D1
:101A4000192F0020B0000020B200002054800008B0
:101A500070B504460D4600261748184909880180CC
:101A600017490968C0F80210012013498871154808
:101A70000078C871134841780F4801720C200E4954
:101A80004872201288720846C472281208730846E9
:101A90004573007A0A46D27940EA0220401C81B29E
:101AA0000548801DFFF73AFF064630120249887349
:101AB0000846C67370BD0000062E0020B00000204E
:101AC000B20000201580000870B5044600251448B7
:101AD00014490988018014490968C0F802100120DE
:101AE0000F49887111480078C871104841780C4836
:101AF00001721F200A49487208468472007A0A4619
:101B0000D27940EA0220401C81B20548801DFFF7CF
:101B100005FF054628120249C8720846057370BDC4
:101B20003A2E0020B0000020B200002024800008DF
:101B300010B5002413481449098801801349096825
:101B4000C0F8021001200F49887111480078C8714F
:101B50000F4841780B48017233200A494872084601
:101B6000007A0A46D27940EA0220401C81B2054838
:101B7000801DFFF7D3FE04462012024988720846F2
:101B8000C47210BD222E0020B0000020B200002040
:101B90001E80000838B50446002000900B480088DD
:101BA000322190FBF1F0C0B28DF800000748408868
:101BB00090FBF1F0C0B28DF801000548006820B13B
:101BC00002216846024A1268904738BD0C00002086
:101BD00010000020704770472DE9F04104460D4683
:101BE0001646002757492068884203D05649206886
:101BF000884205D15348001D006800F4702000E0C1
:101C0000002000287ED100BF94F82400012802D1D2
:101C10000220BDE8F081012084F8240000BF2046A6
:101C2000FEF7AEFC0746002F6DD1A06A40F60161B9
:101C3000884340F48070A06243492068884209D1FB
:101C40004048001D006800F4702008B9012002E03F
:101C5000002000E0012078B1A06A20F48010A0628A
:101C60002068406800F4806000B3A06A20F400504F
:101C700040F48050A06219E0A06A40F48010A06295
:101C800030492068884203D02F492068884205D116
:101C90002C48001D006800F4806000E0002028B19E
:101CA000A06A20F4005040F48050A062A06A00F4C2
:101CB000805020B1E06A20F00600E06201E00020E0
:101CC000E06200BF002084F8240000BF1F48216AA2
:101CD00088621F48216AC8621E48216A08636FF043
:101CE0000200216808602068806840F480702168E4
:101CF0008860226802F14C0133462A46206A00F0CF
:101D0000C5F901E01AE014E02068806800F4602062
:101D1000B0F5602F06D12068806840F4A0002168EB
:101D200088600CE02068806840F48010216888603A
:101D300005E000BF002084F8240000E001273846B9
:101D400067E7000000240140002801400105000869
:101D5000710500085305000870B503460C460020C5
:101D600002255D71002104E054F821501E683560A1
:101D7000491C9142F8D31D68286801255D7170BD2A
:101D80000146002291F82100022808D0042088632F
:101D900000BF002081F8200000BF012070470868C4
:101DA000006820F00E000B6818600868006820F0DA
:101DB00001000B68186091F8403001209840CB6B0F
:101DC0005860012081F8210000BF002081F8200028
:101DD00000BF1046E2E7000070B50446002594F805
:101DE0002100022803D00420A063012548E02068D8
:101DF000006820F00E00216808602068006820F06C
:101E00000100216808601F492068884201D1012033
:101E100026E01C4914312068884201D110201FE0BF
:101E2000184928312068884201D1801518E01549E9
:101E30003C312068884201D1801411E011495031B1
:101E40002068884202D14FF4803009E00D496431A6
:101E50002068884202D14FF4801001E04FF080707A
:101E6000084908394860012084F8210000BF00209B
:101E700084F8200000BF606B10B12046616B88477A
:101E8000284670BD0800024070B50446E06B056846
:101E90002068066894F840100420884028400028F4
:101EA00046D006F00400002842D02068006800F008
:101EB000200028B92068006820F00400216808602C
:101EC00057492068884201D1042027E05449143141
:101ED0002068884201D1402020E051492831206803
:101EE000884201D1001519E04D493C3120688842F3
:101EF00002D14FF4804011E04949503120688842B6
:101F000002D14FF4802009E04549643120688842BD
:101F100002D14FF4800001E04FF080604049083961
:101F20004860E06A00287AD02046E16A884776E077
:101F300094F84010022088402840A0B306F0020028
:101F400088B32068006800F0200040B9206800686D
:101F500020F00A0021680860012084F8210030493F
:101F60002068884201D1022028E02D4914312068E0
:101F7000884201D1202021E0294928312068884267
:101F800001D140151AE026493C312068884202D12F
:101F90004FF4005012E0224950312068884203D1AA
:101FA0004FF400300AE017E01D4964312068884290
:101FB00002D14FF4001001E04FF0007018490839C9
:101FC000486000BF002084F8200000BFA06A30B342
:101FD0002046A16A884722E094F8401008208840F3
:101FE0002840E0B106F00800C8B12068006820F081
:101FF0000E002168086094F8401001208840E16BD1
:1020000048600120A06384F8210000BF002084F80C
:10201000200000BF206B10B12046216B884770BDA7
:10202000080002400146002209B901207047164B02
:102030000868C01A1423B0FBF3F08000086412484B
:102040000838C863022081F821000868026843F656
:10205000F0708243D1E901031843CB6818430B6940
:1020600018434B6918438B691843CB6918430243E3
:102070000868026000208863012081F821000020A8
:1020800081F8200000BFD1E7080002402DE9F041AF
:1020900004460D4616461F464FF0000800BF94F850
:1020A0002000012802D10220BDE8F081012084F83F
:1020B000200000BF94F8210001282CD1022084F8D0
:1020C00021000020A0632068006820F00100216842
:1020D00008603B46324629462046FEF7D1FCE06ABE
:1020E00030B12068006840F00E00216808600BE005
:1020F0002068006820F004002168086020680068FB
:1021000040F00A00216808602068006840F0010083
:102110002168086006E000BF002084F8200000BFAE
:102120004FF002084046BFE738B50446022C6BD09A
:10213000102C71D0B4F5807F03D0B4F5007F30D17E
:1021400030E04FF480714B4800F040FA01280BD189
:102150004102484800F03AFA30B94748007818B9C7
:102160000120454908701CE04FF48071414800F09F
:102170002DFA98B94FF400713E4800F027FA012873
:102180000CD13D480078012808D100231A46194691
:1021900002F08CFA00203849087002E0002036492D
:1021A000087064E04FF40071324800F00FFA012823
:1021B0000BD101022F4800F009FA30B92F480078FE
:1021C00018B901202D4908701DE04FF4007129480D
:1021D00000F0FCF9A0B94FF48071264800F0F6F940
:1021E00001280DD125480078012809D100231A467D
:1021F0001946FF2002F05AFA00202049087002E038
:1022000000201E49087032E00223002211461046C9
:1022100002F04CFA2BE0FFE707224FF6FF71032094
:10222000FFF73CFB1648007A09301549C97940EAA6
:1022300001224FF47A731249124801F014FD012073
:1022400000901148006888B16A4608210E4800686D
:1022500004F042FF00BF009838B14FF080500B49A6
:102260000860BFF34F8FBFF36F8F00BF00BF00BF89
:1022700038BD0000000C0140FC000020FD000020E3
:10228000F52D0020940100200C01002004ED00E059
:1022900010B5044604480068204020B1024804609C
:1022A0002046FFF741FF10BD140401402DE9F84717
:1022B0000346002294466EE14FF0010808FA02F44A
:1022C000D1F8008008EA0400A0427DD1DFF8DCA24A
:1022D000D1F80480A8EB0A09D0453AD014DCB8F153
:1022E000030F50D009DCB8F1000F31D0B8F1010F65
:1022F0001CD0B8F1020F49D120E0B8F1110F18D06D
:10230000B8F1120F42D11EE0B9F5881F25D006DCC6
:10231000B9F5803F20D0B9F5801F37D11AE0B9F563
:10232000001F18D0B9F5041F30D117E0D1F80CC048
:102330002DE0D1F80C8008F1040C28E0D1F80C80D5
:1023400008F1080C23E0D1F80C8008F10C0C1EE019
:1023500000BF00BF00BF00BF00BF00BFD1F80880B2
:10236000B8F1000F02D14FF0040C0BE0D1F8088057
:10237000B8F1010F03D14FF0080C1C6102E04FF0DF
:10238000080C5C6103E04FF0000C00E000BF00BFF0
:10239000FF2801D8984601E003F104084646FF28CB
:1023A00002D84FEA820803E0A2F108084FEA880841
:1023B0004746D6F800804FF00F0909FA07F928EAD6
:1023C00009080CFA07F900E088E048EA0908C6F8AD
:1023D0000080D1F8048008F08058B8F1805F7DD18A
:1023E00000BFDFF8CC81D8F8188048F00108DFF88A
:1023F000C091C9F81880C846D8F8188008F00108BC
:10240000CDF8008000BF00BF4FEAB9384FEA92090B
:1024100058F829504FEA82784FEA18794FF00F08A0
:1024200008FA09F825EA0805DFF88881434502D152
:102430004FF0000816E0DFF88081434502D14FF0ED
:1024400001080FE0DFF87481434502D14FF0020824
:1024500008E0DFF86C81434502D14FF0030801E04A
:102460004FF004084FEA82794FEA197908FA09F81F
:1024700048EA0505DFF84C814FEA920948F82950EF
:10248000D1F8048008F48018B8F5801F0AD1DFF86D
:102490003881D8F8008048EA0008DFF82C91C9F8A4
:1024A000008009E0DFF82081D8F8008028EA0008E1
:1024B000DFF81491C9F80080D1F8048008F40018FE
:1024C000B8F5001F10D1DFF8008108F10408D8F832
:1024D000008048EA0008DFF8F09000E05AE009F1D7
:1024E0000409C9F800800DE0DFF8DC8008F1040879
:1024F000D8F8008028EA0008DFF8CC9009F1040938
:10250000C9F80080D1F8048008F40038B8F5003F1D
:102510000ED1DFF8B480A8F10408D8F8008048EAAA
:102520000008DFF8A490A9F10409C9F800800DE0C3
:10253000DFF89480A8F10408D8F8008028EA0008A1
:10254000DFF88490A9F10409C9F80080D1F804806B
:1025500008F48038B8F5803F0ED1DFF86C80A8F120
:102560000808D8F8008048EA0008DFF85C90A9F174
:102570000809C9F800800DE0DFF84C80A8F10808D0
:10258000D8F8008028EA0008DFF83C90A9F1080993
:10259000C9F80080521CD1F8008028FA02F8B8F17E
:1025A000000F7FF489AEBDE8F8870000000011102D
:1025B0000010024000080140000C014000100140E2
:1025C00000140140080001400804014002469368DD
:1025D0000B400BB1012000E0002070470AB10161FF
:1025E00001E00B0403617047014800687047000078
:1025F0001400002003480068034909780844014991
:1026000008607047140000201C00002010B5084826
:10261000006840F0100006490860032000F0A8F8A8
:102620000F2000F007F800F02BF8002010BD00008C
:102630000020024070B504460E4800784FF47A71CD
:10264000B1FBF0F00C490968B1FBF0F5284601F048
:1026500020F808B1012070BD102C07D200222146BD
:10266000501E00F047F80548046001E00120F2E741
:102670000020F0E71C0000202000002018000020AF
:1026800008B500BF1148806940F001000F4988611A
:102690000846806900F00100009000BF00BF00BF45
:1026A0000846C06940F08050C8610846C06900F023
:1026B0008050009000BF00BF00BF0549486820F06F
:1026C000E06040F00070486000BF08BD00100240AC
:1026D0000000014001460846002809DB00F01F0306
:1026E00001229A4043099B0003F1E023C3F8002133
:1026F00000BF70472DE9F05F80460D461646002763
:1027000002F088FD074639462A46334601F00700A5
:10271000C0F1070ABAF1040F02D94FF0040A01E030
:10272000C0F1070AD14600F1040ABAF1070F02D23C
:102730004FF0000A01E0A0F1030AD4464FF0010A6D
:102740000AFA09FAAAF1010A0AEA020A0AFA0CFAD2
:102750004FF0010B0BFA0CFBABF1010B0BEA030B77
:102760004AEA0B042146404602F05CFDBDE8F09FBA
:1027700000BF00F00702064B19684FF6FF0319402F
:10278000044B0B4343EA0221014B196000BF704721
:102790000CED00E00000FA0570B504460D460CB9DA
:1027A000012070BD5A48006800F00700A8420ED210
:1027B0005748006820F0070028435549086008463C
:1027C000006800F00700A84201D00120E9E7207866
:1027D00000F0020002281DD1207800F00400042837
:1027E00005D14C48406840F4E0604A494860207890
:1027F00000F00800082805D14648406840F46050C1
:10280000444948604348406820F0F000A16808430C
:1028100040494860207800F0010078B360680128E2
:1028200006D13C48006800F4003090B90120B8E7B8
:102830006068022806D13748006800F0007040B98F
:102840000120AEE73348006800F0020008B901201B
:10285000A7E73048406820F00300616808432D492D
:102860004860FFF7C1FE064609E0FFF7BDFE801B8A
:1028700041F28831884202D9032092E707E02548D7
:10288000406800F00C006168B0EB810FEDD120488A
:10289000006800F00700A8420ED91D48006820F02B
:1028A000070028431A4908600846006800F007003E
:1028B000A84201D0012074E7207800F00400042829
:1028C00007D11448406820F4E060E16808431149EA
:1028D0004860207800F00800082808D10D484068BA
:1028E00020F46050216940EAC1000A49486000F0C4
:1028F0003FF808494968C1F30311074A515CC840D1
:102900000649086006480068FFF794FE002048E783
:102910000020024000100240F67F00082000002046
:1029200018000020014800687047000020000020C7
:1029300000B5FFF7F7FF04494968C1F30221034AD4
:10294000515CC84000BD0000001002400680000835
:1029500000B5FFF7E7FF04494968C1F3C221034A04
:10296000515CC84000BD0000001002400680000815
:1029700070B500210022002400230020134D696857
:1029800001F00C05F5B1042D02D0082D19D101E09C
:102990000F4819E00F4DC1F38346AB5D01F480355C
:1029A00055B10A4D6D68C5F340450B4E725D084D3B
:1029B0005D43B5FBF2F402E0084D03FB05F420464D
:1029C00002E000BF064800BF00BF70BD001002401B
:1029D0000024F400E47F0008F47F000800093D00B3
:1029E00000127A00F8B504460CB90120F8BD207831
:1029F00000F00100002878D0F848406800F00C0092
:102A000004280CD0F548406800F00C00082811D1CB
:102A1000F248406800F48030B0F5803F0AD1EF48BA
:102A2000006800F4003000285FD0606800285CD1A6
:102A30000120DBE700BF6068B0F5803F06D1E748C2
:102A4000006840F48030E549086028E0606858B9C3
:102A5000E248006820F48030E049086008460068D9
:102A600020F4802008601AE06068B0F5A02F0BD138
:102A7000DA48006840F48020D849086008460068B9
:102A800040F4803008600AE0D448006820F48030C8
:102A9000D24908600846006820F48020086000BF22
:102AA000606888B1FFF7A0FD054606E0FFF79CFDD2
:102AB000401B642801D9032098E7C848006800F447
:102AC00000300028F2D010E0FFF78EFD054606E04A
:102AD000FFF78AFD401B642801D9032086E7BF4821
:102AE000006800F400300028F2D1207800F00200E5
:102AF000022857D1B948406800F00C0050B1B748DF
:102B0000406800F00C00082818D1B448406800F470
:102B1000803098B9B148006800F0020020B1206907
:102B2000012801D0012061E7AC48006820F0F800DE
:102B3000616940EAC100A949086033E02069E8B151
:102B40000120A7490860FFF74FFD054606E0FFF7A3
:102B50004BFD401B022801D9032047E79F4800682E
:102B600000F002000028F2D09C48006820F0F80035
:102B7000616940EAC1009949086013E00020984962
:102B80000860FFF731FD054606E0FFF72DFD401B0D
:102B9000022801D9032029E79048006800F00200CC
:102BA0000028F2D1207800F0080008282DD1A06973
:102BB000B8B101208B490860FFF716FD054606E015
:102BC000FFF712FD401B022801D903200EE78348BE
:102BD000406A00F002000028F2D0012001F052FD0E
:102BE00013E000207F490860FFF7FEFC054606E081
:102BF000FFF7FAFC401B022801D90320F6E67748CC
:102C0000406A00F002000028F2D1207800F00400B1
:102C1000042873D100277148C06900F0805070B952
:102C200000BF6E48C06940F080506C49C8610846DA
:102C3000C06900F08050009000BF00BF01276A48C3
:102C4000006800F48070B0B96748006840F4807094
:102C500065490860FFF7C8FC054606E0FFF7C4FCBD
:102C6000401B642801D90320C0E65F48006800F4D7
:102C700080700028F2D000BFE068012806D15748D4
:102C8000006A40F001005549086227E0E06858B941
:102C90005248006A20F00100504908620846006A64
:102CA00020F00400086219E0E06805280BD14B48C9
:102CB000006A40F00400494908620846006A40F092
:102CC000010008620AE04548006A20F0010043491B
:102CD00008620846006A20F00400086200BFE0684D
:102CE000A0B1FFF781FC054609E0FFF77DFC401B22
:102CF00041F28831884202D9032077E622E0374842
:102D0000006A00F002000028EFD012E0FFF76CFC30
:102D1000054608E0FFF768FC401B41F28831884215
:102D200001D9032062E62D48006A00F00200002865
:102D3000F0D1012F05D12948C06920F080502749E2
:102D4000C86100BFE069C8B32448406800F00C00C7
:102D5000082860D0E069022848D100202049086690
:102D6000FFF742FC054606E0FFF73EFC401B022849
:102D700001D903203AE61948006800F000700028E5
:102D8000F2D1206AB0F5803F07D11448406820F4A2
:102D90000030A168084311494860D4E9080108439C
:102DA0000E49496821F4741108430C494860012018
:102DB0000B490866FFF718FC054607E03DE0FFF702
:102DC00013FC401B022801D903200FE603480068CA
:102DD00000F000700028F2D02FE000000010024048
:102DE000000042428004424200700040002014492A
:102DF0000866FFF7F9FB054606E0FFF7F5FB401B09
:102E0000022801D90320F1E50E48006800F00070A7
:102E10000028F2D111E0E069012800D1E6E5094877
:102E2000466806F48031206A814204D106F47011AC
:102E3000606A814201D00120D8E50020D6E500007B
:102E40000000424200100240704710B504460CB921
:102E5000012010BD606A38B96068B0F5827F00D18A
:102E600005E00021E16102E00021216161610021B2
:102E7000A16294F8510028B9002084F8500020463F
:102E800000F042F8022084F851002068006820F029
:102E9000400021680860A08800F48270218901F454
:102EA00004410843A18901F400610843217C01F039
:102EB00002010843217D01F001010843218B01F447
:102EC00000710843217F01F0380108432021095D8A
:102ED00001F080010843218D01F40051084321686D
:102EE00008600421A06901EA104021684860206858
:102EF000C06920F400602168C8610020606501207D
:102F000084F851000020A4E710B58AB004460020E0
:102F100006900790089009904B49206888424DD14F
:102F200000BF4A48806940F004004849886108466B
:102F3000806900F00400019000BF00BFE020029013
:102F400002200390012004900320059002A940482C
:102F5000FFF7ACF93F484049086010204860002165
:102F60003D4881608021C160002101614161816132
:102F7000C161FFF757F808B1FDF716FE00BF3648EC
:102F8000A064446200BF334814383449086000200C
:102F900048600021314881608021C16000210161C9
:102FA00041618161C161FFF73DF808B1FDF7FCFDAA
:102FB00000BF2A48E064446200BF00BF284920687F
:102FC00088423FD100BF2148C06940F480401F497A
:102FD000C8610846C06900F48040059000BF00BF8A
:102FE00000BF0846806940F0080088610846806993
:102FF00000F00800059000BF00BF4FF4604006904D
:10300000022007900320099006A91648FFF74EF901
:1030100010482830144908601020486000211248E8
:1030200081608021C1600021016141618161C161D4
:10303000FEF7F8FF08B1FDF7B7FD00BF0A48A0642E
:10304000446200BF0AB010BD0030014000100240D1
:10305000000801403000024074300020B8300020E9
:1030600000380040000C0140303000202DE9F041D4
:1030700004460E461546002794F85100012801D059
:10308000022770E0A06870B96068B0F5827F0AD14D
:10309000042084F851002B4632463146204600F089
:1030A000ADF9BDE8F08100BF94F85000012801D1CE
:1030B0000220F6E7012084F8500000BF06B10DB9E8
:1030C000012750E0042084F8510000206065A663C9
:1030D000A587E58720646064A086E086A068B0F5D7
:1030E000004F0BD12068006820F040002168086084
:1030F0002068006820F48040216808601D48E16C69
:10310000C8621D48E16C88621C48E16C08630020BD
:10311000E16C4863E38FD4F800C00CF10C01A26BA2
:10312000E06CFEF7B3FF28B1606D40F01000606501
:10313000012718E02068006800F04000402805D012
:103140002068006840F040002168086020684068FE
:1031500040F02000216848602068406840F001008D
:103160002168486000BF00BF002084F8500000BF05
:10317000384696E7CD470008F7470008A5470008FE
:1031800010B5044605492068884205D180140449D9
:10319000086004A002F02EF810BD000000300140CD
:1031A000100C014073706920646D612072656320AA
:1031B0006F6B0D0A0000000070472DE9FF5F0446A9
:1031C000884691461D460E9E0120029000200190E7
:1031D00000BF94F85000012803D1022004B0BDE8DC
:1031E000F09F012084F8500000BFFFF7FDF907466B
:1031F00094F851B060680390AA46BBF1010F0BD060
:103200000398B0F5827F04D1A06810B9BBF1040F18
:1032100002D002200190E9E0B8F1000F03D0B9F12B
:10322000000F00D015B901200190DFE094F85100A3
:10323000042802D0052084F8510000206065C4F8FD
:103240003890E587A587C4F83080E586A586206498
:1032500060642068006800F04000402805D02068C5
:10326000006840F0400021680860E068B0F5006F39
:103270004DD1606810B1BAF1010F09D1206B0088FF
:103280002168C860206B801C2063E08E401EE086B1
:1032900036E02068806800F00200022810D1E08E3D
:1032A00070B1029801280BD1206B00882168C8609A
:1032B000206B801C2063E08E401EE0860020029080
:1032C0002068806800F0010068B1E08F58B1206884
:1032D000C068A16B0880A06B801CA063E08F401EBB
:1032E000E08701200290FFF77FF9C01BB04207D3AF
:1032F000701C28B103200190012084F8510075E072
:10330000E08E0028C5D1E08F0028C2D14DE0606872
:1033100010B1BAF1010F09D1206B00782168087350
:10332000206B401C2063E08E401EE08637E0206862
:10333000806800F00200022810D1E08E70B102987F
:1033400001280BD1206B007821680873206B401C8A
:103350002063E08E401EE086002002902068806896
:1033600000F0010068B1E08F58B12068C068A16B1F
:103370000870A06B401CA063E08F401EE087012016
:103380000290FFF731F9C01BB04201D3701C00B9A5
:103390002EB903200190012084F8510026E0E08E30
:1033A0000028C4D1E08F0028C1D13A4631462046DA
:1033B00001F00CFB20B1012001902020606515E098
:1033C000A06850B900BF002000902068C06800903D
:1033D00020688068009000BF00BF606D10B10120C0
:1033E000019002E0012084F8510000BF00BF0020DE
:1033F00084F8500000BF0198F0E600002DE9F04786
:1034000004460E4617461D464FF0000A00BF94F8CA
:103410005000012802D10220BDE8F087012084F885
:10342000500000BF94F85180D4F80490B8F1010F17
:103430000AD0B9F5827F04D1A06810B9B8F1040FA1
:1034400002D04FF0020A77E00EB107B115B94FF084
:10345000010A71E094F85100042802D0052084F894
:103460005100002060652663A586E586A763A587D1
:10347000E5872064606494F85100042806D132483E
:10348000E16CC8623148E16C886205E03048E16C6B
:10349000C8623048E16C88622F48E16C0863002004
:1034A000E16C4863E38FD4F800C00CF10C01A26B0F
:1034B000E06CFEF7EBFD30B1606D40F01000606530
:1034C0004FF0010A38E02068406840F001002168B0
:1034D00048600020A16CC862A16C8862A16C08637E
:1034E000A16C4863E38ED4F800C00CF10C02216B90
:1034F000A06CFEF7CBFD30B1606D40F01000606550
:103500004FF0010A18E02068006800F040004028F1
:1035100005D02068006840F04000216808602068FD
:10352000406840F02000216848602068406840F012
:1035300002002168486000BF00BF002084F85000EE
:1035400000BF504668E70000CD470008F747000875
:10355000E9470008EF480008A54700082DE9F041B9
:1035600004460E461546002700BF94F85000012877
:1035700002D10220BDE8F081012084F8500000BF94
:1035800094F85100012801D0022755E006B10DB989
:10359000012751E0032084F8510000206065266374
:1035A000A586E586A06360642064A087E087A068A4
:1035B000B0F5004F0BD12068006820F04000216872
:1035C00008602068006840F48040216808601E4858
:1035D000A16CC8621D48A16C88621D48A16C08637B
:1035E0000020A16C4863E38ED4F800C00CF10C02FB
:1035F000216BA06CFEF74AFD28B1606D40F0100011
:103600006065012718E02068006800F0400040284D
:1036100005D02068006840F04000216808602068FC
:10362000406840F02000216848602068406840F011
:1036300002002168486000BF00BF002084F85000ED
:1036400000BF384696E70000DB47000871480008D5
:10365000A5470008024A0168914200D100BF7047A7
:1036600000380040704770477047042808D14FF079
:10367000E021096941F004014FF0E022116107E007
:103680004FF0E021096921F004014FF0E0221161BF
:10369000704770B504462546681EB0F1807F01D39F
:1036A00001200FE0681E4FF0E02148610F214FF02C
:1036B000FF3001F0B7FD00204FF0E02188610720C6
:1036C0000861002070BD7047704700002DE9F84F79
:1036D0000446206805682068C668206847694FF07E
:1036E0000009CA4605F00F09B9F1000F0AD105F02B
:1036F000200038B106F0200020B1204601F018FB70
:10370000BDE8F88FB9F1000F7BD007F0010018B9C0
:1037100006F49070002874D005F0010030B106F472
:10372000807018B1606C40F00100606405F0040026
:1037300030B107F0010018B1606C40F00200606425
:1037400005F0020030B107F0010018B1606C40F0E4
:103750000400606405F0080048B106F0200010B9CC
:1037600007F0010018B1606C40F008006064606C04
:10377000002845D005F0200028B106F0200010B147
:10378000204601F0D5FA20684069C0F3801A606CC9
:1037900000F0080010B9BAF1000F2CD0204601F05B
:1037A00081FA2068406900F0400000B300BF00BF0C
:1037B0002168143151E8001F21F0400021681431C4
:1037C00041E80002002AF3D100BFE06B50B1774816
:1037D000E16B4863E06BFEF7FFFA88B1E06B416B89
:1037E00088470DE02046FFF76FFF09E009E020461B
:1037F000FFF76AFF04E02046FFF766FF00206064E1
:103800007EE7206B012877D105F01000002873D0E7
:1038100006F010000028FAD000BF002000902068B9
:103820000068009020684068009000BF00BF2068DA
:10383000406900F0400000285FD0E06B00684068FD
:103840001FFA80F8B8F1000F55D0A08D404552DD29
:10385000A4F82E80E06B8069202843D000BF00BF11
:1038600021680C3151E8001F21F4807021680C316F
:1038700041E80002002AF3D100BF00BF00BF216869
:10388000143151E8001F21F001002168143141E892
:103890000002002AF3D100BF00BF00BF216814312D
:1038A00051E8001F21F040002168143141E8000276
:1038B000002AF3D100BF202084F8420000202063BA
:1038C00000BF00BF21680C3151E8001F21F010003B
:1038D00021680C3141E80002002AF3D100BFE06BFF
:1038E000FEF74EFA02206063A08DE28D801A81B24D
:1038F0002046FFF7E8FE03E742E0A08DE18D401A85
:103900001FFA80F8E08DD0B3B8F1000F37D000BFB8
:1039100000BF21680C3151E8001F21F4907021682C
:103920000C3141E80002002AF3D100BF00BF00BF04
:103930002168143151E8001F21F001002168143181
:1039400041E80002002AF3D100BF202084F84200A1
:103950000020206300BF00BF21680C3151E8001F28
:1039600021F0100021680C3141E80002002AF3D157
:1039700000BF0220606341462046FFF7A4FEBFE679
:1039800005F0800030B106F0800018B1204601F04B
:10399000CBFAB5E605F0400030B106F0400018B1B2
:1039A000204601F0B5F9ABE600BFA9E6914C00084E
:1039B00010B504460CB9012010BDA06900B100E0AB
:1039C00000BF94F8410028B9002084F84000204648
:1039D00000F02AF8242084F841002068C06820F410
:1039E00000502168C860204601F020FA2068006974
:1039F00020F49040216808612068406920F02A0086
:103A0000216848612068C06840F400502168C8609F
:103A100000206064202084F8410084F842000020E7
:103A2000606300BFC8E7000010B586B00446002000
:103A3000029003900490059055492068884237D140
:103A400000BF5448806940F480405249886108466C
:103A5000806900F48040019000BF00BF00BF0846AD
:103A6000806940F0040088610846806900F0040025
:103A7000019000BF00BF4815029002200390032070
:103A8000059002A94448FEF711FC4FF480600290B3
:103A900000200390049002A93F48FEF707FC002293
:103AA00006212520FEF726FE2520FEF713FE6DE0F9
:103AB0003A492068884236D100BF3648C06940F490
:103AC00000303449C8610846C06900F400300190F4
:103AD00000BF00BF00BF0846806940F00400886155
:103AE0000846806900F00400019000BF00BF042078
:103AF0000290022003900320059002A92648FEF7B9
:103B0000D5FB0820029000200390049002A92248CF
:103B1000FEF7CCFB002206212620FEF7EBFD262037
:103B2000FEF7D8FD32E01E49206888422ED100BF42
:103B30001848C06940F480201649C8610846C06929
:103B400000F48020019000BF00BF00BF08468069DC
:103B500040F0080088610846806900F00800019084
:103B600000BF00BF081502900220039003200590BB
:103B700002A90C48FEF79AFB4FF400600290002067
:103B80000390049002A90748FEF790FB06B010BD11
:103B9000003801400010024000080140004400408D
:103BA00000480040000C01402DE9F84F04460E4645
:103BB000174699464FF0000A94F8420020284FD14A
:103BC00006B117B90120BDE8F88F002060642220FB
:103BD00084F8420000202063FEF706FD8246A78598
:103BE000E785A068B0F5805F04D1206910B9002591
:103BF000B04602E035464FF0000829E05346002267
:103C000020212046CDF8009001F0BEF908B1032034
:103C1000D9E745B920684068C0F30800A8F800005B
:103C200008F1020811E0A068B0F5805F03D0A06839
:103C300028B9206918B920684068287004E0206815
:103C4000406800F07F0028706D1CE08D401EE0850C
:103C5000E08D0028D2D1202084F842000020B2E775
:103C60000220B0E770472DE9F84F04460E4617468C
:103C700099464FF0000A94F8410020284AD106B135
:103C800017B90120BDE8F88F00206064212084F876
:103C90004100FEF7A9FC8246A784E784A068B0F53E
:103CA000805F04D1206910B90025B04602E0354696
:103CB0004FF000081BE05346002280212046CDF83B
:103CC000009001F061F908B10320DBE745B9B8F8CD
:103CD0000000C0F308002168486008F1020803E012
:103CE0002878216848606D1CE08C401EE084E08CE0
:103CF0000028E0D15346002240212046CDF8009014
:103D000001F042F908B10320BCE7202084F841000B
:103D10000020B7E70220B5E7704700002DE9FE4F0D
:103D2000FA488079801CC1B2F848401D00F0C8FAFA
:103D3000C4B2F6484079FE2871D1002CFCD1F3487A
:103D4000C0790F286CD008DC01280DD00B2822D0B8
:103D50000C2843D00D287CD163E0102805D0112811
:103D600078D01228F7D144E25BE20020FDF7ACFEE8
:103D7000E748007A0930E649C97940EA01224FF460
:103D80007A73E349E348FFF76EFF0121E2480068D8
:103D900003F02EF945E2DD48C17A807A41EA002538
:103DA000DA48067B817B407B41EA00273A46314670
:103DB0002846FDF733FDD948007A0930D749C9793B
:103DC00040EA01224FF47A73D449D248FFF74BFFFF
:103DD0000221D148006803F00BF922E2CB48C17AF6
:103DE000807A41EA0025C948417B007B41EA0026F0
:103DF00031462846FDF72CFEC948007A0930C849EB
:103E0000C97940EA01224FF47A73C549C148FFF7E6
:103E10002AFF0421C048006803F0EAF801E201E249
:103E20001CE0BA48857AC67A077B90F80D80434635
:103E30003A4631462846FDF77FFDBA48007A0930F8
:103E4000B849C97940EA01224FF47A73B549B148BB
:103E500001E0E5E124E0FFF706FFE2E1AB48857A07
:103E6000C67A077B90F80D8090F80E9090F80FA01E
:103E700090F810B043463A46314628468DE8000E89
:103E8000FDF79AFDA848007A0930A749C97940EAA8
:103E900001224FF47A73A4499E48FFF7E4FEC0E183
:103EA0009A48417A007A41EA0020A0490880974860
:103EB000807A00286CD108460088012807D19348F1
:103EC000C07A9B4908709148007B9A4908709748CE
:103ED000008800285CD18D48C07A954909788842CD
:103EE00056D100200290944908709248007848709A
:103EF0000020887000BF08E0C11D844A521D525C3A
:103F0000C11C8D4B5A54411CC8B28A490978884259
:103F1000F2DB88480078C01CC1B28748FCF770FD0E
:103F2000029086A0029901F065F98148007800EBC3
:103F3000C00202EB00104FF4801202EB80017D48BA
:103F40000278D21C7C48FDF70DFC0A2002F02CFC04
:103F50007748007800EBC00202EB00104FF48012AB
:103F600002EB8000734A12781044C11C042202A89C
:103F7000FDF7F8FB00206E4908706E49087074491F
:103F800008706A49088064216B48FCF740F900BF5B
:103F90005E48807A012869D164480088012807D1E9
:103FA0005A48C07A624908705848007B61490870D5
:103FB0005E480088002859D15448C07A5C49097885
:103FC000884253D10020029001205B490870594873
:103FD000007848700020887000BF08E0C11D4B4A7F
:103FE000521D525CC11C544B5A54411CC8B2514919
:103FF00009788842F2DB4F480078C01CC1B24E48B5
:10400000FCF7FEFC02904A48007800EBC00202EB8D
:1040100000104FF4801202EB800146480278D21C57
:104020004548FDF79FFB0A2002F0BEFB40480078A0
:1040300000EBC00202EB00104FF4801202EB800094
:104040003C4A12781044C11C042202A8FDF78AFBE6
:10405000002037490870374908703D4908703349D6
:10406000088064213448FCF7D2F800BF2748807AE2
:1040700002286FD12D48008802280BD12348C07A2E
:104080002B4908702148007B2A4908701F48407B53
:104090002F4908702548008801281CD11B48C07A88
:1040A00023490978884216D1022023490870214803
:1040B000007848700020887000BF08E0C11D134AD6
:1040C000521D525CC11C1C4B5A54411CC8B21949A8
:1040D00009788842F2DB1548008800283AD10B485D
:1040E000C07A1349097888427FD100BF002002902E
:1040F00017480178104A0F480078C01C115400215D
:104100000C480078001D115400202FE020420020B0
:104110003A2E0020940100200C010020E42D002004
:10412000062E0020092F0020192F00201C0100203E
:10413000200100201E010020674200206372635F9F
:1041400076616C7565203D2025640D0A0000000035
:104150001F01002049E0C11D354A525C35490978EC
:10416000091D0144344B5A54411CC8B233490978E3
:104170008842F0DB2F480078304A12781044001D46
:10418000C1B22D48FCF73CFC02902DA0029901F031
:1041900031F828480078294B1B781844421D2D48D7
:1041A000007800EBC00303EB00104FF4801303EB27
:1041B00080012148FDF7D6FA0A2002F0F5FA2548D9
:1041C000007800EBC00202EB00104FF4801202EB0B
:1041D0008000184A12781044184A12781044411D81
:1041E000042202A8FDF7BEFA00BF1148401F807AE2
:1041F00017E00F48401F857AC67A077B90F80D803C
:10420000280640EA064040EA072040EA08000290FB
:1042100000231A4602A91048006803F0DFF800E006
:1042200000BF03E04FF0FF30BDE8FE8F0020FBE74A
:10423000254200201E010020674200201F010020AF
:1042400073746F726520637263203D2025780D0AB8
:1042500000000000200100202801002000BFFEE730
:1042600038B504460D46012000900C48006890B116
:1042700000236A4621460948006803F099F900BF07
:10428000009838B14FF0805005490860BFF34F8F58
:10429000BFF36F8F00BF002038BD00003401002045
:1042A00004ED00E0044800210160416081600348A2
:1042B000014908607047000014420020204200209D
:1042C00010B502460023002004E0145C1C44E3B255
:1042D000441CE0B28842F8DB505C984201D10020D7
:1042E00010BD4FF0FF30FBE710B51248C07806282C
:1042F00015D006DC062819D2DFE800F0180C0D0EE8
:104300000F1008280FD009280ED00A280DD08728B2
:104310000CD105E00BE00AE009E008E007E006E068
:10432000FFF7FCFC03E002E001E000E000BF00BF9B
:1043300010BD00002042002038B504460D46012083
:1043400000900C48006890B100236A462146094855
:10435000006803F02DF900BF009838B14FF080508D
:1043600005490860BFF34F8FBFF36F8F00BF002078
:1043700038BD00001801002004ED00E070B50446CF
:104380004948407998B9572C0ED1012046494871C7
:1043900008460068047008460068401C086008462B
:1043A0000079401C08717CE0FFF77CFF79E03E4813
:1043B000807998B9AB2C0ED101203B498871084611
:1043C0000068047008460068401C086008460079D0
:1043D000401C087165E0FFF765FF62E03248C07974
:1043E00090B974B901203049C8710846006804705A
:1043F00008460068401C086008460079401C0871A7
:104400004FE0FFF74FFF4CE02748007905280CDA12
:1044100025480068047024480068401C2249086050
:1044200008460079401C087113E01F4800790528F0
:104430000FD101201C4908721C48007948810846A8
:104440000079401C087108464089402801DDFFF7CB
:1044500029FF1548007A012823D11348408960B10B
:1044600011484089401E1049488108460068047080
:1044700008460068401C086013E00B4800680470A0
:104480000A480079401DC1B20848FFF719FF0546E8
:1044900025B9FFF729FFFFF705FF01E0FFF702FF4E
:1044A00000BF002070BD0000144200202042002008
:1044B0000146704708B500BF1248406940F001004E
:1044C000104948610846406900F00100009000BFB3
:1044D00000BF002206210C20FEF70CF90C20FEF78D
:1044E000F9F8002206210D20FEF704F90D20FEF751
:1044F000F1F8002206210F20FEF7FCF80F20FEF74E
:10450000E9F808BD0010024008B500BF0D488069F9
:1045100040F020000B4988610846806900F02000C7
:10452000009000BF00BF00BF0846806940F0040053
:1045300088610846806900F00400009000BF00BF59
:1045400008BD00000010024010B51448144908606E
:104550004FF4827048604FF400411148816000219F
:10456000C16002210161012141614902816108218B
:10457000C16100210162416281620A21C162FEF7CC
:1045800064FC08B1FCF710FB05480068006840F0C7
:10459000400003490968086010BD00000038004071
:1045A000D82F002010B50F480F4908604FF416505F
:1045B000486000210C488160C16001610C214161AB
:1045C00000218161C161FFF7F3F908B1FCF7ECFA52
:1045D00005480068C06840F0200003490968C860C9
:1045E00010BD0000003801404C01002010B50F48FC
:1045F0000F4908604FF46140486000210C48816019
:10460000C16001610C21416100218161C161FFF73D
:10461000CFF908B1FCF7C8FA05480068C06840F057
:10462000200003490968C86010BD00000044004034
:104630009401002010B50F480F4908604FF4E13095
:10464000486000210C488160C16001610C2141611A
:1046500000218161C161FFF7ABF908B1FCF7A4FA51
:1046600005480068C06840F0200003490968C86038
:1046700010BD000000480040DC01002000BFFEE744
:1046800000BFFEE708B508490968C9084FF47A7207
:10469000B1FBF2F14143009100BF00BF00994A1EF7
:1046A00000920029F9D108BD200000202DE9F04139
:1046B00004460D4616461F4605201049C87008716D
:1046C0000120487108468771C571067244720079ED
:1046D000401DC1B20948FBF79DFF08490A79491DF1
:1046E0008854481F0079821D4FF47A73491F04488B
:1046F000FFF7B9FA0020BDE8F08100002D2F00205F
:104700004C01002001460248016000207047000073
:1047100010000020014602480160002070470000A0
:10472000040000200146024801600020704700009C
:104730000800002008B500BF1748806940F4805089
:10474000154988610846806900F48050009000BFD8
:1047500000BF1248124908604FF48270486000217F
:104760000F488160C160022101610121416149025C
:1047700081611021C16100210162416281620721D2
:10478000C162FEF762FB06480068006840F0400026
:1047900003490968086008BD00100240003001406C
:1047A000FC30002070B505466C6A2068406820F037
:1047B000030021684860606D40F0100060650120D2
:1047C00084F851002046FEF73FFB70BD70B50446EB
:1047D000656A2846FEF7F0FC70BD70B50446656A50
:1047E0002846FEF73FFF70BD70B50446656A28464F
:1047F000FEF73AFF70BD70B505466C6AFDF7F4FE32
:1048000006462868006800F0200020282BD0206889
:10481000406820F0200021684860A06850B96068B6
:10482000B0F5827F06D12068406820F0030021683F
:10483000486005E02068406820F001002168486079
:1048400032466421204600F085F808B120206065DA
:104850000020E087012084F85100606D18B12046E7
:10486000FEF7F2FA70BD2046FEF78AFC00BFF9E7BA
:10487000F8B505466C6AFDF7B7FE0646286800687D
:1048800000F0200020282DD02068406820F0200073
:10489000216848602068406820F002002168486074
:1048A00032466421204600F091F818B1606D40F066
:1048B00020006065A06850B900BF0020009020680B
:1048C000C068009020688068009000BF00BF002092
:1048D000E086012084F85100606D18B12046FEF793
:1048E000B3FAF8BD2046FEF7B5FE00BFF9E770B594
:1048F00005466C6AFDF778FE06462868006800F0F9
:104900002000202821D02068406820F02000216865
:10491000486032466421204600F058F818B1606DB6
:1049200040F0200060652068406820F003002168A6
:1049300048600020E086E087012084F85100606D27
:1049400018B12046FEF780FA70BD2046FEF78BFEB8
:1049500000BFF9E7F8B504460E4615466068B0F5A5
:10496000827F0DD1A068B0F5004F03D0A068B0F5EC
:10497000806F05D12068006820F040002168086041
:104980006068B0F5827F11D1A068B0F5806F0DD15D
:104990003346002201212046009500F02BF898B103
:1049A000606D40F0200060650320F8BD33460022B2
:1049B00080212046009500F01DF828B1606D40F080
:1049C000200060650320F0E70020EEE7F8B504461C
:1049D0000D4616462B46002280212046009600F008
:1049E00009F828B1606D40F0200060650320F8BD33
:1049F0000020FCE72DE9F84F04460D4690461E4680
:104A0000DDF82890FDF7F0FDA0EB0900371AFDF75F
:104A1000EBFD82462C480068C0F3CB307843009011
:104A200045E0701C002842D0FDF7DEFDA0EB0A0037
:104A3000B84200D2A7BB2068406820F0E00021689F
:104A400048606068B0F5827F0DD1A068B0F5004F76
:104A500003D0A068B0F5806F05D12068006820F011
:104A6000400021680860A06AB0F5005F0DD100BF6A
:104A70002068006820F40050216808602068006801
:104A800040F400502168086000BF012084F8510004
:104A900000BF002084F8500000BF0320BDE8F88F5D
:104AA000FFE7009800B900270098401E009020689A
:104AB00080682840A84201D1012000E00020404544
:104AC000AFD10020EAE700002000002070B50546C5
:104AD0000C46412C02DD4FF0FF3070BD062010491E
:104AE000C8700846047122462946401DFBF776FB34
:104AF0000B480079401DC1B20948FBF78BFD0849FE
:104B00000A79491D8854481F007900F109024FF4C1
:104B10007A73491F0348FFF7A6F80020DDE700007D
:104B20002D2F00204C01002010B5FDF763FD02F091
:104B30001FFF012801D002F081FB10BD00B58FB02E
:104B4000282105A8FBF763FB14216846FBF75FFBF0
:104B50000120059000040690400007900120099074
:104B600002200C90C1030D914FF4E0110E9105A8A5
:104B7000FDF738FF08B1FCF717F80F20009002206E
:104B80000190002002904FF4806003900020049078
:104B900002216846FDF700FE08B1FCF705F80FB0EA
:104BA00000BD704710B501F055FC00F009F800F0A9
:104BB0003DF800F055F800F01FF801F08FFC10BD33
:104BC0001CB5064803210023C822CDE9001004A12A
:104BD000084802F09DFE00201CBD000000010020DE
:104BE00046696E67657244617461436F6E74726F7B
:104BF0006C0000001D6800081CB506480821002351
:104C00006422CDE9001004A1074802F081FE0020D3
:104C10001CBD0000300100204A6F79537469636B3A
:104C20005461736B00000000BD6800081CB50648A5
:104C300005210023C822CDE9001004A1074802F095
:104C400067FE00201CBD0000140100204B65794464
:104C5000617461436F6E74726F6C0000C16900080B
:104C60001CB5064807210023C822CDE9001004A185
:104C7000064802F04DFE00201CBD0000240100206B
:104C800052474250726F636573730000216B0008D6
:104C900070B505466C6A0020E085E0842046FEF78A
:104CA00013FD70BD00BF00BF02680C3252E8002F38
:104CB00022F4907102680C3242E80013002BF3D109
:104CC00000BF00BF00BF0268143252E8002F22F07C
:104CD00001010268143242E80013002BF3D100BF37
:104CE000016B01290ED100BF00BF02680C3252E8EF
:104CF000002F22F0100102680C3242E80013002B52
:104D0000F3D100BF202180F84210002101637047D9
:104D100010B504462068C06820F040002168C860D3
:104D2000202084F841002046FEF7F6FF002010BD49
:104D3000F8B5044694F84200222875D1A068B0F571
:104D4000805F0CD1206950B90025A66A20684068B0
:104D5000C0F308003080A06A801CA06215E0A56A3C
:104D60000026A068B0F5805F03D0A06828B920694C
:104D700018B920684068287004E02068406800F096
:104D80007F002870A06A401CA062E08D401E80B2A7
:104D9000E085002846D12068C06820F02000216806
:104DA000C8602068C06820F480702168C8602068EE
:104DB000406920F0010021684861202084F8420009
:104DC00000206063206B012826D10020206300BFF3
:104DD00000BF21680C3151E8001F21F0100021684C
:104DE0000C3141E80002002AF3D100BF20680068BE
:104DF00000F0100010280AD100BF002000902068A9
:104E00000068009020684068009000BF00BFA18D3E
:104E10002046FEF758FC02E02046FEF723FF002064
:104E2000F8BD01E00020FBE70220F9E770B5044679
:104E30002168096921F44051E26811432268116137
:104E40002269A1681143626941EA02052168C968C3
:104E500041F20C62914329432268D160216849697B
:104E600021F44071A2691143226851612D4A2168E1
:104E7000914202D1FDF76CFD01E0FDF759FD00EB19
:104E8000C00101EB001162689200B1FBF2F100EB8E
:104E9000C00202EB001263689B00B2FBF3F26423D2
:104EA000B2FBF3F202EBC20303EB0212A1EB8201AD
:104EB000322202EB01116422B1FBF2F101F0F001A8
:104EC00000EBC00202EB001263689B00B2FBF3F23E
:104ED0006423B2FBF3F201EB021200EBC00101EB21
:104EE000001163689B00B1FBF3F100EBC00303EB1F
:104EF00000136668B600B3FBF6F36426B3FBF6F363
:104F000003EBC30606EB0313A1EB8301322303EB90
:104F100001116423B1FBF3F101F00F011144226888
:104F2000916070BD00380140014691F84100212890
:104F300028D18868B0F5805F0BD1086948B90A6A42
:104F40001088C0F308000B685860086A801C08626B
:104F500005E00B6A581C086218780B685860C88C0A
:104F6000401E80B2C88458B90868C06820F080002C
:104F70000B68D8600868C06840F040000B68D860D3
:104F8000002070470220FCE72DE9F04104460D4661
:104F900017469846069E34E0701C88B32EB1FDF784
:104FA00023FBA0EB0800B0422BD900BF00BF216853
:104FB0000C3151E8001F21F4D07021680C3141E818
:104FC0000002002AF3D100BF00BF00BF21681431E6
:104FD00051E8001F21F001002168143141E800026E
:104FE000002AF3D100BF202084F8410084F8420059
:104FF00000BF002084F8400000BF0320BDE8F0811E
:10500000FFE7206800682840A84201D1012000E0A5
:105010000020B842C0D00020F0E7000008B5002012
:1050200000900D48FEF752FB0023012269460A4812
:10503000FEF7BAFD0948006820B101216846074A19
:105040001268904704480068C06840F02000024998
:105050000968C86008BD00004C0100200400002061
:1050600008B5002000900D48FEF730FB0023012218
:1050700069460A48FEF798FD0948006820B10121F9
:105080006846074A1268904704480068C06840F0C4
:10509000200002490968C86008BD00009401002092
:1050A0000800002000BFFEE72DE9F04106460F464C
:1050B00014464FF4907841462046FBF7A8F80025A7
:1050C00008E005EB450204EB021156F8250000F05C
:1050D0000DF86D1CBD42F4D34FF490722146024886
:1050E000FEF73CFABDE8F081D82F00202DE9FE4FF5
:1050F00007460D464FF6F87001904FF4604000905F
:10510000C7F30749C7F3072A07F0FF0B4FEA0A4026
:1051100040EA092040EA0B0002901E212846FBF7D6
:1051200076F80024002080465FE0C8F1170102985D
:10513000C84000F0010050B3002625E0C6F10F0181
:105140004FF6F870084100F0010068B105EBD4009B
:10515000007804F00701C1F10702012191400843E2
:1051600005EBD40108700CE005EBD400007804F0E6
:105170000701C1F1070200219140084305EBD4016A
:105180000870641C701CC6B2102ED7DB29E0002604
:1051900025E0C6F10F014FF46040084100F0010026
:1051A00068B105EBD400007804F00701C1F10702F3
:1051B00001219140084305EBD40108700CE005EB98
:1051C000D400007804F00701C1F1070200219140EA
:1051D000084305EBD4010870641C701CC6B2102E85
:1051E000D7DB08F10100C0B28046B8F1180F9CDB94
:1051F000BDE8FE8F0FB4054B10B503A9044A029811
:1052000000F034F810BC5DF814FB0000DD55000818
:105210000000002002480068C0F302207047000030
:105220000CED00E010B5002804DB0A07130E054A58
:10523000135406E00A07140E034A00F00F031B1F65
:10524000D45410BD00E400E018ED00E002E008C80E
:10525000121F08C1002AFAD170477047002001E0F0
:1052600001C1121F002AFBD1704700002DE9FF4F3A
:105270008DB09B460F460446002606E025280BD03D
:105280005A460F999047641C761C20780028F5D167
:1052900011B03046BDE8F08F0025A846012298499C
:1052A00000E0054314F8013F203B02FA03F00842F6
:1052B000F7D120782E2817D114F8010F45F00405F6
:1052C0002A280ED06FF02F022078A0F13001092992
:1052D0000AD808EB880102EB410100EB0108641CCD
:1052E000F2E757F8048B641C20786C280DD004DC9E
:1052F0004C2812D06A2811D104E074280DD07A28E5
:105300000CD10AE045F4001507E0617845F48015FA
:10531000814202D1641C05F58015641C2278692A3B
:1053200045D008DC002AB3D0582A69D0632A10D0AF
:10533000642A08D13BE0702A67D0732A13D0752AFB
:105340005CD0782A5CD010465A460F999047761C5C
:10535000D3E017F8040B8DF8000000208DF8010051
:10536000E946012003E057F8049B4FF0FF3069073E
:105370004FF0000501D40AE06D1C45450DDA854269
:10538000FADB19F805100029F6D106E06D1C8542FC
:10539000FCDB19F805100029F8D12E4404E019F8B7
:1053A000010B5A460F9990476D1EF8D2A5E00A20CE
:1053B0000021CDE90801C5F3025002280DD001CF2C
:1053C000C117031E71F100030DDA4FF0000CD0EB92
:1053D0000C006CEB01012D2308E0FF1D27F00707EF
:1053E000F7E80201EDE72B0504D52B238DF82830D3
:1053F00001233BE0EB0739D02023F7E70A2000E048
:1054000010200021CDE9080107E01020002145F01F
:105410000405CDE908014FF00808C5F30250022841
:105420000FD001CF00214FF0000A2B071FD5702AA3
:105430000DD0DDE908C38CF0100C5CEA030C0CD035
:1054400015E0FF1D27F00707F7E80201EBE7402210
:105450008DF828204FF0010A0BE050EA010306D036
:1054600030238DF828308DF8292002239A46582AB7
:1054700004D024A20DF120090B9209E026A2F9E73D
:10548000DDE90823FAF788FF0B9B9B5C09F8013DD7
:1054900050EA0102F4D1ADEB090020300890680712
:1054A00001D44FF001080899884502DDA8EB0100FE
:1054B00000E000208046002506E00AA85A46405D2C
:1054C0000F9990476D1C761C5545F6DB04E03020A3
:1054D0005A460F999047761CB8F10001A8F10108CF
:1054E000F5DC05E019F8010B5A460F999047761C38
:1054F0000899481E08900029F4DC641CC5E60000E9
:105500000928010030313233343536373839616299
:10551000636465660000000030313233343536375D
:1055200038394142434445460000000070B5044606
:1055300000204FF0E0210861FEF797F8E11704EB37
:105540005171C1F3CF010C4A1180E11704EB517185
:10555000CD104FF47A7045434FF0E020006940F0E1
:1055600002004FF0E021086108464561006940F003
:105570000100086170BD0000A400002030B50446A1
:10558000002504E04FF47A7000F004F86D1CA54289
:10559000F8D330BD70B5034600224FF0E0267569A0
:1055A0000D4E368803FB06F44FF0E026B16910E09B
:1055B0004FF0E026B06988420BD0884202D20E1A22
:1055C000324402E02E1A0E4432440146A24200D375
:1055D00000E0EDE700BF70BDA400002000BF054A59
:1055E000126802F04002002AF9D0C2B2014B1B1D22
:1055F0001A607047004800400025FDF707F8FFF7E4
:105600009DFAFEF781FFFEF7CDFFFEF7EFFFFFF7F4
:1056100011F8FEF74FFFFBF77DFFFEF795FF4820DF
:10562000FFF784FFFBF7C4FAFBF7B6F84FF47A7084
:10563000FFF7A4FFFBF73CFA1CA0FFF7DBFDFBF72D
:10564000DDFF05460DE01DA0FFF7D4FD4FF4FA7015
:10565000FFF794FF1EA0FFF7CDFD4FF4FA70FFF7A0
:105660008DFF002DEFD04FF6FF708542EBD0142256
:105670001C491D48FBF772FF002406E01A48015D33
:105680001AA0FFF7B7FD601CC4B2142CF6DB1A4851
:10569000FFF740F81948FFF745F81948FFF732F8C7
:1056A000FFF780FA01F0A6FB00BFFEE768656C6CAF
:1056B0006F2066696E6765720D0A0000464C4153A3
:1056C0004820436865636B204661696C656421000E
:1056D000506C6561736520436865636B21202020F1
:1056E00020202000C800100038010020646174618F
:1056F000203A2025640D0A0039430008D51200081D
:10570000614200082DE9F04105460E462948076828
:1057100000202949096881F8590027480068001DC0
:1057200000F052FE50B92448006890F82C10012077
:10573000884022490968814320480160681CD8B923
:10574000D6B11F4948681C49096888601A498268AF
:105750000968CA6018490968091D826851601649BC
:105760000968091D8160164A134909684A61114692
:105770000968491C11601AE07C190F4800684460F0
:10578000BC4207D20C480168091D0E48006800F0B1
:1057900047FE0CE008480168091D0B48006800F04E
:1057A0003FFE0A480068844201D208480460BDE810
:1057B000F081000038000020240000203C00002080
:1057C000A80500202C000020280000205400002004
:1057D00010B5044600F03EFE31480068401C3049D8
:1057E00008603048006840B92E48046008460068E8
:1057F00001280DD100F00EFA0AE02B48006838B9F4
:1058000028480068C06AE16A884201D825480460D7
:1058100026480068401C2549086008460068606406
:1058200094F82C1001208840214909680843204938
:105830000860E16A01EB81011E4A02EB81014868C0
:10584000A0608268E260211D826851608160E16A27
:1058500001EB8101174A02EB81026261E16A01EB0F
:105860008101144A52F82110491CE26A02EB8202BB
:10587000104B43F8221000F031FE0B48006868B16D
:1058800008480068C06AE16A884207D24FF0805039
:1058900009490860BFF34F8FBFF36F8F10BD000041
:1058A0003400002024000020400000205000002090
:1058B0003C000020D802002004ED00E010B500F00C
:1058C000C9FD10480068D0B90F4800F099FD0F4895
:1058D00000F096FD0C480E4908600C480D49086020
:1058E00000221021052001F0C3FC0649086008468B
:1058F000006820B108A10348006800F0F1FE00F044
:10590000EDFD10BD6C000020BC050020D00500207E
:105910006400002068000020546D725100000000F7
:1059200010B516E000F096FD0C48C068C468201D54
:1059300000F04AFD0A480068401E0949086009480D
:105940000068401E0749086000F0C8FD204600F0CE
:105950005FF8044800680028E4D110BD94050020D9
:10596000340000203000002070B504460D46206C45
:1059700070B1216CE0680144E160D4E90210884212
:1059800001D32168E1602846226CE168FAF726FC21
:1059900070BD2DE9F04104460F4615464FF0000852
:1059A000A66B206C48B9206800282CD1A06802F0B2
:1059B000DFF880460020A06025E07DB93946226CE2
:1059C0006068FAF70BFC216C606808446060D4E9F9
:1059D0000101884217D32068606014E03946226CC8
:1059E000E068FAF7FBFB216CE068411AE16021688E
:1059F000E068884203D2216CA068411AE160022D60
:105A000001D106B1761E701CA0634046BDE8F0814E
:105A100010B50446206B00F099FD204600F096FD7D
:105A200010BD00000146084A126812680AB9012236
:105A300000E000220A600A6822B9034A1268D268AC
:105A4000106800E0002070476400002030B54FF47B
:105A50002053174800F007042CB1C01D20F00700A8
:105A6000134C041B1B1B0246124C22600024114DD8
:105A70006C60D018083820F007000F4C206000241C
:105A80000D4D2D686C600C4D2D682C601146441A2C
:105A90004C60094C24680C60084D4C682C60084D23
:105AA0004C682C604FF00044064D2C6030BD000067
:105AB000E4050020780000208000002088000020FD
:105AC000840000209400002000BFFFF729FF064853
:105AD00000680128F9D94FF0805004490860BFF3ED
