:020000040800F2
:10000000D049002099010008753A0008B53600086B
:10001000713A000865030008714200080000000002
:1000200000000000000000000000000001010008C6
:10003000890700080000000045010008F53C0008A1
:10004000B3010008B3010008B3010008B3010008C0
:10005000B3010008B3010008B3010008310800082B
:10006000B3010008B30100083B0800084D07000871
:10007000B3010008B3010008B3010008B301000890
:10008000B3010008B3010008B3010008B301000880
:10009000B3010008B3010008B301000845080008D7
:1000A000B3010008B3010008B3010008B301000860
:1000B000B3010008B3010008B3010008B301000850
:1000C000B3010008B3010008B3010008B301000840
:1000D000B3010008E94100082D420008B3010008FF
:1000E000B3010008B3010008B3010008DFF80CD029
:1000F00000F09EF800480047D1460008D049002093
:10010000224B19680868B0E8F00F80F30988BFF344
:100110006F8F4FF0000080F311884EF00D0E704786
:100120000000000006480068006880F3088862B696
:1001300061B6BFF34F8FBFF36F8F00DF00BF00BF0B
:1001400008ED00E0EFF30980BFF36F8F0F4B1A68E3
:1001500020E9F00F106008B54FF0500080F31188CF
:10016000BFF34F8FBFF36F8F05F076FE4FF00000A7
:1001700080F31188BDE8084019680868B0E8F00FFE
:1001800080F30988BFF36F8F704700BF2400002001
:10019000EFF3058070470000064880470648004797
:1001A000FEE7FEE7FEE7FEE7FEE7FEE7FEE7FEE727
:1001B000FEE7FEE76F3D0008ED00000840EA01039E
:1001C0009B0703D009E008C9121F08C0042AFAD20D
:1001D00003E011F8013B00F8013B521EF9D27047D1
:1001E000D2B201E000F8012B491EFBD27047002279
:1001F000F6E710B513460A4604461946FFF7F0FF26
:10020000204610BD30B50B460146002020220124B7
:1002100009E021FA02F59D4205D303FA02F5491BD4
:1002200004FA02F52844151EA2F10102F1DC30BDEA
:10023000064C074D06E0E06840F0010394E8070033
:1002400098471034AC42F6D3FFF754FFC86F00084C
:10025000E86F000870B505466C6AA06A00F05000AF
:10026000E0B9A06A40F40070A0622068806800F4E1
:100270006020B0F5602F0DD1207B58B9A06A20F422
:100280008070A062A06A00F4805018B9A06A40F0A3
:100290000100A062204601F063F903E0206A016BCF
:1002A0002846884770BD70B505466C6AA06A40F064
:1002B0004000A062E06A40F00400E062204601F0E5
:1002C00072F970BD70B50446656A284601F06AF996
:1002D00070BD000038B5044600250020009020685D
:1002E000806800F0010078BB2068806840F0010061
:1002F00021688860194800681949B0FBF1F0009046
:1003000002E00098401E009000980028F9D101F00A
:100310000BFE054619E001F007FE401B022814D928
:100320002068806800F0010078B9A06A40F01000F1
:10033000A062E06A40F00100E06200BF002084F8A3
:10034000240000BF012038BD05E02068806800F06F
:1003500001000028DFD00020F5E700002000002089
:1003600040420F0000BFFEE710B502460023002008
:1003700004E0145C1C44E3B2441CE0B28842F8DBA5
:10038000184610BD572007490870AB204870002060
:10039000887005494870022004490870012004490A
:1003A00008707047052F0020B2000020BA0000201E
:1003B000BE00002070B506460C4636B1012E2BD08B
:1003C000022E47D0032E7DD15BE002204049C87049
:1003D000082008713F4810F814003F4908703D4854
:1003E00000EB4400407888700020C87008714871A4
:1003F0008871C8713648401D0A68026049684160CA
:10040000401F0079401DC1B23148FFF7ADFF3049B0
:100410000A79491D885459E0002501202C49C870EB
:10042000042008712D4850F82450280C2C4948709D
:10043000280A8870CD7026480968C0F80510007930
:10044000401DC1B22248FFF78FFF21490A79491D9B
:1004500088543BE002201E49C87008712148005DA5
:10046000214948701A480988A0F805100079401DF4
:10047000C1B21748FFF778FF15490A79491D88541A
:1004800024E002201249C870082008710020124997
:100490000870084684700020C8700871487188711F
:1004A000C8710B48401D0A68026049684160401FDE
:1004B0000079401DC1B20648FFF756FF04490A798A
:1004C000491D00E001E0885400E000BF00BF70BD9E
:1004D000052F0020526E0008B2000020506F000867
:1004E000BA000020B46F0008BE00002000B585B03F
:1004F00000BF2948806940F0040027498861084608
:10050000806900F00400009000BF00BF00BF0846F3
:10051000806940F0080088610846806900F00800A2
:10052000009000BF00BF002289141C4801F0F6FCB7
:10053000002220211A4801F0F1FC01200290000362
:100540000190022003900320049001A9134801F0B8
:100550004DFB0120029020200190022003900320F7
:10056000049001A90E4801F041FB012220210C4812
:1005700001F0D4FC002000F0AFF8002000F074F887
:1005800000F078F800222021054801F0C7FCFFF7B1
:10059000F9FE05B000BD0000001002400008014057
:1005A000000C014070B505460E4600241BE0295D95
:1005B0000020FFF7FFFE0D480079821D4FF47A738B
:1005C0000A490B4802F099FE012004F043F84FF469
:1005D0007A730E220749064802F08FFE012004F0CC
:1005E00039F8601C84B2B442E1DB70BD052F0020F5
:1005F00024010020446E000810B504462146032063
:10060000FFF7D8FE0B480079821D4FF47A73094931
:10061000094802F072FE012004F01CF84FF47A73CE
:100620000E220649044802F068FE012004F012F888
:1006300010BD0000052F002024010020446E00089A
:1006400010B501221103074801F068FC4FF47A70DD
:1006500004F000F800224FF48051024801F05EFCE3
:1006600010BD0000000801400149487070470000BB
:10067000C000002010B58EB0302102A8FFF7B7FDF2
:10068000124903C9CDE90001002400200AE0104905
:100690000A5C411D0DF801201DF800102144CCB268
:1006A000411CC8B23728F2DB8DF837404FF47A731B
:1006B00038226946074802F020FE4FF4FA6003F042
:1006C000C9FFFFF7BDFF0EB010BD0000C06F0008EE
:1006D000C00000202401002001490870704700007C
:1006E000C0000020EF200A49087001204870FF2058
:1006F0000849087048708870C870EF200649087073
:1007000001204870FF208870C870087148717047D8
:10071000A6000020A8000020AC00002010B5024672
:100720000023002004E0145C1C44A3B2441CE0B28B
:100730008842F8DB481C105C545C40EA0420984274
:1007400001D1002010BD4FF0FF30FBE710B502488B
:1007500001F06EF810BD00002C02002030B590F8BA
:1007600040500124AC40C56B6C6004686360446811
:10077000102C04D10468A2600468E16003E00468FE
:10078000A1600468E26030BD7047000000B585B02C
:1007900000BF2248806940F0040020498861084673
:1007A000806900F00400009000BF00BF00BF084651
:1007B000806940F0080088610846806900F0080000
:1007C000009000BF00BF164802904FF440700190A7
:1007D000012003900320049001A9124801F006FAB9
:1007E000114802900220019003900320049001A977
:1007F0000E4801F0FBF900220121172001F01AFC3C
:10080000172001F007FC00220121072001F012FC53
:10081000072001F0FFFB05B000BD00000010024002
:1008200000003110000C01400000111000080140D0
:1008300010B5022001F0CCF910BD10B5102001F068
:10084000C7F910BD10B50E48046804F4807048B1B3
:100850004FF4807001F0BCF90948006820F4807002
:100860000749086004F4007048B14FF4007001F0CB
:10087000AFF90348006820F400700149086010BD1A
:100880001404014072B600BFFEE7000000B585B059
:1008900000BF1A48806940F0040018498861084682
:1008A000806900F00400009000BF00BF144802906F
:1008B00010200190022003900320049001A9114808
:1008C00001F094F9002206210A2001F0B3FB0A206E
:1008D00001F0A0FBFFF706FF00F010FE0A48007AC7
:1008E00009300949C97940EA01224FF47A7306496F
:1008F000064802F002FD05B000BD000000100240F5
:100900000000111000080140FA2D00206C010020A9
:1009100004480021016041608160C16002480149D2
:1009200008607047A4400020B440002070B5AF4874
:100930008079012806D0022805D0072805D008288C
:100940007ED101E050E14FE14EE1A848407A3428E1
:1009500077D2DFE800F01AFEFFFBFAF9F8F7F6F5B8
:10096000F4F3F2F1F0EFEEEDECEBEAE9E8E7E6E5BF
:10097000E4E3E2E1E0DFDEDDDCDBDAD9D8D7D6D5AF
:10098000D4D3D2D1D0CFCECDCCCB002198480068E3
:1009900005F0B6FA974908600846007800F00100B3
:1009A000F8B1FE2094490870222048701020887009
:1009B0000020C87020228D490A318F48001DFFF7A2
:1009C000FDFB24218C48FFF7CFFC8B4981F82400E4
:1009D0002521894803F060F901218548006805F068
:1009E0008FFA8448007800F0020058B3FE20824954
:1009F0000870042048700B2088700020C8707B4865
:100A0000807A08717948C17A7B4841710621FFF7E5
:100A1000ABFC7949887108460079032803D0084661
:100A20000079012803D10721734803F035F9724892
:100A30000079062810D170484079F2280CD102E0E4
:100A4000D1E0CDE008E007216B4803F025F9022151
:100A50006748006805F054FA6648007800F0040022
:100A6000B8B1FE2064490870022048700C208870DC
:100A70000020C87004216048FFF776FC5E490871C9
:100A800005215D4803F008F904215948006805F084
:100A900037FA5848007800F0080030B35348807A9D
:100AA00005280ED15148017BC07A41EA00244F4805
:100AB000817B407B41EA00252946204600F0A2F8D0
:100AC00000BF00F01BFD4D48007A09304B49C97941
:100AD00040EA01224FF47A734849494802F00DFC7C
:100AE00008214348006805F00BFA7AE077E075E0EA
:100AF00073E071E06FE06DE06BE069E067E065E096
:100B000063E061E05FE05DE05BE059E057E055E005
:100B100053E051E04FE04DE04BE049E047E045E075
:100B200043E041E03FE03DE03BE039E037E035E0E5
:100B300033E031E02FE02DE02BE029E027E025E055
:100B40000FE00DE00BE009E007E005E003E001E065
:100B5000FFE746E045E044E043E042E041E040E0BA
:100B60003FE000F0CBFC2548007A09302349C979E1
:100B700040EA01224FF47A732049214802F0BDFB7C
:100B800008211B48006805F0BBF92AE029E028E0AD
:100B900027E026E025E024E023E022E021E020E039
:100BA0001FE01EE01DE01CE01BE01AE019E018E069
:100BB00017E016E015E014E013E012E011E010E099
:100BC0000FE00EE00DE00CE00BE00AE009E008E0C9
:100BD00007E006E005E004E003E002E001E000E0F9
:100BE00000BF00BF00E000BF00BF70BDB4400020E8
:100BF000000100200401002021410020FA2D0020E6
:100C00006C0100207CB504460E460020019004EBE8
:100C1000C40000EB04104FF4801202EB80010122AB
:100C200001A800F063FA9DF8040030B1012836D025
:100C3000022835D0032835D133E00020009004EBA2
:100C4000C40000EB04104FF4801202EB8000411C42
:100C50000122684600F04AFA9DF8000000B921E040
:100C60009DF8000004F03CFB054604EBC40000EBDB
:100C700004104FF4801202EB8000C11C9DF800208C
:100C8000284600F033FA9DF800102846FFF78AFC4A
:100C90002820FFF7B1FC284604F0B6FC02E001E092
:100CA00000E000BF00BF7CBD38B504460D46012002
:100CB00000900C48006890B100236A46214609481C
:100CC000006805F05BFB00BF009838B14FF0805022
:100CD00005490860BFF34F8FBFF36F8F00BF00203F
:100CE00038BD0000FC00002004ED00E070B50446B3
:100CF0006E48407998B9EF2C0ED101206B494871AC
:100D000008460068047008460068401C08600846F1
:100D10000079401C0871C7E0FFF7FAFDC4E06348A2
:100D2000807998B9012C0ED101206049887108465C
:100D30000068047008460068401C08600846007996
:100D4000401C0871B0E0FFF7E3FDADE05748C07903
:100D500098B9FF2C0ED101205449C871084600688B
:100D6000047008460068401C086008460079401C72
:100D7000087199E0FFF7CCFD96E04C48007A98B9ED
:100D8000FF2C0ED101204949087208460068047002
:100D900008460068401C086008460079401C08713D
:100DA00082E0FFF7B5FD7FE04048407A98B9FF2C1C
:100DB0000ED101203D49487208460068047008467B
:100DC0000068401C086008460079401C08716BE010
:100DD000FFF79EFD68E03548807A98B9FF2C0ED168
:100DE000012032498872084600680470084600688D
:100DF000401C086008460079401C087154E0FFF769
:100E000087FD51E02948007909280CDA2748006855
:100E1000047026480068401C244908600846007990
:100E2000401C087112E02148007909280ED10120E8
:100E30001E49C8721E48007A1D49C97940EA01203E
:100E40001A49888108460079401C08711748C07A01
:100E5000012829D115488089401E60B11348808936
:100E6000401E1249888108460068047008460068E0
:100E7000401C086018E00D48006804700C48007AB7
:100E80000B4AD27940EA0220401CC1B20848801DBA
:100E9000FFF744FC054625B9FFF748FDFFF738FD8D
:100EA00001E0FFF735FD00BF002070BDA440002029
:100EB000B440002010B50446240300F0BFF800F051
:100EC000B3F84FF0805007490860202000F06CF81C
:100ED000204600F09BF84FF480500249086000F073
:100EE000A3F810BD100C014000B585B000BF164836
:100EF000806940F00800144988610846806900F064
:100F00000800009000BF00BF8814019001200290EB
:100F100003900320049001A90C4800F067FE0C48E0
:100F20000C4908600020486000210A484161802186
:100F3000C16020218161002101618160C16102F0F5
:100F4000F3FD05B000BD000000100240000C0140A0
:100F50001C0002400830002070B504460025002621
:100F6000012C04D0022C04D0032C06D103E005266A
:100F700005E0352603E0152601E0052600BF00BF89
:100F80004FF0805007490860304600F00DF8FF2010
:100F900000F00AF805464FF48050024908602846E0
:100FA00070BD0000100C014001B582B04FF47A70A2
:100FB000012301AA02A90090024801F081FD9DF8D9
:100FC00004000EBD4C30002010B54FF080500E498B
:100FD00008609020FFF7E8FF0020FFF7E5FF002002
:100FE000FFF7E2FF0020FFF7DFFFFF20FFF7DCFF46
:100FF0000402FF20FFF7D8FF04434FF4805002495A
:101000000860204610BD0000100C014010B50446D9
:10101000C4F30740FFF7C8FFC4F30720FFF7C4FF7E
:10102000E0B2FFF7C1FF10BD10B500BF0120FFF710
:1010300093FF00F001000028F8D110BD10B54FF06B
:101040008050054908600620FFF7AEFF4FF480503E
:101050000149086010BD0000100C01402DE9F0416D
:1010600005460E461746FFF7E9FF4FF080500C4942
:1010700008600220FFF798FF3046FFF7C7FF002403
:1010800004E0285DFFF790FF601C84B2BC42F8DBEF
:101090004FF4805002490860FFF7C6FFBDE8F081B9
:1010A000100C01402DE9F04107460E461446F0B2FF
:1010B000C0F58075AC4200DC254612E02A46314678
:1010C0003846FFF7CBFFAC4200D10BE02F442E4453
:1010D000601B84B2B4F5807F02DD4FF4807500E0C0
:1010E0002546EBE700BFBDE8F08100002DE9F041A7
:1010F00005460E4617464FF080500C490860032005
:10110000FFF752FF3046FFF781FF002405E0FF2084
:10111000FFF74AFF2855601C84B2BC42F7DB4FF44E
:10112000805002490860BDE8F0810000100C0140C9
:101130002DE9F05F81460F461646DFF8A8B04FEA6A
:101140001738C7F30B0ACAF58054A64200DC3446B0
:1011500044E04FEA08314FF480525846FFF7C6FF8B
:10116000002508E00AEB05001BF80000FF2800D06E
:1011700003E0681C85B2A542F4DB00BFA54216DA85
:101180004046FFF797FE002507E019F8050005EB3C
:101190000A010BF80100681C85B2A542F5DB4FEA95
:1011A00008314FF480525846FFF77CFF04E0224696
:1011B00039464846FFF776FFA64200D10FE008F116
:1011C00001084FF0000AA1442744301B86B2B6F54F
:1011D000805F02DD4FF4805400E03446B9E700BF81
:1011E000BDE8F09FA43000202DE9F04104460E46F2
:1011F00015460027184819490988018018490968C7
:10120000C0F8021001201449887116480078C8718E
:10121000144841781048017231200F494872201259
:1012200088720846C472067328124873084685738C
:10123000007A0A46D27940EA0220401C81B2064870
:10124000801D00F051F8074638120349C87308465C
:101250000774BDE8F0810000BC2D0020A60000202E
:10126000A8000020DB6D00082DE9F04106460C4681
:101270001546002718481949098801801849096846
:10128000C0F8021001201449887116480078C8710E
:10129000144841781048017232200F4948720846BC
:1012A00086722012C87208460473281248730846D2
:1012B0008573007A0A46D27940EA0220401C81B246
:1012C0000548801D00F010F8074638120249C8731F
:1012D00008460774BDE8F081CD2D0020A60000204F
:1012E000A8000020DE6D000810B502460023002093
:1012F00004E0145C1C44A3B2441CA0B28842F8DB96
:10130000184610BD2DE9F04104460D4616461F460D
:101310004FF00008174818490988018017490968E3
:10132000C0F8021001201349887115480078C8716F
:10133000134841780F4801723C200E494872084614
:101340008472C57206734773007A0A46D27940EAFE
:101350000220401C81B20748801DFFF7C5FF804670
:101360004FEA282003498873084680F80F80BDE8BB
:10137000F0810000E12E0020A6000020A80000203F
:101380001D6E00082DE9F05F04460D4616461F4607
:10139000DDE90BABDDF828904FF000081B481C4935
:1013A000098801801B490968C0F80210012017490B
:1013B000887119480078C87117484178134801723C
:1013C0003C2012494872072088720846C47205738F
:1013D0004673877380F80F9080F810A080F811B0E2
:1013E000007A0A46D27940EA0220401C81B20748BE
:1013F000801DFFF779FF80464FEA28200349887453
:10140000084680F81380BDE8F09F0000F12E002010
:10141000A6000020A8000020206E000870B5044639
:101420000D460026174818490988018017490968A0
:10143000C0F8021001201349887115480078C8715E
:10144000134841780F4801720C200E49487220124F
:1014500088720846C4722812087308464573007AD9
:101460000A46D27940EA0220401C81B20548801D1C
:10147000FFF73AFF06463012024988730846C673E2
:1014800070BD0000DE2D0020A6000020A800002076
:10149000E16D000870B50446002514481449098818
:1014A000018014490968C0F8021001200F498871B1
:1014B00011480078C871104841780C4801721F200B
:1014C0000A49487208468472007A0A46D27940EA8C
:1014D0000220401C81B20548801DFFF705FF05462C
:1014E00028120249C8720846057370BD122E0020EA
:1014F000A6000020A8000020F06D000810B5002410
:10150000134814490988018013490968C0F802107A
:1015100001200F49887111480078C8710F4841783F
:101520000B48017233200A4948720846007A0A467D
:10153000D27940EA0220401C81B20548801DFFF7A5
:10154000D3FE04462012024988720846C47210BDB8
:10155000FA2D0020A6000020A8000020EA6D000857
:10156000F8B5064600240025002000900B480088AE
:10157000322190FBF1F0C0B28DF80000074840889E
:1015800090FBF1F0C0B28DF801000548006820B171
:1015900002216846024A12689047F8BD0C000020FC
:1015A00010000020704770472DE9F04104460D46B9
:1015B0001646002757492068884203D056492068BC
:1015C000884205D15348001D006800F4702000E0F7
:1015D000002000287ED100BF94F82400012802D109
:1015E0000220BDE8F081012084F8240000BF2046DD
:1015F000FEF770FE0746002F6DD1A06A40F601612C
:10160000884340F48070A06243492068884209D131
:101610004048001D006800F4702008B9012002E075
:10162000002000E0012078B1A06A20F48010A062C0
:101630002068406800F4806000B3A06A20F4005085
:1016400040F48050A06219E0A06A40F48010A062CB
:1016500030492068884203D02F492068884205D14C
:101660002C48001D006800F4806000E0002028B1D4
:10167000A06A20F4005040F48050A062A06A00F4F8
:10168000805020B1E06A20F00600E06201E0002016
:10169000E06200BF002084F8240000BF1F48216AD8
:1016A00088621F48216AC8621E48216A08636FF079
:1016B0000200216808602068806840F4807021681A
:1016C0008860226802F14C0133462A46206A00F005
:1016D0007DF901E01AE014E02068806800F46020E1
:1016E000B0F5602F06D12068806840F4A000216822
:1016F00088600CE02068806840F480102168886071
:1017000005E000BF002084F8240000E001273846EF
:1017100067E700000024014000280140550200084E
:10172000C5020008A70200080146002291F8210026
:10173000022808D00420886300BF002081F8200020
:1017400000BF012070470868006820F00E000B6899
:1017500018600868006820F001000B68186091F8B4
:10176000403001209840CB6B5860012081F8210067
:1017700000BF002081F8200000BF1046E2E7000013
:1017800070B50446002594F82100022803D00420F7
:10179000A063012548E02068006820F00E00216861
:1017A00008602068006820F00100216808601F4977
:1017B0002068884201D1012026E01C4914312068AC
:1017C000884201D110201FE0184928312068884242
:1017D00001D1801518E015493C312068884201D1BB
:1017E000801411E0114950312068884202D14FF431
:1017F000803009E00D4964312068884202D14FF4FD
:10180000801001E04FF080700849083948600120DD
:1018100084F8210000BF002084F8200000BF606B26
:1018200010B12046616B8847284670BD0800024011
:1018300070B50446E06B05682068066894F84010AF
:10184000042088402840002846D006F004000028E4
:1018500042D02068006800F0200028B920680068A5
:1018600020F004002168086057492068884201D1AF
:10187000042027E0544914312068884201D14020D7
:1018800020E0514928312068884201D1001519E033
:101890004D493C312068884202D14FF4804011E02C
:1018A000494950312068884202D14FF4802009E034
:1018B000454964312068884202D14FF4800001E03C
:1018C0004FF08060404908394860E06A00287AD0CB
:1018D0002046E16A884776E094F84010022088406C
:1018E0002840A0B306F0020088B32068006800F02A
:1018F000200040B92068006820F00A0021680860D4
:10190000012084F8210030492068884201D102205A
:1019100028E02D4914312068884201D1202021E09F
:10192000294928312068884201D140151AE026490A
:101930003C312068884202D14FF4005012E0224925
:1019400050312068884203D14FF400300AE017E09C
:101950001D4964312068884202D14FF4001001E033
:101960004FF0007018490839486000BF002084F823
:10197000200000BFA06A30B32046A16A884722E059
:1019800094F84010082088402840E0B106F0080094
:10199000C8B12068006820F00E002168086094F843
:1019A000401001208840E16B48600120A06384F86A
:1019B000210000BF002084F8200000BF206B10B180
:1019C0002046216B884770BD080002402DE9F04198
:1019D00004460D4616461F464FF0000800BF94F817
:1019E0002000012802D10220BDE8F081012084F806
:1019F000200000BF94F8210001282CD1022084F897
:101A000021000020A0632068006820F00100216808
:101A100008603B46324629462046FEF79FFEE06AB4
:101A200030B12068006840F00E00216808600BE0CB
:101A30002068006820F004002168086020680068C1
:101A400040F00A00216808602068006840F001004A
:101A50002168086006E000BF002084F8200000BF75
:101A60004FF002084046BFE738B50446022C6BD061
:101A7000102C71D0B4F5807F03D0B4F5007F30D145
:101A800030E04FF480714B4800F040FA01280BD150
:101A90004102484800F03AFA30B94748007818B98E
:101AA0000120454908701CE04FF48071414800F066
:101AB0002DFA98B94FF400713E4800F027FA01283A
:101AC0000CD13D480078012808D100231A46194658
:101AD00001F0E6FF00203849087002E00020364996
:101AE000087064E04FF40071324800F00FFA0128EA
:101AF0000BD101022F4800F009FA30B92F480078C5
:101B000018B901202D4908701DE04FF400712948D3
:101B100000F0FCF9A0B94FF48071264800F0F6F906
:101B200001280DD125480078012809D100231A4643
:101B30001946FF2001F0B4FF00202049087002E0A0
:101B400000201E49087032E0022300221146104690
:101B500001F0A6FF2BE0FFE707224FF6FF710320FD
:101B6000FFF782FB1648007A09301549C97940EA27
:101B700001224FF47A731249124801F0BEFB012092
:101B800000901148006888B16A4608210E48006834
:101B900004F072FA00BF009838B14FF080500B4942
:101BA0000860BFF34F8FBFF36F8F00BF00BF00BF50
:101BB00038BD0000000C0140F2000020F3000020BE
:101BC000CD2D00206C0100200001002004ED00E07C
:101BD00010B5044604480068204020B10248046063
:101BE0002046FFF741FF10BD140401402DE9F847DE
:101BF0000346002294466EE14FF0010808FA02F411
:101C0000D1F8008008EA0400A0427DD1DFF8DCA210
:101C1000D1F80480A8EB0A09D0453AD014DCB8F119
:101C2000030F50D009DCB8F1000F31D0B8F1010F2B
:101C30001CD0B8F1020F49D120E0B8F1110F18D033
:101C4000B8F1120F42D11EE0B9F5881F25D006DC8D
:101C5000B9F5803F20D0B9F5801F37D11AE0B9F52A
:101C6000001F18D0B9F5041F30D117E0D1F80CC00F
:101C70002DE0D1F80C8008F1040C28E0D1F80C809C
:101C800008F1080C23E0D1F80C8008F10C0C1EE0E0
:101C900000BF00BF00BF00BF00BF00BFD1F8088079
:101CA000B8F1000F02D14FF0040C0BE0D1F808801E
:101CB000B8F1010F03D14FF0080C1C6102E04FF0A6
:101CC000080C5C6103E04FF0000C00E000BF00BFB7
:101CD000FF2801D8984601E003F104084646FF2892
:101CE00002D84FEA820803E0A2F108084FEA880808
:101CF0004746D6F800804FF00F0909FA07F928EA9D
:101D000009080CFA07F900E088E048EA0908C6F873
:101D10000080D1F8048008F08058B8F1805F7DD150
:101D200000BFDFF8CC81D8F8188048F00108DFF850
:101D3000C091C9F81880C846D8F8188008F0010882
:101D4000CDF8008000BF00BF4FEAB9384FEA9209D2
:101D500058F829504FEA82784FEA18794FF00F0867
:101D600008FA09F825EA0805DFF88881434502D119
:101D70004FF0000816E0DFF88081434502D14FF0B4
:101D800001080FE0DFF87481434502D14FF00208EB
:101D900008E0DFF86C81434502D14FF0030801E011
:101DA0004FF004084FEA82794FEA197908FA09F8E6
:101DB00048EA0505DFF84C814FEA920948F82950B6
:101DC000D1F8048008F48018B8F5801F0AD1DFF834
:101DD0003881D8F8008048EA0008DFF82C91C9F86B
:101DE000008009E0DFF82081D8F8008028EA0008A8
:101DF000DFF81491C9F80080D1F8048008F40018C5
:101E0000B8F5001F10D1DFF8008108F10408D8F8F8
:101E1000008048EA0008DFF8F09000E05AE009F19D
:101E20000409C9F800800DE0DFF8DC8008F104083F
:101E3000D8F8008028EA0008DFF8CC9009F10409FE
:101E4000C9F80080D1F8048008F40038B8F5003FE4
:101E50000ED1DFF8B480A8F10408D8F8008048EA71
:101E60000008DFF8A490A9F10409C9F800800DE08A
:101E7000DFF89480A8F10408D8F8008028EA000868
:101E8000DFF88490A9F10409C9F80080D1F8048032
:101E900008F48038B8F5803F0ED1DFF86C80A8F1E7
:101EA0000808D8F8008048EA0008DFF85C90A9F13B
:101EB0000809C9F800800DE0DFF84C80A8F1080897
:101EC000D8F8008028EA0008DFF83C90A9F108095A
:101ED000C9F80080521CD1F8008028FA02F8B8F145
:101EE000000F7FF489AEBDE8F887000000001110F4
:101EF0000010024000080140000C014000100140A9
:101F000000140140080001400804014002469368A3
:101F10000B400BB1012000E0002070470AB10161C5
:101F200001E00B040361704701480068704700003E
:101F30001400002003480068034909780844014957
:101F400008607047140000201C00002010B50848ED
:101F5000006840F0100006490860032000F0A8F86F
:101F60000F2000F007F800F02BF8002010BD000053
:101F70000020024070B504460E4800784FF47A7194
:101F8000B1FBF0F00C490968B1FBF0F5284600F010
:101F9000CBFE08B1012070BD102C07D200222146D3
:101FA000501E00F047F80548046001E00120F2E708
:101FB0000020F0E71C000020200000201800002076
:101FC00008B500BF1148806940F001000F498861E1
:101FD0000846806900F00100009000BF00BF00BF0C
:101FE0000846C06940F08050C8610846C06900F0EA
:101FF0008050009000BF00BF00BF0549486820F036
:10200000E06040F00070486000BF08BD0010024072
:102010000000014001460846002809DB00F01F03CC
:1020200001229A4043099B0003F1E023C3F80021F9
:1020300000BF70472DE9F05F80460D461646002729
:1020400002F0D8F9074639462A46334601F0070020
:10205000C0F1070ABAF1040F02D94FF0040A01E0F7
:10206000C0F1070AD14600F1040ABAF1070F02D203
:102070004FF0000A01E0A0F1030AD4464FF0010A34
:102080000AFA09FAAAF1010A0AEA020A0AFA0CFA99
:102090004FF0010B0BFA0CFBABF1010B0BEA030B3E
:1020A0004AEA0B042146404602F0ACF9BDE8F09F35
:1020B00000BF00F00702064B19684FF6FF031940F6
:1020C000044B0B4343EA0221014B196000BF7047E8
:1020D0000CED00E00000FA0570B504460D460CB9A1
:1020E000012070BD5A48006800F00700A8420ED2D7
:1020F0005748006820F00700284355490860084603
:10210000006800F00700A84201D00120E9E720782C
:1021100000F0020002281DD1207800F004000428FD
:1021200005D14C48406840F4E0604A494860207856
:1021300000F00800082805D14648406840F4605087
:10214000444948604348406820F0F000A1680843D3
:1021500040494860207800F0010078B360680128A9
:1021600006D13C48006800F4003090B90120B8E77F
:102170006068022806D13748006800F0007040B956
:102180000120AEE73348006800F0020008B90120E2
:10219000A7E73048406820F00300616808432D49F4
:1021A0004860FFF7C1FE064609E0FFF7BDFE801B51
:1021B00041F28831884202D9032092E707E025489E
:1021C000406800F00C006168B0EB810FEDD1204851
:1021D000006800F00700A8420ED91D48006820F0F2
:1021E000070028431A4908600846006800F0070005
:1021F000A84201D0012074E7207800F004000428F0
:1022000007D11448406820F4E060E16808431149B0
:102210004860207800F00800082808D10D48406880
:1022200020F46050216940EAC1000A49486000F08A
:102230003FF808494968C1F30311074A515CC84097
:102240000649086006480068FFF794FE002048E74A
:102250000020024000100240C26D00082000002053
:10226000180000200148006870470000200000208E
:1022700000B5FFF7F7FF04494968C1F30221034A9B
:10228000515CC84000BD000000100240D26D000843
:1022900000B5FFF7E7FF04494968C1F3C221034ACB
:1022A000515CC84000BD000000100240D26D000823
:1022B00070B500210022002400230020134D69681E
:1022C00001F00C05F5B1042D02D0082D19D101E063
:1022D0000F4819E00F4DC1F38346AB5D01F4803523
:1022E00055B10A4D6D68C5F340450B4E725D084D02
:1022F0005D43B5FBF2F402E0084D03FB05F4204614
:1023000002E000BF064800BF00BF70BD00100240E1
:102310000024F400B06D0008C06D000800093D0005
:1023200000127A00F8B504460CB90120F8BD2078F7
:1023300000F00100002878D0F848406800F00C0058
:1023400004280CD0F548406800F00C00082811D192
:10235000F248406800F48030B0F5803F0AD1EF4881
:10236000006800F4003000285FD0606800285CD16D
:102370000120DBE700BF6068B0F5803F06D1E74889
:10238000006840F48030E549086028E0606858B98A
:10239000E248006820F48030E049086008460068A0
:1023A00020F4802008601AE06068B0F5A02F0BD1FF
:1023B000DA48006840F48020D84908600846006880
:1023C00040F4803008600AE0D448006820F480308F
:1023D000D24908600846006820F48020086000BFE9
:1023E000606888B1FFF7A0FD054606E0FFF79CFD99
:1023F000401B642801D9032098E7C848006800F40E
:1024000000300028F2D010E0FFF78EFD054606E010
:10241000FFF78AFD401B642801D9032086E7BF48E7
:10242000006800F400300028F2D1207800F00200AB
:10243000022857D1B948406800F00C0050B1B748A5
:10244000406800F00C00082818D1B448406800F437
:10245000803098B9B148006800F0020020B12069CE
:10246000012801D0012061E7AC48006820F0F800A5
:10247000616940EAC100A949086033E02069E8B118
:102480000120A7490860FFF74FFD054606E0FFF76A
:102490004BFD401B022801D9032047E79F480068F5
:1024A00000F002000028F2D09C48006820F0F800FC
:1024B000616940EAC1009949086013E00020984929
:1024C0000860FFF731FD054606E0FFF72DFD401BD4
:1024D000022801D9032029E79048006800F0020093
:1024E0000028F2D1207800F0080008282DD1A0693A
:1024F000B8B101208B490860FFF716FD054606E0DC
:10250000FFF712FD401B022801D903200EE7834884
:10251000406A00F002000028F2D0012001F0ACFA7D
:1025200013E000207F490860FFF7FEFC054606E047
:10253000FFF7FAFC401B022801D90320F6E6774892
:10254000406A00F002000028F2D1207800F0040078
:10255000042873D100277148C06900F0805070B919
:1025600000BF6E48C06940F080506C49C8610846A1
:10257000C06900F08050009000BF00BF01276A488A
:10258000006800F48070B0B96748006840F480705B
:1025900065490860FFF7C8FC054606E0FFF7C4FC84
:1025A000401B642801D90320C0E65F48006800F49E
:1025B00080700028F2D000BFE068012806D157489B
:1025C000006A40F001005549086227E0E06858B908
:1025D0005248006A20F00100504908620846006A2B
:1025E00020F00400086219E0E06805280BD14B4890
:1025F000006A40F00400494908620846006A40F059
:10260000010008620AE04548006A20F001004349E1
:1026100008620846006A20F00400086200BFE06813
:10262000A0B1FFF781FC054609E0FFF77DFC401BE8
:1026300041F28831884202D9032077E622E0374808
:10264000006A00F002000028EFD012E0FFF76CFCF7
:10265000054608E0FFF768FC401B41F288318842DC
:1026600001D9032062E62D48006A00F0020000282C
:10267000F0D1012F05D12948C06920F080502749A9
:10268000C86100BFE069C8B32448406800F00C008E
:10269000082860D0E069022848D100202049086657
:1026A000FFF742FC054606E0FFF73EFC401B022810
:1026B00001D903203AE61948006800F000700028AC
:1026C000F2D1206AB0F5803F07D11448406820F469
:1026D0000030A168084311494860D4E90801084363
:1026E0000E49496821F4741108430C4948600120DF
:1026F0000B490866FFF718FC054607E03DE0FFF7C9
:1027000013FC401B022801D903200FE60348006890
:1027100000F000700028F2D02FE00000001002400E
:1027200000004242800442420070004000201449F0
:102730000866FFF7F9FB054606E0FFF7F5FB401BCF
:10274000022801D90320F1E50E48006800F000706E
:102750000028F2D111E0E069012800D1E6E509483E
:10276000466806F48031206A814204D106F4701173
:10277000606A814201D00120D8E50020D6E5000042
:10278000000042420010024010B504460CB901207E
:1027900010BD606A38B96068B0F5827F00D105E08D
:1027A0000021E16102E00021216161610021A1625B
:1027B00094F8510028B9002084F85000204600F019
:1027C00043F8022084F851002068006820F040009F
:1027D00021680860A08800F48270218901F4044116
:1027E0000843A18901F400610843217C01F0020142
:1027F0000843217D01F001010843218B01F40071A0
:102800000843217F01F0380108432021095D01F0D0
:1028100080010843218D01F40051084321680860BC
:102820000421A06901EA1040216848602068C0695D
:1028300020F400602168C86100206065012084F8F0
:1028400051000020A4E7000010B58AB00446002023
:1028500006900790089009902549206888421AD16F
:1028600000BF2448806940F004002249886108467E
:10287000806900F00400019000BF00BFE0200290DA
:1028800002200390012004900320059002A91A4819
:10289000FFF7ACF900BF19492068884225D100BF75
:1028A0001448C06940F480401249C8610846C069B4
:1028B00000F48040059000BF00BF00BF084680695B
:1028C00040F0080088610846806900F00800059023
:1028D00000BF00BF4FF42040069002200790032065
:1028E000099006A90648FFF781F90AB010BD00005B
:1028F0000030014000100240000801400038004054
:10290000000C01402DE9F84F0446884616461D4646
:102910004FF0000A00BF94F85000012802D10220B5
:10292000BDE8F88F012084F8500000BFFFF7FCFAE3
:102930000746B14694F85100012802D04FF0020A30
:10294000B7E0B8F1000F00D016B94FF0010AB0E0BF
:10295000032084F8510000206065C4F83080A6860A
:10296000E686A063A087E08760642064A068B0F575
:10297000004F0BD12068006820F0400021680860FB
:102980002068006840F48040216808602068006882
:1029900000F04000402805D02068006840F040006A
:1029A00021680860E068B0F5006F32D1606810B14E
:1029B000B9F1010F09D1206B00882168C860206B34
:1029C000801C2063E08E401EE0861EE02068806848
:1029D00000F0020002280AD1206B00882168C8603C
:1029E000206B801C2063E08E401EE0860DE0FFF728
:1029F0009BFAC01BA84201D3681C00B92DB94FF047
:102A0000030A012084F8510053E0E08E0028DDD154
:102A100031E0606810B1B9F1010F09D1206B007885
:102A200021680873206B401C2063E08E401EE08606
:102A30001EE02068806800F0020002280AD1206BA6
:102A4000007821680873206B401C2063E08E401ED4
:102A5000E0860DE0FFF768FAC01BA84201D3681CAE
:102A600000B92DB94FF0030A012084F8510020E08D
:102A7000E08E0028DDD13A462946204601F08CF848
:102A800008B120206065A06850B900BF0020009008
:102A90002068C068009020688068009000BF00BF78
:102AA000606D10B14FF0010A02E0012084F851007E
:102AB00000BF00BF002084F8500000BF50462FE741
:102AC0002DE9FF5F0446884691461D460E9E012073
:102AD00002900020019000BF94F85000012803D11B
:102AE000022004B0BDE8F09F012084F8500000BF30
:102AF000FFF71AFA074694F851B060680390AA46A7
:102B0000BBF1010F0BD00398B0F5827F04D1A06810
:102B100010B9BBF1040F02D002200190E9E0B8F136
:102B2000000F03D0B9F1000F00D015B901200190BA
:102B3000DFE094F85100042802D0052084F8510009
:102B400000206065C4F83890E587A587C4F8308018
:102B5000E586A586206460642068006800F0400077
:102B6000402805D02068006840F0400021680860D7
:102B7000E068B0F5006F4DD1606810B1BAF1010F97
:102B800009D1206B00882168C860206B801C2063FD
:102B9000E08E401EE08636E02068806800F002008B
:102BA000022810D1E08E70B1029801280BD1206B61
:102BB00000882168C860206B801C2063E08E401E66
:102BC000E086002002902068806800F0010068B173
:102BD000E08F58B12068C068A16B0880A06B801C92
:102BE000A063E08F401EE08701200290FFF79CF970
:102BF000C01BB04207D3701C28B1032001900120F4
:102C000084F8510075E0E08E0028C5D1E08F0028DF
:102C1000C2D14DE0606810B1BAF1010F09D1206B4B
:102C2000007821680873206B401C2063E08E401EF2
:102C3000E08637E02068806800F00200022810D1AA
:102C4000E08E70B1029801280BD1206B00782168CA
:102C50000873206B401C2063E08E401EE08600203D
:102C600002902068806800F0010068B1E08F58B1E0
:102C70002068C068A16B0870A06B401CA063E08F47
:102C8000401EE08701200290FFF74EF9C01BB042C2
:102C900001D3701C00B92EB903200190012084F8E3
:102CA000510026E0E08E0028C4D1E08F0028C1D179
:102CB0003A463146204600F06FFF20B101200190D6
:102CC0002020606515E0A06850B900BF002000908A
:102CD0002068C068009020688068009000BF00BF36
:102CE000606D10B10120019002E0012084F85100D4
:102CF00000BF00BF002084F8500000BF0198F0E63C
:102D0000042808D14FF0E021096941F004014FF097
:102D1000E022116107E04FF0E021096921F0040190
:102D20004FF0E0221161704770B504462546681ED9
:102D3000B0F1807F01D301200FE0681E4FF0E02149
:102D400048610F214FF0FF3001F05CFB00204FF095
:102D5000E021886107200861002070BD704770473E
:102D60002DE9F84F0446206805682068C668206889
:102D700047694FF00009CA4605F00F09B9F1000F85
:102D80000AD105F0200038B106F0200020B120461D
:102D900001F0B4F8BDE8F88FB9F1000F7BD007F06F
:102DA000010018B906F49070002874D005F00100F5
:102DB00030B106F4807018B1606C40F001006064BE
:102DC00005F0040030B107F0010018B1606C40F06C
:102DD0000200606405F0020030B107F0010018B194
:102DE000606C40F00400606405F0080048B106F033
:102DF000200010B907F0010018B1606C40F0080025
:102E00006064606C002845D005F0200028B106F011
:102E1000200010B1204601F071F820684069C0F32D
:102E2000801A606C00F0080010B9BAF1000F2CD0C5
:102E3000204601F01DF82068406900F0400000B312
:102E400000BF00BF2168143151E8001F21F040008D
:102E50002168143141E80002002AF3D100BFE06B81
:102E600050B17748E16B4863E06BFEF789FC88B1AD
:102E7000E06B416B88470DE02046FFF770FF09E0EB
:102E800009E02046FFF76BFF04E02046FFF767FFED
:102E9000002060647EE7206B012877D105F01000E8
:102EA000002873D006F010000028FAD000BF0020E0
:102EB000009020680068009020684068009000BF83
:102EC00000BF2068406900F0400000285FD0E06B40
:102ED000006840681FFA80F8B8F1000F55D0A08D47
:102EE000404552DDA4F82E80E06B8069202843D055
:102EF00000BF00BF21680C3151E8001F21F4807031
:102F000021680C3141E80002002AF3D100BF00BF64
:102F100000BF2168143151E8001F21F00100216831
:102F2000143141E80002002AF3D100BF00BF00BF06
:102F30002168143151E8001F21F04000216814314C
:102F400041E80002002AF3D100BF202084F84200AB
:102F50000020206300BF00BF21680C3151E8001F32
:102F600021F0100021680C3141E80002002AF3D161
:102F700000BFE06BFEF7D8FB02206063A08DE28DFE
:102F8000801A81B22046FFF7E9FE03E742E0A08DF8
:102F9000E18D401A1FFA80F8E08DD0B3B8F1000F30
:102FA00037D000BF00BF21680C3151E8001F21F469
:102FB000907021680C3141E80002002AF3D100BF73
:102FC00000BF00BF2168143151E8001F21F001004B
:102FD0002168143141E80002002AF3D100BF20200B
:102FE00084F842000020206300BF00BF21680C313C
:102FF00051E8001F21F0100021680C3141E8000267
:10300000002AF3D100BF0220606341462046FFF74B
:10301000A5FEBFE605F0800030B106F0800018B1D3
:10302000204601F067F8B5E605F0400030B106F043
:10303000400018B1204600F051FFABE600BFA9E602
:103040005D3E000810B504460CB9012010BDA06912
:1030500000B100E000BF94F8410028B9002084F8D6
:103060004000204600F02AF8242084F8410020681F
:10307000C06820F400502168C860204600F0BCFF02
:103080002068006920F49040216808612068406948
:1030900020F02A00216848612068C06840F4005090
:1030A0002168C86000206064202084F8410084F812
:1030B00042000020606300BFC8E7000010B586B082
:1030C0000446002002900390049005905549206822
:1030D000884237D100BF5448806940F4804052494B
:1030E00088610846806900F48040019000BF00BFFD
:1030F00000BF0846806940F0040088610846806986
:1031000000F00400019000BF00BF481502900220AB
:1031100003900320059002A94448FEF767FD4FF491
:103120008060029000200390049002A93F48FEF7BF
:103130005DFD002206212520FEF77CFF2520FEF7FD
:1031400069FF6DE03A492068884236D100BF3648B1
:10315000C06940F400303449C8610846C06900F4D1
:103160000030019000BF00BF00BF0846806940F0FA
:10317000040088610846806900F00400019000BFE7
:1031800000BF04200290022003900320059002A9B2
:103190002648FEF72BFD08200290002003900490A3
:1031A00002A92248FEF722FD002206212620FEF772
:1031B00041FF2620FEF72EFF32E01E49206888429C
:1031C0002ED100BF1848C06940F480201649C8615C
:1031D0000846C06900F48020019000BF00BF00BF16
:1031E0000846806940F0080088610846806900F060
:1031F0000800019000BF00BF081502900220039054
:103200000320059002A90C48FEF7F0FC4FF4006083
:10321000029000200390049002A90748FEF7E6FC04
:1032200006B010BD00380140001002400008014007
:103230000044004000480040000C01402DE9F84FD8
:1032400004460E46174699464FF0000A94F842008D
:1032500020284FD106B117B90120BDE8F88F002012
:103260006064222084F8420000202063FEF75CFEA8
:103270008246A785E785A068B0F5805F04D1206904
:1032800010B90025B04602E035464FF0000829E0AD
:103290005346002220212046CDF8009000F05AFF2E
:1032A00008B10320D9E745B920684068C0F3080099
:1032B000A8F8000008F1020811E0A068B0F5805FEE
:1032C00003D0A06828B9206918B920684068287020
:1032D00004E02068406800F07F0028706D1CE08DDD
:1032E000401EE085E08D0028D2D1202084F84200E5
:1032F0000020B2E70220B0E770472DE9F84F0446FE
:103300000E46174699464FF0000A94F841002028CF
:103310004AD106B117B90120BDE8F88F00206064DA
:10332000212084F84100FEF7FFFD8246A784E78450
:10333000A068B0F5805F04D1206910B90025B046BF
:1033400002E035464FF000081BE053460022802182
:103350002046CDF8009000F0FDFE08B10320DBE729
:1033600045B9B8F80000C0F308002168486008F1CA
:10337000020803E02878216848606D1CE08C401E3C
:10338000E084E08C0028E0D1534600224021204612
:10339000CDF8009000F0DEFE08B10320BCE720204D
:1033A00084F841000020B7E70220B5E7704700002D
:1033B0002DE9FE4FB3488079801CC1B2B148401D51
:1033C00000F0AAF9C5B2AF484079FE286FD1002DB0
:1033D000FCD1AC48C0790D286BD006DC01280BD09D
:1033E0000B2820D00C287CD140E00F287ED010285C
:1033F00003D01128F7D19BE03DE10020FEF74AF809
:10340000A148007A0930A049C97940EA01224FF465
:103410007A739D499D48FFF770FF01219C48006821
:1034200002F0B6FD27E19748C17A807A41EA00248C
:103430009448067B817B407B41EA00273A4631462F
:103440002046FDF7D1FE9348007A09309149C979A9
:1034500040EA01224FF47A738E498C48FFF74DFF02
:1034600002218B48006802F093FD04E18548C17A8F
:10347000807A41EA00248348417B007B41EA0026B0
:1034800031462046FDF7CAFF8348007A0930824959
:10349000C97940EA01224FF47A737F497B48FFF7EC
:1034A0002CFF04217A48006802F072FDE3E0E3E0BB
:1034B000FFE77448847AC67A077B90F80D8043460C
:1034C0003A4631462046FDF71DFF7448007A093020
:1034D0007249C97940EA01224FF47A736F496B4807
:1034E00001E0C7E002E0FFF708FFC4E06548847A26
:1034F000C67A077B90F80D8090F80E9090F80FA098
:1035000090F810B043463A46314620468DE8000E0A
:10351000FDF738FF6248007A09306149C97940EA0D
:1035200001224FF47A735E495848FFF7E6FEA2E0A5
:103530005448417A007A41EA00205A4908805148AB
:10354000807A00284ED108460088012807D14D48CE
:10355000C07A554908704B48007B5449087051485F
:103560000088E8BB4748C07A4F490978884239D17A
:103570004E480078C01C01F0B3FE044600202070C5
:103580004A48007860700020A07000BF07E0C11DAD
:103590003C4A521D525CC11C6254411CC8B2434992
:1035A00009788842F3DB4048007800EBC00202EB68
:1035B00000104FF4801202EB80013C480278D21CCC
:1035C0002046FDF7B5FD00203749087037490870DF
:1035D0003749087033490880204602F015F800E0AA
:1035E00000E000BF2748807A01283ED12D4800889E
:1035F000012807D12348C07A2B4908702148007B55
:103600002A4908702748008878BB1E48C07A264996
:103610000978884229D125480078C01C01F060FE55
:103620000446012020702148007860700020A070BE
:103630001D48007800EBC00202EB00104FF480122E
:1036400002EB800119480278D21C2046FDF770FD7C
:10365000002015490870154908701549087011496E
:103660000880204601F0D0FF00BF0648807A054858
:10367000807A00E000BF03E04FF0FF30BDE8FE8F2E
:103680000020FBE770410020122E00206C0100207A
:1036900000010020BC2D0020DE2D0020E12E0020A6
:1036A000F12E002010010020140100201201002042
:1036B0001301002000BFFEE738B504460D46012087
:1036C00000900C48006890B100236A4621460948E2
:1036D000006802F053FE00BF009838B14FF08050F0
:1036E00005490860BFF34F8FBFF36F8F00BF002005
:1036F00038BD00002001002004ED00E00448002156
:103700000160416081600348014908607047000022
:10371000644100207041002010B5024600230020C3
:1037200004E0145C1C44E3B2441CE0B28842F8DBC1
:10373000505C984201D1002010BD4FF0FF30FBE7F4
:1037400010B51248C078062815D006DC062819D214
:10375000DFE800F0180C0D0E0F1008280FD0092814
:103760000ED00A280DD087280CD105E00BE00AE026
:1037700009E008E007E006E0FFF71AFE03E002E0D8
:1037800001E000E000BF00BF10BD0000704100205C
:1037900038B504460D46012000900C48006890B1F1
:1037A00000236A4621460948006802F0E7FD00BF91
:1037B000009838B14FF0805005490860BFF34F8F33
:1037C000BFF36F8F00BF002038BD00000C01002048
:1037D00004ED00E070B504464948407998B9572C8B
:1037E0000ED1012046494871084600680470084619
:1037F0000068401C086008460079401C08717CE0A5
:10380000FFF77CFF79E03E48807998B9AB2C0ED168
:1038100001203B498871084600680470084600682A
:10382000401C086008460079401C087165E0FFF7FD
:1038300065FF62E03248C07990B974B9012030491F
:10384000C87108460068047008460068401C08609B
:1038500008460079401C08714FE0FFF74FFF4CE02D
:103860002748007905280CDA2548006804702448A8
:103870000068401C2249086008460079401C087115
:1038800013E01F48007905280FD101201C49087258
:103890001C480079488108460079401C0871084698
:1038A0004089402801DDFFF729FF1548007A0128EB
:1038B00023D11348408960B111484089401E104906
:1038C000488108460068047008460068401C08608B
:1038D00013E00B48006804700A480079401DC1B22B
:1038E0000848FFF719FF054625B9FFF729FFFFF73D
:1038F00005FF01E0FFF702FF00BF002070BD0000E0
:1039000064410020704100200146704708B500BFA7
:103910000D48806940F020000B49886108468069A5
:1039200000F02000009000BF00BF00BF0846806983
:1039300040F0040088610846806900F004000090AF
:1039400000BF00BF08BD00000010024010B51048C5
:10395000104908604FF4827048604FF400410D48F0
:1039600081600021C16002210161012141614902A0
:1039700081610821C16100210162416281620A21E5
:10398000C162FEF701FF08B1FCF77CFF10BD00002B
:1039900000380040B02F002010B50F480F490860D4
:1039A0004FF41650486000210C488160C1600161ED
:1039B0000C21416100218161C161FFF743FB08B126
:1039C000FCF760FF05480068C06840F0200003492C
:1039D0000968C86010BD00000038014024010020C3
:1039E00010B50F480F4908604FF46140486000214E
:1039F0000C488160C16001610C214161002181613D
:103A0000C161FFF71FFB08B1FCF73CFF05480068E8
:103A1000C06840F0200003490968C86010BD00007C
:103A2000004400406C01002010B50F480F490860A9
:103A30004FF4E130486000210C488160C1600161B1
:103A40000C21416100218161C161FFF7FBFA08B1DE
:103A5000FCF718FF05480068C06840F020000349E3
:103A60000968C86010BD000000480040B401002093
:103A700000BFFEE700BFFEE708B508490968C908AE
:103A80004FF47A72B1FBF2F14143009100BF00BFE5
:103A900000994A1E00920029F9D108BD200000209B
:103AA0002DE9F04104460D4616461F4605201049F3
:103AB000C87008710120487108468771C571067287
:103AC00044720079401DC1B20948FCF74DFC084919
:103AD0000A79491D8854481F0079821D4FF47A7372
:103AE000491F0448FFF709FC0020BDE8F0810000F1
:103AF000052F00202401002001460248016000201B
:103B000070470000100000200146024801600020BC
:103B100070470000040000200146024801600020B8
:103B2000704700000800002008B500BF17488069F2
:103B300040F48050154988610846806900F480503F
:103B4000009000BF00BF1248124908604FF4827015
:103B5000486000210F488160C1600221016101219C
:103B60004161490281613821C161002101624162E4
:103B700081620721C162FEF707FE064800680068FF
:103B800040F0400003490968086008BD0010024089
:103B9000003001404C300020F8B504460D46164672
:103BA0002B46002280212046009600F009F828B11B
:103BB000606D40F0200060650320F8BD0020FCE748
:103BC0002DE9F84F04460D4690461E46DDF8289034
:103BD000FEF7AAF9A0EB0900371AFEF7A5F982460D
:103BE0002C480068C0F3CB307843009045E0701C4F
:103BF000002842D0FEF798F9A0EB0A00B84200D2A4
:103C0000A7BB2068406820F0E00021684860606839
:103C1000B0F5827F0DD1A068B0F5004F03D0A06849
:103C2000B0F5806F05D12068006820F04000216861
:103C30000860A06AB0F5005F0DD100BF2068006881
:103C400020F40050216808602068006840F40050AB
:103C50002168086000BF012084F8510000BF0020E7
:103C600084F8500000BF0320BDE8F88FFFE70098FC
:103C700000B900270098401E009020688068284006
:103C8000A84201D1012000E000204045AFD1002032
:103C9000EAE700002000002070B505460C46412CE4
:103CA00002DD4FF0FF3070BD06201049C870084695
:103CB000047122462946401DFCF780FA0B48007922
:103CC000401DC1B20948FCF74FFB08490A79491D5C
:103CD0008854481F007900F109024FF47A73491F94
:103CE0000348FFF70AFB0020DDE70000052F002056
:103CF0002401002010B5FEF71DF902F01FFD012878
:103D000001D002F06BFA10BD00B58FB0282105A8D4
:103D1000FCF76DFA14216846FCF769FA012005905A
:103D200000040690400007900120099002200C90AA
:103D3000C1030D914FF4E0110E9105A8FEF7F2FAC0
:103D400008B1FCF79FFD0F20009002200190002099
:103D500002904FF480600390002004900221684696
:103D6000FEF7BAF908B1FCF78DFD0FB000BD704742
:103D700010B501F0CDFB00F009F800F03DF800F0BF
:103D800055F800F01FF801F007FC10BD1CB50648FF
:103D900003210023C822CDE9001004A1084802F045
:103DA0009DFC00201CBD0000F400002046696E67E9
:103DB000657244617461436F6E74726F6C000000D1
:103DC000D95800081CB50648082100236422CDE913
:103DD000001004A1074802F081FC00201CBD000077
:103DE0001C0100204A6F79537469636B5461736BD3
:103DF00000000000795900081CB506480521002381
:103E0000C822CDE9001004A1074802F067FC002099
:103E10001CBD0000080100204B65794461746143BA
:103E20006F6E74726F6C00007D5A00081CB50648F6
:103E300007210023C822CDE9001004A1064802F0A2
:103E40004DFC00201CBD00001801002052474250CC
:103E5000726F636573730000DD5B000870B5054623
:103E60006C6A0020E085E0842046FEF778FF70BD94
:103E700000BF00BF02680C3252E8002F22F490719C
:103E800002680C3242E80013002BF3D100BF00BFE0
:103E900000BF0268143252E8002F22F001010268CC
:103EA000143242E80013002BF3D100BF016B01294B
:103EB0000ED100BF00BF02680C3252E8002F22F082
:103EC000100102680C3242E80013002BF3D100BF4E
:103ED000202180F8421000210163704710B504468C
:103EE0002068C06820F040002168C860202084F865
:103EF00041002046FFF75AFA002010BDF8B50446ED
:103F000094F84200222875D1A068B0F5805F0CD1EA
:103F1000206950B90025A66A20684068C0F30800EF
:103F20003080A06A801CA06215E0A56A0026A06807
:103F3000B0F5805F03D0A06828B9206918B920685F
:103F40004068287004E02068406800F07F00287016
:103F5000A06A401CA062E08D401E80B2E08500286F
:103F600046D12068C06820F020002168C860206821
:103F7000C06820F480702168C8602068406920F023
:103F8000010021684861202084F84200002060631D
:103F9000206B012826D10020206300BF00BF2168CC
:103FA0000C3151E8001F21F0100021680C3141E86C
:103FB0000002002AF3D100BF2068006800F0100062
:103FC00010280AD100BF00200090206800680090EF
:103FD00020684068009000BF00BFA18D2046FEF71A
:103FE000BDFE02E02046FFF787F90020F8BD01E0A2
:103FF0000020FBE70220F9E770B504462168096953
:1040000021F44051E2681143226811612269A168DC
:104010001143626941EA02052168C96841F20C62F4
:10402000914329432268D1602168496921F4407194
:10403000A2691143226851612D4A2168914202D13F
:10404000FEF726F901E0FEF713F900EBC00101EBE2
:10405000001162689200B1FBF2F100EBC00202EBCA
:10406000001263689B00B2FBF3F26423B2FBF3F22D
:1040700002EBC20303EB0212A1EB8201322202EB3C
:1040800001116422B1FBF2F101F0F00100EBC0027A
:1040900002EB001263689B00B2FBF3F26423B2FBF5
:1040A000F3F201EB021200EBC00101EB00116368B7
:1040B0009B00B1FBF3F100EBC00303EB0013666858
:1040C000B600B3FBF6F36426B3FBF6F303EBC306CB
:1040D00006EB0313A1EB8301322303EB01116423ED
:1040E000B1FBF3F101F00F0111442268916070BD42
:1040F00000380140014691F84100212828D1886804
:10410000B0F5805F0BD1086948B90A6A1088C0F31E
:1041100008000B685860086A801C086205E00B6A9A
:10412000581C086218780B685860C88C401E80B212
:10413000C88458B90868C06820F080000B68D8604F
:104140000868C06840F040000B68D86000207047E5
:104150000220FCE72DE9F04104460D46174698463B
:10416000069E34E0701C88B32EB1FDF7DDFEA0EB97
:104170000800B0422BD900BF00BF21680C3151E8C4
:10418000001F21F4D07021680C3141E80002002AA0
:10419000F3D100BF00BF00BF2168143151E8001FF8
:1041A00021F001002168143141E80002002AF3D116
:1041B00000BF202084F8410084F8420000BF0020A6
:1041C00084F8400000BF0320BDE8F081FFE72068CD
:1041D00000682840A84201D1012000E00020B84238
:1041E000C0D00020F0E7000008B5002000900D4886
:1041F000FEF7B6FD0023012269460A48FFF71EF8C4
:104200000948006820B101216846074A12689047B2
:1042100004480068C06840F0200002490968C8608E
:1042200008BD0000240100200400002008B5002083
:1042300000900D48FEF794FD0023012269460A48CC
:10424000FEF7FCFF0948006820B101216846074AD3
:104250001268904704480068C06840F02000024996
:104260000968C86008BD00006C010020080000203B
:1042700000BFFEE72DE9F04106460F4614464FF415
:10428000907841462046FBF7B2FF4FF47A734246DE
:1042900021460D48FEF736FB002508E005EB4502F8
:1042A00004EB021156F8250000F010F86D1CBD4219
:1042B000F4D34FF47A734FF4907221460248FEF71C
:1042C00021FBBDE8F0810000B02F00202DE9FE4F5A
:1042D00007460D464FF6F87001904FF4604000908D
:1042E000C7F30749C7F3072A07F0FF0B4FEA0A4055
:1042F00040EA092040EA0B0002901E212846FBF705
:1043000076FF0024002080465FE0C8F11701029884
:10431000C84000F0010050B3002625E0C6F10F01AF
:104320004FF6F870084100F0010068B105EBD400C9
:10433000007804F00701C1F1070201219140084310
:1043400005EBD40108700CE005EBD400007804F014
:104350000701C1F1070200219140084305EBD40198
:104360000870641C701CC6B2102ED7DB29E0002632
:1043700025E0C6F10F014FF46040084100F0010054
:1043800068B105EBD400007804F00701C1F1070221
:1043900001219140084305EBD40108700CE005EBC6
:1043A000D400007804F00701C1F107020021914018
:1043B000084305EBD4010870641C701CC6B2102EB3
:1043C000D7DB08F10100C0B28046B8F1180F9CDBC2
:1043D000BDE8FE8F0FB4054B10B503A9044A02983F
:1043E00000F034F810BC5DF814FB0000B54600087E
:1043F0000000002002480068C0F30220704700005F
:104400000CED00E010B5002804DB0A07130E054A86
:10441000135406E00A07140E034A00F00F031B1F93
:10442000D45410BD00E400E018ED00E002E008C83C
:10443000121F08C1002AFAD170477047002001E01E
:1044400001C1121F002AFBD1704700002DE9FF4F68
:104450008BB09A460F460546002606E025280BD06D
:1044600052460D9990476D1C761C28780028F5D18E
:104470000FB03046BDE8F08F0024A046012260490D
:1044800000E0044315F8013F203B02FA03F0084224
:10449000F7D128782E2817D115F8010F44F004041D
:1044A0002A280ED06FF02F022878A0F130010929B8
:1044B0000AD808EB880102EB410100EB01086D1CF2
:1044C000F2E757F8048B6D1C287869283ED006DC8B
:1044D0000028CDD063280BD0642804D136E073289F
:1044E00010D075284BD052460D999047761C85E028
:1044F00017F8040B8DF8000000208DF80100E94644
:10450000012003E057F8049B4FF0FF3061074FF0A4
:10451000000401D40AE0641C44450DDA8442FADB4D
:1045200019F804100029F6D106E0641C8442FCDB73
:1045300019F804100029F8D1264404E019F8010BF9
:1045400052460D999047641EF8D257E001CF4FF0C4
:104550000A0B002802DA40422D2102E0210504D591
:104560002B218DF82410012103E0E10705D0202143
:10457000F7E70DF1200908910CE00021F9E701CFE0
:104580004FF00A0BF9E75946FBF73CFE01F1300208
:1045900009F8012D0028F6D1ADEB090000F1200B40
:1045A000600701D44FF00108D84502DDA8EB0B00ED
:1045B00000E000208046002406E009A85246005D85
:1045C0000D999047641C761C08988442F5DB04E042
:1045D000302052460D999047761CB8F10001A8F1A1
:1045E0000108F5DC05E019F8010B52460D999047DA
:1045F000761CBBF10001ABF1010BF4DC6D1C34E760
:104600000928010070B5044600204FF0E021086140
:10461000FEF776FBE11704EB5171C1F3CF010C4AB1
:104620001180E11704EB5171CD104FF47A704543BE
:104630004FF0E020006940F002004FF0E0210861F7
:1046400008464561006940F00100086170BD000046
:10465000A400002030B50446002504E04FF47A7031
:1046600000F004F86D1CA542F8D330BD70B50346C8
:1046700000224FF0E02675690D4E368803FB06F4E4
:104680004FF0E026B16910E04FF0E026B0698842B3
:104690000BD0884202D20E1A324402E02E1A0E4487
:1046A00032440146A24200D300E0EDE700BF70BDF6
:1046B000A400002000BF054A126802F04002002A50
:1046C000F9D0C2B2014B1B1D1A6070470048004070
:1046D0000EB50025FDF73AFCFFF716FBFFF716F9BC
:1046E000FFF75AF9FFF77CF9FFF79EF9FCF7FCFB9F
:1046F000FFF72CF94820FFF785FFFCF7C7F8FBF719
:10470000F5FE4FF47A70FFF7A5FFFCF73FF81FA006
:10471000FFF760FEFCF758FC05460DE01FA0FFF711
:1047200059FE4FF4FA70FFF795FF21A0FFF752FEF4
:104730004FF4FA70FFF78EFF002DEFD04FF6FF70A9
:104740008542EBD000200090019002900A224FF4A5
:1047500080116846FCF7CAFC002406E01DF804102E
:1047600018A0FFF737FE601CC4B20A2CF6DB18480D
:10477000FFF7CAF91748FFF7CFF91748FFF7BCF959
:10478000FFF7F6FA01F006FB00BFFEE768656C6C08
:104790006F2066696E6765720D0A0000464C4153D2
:1047A0004820436865636B204661696C656421003D
:1047B000506C6561736520436865636B2120202020
:1047C0002020200064617461203A2025640D0A00D5
:1047D00091370008A90C0008B93600082DE9F0410E
:1047E00005460E462948076800202949096881F8CE
:1047F000590027480068001D00F044FE50B92448C5
:10480000006890F82C1001208840224909688143F3
:1048100020480160681CD8B9D6B11F4948681C49B6
:10482000096888601A4982680968CA601849096875
:10483000091D8268516016490968091D8160164A80
:10484000134909684A6111460968491C11601AE058
:104850007C190F4800684460BC4207D20C480168CC
:10486000091D0E48006800F039FE0CE00848016898
:10487000091D0B48006800F031FE0A4800688442B8
:1048800001D208480460BDE8F08100003800002033
:10489000240000203C000020800500202C00002087
:1048A000280000205400002010B5044600F030FE1F
:1048B00031480068401C304908603048006840B901
:1048C0002E4804600846006801280DD100F00EFA59
:1048D0000AE02B48006838B928480068C06AE16AD5
:1048E000884201D82548046026480068401C2549B4
:1048F000086008460068606494F82C100120884025
:1049000021490968084320490860E16A01EB8101F7
:104910001E4A02EB81014868A0608268E260211DA6
:10492000826851608160E16A01EB8101174A02EB04
:1049300081026261E16A01EB8101144A52F821109F
:10494000491CE26A02EB8202104B43F8221000F08D
:1049500023FE0B48006868B108480068C06AE16A35
:10496000884207D24FF0805009490860BFF34F8F4B
:10497000BFF36F8F10BD0000340000202400002022
:1049800040000020500000203C000020B002002029
:1049900004ED00E010B500F0BBFD10480068D0B990
:1049A0000F4800F08BFD0F4800F088FD0C480E49C1
:1049B00008600C480D49086000221021052001F014
:1049C00027FC064908600846006820B108A1034892
:1049D000006800F0E3FE00F0DFFD10BD6C00002079
:1049E00094050020A8050020640000206800002035
:1049F000546D72510000000010B516E000F088FD03
:104A00000C48C068C468201D00F03CFD0A480068DE
:104A1000401E0949086009480068401E07490860AF
:104A200000F0BAFD204600F05FF804480068002856
:104A3000E4D110BD6C0500203400002030000020BF
:104A400070B504460D46206C70B1216CE0680144DD
:104A5000E160D4E90210884201D32168E160284670
:104A6000226CE168FBF7AAFB70BD2DE9F04104461A
:104A70000F4615464FF00008A66B206C48B9206819
:104A800000282CD1A06801F059FF80460020A060CA
:104A900025E07DB93946226C6068FBF78FFB216CFD
:104AA000606808446060D4E90101884217D3206837
:104AB000606014E03946226CE068FBF77FFB216CF4
:104AC000E068411AE1602168E068884203D2216C05
:104AD000A068411AE160022D01D106B1761E701C5A
:104AE000A0634046BDE8F08110B50446206B00F09D
:104AF0008BFD204600F088FD10BD00000146084AED
:104B0000126812680AB9012200E000220A600A68ED
:104B100022B9034A1268D268106800E0002070478A
:104B20006400002030B54FF42053174800F007040C
:104B30002CB1C01D20F00700134C041B1B1B0246A8
:104B4000124C22600024114D6C60D018083820F0FF
:104B500007000F4C206000240D4D2D686C600C4D3B
:104B60002D682C601146441A4C60094C24680C6076
:104B7000084D4C682C60084D4C682C604FF0004488
:104B8000064D2C6030BD0000BC05002078000020E0
:104B90008000002088000020840000209400002075
:104BA00000BFFFF729FF064800680128F9D94FF038
:104BB000805004490860BFF34F8FBFF36F8FF0E759
:104BC000B002002004ED00E02DE9F04106460D465C
:104BD00017469846069C0DB9246000E02760E663FE
:104BE00025640121204601F053FB84F85080002009
:104BF000A064BDE8F08100002DE9F05F82460F4619
:104C000090469B460A9E0C9C4FEA8801A522206B89
:104C1000FBF7E6FAA8F10100216B01EB800929F00E
:104C2000070909F0070008B9012000E0002028B9B1
:104C30004FF4587224A129A0FFF7CCFB87B10025BF
:104C400007E0795D04F134004155785D00B902E078
:104C50006D1C102DF5D300BF00214320015502E04B
:104C6000002084F83400202E01D2012000E0002032
:104C700028B940F2973214A118A0FFF7ABFB202E01
:104C800000D31F26E662E66400202065201D00F0A8
:104C900022FC04F1180000F01EFC2461C6F1200083
:104CA000A06164620020606584F8580084F85900AF
:104CB0005A465146484600F0D3FB20600B9808B195
:104CC0000B980460BDE8F09F2E2E5C46726565521D
:104CD000544F535C7461736B732E63004572726F33
:104CE000723A2025732C2025640D0A0010B500248B
:104CF00007E004EB84010F4A02EB810000F0DEFBC9
:104D0000641C202CF5D30C4800F0D8FB0B4800F0B5
:104D1000D5FB0B4800F0D2FB0A4800F0CFFB0A4855
:104D200000F0CCFB044809490860044808490860C1
:104D300010BD0000B0020020300500204405002016
:104D4000580500206C050020800500202800002068
:104D50002C00002010B50146164800E000680368EA
:104D60008B42FBD30246436813448B4204D1436811
:104D70004C682344436001460A464B681344046868
:104D8000A34211D10C4C03682468A34208D04B689D
:104D90000468646823444B6003681B680B6005E08B
:104DA000054B1B680B6001E003680B60884200D074
:104DB000016010BD78000020800000202DE9F04146
:104DC00004460D4616461F464FF0000865602461F4
:104DD000B5420CD8F01BA169884202D34FF00108FC
:104DE00011E0211D0948006800F078FB0BE0BE428D
:104DF00004D2BD4202D34FF0010804E0211D044853
:104E0000006800F06BFB4046BDE8F08168000020C0
:104E10006400002070B5054600F07AFBA86B08B965
:104E2000012400E0002400F0B7FB204670BD000024
:104E3000F1B50098846C00262CB940F6D53220A13B
:104E400024A0FFF7C7FAA06BE16B884201D20120D2
:104E500000E0002028B940F6D63219A11DA0FFF7C6
:104E6000B9FAA06BE16B884227D294F94550002231
:104E700069462046FFF7F9FD0646681C60B9606A7E
:104E800008B9012000E00020B0B904F1240001F0CD
:104E9000D5FD88B101260FE07F2D01D0012000E073
:104EA000002028B940F6F63205A10AA0FFF792FAD1
:104EB000681C40B284F8450000BF3046F8BD0000D1
:104EC0002E2E5C4672656552544F535C7175657544
:104ED000652E63004572726F723A2025732C20256F
:104EE000640D0A0070B505460E460E480068C0689D
:104EF000C468201D00F0C6FA94F8280000F00400F1
:104F000028B132462946204600F0F8F805E094F82A
:104F1000280000F0FE0084F828002046216A884717
:104F200070BD00006400002070B586B08AE0029871
:104F300000280CDA03AE2EB940F2063247A14DA08C
:104F4000FFF748FAD6E90020B168904700BF029801
:104F5000002877DB049C606908B9012000E000208C
:104F600010B9201D00F08EFA01A800F0F3F80546F4
:104F700002980A2864D2DFE800F06305072E365352
:104F800006082F3700BF00BF00BF94F8280040F08C
:104F9000010084F828000398A269811803462A4674
:104FA0002046FFF70BFFA8B194F8280000F004009A
:104FB00038B10398A26981182A46204600F09EF86D
:104FC00005E094F8280000F0FE0084F82800204650
:104FD000216A884735E000BF94F8280000F0FE0001
:104FE00084F828002DE000BF94F8280040F001006C
:104FF00084F828000398A061A06908B1012000E0AE
:10500000002028B940F2593214A11AA0FFF7E2F9A2
:10501000A06941192B462A462046FFF7CFFE10E033
:1050200094F8280000F0020018B9204600F0ECFACD
:1050300005E094F8280000F0FE0084F8280000E065
:1050400000BF00BF002202A90E48006801F030FA3C
:1050500000287FF46CAF06B070BD00002E2E5C46B9
:1050600072656552544F535C74696D6572732E633B
:10507000000000004572726F723A2025732C2025C3
:10508000640D0A006C000020F8B505460C4600F0DF
:10509000DBFE684600F05EF80646009820BB44B987
:1050A000B54206D801F068FD31462846FFF71AFFE1
:1050B0001CE03CB10E480068006808B9012000E01F
:1050C00000200446A91B22460A48006800F0A4FB01
:1050D00001F052FD50B94FF0805007490860BFF30E
:1050E0004F8FBFF36F8F01E001F046FDF8BD000068
:1050F000680000206C00002004ED00E070B504465C
:105100000D46164604E0A06905442046216A8847FA
:10511000A06941192B4632462046FFF74FFE002872
:10512000F1D170BD09480068006808B9012000E0AD
:10513000002020B14FF0FF300549086005E003482A
:105140000068C068006802490860704728000020B5
:105150005400002070B5044601F000FB05460748E6
:105160000068854204D200F00BF80120206001E0C5
:105170000020206001480560284670BD74000020B2
:1051800070B508E00D480068C06804684FF0FF3152
:105190002046FFF7A7FE09480068006808B901200B
:1051A00000E000200028EDD00448056804480068AD
:1051B000024908600248056070BD000064000020DC
:1051C000680000200B480068401C08B9012000E07E
:1051D000002020B9CE2208A112A0FFF7FBF800BFE3
:1051E000502080F31188BFF34F8FBFF36F8F00BF44
:1051F00000BFFEE7980000202E2E5C4672656552C7
:10520000544F535C706F727461626C655C525644AB
:10521000535C41524D5F434D335C706F72742E632B
:10522000000000004572726F723A2025732C202511
:10523000640D0A0008B500BF6846FFF75FFC04462E
:1052400020460099FFF720FFFFF76EFEF4E770B5E8
:10525000044600F05DF994F9455019E0A06C30B1B6
:105260002046FFF7E5FD88B100F04AFC0EE0606AD9
:1052700008B9012000E0002038B904F1240001F051
:10528000DDFB18B100F03CFC00E003E0681E45B215
:10529000002DE3DC00BFFF2084F8450000F07CF91E
:1052A00000F036F994F9445010E0206908B9012063
:1052B00000E0002048B904F1100001F0BFFB08B184
:1052C00000F01EFC681E45B200E001E0002DECDCA1
:1052D00000BFFF2084F8440000F05EF970BD0000BC
:1052E0002DE9F04104464FF0000800F0ADFD4848BC
:1052F000006808B9FFF716FC4648006820400028FF
:1053000073D114B304F10800A0421ED9083404F08C
:105310000700D8B104F00700C0F108002044A04203
:1053200011D904F00700C0F10800044404F007009C
:1053300008B9012000E0002040B99C2236A140A01D
:10534000FFF748F802E0002400E00024002C4CD0D5
:105350003F480068844248D83E4E3046056801E028
:105360002E462D686868A04202D228680028F7D12E
:1053700027480068854238D0306800F1080828685E
:1053800030606868001B102813D92F1907F0070038
:1053900008B9012000E0002020B9CF221EA128A0DA
:1053A000FFF718F86868001B78606C603846FFF7F4
:1053B000D1FC274968680968081A25490860084629
:1053C000006825490968884203D2214800682249BB
:1053D0000860104968680968084368600020286010
:1053E0001E480068401C1D49086001F0C5FB08F01C
:1053F000070008B9012000E0002028B94FF48872A6
:1054000005A10FA0FEF7E6FF4046BDE8F0810000D1
:1054100080000020940000202E2E5C4672656552AC
:10542000544F535C706F727461626C655C4D656D56
:105430004D616E675C686561705F342E63000000CB
:105440004572726F723A2025732C2025640D0A0074
:105450008400002078000020880000208C000020BC
:10546000001F4FF080730360001F21F001030360F1
:10547000001F034B0360143802602038704700009F
:10548000C551000801460A69D1E901309860D1E9A7
:10549000010358605068884201D18868506000203C
:1054A00008611068401E10601068704770B50446AF
:1054B0000D462946204600F06BFD70BD00F1080145
:1054C00041604FF0FF31816000F10801C16001616E
:1054D00000210160704700210161704710B502464C
:1054E0000B685C1C0CB9106907E002F1080000E0D1
:1054F0004068446824689C42FAD944684C604C680F
:10550000A160886041600A611468641C146010BD69
:1055100010B500BF502080F31188BFF34F8FBFF349
:105520006F8F00BF0B480068401C0A49086008469E
:10553000006801280DD108480068C0B208B90120F0
:1055400000E0002028B940F2731204A10EA0FEF77B
:1055500041FF10BD9800002004ED00E02E2E5C46B7
:1055600072656552544F535C706F727461626C6502
:105570005C525644535C41524D5F434D335C706FF7
:1055800072742E63000000004572726F723A20251B
:10559000732C2025640D0A0010B50B48006828B94B
:1055A0004FF4BD7209A114A0FEF714FF064800686D
:1055B000401E054908600846006820B9002080F3B5
:1055C000118800BF00BF10BD980000202E2E5C4641
:1055D00072656552544F535C706F727461626C6592
:1055E0005C525644535C41524D5F434D335C706F87
:1055F00072742E63000000004572726F723A2025AB
:10560000732C2025640D0A0070B506463546002E21
:105610003AD0083D2C461D4960680968084008B129
:10562000012000E0002028B94FF4927218A122A0B6
:10563000FEF7D0FE206808B9012000E0002028B95C
:1056400040F2251212A11CA0FEF7C4FE0F496068AB
:1056500009680840C0B12068B0B90C4960680968A1
:105660008843606000F0F0FB1749606809680844EF
:10567000154908602046FFF76DFB14480068401C80
:105680001249086001F078FA70BD00009400002013
:105690002E2E5C4672656552544F535C706F727467
:1056A00061626C655C4D656D4D616E675C686561DE
:1056B000705F342E630000004572726F723A2025CD
:1056C000732C2025640D0A00840000209000002027
:1056D00000204FF0E0210861886107480068C00899
:1056E0004FF47A71B0FBF1F0401E4FF0E0214861B9
:1056F00003200861704700002000002070B5FAF711
:1057000047FD0546102D11D305F1E02090F8F04338
:1057100010480078844201DB012000E0002028B915
:1057200040F2BB220CA117A0FEF754FE19480068F6
:1057300000F4E06018490968884201D8012000E0BF
:10574000002028B940F2CB2203A10EA0FEF742FEB2
:1057500070BD00009C0000202E2E5C4672656552D4
:10576000544F535C706F727461626C655C52564446
:10577000535C41524D5F434D335C706F72742E63C6
:10578000000000004572726F723A2025732C2025AC
:10579000640D0A000CED00E0A00000202DE9F041AE
:1057A00006460F462EB940F6C82211A115A0FEF7F5
:1057B00011FE0025BFB1002412E0164800EBC40022
:1057C0004068B04203D1134800EBC4050AE035B984
:1057D000104850F8340010B90E4800EBC405641CA2
:1057E000082CEAD300BF0DB12F606E60BDE8F081D8
:1057F0002E2E5C4672656552544F535C717565750B
:10580000652E63004572726F723A2025732C202535
:10581000640D0A00700200202DE9F04105460E4695
:1058200017462C46FFF774FE94F94400401C10B94B
:10583000002084F8440094F94500401C10B9002071
:1058400084F84500FFF7A8FEA06B28B93A46314618
:1058500004F1240000F084F92046FFF7F8FCBDE8CD
:10586000F081000070B504460025ACB10F48006817
:1058700008B9012000E0002028B940F249520CA1EB
:1058800010A0FEF7A7FD00F0DFFA00212046FEF78A
:10589000A5FF01F071F905463DB94FF080500D4963
:1058A0000860BFF34F8FBFF36F8F70BD60000020A3
:1058B0002E2E5C4672656552544F535C7461736B57
:1058C000732E63004572726F723A2025732C202567
:1058D000640D0A0004ED00E008B500200090FBF71D
:1058E00017F8002201210A2000F092FC17490860F5
:1058F00000F040FB1649086026E04FF4FA62694662
:105900001248006800F0D4FD0446012C04D19DF833
:105910000000FBF7EBF916E0FAF7FAFF10210D484B
:10592000FCF7F4FA01280ED1FBF7E8FD0A48007AEB
:1059300009300949C97940EA01224FF47A730649CE
:105940000648FDF7DAFC00BFD7E70000FC000020A6
:105950000001002000080140FA2D00206C01002009
:105960000349096801600349096841607047000004
:105970004C000020380000201CB500200190009051
:1059800000220221012000F043FC36490860022277
:1059900035493648FBF708FE62E04FF0FF3201A9B7
:1059A0003048006800F084FD0446FFF7B1FD9DF823
:1059B0000500242806DA9DF80500C0F12400C0B2D5
:1059C0008DF801009DF805002C2807DD9DF80500E5
:1059D0002C38C0F1FF00C0B28DF801009DF8040022
:1059E000242806DA9DF80400C0F12400C0B28DF826
:1059F00000009DF804002C2807DD9DF804002C38D9
:105A0000C0F1FF00C0B28DF800009DF8000008B1A1
:105A1000012000E000209DF8011009B1012100E003
:105A20000021084388B19DF805209DF8041010A0BE
:105A3000FEF7D0FC9DF801209DF8001000231846C9
:105A4000FEF72EF8002000900190FFF7A5FD1E2024
:105A5000FFF708FF022204490448FBF7A5FD00BF39
:105A60009BE70000200100200C000020FC0100202A
:105A7000783D25642C793D25640D0A0008B5002089
:105A80000090FDF73BFE002201210A2000F0C0FB40
:105A90001849086001240425042600273B463246A5
:105AA00029462046FBF72EFC1348007A093012499C
:105AB000C97940EA01224FF47A730F490F48FDF784
:105AC0001CFC16E04FF0FF3269460A48006800F0FF
:105AD000EFFC8046B8F1010F08D19DF80000FDF7FA
