:020000040800F2
:100000003838002099010008031C0008E119000895
:10001000011C0008550200086D21000800000000C6
:1000200000000000000000000000000001010008C6
:10003000E90300080000000045010008851D0008D4
:10004000B3010008B3010008B3010008B3010008C0
:10005000B3010008B3010008B301000879040008E7
:10006000B3010008B30100087F040008B3010008D1
:10007000B3010008B3010008B3010008B301000890
:10008000B3010008B3010008B3010008B301000880
:10009000B3010008B3010008B3010008850400089B
:1000A000B3010008B3010008B3010008B301000860
:1000B000B3010008B3010008B3010008B301000850
:1000C000B3010008B3010008B3010008B301000840
:1000D000B30100080521000839210008B301000818
:1000E000B3010008B3010008B3010008DFF80CD029
:1000F00000F09EF8004800475925000838380020D5
:10010000224B19680868B0E8F00F80F30988BFF344
:100110006F8F4FF0000080F311884EF00D0E704786
:100120000000000006480068006880F3088862B696
:1001300061B6BFF34F8FBFF36F8F00DF00BF00BF0B
:1001400008ED00E0EFF30980BFF36F8F0F4B1A68E3
:1001500020E9F00F106008B54FF0500080F31188CF
:10016000BFF34F8FBFF36F8F03F0B2FA4FF0000071
:1001700080F31188BDE8084019680868B0E8F00FFE
:1001800080F30988BFF36F8F704700BF1C00002009
:10019000EFF3058070470000064880470648004797
:1001A000FEE7FEE7FEE7FEE7FEE7FEE7FEE7FEE727
:1001B000FEE7FEE7FD1D0008ED00000840EA010330
:1001C0009B0703D009E008C9121F08C0042AFAD20D
:1001D00003E011F8013B00F8013B521EF9D27047D1
:1001E000D2B201E000F8012B491EFBD27047002279
:1001F000F6E710B513460A4604461946FFF7F0FF26
:10020000204610BD30B50B460146002020220124B7
:1002100009E021FA02F59D4205D303FA02F5491BD4
:1002200004FA02F52844151EA2F10102F1DC30BDEA
:10023000064C074D06E0E06840F0010394E8070033
:1002400098471034AC42F6D3FFF754FFFC44000843
:100250001C450008FEE7034610B50020024604E0F6
:100260009C5C521C2044C0B2D2B28A42F8D310BD6A
:100270002DE9F041294886B0816941F0040181618E
:10028000816901F004010491816941F008018161F3
:100290008069234F00F008004FF48055049000223D
:1002A0002946384600F05BFCDFF8788000222021E8
:1002B000404600F054FC0124CDE9005402250326F9
:1002C000CDE902566946384600F054FB20208DE8FF
:1002D00071006946404600F04DFB01222021404656
:1002E00000F03DFC104800210170417000F036F82C
:1002F00000222021404600F032FC0C4857210170BA
:10030000AB21417000218170074808384170001FFF
:100310000570801E047006B0BDE8F0810010024038
:1003200000080140000C0140B8000020052E00200C
:1003300070B50122084D14032146284600F00FFC39
:100340004FF47A7002F0D4F821462846BDE8704098
:10035000002200F004BC00000008014030B58FB05E
:10036000302102A8FFF743FF1149124B6A46D1E939
:100370000301CDE900010021084615181C5C6C71D1
:10038000145C401C2144C0B2C9B23728F5D38DF8A3
:1003900037104FF47A7338226946074801F081FA22
:1003A0004FF4FA6002F0A4F8FFF7C2FF0FB030BDBF
:1003B00078430008B8000020040100200948EF231A
:1003C0000849037001224270891CFF2008704870A0
:1003D0008870C870091D0B704A708870C8700871E9
:1003E000487170479E000020704700001D4810B5FE
:1003F000816986B041F004018161816901F00401E5
:100400000491816941F0080181618069032400F051
:1004100008000490144801904FF4407000900120AF
:10042000CDE902046946114800F0A4FA1048019091
:100430000220CDE90204009069460E4800F09AFAC5
:1004400000220121172000F0FBFB172000F0EAFB3F
:1004500000220121072000F0F3FB072000F0E2FB5F
:1004600006B010BD0010024000003110000C014029
:100470000000111000080140022000F06FBA1020A7
:1004800000F06CBA70B50B4C2568E80506D5A015D0
:1004900000F064FA206820F480702060A80507D579
:1004A0004FF4007000F05AFA206820F400702060C9
:1004B00070BD00001404014072B6FEE7114800B59B
:1004C000816985B041F0040181618069694600F06D
:1004D000040004900C48019010200090022002902B
:1004E00003200390094800F045FA012211460A2032
:1004F00000F0A6FB0A2000F095FBFFF75FFF05B0B8
:1005000000BD000000100240000011100008014072
:1005100004480021016041608160C16000F1100168
:1005200001607047082F00202DE9F041254DA87982
:10053000012845D0022843D0072841D1687A0028F5
:100540003ED821480021806803F000F90646C00724
:100550004FF000084FF0FE0705F16D0416D027702C
:10056000222060700A20A07084F803802022A4F169
:100570006301201DFFF722FE22212046FFF76BFEBC
:1005800084F828002521204601F0D6FBB00717D5B6
:100590002770042060700B20A07084F80380A87A74
:1005A0002071E87A6071074804216D30FFF753FE2F
:1005B000A071BDE8F041034808216D3001F0BCBBDB
:1005C000BDE8F081182F0020EC00002008B501469E
:1005D000012000900948406868B100236A4603F092
:1005E00087FA009838B106494FF080500860BFF391
:1005F0004F8FBFF36F8F002008BD0000EC0000207C
:1006000004ED00E070B537494A790C4601232468AF
:100610009AB18A79AAB1CA79C2B10A7AD2B14A7AB0
:10062000E2B18A7AF2B10D7901F11002092D24D2DA
:1006300020700B685B1C0B6025E0EF284DD14B71DF
:1006400013E0012849D18B7123700FE0FF2844D1BA
:10065000CB710AE0FF2840D10B7206E0FF283CD1A5
:100660004B7202E0FF2838D18B7220700868401C62
:1006700008600879401C087131E0CB72137AD47994
:1006800043EA04238B810B795B1C0B71CB7A012B22
:1006900025D18B8943B18A89521E8A810A681070DC
:1006A0000868401C08601AE0107A911DD27940EA6F
:1006B0000220401CC3B20022104604E00C5C401C27
:1006C000224492B2C0B29842F8D3C818B0F80100E0
:1006D00040BA904201D1FFF727FFFFF719FF002032
:1006E00070BD0000082F002070B5134B114C1D8801
:1006F0002580D3F80230C4F802300123A37100230F
:10070000E3710823237231236372030AA372E07238
:100710002173100A6073A273207AE17940EA012004
:10072000401C81B2A01D00F009F8010AE173207499
:1007300070BD0000E02C00209E000020034610B594
:100740000020024604E09C5C521C204480B292B21D
:100750008A42F8D310BD0000114A10B50F49138822
:10076000A1F85630D2F802208A650C4C012156348B
:10077000A1710021E171042121721F216172A07217
:10078000207AE17940EA0120401C81B2A01DFFF7E8
:10079000D5FF010AE172207310BD0000E02C00209B
:1007A0009E00002010B590F821100022022905D0EB
:1007B0000421816380F82020012010BD01680B68AE
:1007C00023F00E030B6001680B6823F001030B603C
:1007D00090F84030C46B012101FA03F3636080F8A4
:1007E000211080F82020104610BD000010B590F8B0
:1007F00021100024022903D00421816301243DE05B
:1008000001680A6822F00E020A6001680A6822F094
:1008100001020A601A4A0168914201D1012121E0D6
:10082000174A1432914201D110211BE0144A283298
:10083000914201D1891515E0114A3C32914201D112
:1008400089140FE00E4A5032914202D14FF48031A8
:1008500008E00B4A6432914202D14FF4801101E06A
:100860004FF08071064A083A5160012180F821104A
:10087000002180F82010416B01B18847204610BD4F
:10088000080002402DE9F04702285AD0102826D04F
:100890004FF48078002501272E4E2F4C4FF400791D
:1008A000404508D04946884219D1304600F052F9F7
:1008B000012826D02CE04146304600F04BF90128B3
:1008C00006D14946304600F045F908B9207828B1EC
:1008D0004146304600F03EF918B110E02770BDE8FF
:1008E000F0874946304600F035F9012807D12078D5
:1008F000012804D100231A46194601F083F9257016
:10090000EDE74146304600F025F908B9607828B196
:100910004946304600F01EF910B110E06770DEE77E
:100920004146304600F016F9012808D160780128C8
:1009300005D100231A461946FF2001F063F96570BE
:10094000CDE7BDE8F047022300221146104601F032
:1009500059B90000000C0140EA000020044910B51C
:100960000A68024202D00860FFF78CFF10BD000049
:10097000140401402DE9F84FDFF8B8910024A9F1E3
:10098000040B23460F2709F1040AABF1040EC9E05A
:100990000125A5402A40AA427DD1674ED1F804C066
:1009A000ACEB0608B44532D014DCBCF1030F3AD0EE
:1009B00009DCBCF1000F2AD0BCF1010F1CD0BCF146
:1009C000020F31D11DE0BCF1110F17D0BCF1120F95
:1009D0002AD119E0B8F5881F19D006DCB8F5803F98
:1009E00015D0B8F5801F1FD111E0B8F5001F0ED04B
:1009F000B8F5041F18D10AE0CB6815E0CB681B1DC1
:100A000012E0CB6808330FE0CB680C330CE08B6846
:100A10002BB1012B4FF0080303D0456104E0042300
:100A200002E0056100E00023FF2A01D8064601E04C
:100A300000F104064FEA840501D9A5F12005D6F896
:100A4000008007FA05FC28EA0C0803FA05F548EAD5
:100A50000508C6F800804D68ED0062D5374DAE69D7
:100A600046F00106AE61AD6924F0030605F001050C
:100A70000095334D06EB050CDCF80850A607360F41
:100A800007FA06F825EA0805DFF8B880404503D1E3
:100A90004FF0000817E044E0DFF8AC80404502D199
:100AA0004FF001080FE0DFF8A480404502D14FF07D
:100AB000020808E0DFF89880404502D14FF00308B3
:100AC00001E04FF0040808FA06F848EA0508CCF8F7
:100AD00008804D68D9F80060ED024D4601D51643F7
:100AE00000E096432E604D68DAF80060AD0255468E
:100AF00001D5164300E096432E604D68DBF8006098
:100B0000AD035D4601D5164300E096432E604D6867
:100B1000DEF80060ED03754601D5164300E096430C
:100B20002E60641C0D682A46E5407FF431AFBDE8B5
:100B3000F88F00000804014000001110001002406E
:100B40000000014000080140000C0140001001407D
:100B5000001401408068084000D0012070470AB1AD
:100B6000016170470904FBE7014880687047000095
:100B70000C000020024881680278114481607047AF
:100B80000C000020074810B5016841F01001016019
:100B9000032000F075F80F2000F006F800F024F8AC
:100BA000002010BD0020024070B50D4D04464FF4EA
:100BB0007A712878B1FBF0F00A490968B1FBF0F0CE
:100BC00000F02DFC48B9102C07D200222146501EFF
:100BD00000F036F800206C6070BD012070BD000090
:100BE0000C000020180000200C4808B5816941F075
:100BF00001018161816901F001010091C16941F048
:100C00008051C161C06900F0805000900448416883
:100C100021F0E06141F00071416008BD0010024028
:100C200000000140002809DB00F01F020121914073
:100C30004009800000F1E020C0F80011704700007A
:100C4000F0B40E4B1B680C46C3F30223C3F1070537
:100C5000042D00D90425191D072901D2002300E025
:100C6000DB1E012606FA05F1491E214099409E40EF
:100C7000761E16403143F0BC01F024BB0CED00E0C1
:100C8000064900F0070208684FF6FF03184040EAE3
:100C90000220034A10430860704700000CED00E09A
:100CA0000000FA052DE9F0470F46050061D0434EDC
:100CB000306800F00700B84209D2306820F0070021
:100CC00038433060306800F00700B84251D12868DE
:100CD0003B4C810712D5400703D5606840F4E060C3
:100CE00060602878000703D5606840F46050606059
:100CF0006068A96820F0F000084360602878C007A9
:100D000028D06868012810D02168022810D08907EF
:100D100000292EDA616821F0030101436160FFF7C9
:100D200023FF804641F288390DE021688903EFE70F
:100D30008901EDE7FFF718FFA0EB0801494502D94B
:100D40000320BDE8F0876068696800F00C00B0EB34
:100D5000810FEFD1306800F00700B8420BD930683E
:100D600020F0070038433060306800F00700B842D8
:100D700001D00120E5E72878400705D56068E968DB
:100D800020F4E060084360602878000706D56068BA
:100D9000296920F4605040EAC100606000F038F832
:100DA0006168084AC1F30311515CC84006490860F4
:100DB00006480068FFF7F8FE0020C2E70020024066
:100DC000001002405E4300081800002010000020C0
:100DD0000448054900684968044AC1F30221515C8E
:100DE000C840704718000020001002406E43000801
:100DF0000448054900684968044AC1F3C221515CAE
:100E0000C840704718000020001002406E430008E0
:100E10000F4A516801F00C00042803D0082803D0C1
:100E20000C4870470C4870470C48C1F38343C90312
:100E3000C05C0AD55168094AC1F34041921E515C19
:100E4000054A5043B0FBF1F07047054948437047ED
:100E50000010024000127A000024F4004E43000803
:100E600000093D002DE9F84F040070D02078C04DF6
:100E7000C00749D06868C0F38100012807D06868BE
:100E8000C0F38100022809D16868C00306D528682C
:100E9000800339D560680028E7D035E06068B0F598
:100EA000803F0BD010B1B0F5A02F11D0286820F4EE
:100EB00080302860286820F4802002E0286840F410
:100EC00080302860606890B1FFF74EFE06460AE069
:100ED000286840F480202860F0E700BFFFF744FE58
:100EE000801B642873D828688003F7D50CE0FFF7CF
:100EF0003BFE064605E000BFFFF736FE801B642878
:100F0000F0D828688003F7D420789A4E80074FF0F5
:100F100001094FF0000839D5686810F00C0F07D0B0
:100F20006868C0F38100022809D16868C00306D44C
:100F30002868800714D52069012808D110E02069AD
:100F4000B0B1C6F80090FFF70FFE074605E00AE1D2
:100F5000FFF70AFEC01B0228C4D828688007F7D50F
:100F60002868616920F0F80040EAC10028600DE0BF
:100F7000C6F80080FFF7F8FD074604E0FFF7F4FD30
:100F8000C01B022823D828688007F7D420780007E0
:100F90002CD57948A169D9B1C0F80090FFF7E4FDDC
:100FA000074604E0FFF7E0FDC01B02280FD8686A7F
:100FB0008007F7D571484FF4FA510068B0FBF1F0A3
:100FC000009000BF0098411E0091FAD20EE080E030
:100FD000C0F80080FFF7C8FD074604E0FFF7C4FD36
:100FE000C01B022875D8686A8007F7D420784007AC
:100FF00060D5E8690027C00008D4E86940F0805057
:10100000E861E869012700F0805000905C480168C1
:10101000C90513D40168834641F480710160FFF76C
:10102000A3FD824606E000BFFFF79EFDA0EB0A008D
:1010300064284ED8DBF80000C005F5D5E06801282B
:101040000AD008B1052813D0286A20F001002862D0
:10105000286A20F0040002E0286A40F001002862BB
:10106000E06841F2883B98B1FFF77EFD82460BE0D5
:10107000286A40F004002862EEE700BFFFF774FD25
:10108000A0EB0A0159455AD8286A8007F6D50CE02A
:10109000FFF76AFD824605E0FFF766FDA0EB0A0157
:1010A00059454CD8286A8007F6D41FB1E86920F06A
:1010B0008050E861E06988B36968C1F38101022961
:1010C00044D00228C6F8608004D0FFF74DFD0446E6
:1010D00038E034E0FFF748FD074604E0FFF744FD41
:1010E000C01B02282BD828688001F7D4206AB0F5ED
:1010F000803F05D16868A16820F40030084368602B
:10110000D4E908010843696821F474110843686050
:10111000C6F86090FFF728FD044606E025E000BF12
:10112000FFF722FD001B022809D828688001F7D5A7
:101130001BE000BFFFF718FD001B022802D90320A7
:10114000BDE8F88F28688001F4D40EE00128F7D0BC
:101150006868226A00F48031914204D1616A00F427
:101160007010884201D00120EAE70020E8E7000083
:101170000010024000004242800442421800002059
:101180000070004070B5040009D0606A002540B1CD
:1011900025616561A56294F8510040B10CE0012021
:1011A00070BD6068B0F5827FF4D0E561F2E784F845
:1011B0005050204600F040F8022084F8510020688A
:1011C000016821F040010160A088218900F482704B
:1011D00001F404410843A18901F400610843217C22
:1011E00001F002010843217D01F001010843218B38
:1011F00001F400710843217F01F03801084394F89D
:10120000201001F080010843218D01F400510843B2
:1012100021680860A069042101EA10402168486043
:101220002068C16921F40061C1616565012084F80D
:101230005100002070BD000000B585B00021009174
:101240000191029103910068104988421BD1104816
:10125000C16941F48041C161C16901F480410491D7
:10126000816941F0080181618069694600F00800E8
:1012700004904FF42040009002200190032003903E
:101280000448FFF777FB05B000BD000000380040C0
:1012900000100240000C01402DE9F84F044690F880
:1012A00050000026984615468A4601280CD0012792
:1012B00084F85070FFF758FC814694F85100B3460B
:1012C000012804D002269AE00220BDE8F88FBAF186
:1012D000000F6FD0002D6DD0032084F85100C4F8AA
:1012E00054B0C4F830A0A586E586C4F838B0A4F898
:1012F0003CB0A4F83EB0C4F844B0C4F840B0A06814
:10130000B0F5004F09D12068016821F0400101606B
:101310002068016841F48041016020680168490645
:1013200003D4016841F040010160E068B0F5006F4E
:10133000606803D058B3012D29D049E008B1012DD0
:101340001FD1206B21680088C86006E02068816892
:10135000890709D5216B0988C160206B801C206337
:10136000E08E401EE0860CE0FFF7FEFBA0EB0901DB
:10137000414503D3B8F1FF3F03D006E0B8F1000FB9
:1013800003D0E08E0028E1D125E0032635E0206B74
:1013900021680078087306E02068816889070AD50B
:1013A000216B09780173206B401C2063E08E401E86
:1013B000E0860DE01FE0FFF7D7FBA0EB09014145F8
:1013C00003D3B8F1FF3F03D0DFE7B8F1000FDCD063
:1013D000E08E0028E0D14A464146204600F040FC1D
:1013E00008B120206065A06818B92068C1688068CD
:1013F0000090606D08B1012601E084F8517084F816
:1014000050B0304661E74FF0E0210428086903D06E
:1014100020F004000861704740F00400FAE710B5BE
:10142000401EB0F1807F01D3012010BD4FF0E024B9
:1014300060610F21601700F045FF0020A0610720C8
:101440002061002010BD704770470000F8B50168AA
:1014500004460868CA684B6910F00F0F4FF000058A
:1014600059D003F0010602F49077374365D0C107E5
:1014700005D0D10503D5616C41F0010161644107DC
:1014800005D5D90703D0616C41F002016164810781
:1014900005D5D90703D0616C41F0040161640107EF
:1014A00007D502F02001314303D0616C41F00801FF
:1014B0006164616C00293AD0800604D5900602D59B
:1014C000204600F026FD20684069616CC0F3801062
:1014D000090700D460B3204600F0F4FC206840699E
:1014E000400621D52068143050E8001F21F040014B
:1014F00040E80012002AF5D1E06BA8B16D494163C4
:10150000E06BFFF773F9002811D0E06B416B01B07D
:10151000BDE8F040084783060FD593060DD5204659
:10152000BDE8F84000F0F5BC2046FFF78DFFF8BDA0
:101530002046FFF789FF6564F8BD266B2023012E46
:101540007CD1C6067AD5D60678D50868486800905A
:1015500048694FF00206400640D5E16B08684068D4
:101560000004000CE8D0A28D8242E5D9E0858869AC
:1015700020282DD020680C3050E8001F21F4807105
:1015800040E80012002AF5D12068143050E8001F0E
:1015900021F0010140E80012002AF5D12068143042
:1015A00050E8001F21F0400140E80012002AF5D168
:1015B00084F84230256320680C3050E8001F21F089
:1015C000100140E80012002AF5D1E06BFFF7EAF8BD
:1015D0006663A08DE18D401A81B22AE0A08DE18D75
:1015E000401A81B2E08D0028A6D00029A4D022683C
:1015F0000C3252E8000F20F4907042E80007002FF0
:10160000F5D12068143050E8002F22F0010240E8A4
:101610000027002FF5D184F84230256320680C3074
:1016200050E8002F22F0100240E80023002BF5D1F3
:1016300066632046FFF707FFF8BDFFE705062BD5D9
:10164000150629D594F841002128F5D1A068B0F5F8
:10165000805F01D12069B0B1206A411C21622168FC
:1016600000784860E08C401E0004000CE084E3D168
:101670002068C16821F08001C1602068C16841F024
:101680004001C160D8E7206A0088C0F308004860C4
:10169000206A801C2062E5E74006CDD55006CBD5F8
:1016A000CA68204622F04002CA6084F8413000F047
:1016B00045F9C1E7B51E000870B5040004D094F8E0
:1016C0004100002510B106E0012070BD84F84050B3
:1016D000204600F023F8242084F841002068C168E7
:1016E00021F40051C160204600F074FC20680169BB
:1016F00021F4904101612068416921F02A01416192
:101700002068C16841F40051C1606564202084F8FC
:10171000410084F842006563002070BD70B586B05A
:10172000002400940194029403942E4E03682E49E1
:10173000022003222D4DB34226D18B6943F480430E
:101740008B618B6903F4804304938B6943F004033A
:101750008B618969039201F0040104910102CDE9D2
:10176000001069462846FFF705F92815CDE9000461
:10177000694628460294FFF7FDF80022052125203E
:10178000FFF75EFA252028E0194EB34227D1CB6936
:1017900043F40033CB61CB6903F4003304938B69CA
:1017A00043F004038B618969039201F00401049101
:1017B0000421CDE9001069462846FFF7DBF8082030
:1017C000CDE90004694628460294FFF7D3F80022C9
:1017D00006212620FFF734FA2620FFF723FA06B069
:1017E00070BD0000003801400010024000080140B8
:1017F000004400402DE9F843044690F84200994621
:1018000016460D46202802D00220BDE8F883ADB16F
:10181000A6B100206064222184F842102063FFF703
:10182000A3F9A6858046E685A0684FF48057B842A4
:1018300001D1206920B12E46002526E00120E4E7F1
:10184000002622E04346002220212046CDF80090C9
:1018500000F01CFC08B10320D7E726B1A068B8420D
:101860001BD038B108E020684068C0F3080025F8B4
:10187000020B07E0206980B12068406800F07F001B
:1018800006F8010BE08D401EE085E08D0028D9D1DF
:10189000202084F842000020B7E720684068EFE786
:1018A00070472DE9F843044690F841001F4616465C
:1018B0000D46202802D00220BDE8F8837DB176B124
:1018C00000206064212084F84100FFF74DF9A684D0
:1018D0008046E684A068B0F5805F02D003E0012076
:1018E000EAE7206910B12E4600250EE000260CE044
:1018F0008021204600F0CAFBA0B9AEB116F8010B5A
:1019000021684860E08C401EE084E08C43464FF044
:10191000000200970028EBD14FF04001204600F074
:10192000B5FB30B10320C7E735F8020BC0F3080060
:10193000E6E7202084F841000020BDE77047000062
:1019400070B5224C6079FE283DD1A179601D00F070
:1019500055F8A279E11D515C884234D1E079012823
:101960002FD01B4D4FF47A760A2802D00B2828D1AD
:101970000EE00020FEF7F0FE1648017AC0793346EB
:1019800041EA002213491448FFF78BFF012115E0BB
:10199000607A217A40EA0120A17A227BE37A42EA46
:1019A0000322FEF7A1FE0D48017AC079334641EAD1
:1019B00000220A490848FFF774FF0221286801F055
:1019C00005FF002070BD4FF0FF3070BDD42F002008
:1019D000F4000020362D00204C010020E02C0020D7
:1019E000FEE700000448002101604160816000F1D1
:1019F0000C01016070470000C82F002010B50023C3
:101A00001A4604E0845C521C2344DBB2D2B28A4200
:101A1000F8D3405C984201D1002010BD4FF0FF3058
:101A200010BD000008B5014601200090094840683B
:101A300068B100236A4602F05BF8009838B10649A5
:101A40004FF080500860BFF34F8FBFF36F8F0020BF
:101A500008BD0000F800002004ED00E070B5294941
:101A60004C790A46012312686CB18C797CB1CC792F
:101A70008CB10D7901F10C04052D16D210700A6895
:101A8000521C0A6015E0572837D14B7105E0AB288E
:101A900033D18B7101E080BBCB7110700868401CA2
:101AA00008600879401C087129E00B722279921CA9
:101AB0004A810A79521C0A710A7A012A1FD14A897D
:101AC00042B14A89521E4A810A6810700868401C57
:101AD000086014E021790B480C30FFF78FFF60B9E4
:101AE000E078062809DD082807D0092805D00A284B
:101AF00003D0872801D1FFF723FFFFF773FF0020F2
:101B000070BD0000C82F0020094808B5816941F068
:101B100020018161816901F020010091816941F01A
:101B200004018161806900F00400009008BD00009C
:101B300000100240114810B50F4901604FF4827146
:101B400041604FF40041816000210222C0E903128C
:101B500001224261520282610822C0E907214162EA
:101B600081620A21C162FFF70DFB002803D0BDE8A6
:101B70001040FEF7A1BC10BD00380040B02E002080
:101B800010B50E4C0C480C2120604FF416506060CC
:101B90000020A060E060C4E90401A061E06120468B
:101BA000FFF78AFD08B1FEF787FC2068C16841F0A5
:101BB0002001C16010BD0000003801400401002078
:101BC00010B50E4C0C480C2120604FF46140606051
:101BD0000020A060E060C4E90401A061E06120464B
:101BE000FFF76AFD08B1FEF767FC2068C16841F0A5
:101BF0002001C16010BD0000004400404C010020E5
:101C0000FEE7FEE770B50E4C0525E5702571012550
:101C10006571A371E171227260722079401DC1B2B9
:101C20002046FEF718FB2279611D505422794FF4AB
:101C30007A73491F0348921DFFF733FE002070BDE1
:101C4000052E002004010020014908600020704793
:101C5000000000200149486000207047000000207B
:101C600038B50B46009204460022802100F008F8A7
:101C7000002804D0606D40F020006065032038BD6E
:101C80002DE9F8431E46914688460446089DFEF716
:101C90006BFF401B351AFEF767FF074625480068B3
:101CA000C0F3CB30684338E0701C37D0FEF75CFFE0
:101CB000C01BA84203D215B1009860B32CE0206885
:101CC000416821F0E00141606068B0F5827F0BD18E
:101CD000A068B0F5004F02D0B0F5806F04D1206845
:101CE000016821F040010160A06AB0F5005F09D1F0
:101CF0002068016821F4005101602068016841F406
:101D000000510160012084F85100002084F8500047
:101D10000320BDE8F8830025401E009020688168FC
:101D200038EA010004D000214945BDD10020F0E788
:101D30000121F9E71800002010B5412902D94FF020
:101D4000FF3010BD0D4C0622E27021710A4601469B
:101D5000601DFEF733FA2079401DC1B22046FEF720
:101D60007AFA2279611D505422794FF47A73491F0F
:101D70000348921DFFF795FD002010BD052E0020A1
:101D80000401002010B5FEF7F5FE02F055F8012819
:101D900003D0BDE8104001F0E9BD10BD10B590B012
:101DA00028216846FEF723FA14210AA8FEF71FFA35
:101DB00001210804CDE9001042000292022404919E
:101DC000CDE907404FF4E01009906846FFF74AF864
:101DD00008B172B6FEE70F20CDE90A0400204FF4E7
:101DE0008061CDE90C010E9002210AA8FEF75AFF8E
:101DF000002801D072B6FEE710B010BD704710B5D4
:101E000001F0F4F800F008F800F022F800F03AF8D9
:101E1000BDE8104001F026B91CB506490320CDE904
:101E200000010023C82204A1084801F0D9FF0020C6
:101E30001CBD0000EC00002046696E6765724461BD
:101E40007461436F6E74726F6C0000003D33000864
:101E50001CB506490520CDE900010023C82204A1D4
:101E6000074801F0BDFF00201CBD0000F800002065
:101E70004B657944617461436F6E74726F6C0000DE
:101E8000953300081CB506490720CDE90001002361
:101E9000C82204A1064801F0A3FF00201CBD0000D9
:101EA0000001002052474250726F63657373000057
:101EB000AD34000810B5406A0021C185C184FFF728
:101EC000C3FA10BD01680C3151E8002F22F4907262
:101ED00041E80023002BF5D10168143151E8002FAF
:101EE00022F0010241E80023002BF5D1016B01290A
:101EF00009D101680C3151E8002F22F0100241E8AD
:101F00000023002BF5D1202180F84210002101632D
:101F1000704708B590F84210222901D0022008BD70
:101F200082684FF480539A4201D1016921B1816ADC
:101F30009A421BD04AB10AE00268816A5268C2F331
:101F400008020A80816A891C08E0026972B102688D
:101F5000526802F07F020A70816A491C8162C18D59
:101F6000491E0904090CC18503D01BE002685268B0
:101F7000F1E70168CA6822F02002CA600168CA68F5
:101F800022F48072CA6001684A6922F001024A6143
:101F9000202180F8421000214163026B012A03D006
:101FA000FFF77EFC002008BD016301680C3151E899
:101FB000002F22F0100241E80023002BF5D1016828
:101FC0000A68D20602D50A6849680091818DFFF738
:101FD0003AFAE7E770B5044600680169E26821F45F
:101FE0004051114301612169A068084361690843B8
:101FF0002168CA6841F20C639A430243CA602068B0
:102000004169A26921F44071114341611E49206870
:10201000884202D1FEF7ECFE01E0FEF7D9FE00EBAC
:10202000C00101EB0012606864218000B2FBF0F394
:10203000B3FBF1F36FF018067343B2FBF0F5B2FB9C
:10204000F0F605EB8305322303EB0515B5FBF1F53F
:10205000B6FBF1F605F0F00505EB0615B2FBF0F660
:10206000B2FBF0F0B0FBF1F06FF01802504306EB5A
:10207000800003EB0010B0FBF1F0216800F00F00CE
:102080002844886070BD0000003801402DE9F0410F
:10209000984617460E460446069D27E0681C25D044
:1020A0002DB1FEF761FDA0EB0800A8421ED9206803
:1020B0000C3050E8001F21F4D07140E80012002AD3
:1020C000F5D12068143050E8001F21F0010140E8EC
:1020D0000012002AF5D1202084F8410084F8420043
:1020E000002084F840000320BDE8F08120680068EB
:1020F00036EA000004D00020B842CFD00020F3E739
:102100000120F9E708B500208DF800000848FFF726
:102110009DF90023012269460548FFF76BFB05483E
:102120000268002A02D001216846904708BD0000DD
:10213000040100200000002008B500208DF80000F8
:102140000848FFF783F90023012269460548FFF795
:1021500051FB05480268002A02D0012168469047D9
:1021600008BD00004C01002004000020FEE7000034
:102170002DE9F0471546804630220E4600200146E4
:102180002954401C9042FBD34FF47A794B462946A0
:102190000E48FFF781F806EB4600C001C70800248F
:1021A00009E000BF04EB440005EB001158F82400DF
:1021B00000F00EF8641CB442F4D3BAB24B46294680
:1021C000BDE8F0470148FFF767B80000B02E0020D7
:1021D0002DE9F05F0C46C0F30721C0F30742090464
:1021E00041EA0225C0B205434FF6F87A4FF4604B3E
:1021F0001E212046FDF7FBFF002211465FF0010380
:10220000C1F1170025FA00F0C0074FF0000022D0FE
:102210004FEA0A07C0F10F0627FA06F6F6070ED0B6
:1022200004EBD20C02F007099CF80080C9F1070901
:1022300003FA09F648EA06088CF8008005E004EB8A
:10224000D20696F800C086F800C0401CC0B2521CEE
:102250001028DFD320E05F46C0F10F0627FA06F60C
:10226000F6070ED004EBD20C02F007099CF80080B0
:10227000C9F1070903FA09F648EA06088CF8008054
:1022800005E004EBD20696F800C086F800C0401CBA
:10229000C0B2521C1028DFD3491CC9B21829AFD3D1
:1022A000BDE8F09F0FB4054B10B503A9044A02988E
:1022B00000F028F810BC5DF814FB00004125000870
:1022C000080000200907090E002804DB00F1E020C7
:1022D00080F80014704700F00F0000F1E02080F853
:1022E000141D704702E008C8121F08C1002AFAD165
:1022F00070477047002001E001C1121F002AFBD186
:10230000704700002DE9FF4F8BB09A460F460546F7
:10231000002606E025280BD052460D9990476D1CEB
:10232000761C28780028F5D10FB03046BDE8F08F34
:102330000024A0460122604900E0044315F8013F53
:10234000203B02FA03F00842F7D128782E2817D153
:1023500015F8010F44F004042A280ED06FF02F0264
:102360002878A0F1300109290AD808EB880102EB8E
:10237000410100EB01086D1CF2E757F8048B6D1C5E
:10238000287869283ED006DC0028CDD063280BD001
:10239000642804D136E0732810D075284BD05246FB
:1023A0000D999047761C85E017F8040B8DF8000016
:1023B00000208DF80100E946012003E057F8049B56
:1023C0004FF0FF3061074FF0000401D40AE0641CB5
:1023D00044450DDA8442FADB19F804100029F6D1DD
:1023E00006E0641C8442FCDB19F804100029F8D1D3
:1023F000264404E019F8010B52460D999047641EDB
:10240000F8D257E001CF4FF00A0B002802DA404221
:102410002D2102E0210504D52B218DF82410012166
:1024200003E0E10705D02021F7E70DF1200908912D
:102430000CE00021F9E701CF4FF00A0BF9E759460C
:10244000FDF7E0FE01F1300209F8012D0028F6D178
:10245000ADEB090000F1200B600701D44FF001083B
:10246000D84502DDA8EB0B0000E0002080460024E8
:1024700006E009A85246005D0D999047641C761C41
:1024800008988442F5DB04E0302052460D999047CD
:10249000761CB8F10001A8F10108F5DC05E019F897
:1024A000010B52460D999047761CBBF10001ABF130
:1024B000010BF4DC6D1C34E70928010070B50546FA
:1024C0004FF0E02400202061FEF79DFF0749E80857
:1024D00008804FF47A714843216941F0020121617B
:1024E0006061206940F00100206170BD9C00002007
:1024F00070B5054600244FF47A7603E0304600F0CC
:1025000005F8641CAC42F9D370BD000070B54FF003
:10251000E024002265690949A36909884843A16943
:102520009942FCD002D2A3EB010302E0A5EB010625
:1025300033441A440B468242F1D370BD9C00002004
:1025400004490A685206FCD5024AC1B2121D116044
:102550007047000000380140FEF714FBFFF71EFC37
:10256000FFF7D2FAFFF70CFBFFF72AFBFFF7E2FABF
:102570004820FFF7A3FFFDF7A1FFFDF779FE4FF419
:102580007A70FFF7B5FFFDF731FF0548FFF75CFBF9
:102590000448FFF75FFBFFF732FC01F049F8FEE764
:1025A000251A0008CD0500082DE9F041204C0F4602
:1025B0000546E6682168002081F859002068001D62
:1025C00000F0DAFC38B9206890F82C10012088401F
:1025D000216981432161681C15D1A7B11549226881
:1025E0004868906023688268DA6022688368121DF8
:1025F0005A602268121D8260206841610868401C90
:102600000860BDE8F08120683544B5424560216826
:1026100005D2E06BBDE8F041091D00F0CEBCA06B17
:10262000091D00F0CAFCA06A8542EAD2A562E8E76B
:102630001C000020A40400202DE9F041054600F014
:10264000D5FC354CA068401CA0602068334F10B109
:10265000606930B32BE02560A068012827D10026EF
:1026600006EB860007EB800000F099FC761C202E1C
:10267000F6D32B4800F093FC2948143000F08FFC6F
:102680002748283000F08BFC25483C3000F087FCC0
:102690002348503000F083FC2148A0631430E063ED
:1026A00005E02068E96AC06A884200D82560606A4F
:1026B000401C60626864E96A012022698840104316
:1026C000206101EB810007EB80004068A860816811
:1026D000E9608268291D51608160E86A00EB800032
:1026E00007EB8001696157F82010491C47F820105A
:1026F00000F0B8FC606900280CD02068E96AC06A64
:10270000884207D207494FF080500860BFF34F8FCF
:10271000BFF36F8FBDE8F0811C000020D4010020C2
:102720005404002004ED00E010B500F05FFC0E4CF6
:102730002068A0B90D4800F032FC0C48143000F0BD
:102740002EFC0A48E0601430206100221021052090
:1027500001F022F9206010B105A100F05DFDBDE897
:10276000104000F07FBC00005C000020B804002096
:10277000546D72510000000030B4026C0B46002A08
:102780000BD0C1681144C1608468A14201D30168C3
:10279000C16030BC1846FDF711BD30BC70472DE953
:1027A000F041856B174604460026026C82B1C7B122
:1027B000E068FDF703FDE168206C091AE16022681A
:1027C000914202D2A168081AE060022F16D017E0E9
:1027D0002068A8B9A06801F0EFFB06460020A060C1
:1027E0000EE06068FDF7EAFC216C606808446060F8
:1027F000A168884204D32068606001E005B16D1EC5
:102800006D1CA5633046BDE8F08110B50446006B31
:1028100000F05AFC2046BDE8104000F055BC000016
:1028200010484FF42051420706D0C01D0D4920F03A
:102830000700411AC1F520510B4A00230144C2E9A7
:1028400000030839183A21F0070111604B600B6052
:102850000B1AC0E9001393604FF0004053605061C1
:1028600070470000E004002088000020144E154C42
:10287000A6F52F774FF08058DFF84C9012E000BF9C
:1028800000F0B4FBF068C568281D00F075FBA06877
:10289000401EA0606068401E606000F0E3FB2846B8
:1028A000FFF7B3FF60680028EAD138680128F9D93A
:1028B000C9F80080BFF34F8FBFF36F8FF2E70000BE
:1028C000900400201C00002004ED00E02DE9F05FE2
:1028D000DDE90B940F461546834691009A460A9E01
:1028E000A522206BFDF77CFC6FF00301206B01EB50
:1028F0008501084420F007085FEA487005D04FF4CE
:1029000058721FA123A0FFF7CDFC002567B100205E
:102910002218395C82F83410395C11B1401C10283F
:10292000F6D384F8435001E084F83450202E06D3C7
:1029300040F2973212A117A0FFF7B4FC1F26E662FF
:10294000C4E91365201D00F035FB04F1180000F008
:1029500031FB2461C6F120006462A061656584F8E2
:10296000585084F8595052465946404600F0F2FA01
:102970002060B9F1000F01D0C9F80040BDE8F09F18
:102980002E2E5C4672656552544F535C7461736BB6
:10299000732E63004572726F723A2025732C2025C6
:1029A000640D0A0030B5114900E011460A68824200
:1029B000FBD34B685C18844203D1406818444860DC
:1029C000084643681C18944209D1084C183C2468F6
:1029D000A24209D052681A4442600A681268026032
:1029E000814200D0086030BD0460F9E78800002013
:1029F00070B5002441600B4D0061914206D8D11A98
:102A00008269914206D2011D286907E09A4203D2E9
:102A1000994201D3012403E0011DE86800F0CDFADA
:102A2000204670BD5C00002010B5044600F0DEFAC0
:102A3000A06B28B15FF0000400F014FB204610BD2D
:102A40000124F9E7F1B500980026846C2CB940F612
:102A5000D53219A11DA0FFF725FCA06BE16B8842C0
:102A600005D340F6D63214A118A0FFF71BFCA06BCB
:102A7000E16B88421ED294F94550002269462046F7
:102A8000FFF78DFE0646681C02D07F2D09D00EE0B0
:102A9000606A78B104F1240001F0F8FA50B101261F
:102AA00008E040F6F63204A108A0FFF7FBFB6D1C1E
:102AB00084F845503046F8BD2E2E5C46726565524E
:102AC000544F535C71756575652E63004572726F66
:102AD000723A2025732C2025640D0A0070B5064635
:102AE0000D480D46C068C068C468201D00F044FA57
:102AF00094F82800410705D52A463146204600F0C3
:102B0000D1F803E000F0FE0084F828002046216A96
:102B1000BDE87040084700005C00002070B586B03A
:102B20003A4E69E00098002806DADDE90201019AD0
:102B30009047009800285FDB029C606910B1201D5F
:102B400000F01AFA04A800F0CFF8054600980A2809
:102B500052D2DFE800F0510505282E450505282E44
:102B600094F828002A4640F0010084F828000198D3
:102B7000A169034601442046FFF73AFF78B394F871
:102B80002800410707D50198A1692A46014420463B
:102B900000F088F803E000F0FE0084F82800216AC5
:102BA0002046884728E014F8280F00F0FE00207027
:102BB00022E094F8280040F0010084F828000198F1
:102BC000A06128B940F2593211A117A0FFF76AFBA2
:102BD000A0692B4641191A462046FFF709FF0BE072
:102BE00094F82800810703D4204600F06DFA03E032
:102BF00000F0FE0084F8280000226946306800F0EA
:102C0000F3FF00288ED106B070BD00005C000020EC
:102C10002E2E5C4672656552544F535C74696D6527
:102C200072732E63000000004572726F723A2025A5
:102C3000732C2025640D0A00F8B50D46064600F0F9
:102C40003FFD684600F050F80446009810B101F0CE
:102C50009BFAF8BD1148ADB101690968D9B10025E9
:102C6000311B2A46006800F011FB01F08DFA0028A4
:102C7000EFD10B494FF080500860BFF34F8FBFF387
:102C80006F8FF8BDA642EBD801F07EFA21463046A0
:102C9000FFF724FFF8BD0125E2E700005C000020FB
:102CA00004ED00E070B516460C46054604E0A86940
:102CB000296A044428468847A869234601193246F0
:102CC0002846FFF795FE0028F1D170BD0548816BBD
:102CD000096821B1816BC9680968816270474FF04A
:102CE000FF31FAE71C0000202DE9F041064601F013
:102CF000B1F80E4C0546A068854214D24FF0FF375C
:102D000004E0C06839460068FFF7E8FEE068016843
:102D10000029F6D12169C4E903100120306028465A
:102D2000A560BDE8F0810020F8E700005C0000200D
:102D300008484068401C04D0CE2207A111A0FFF72C
:102D4000B1FA502080F31188BFF34F8FBFF36F8F1C
:102D5000FEE70000900000202E2E5C467265655252
:102D6000544F535C706F727461626C655C52564470
:102D7000535C41524D5F434D335C706F72742E63F0
:102D8000000000004572726F723A2025732C2025D6
:102D9000640D0A00074CE068016841B1C068002179
:102DA000D0F80000FFF748FFFFF7B8FEF3E7012176
:102DB0000020F7E75C0000202DE9F041044600F018
:102DC00015F994F9455004F124060FE0A06C18B1F0
:102DD0002046FFF737FE04E0606A48B1304601F054
:102DE00055F908B100F0F6FA6D1E6DB2002DEDDC5C
:102DF0004FF0FF3684F8456000F034F900F0F6F843
:102E000094F9445004F1100709E0206948B13846AC
:102E100001F03CF908B100F0DDFA6D1E6DB2002D35
:102E2000F3DC84F84460BDE8F04100F01BB9000019
:102E30002DE9F0410546002600F042FC364F386887
:102E400008B9FFF7EDFC7869054258D1002D56D03E
:102E500005F10804AC4252D960070ED004F0070017
:102E6000C0F108002044A04249D90446400704D0DC
:102E70009C222AA133A0FFF715FA002C3FD07868D6
:102E800084423CD82448183001460D6801E02846A9
:102E90000D466968A14202D229680029F7D1396834
:102EA000B8468D422BD006682968016068680836EC
:102EB000001B10280ED92F19780704D0CF2217A194
:102EC00020A0FFF7EFF96868001B786038466C6057
:102ED000FFF768FD6A68D8F804104046891AC8F8F8
:102EE0000410D8F80830994200D2816041690A4341
:102EF0000021C5E90012C168491CC8F80C1001F096
:102F000043F9700705D04FF4887204A10DA0FFF7B4
:102F1000C9F93046BDE8F081700000202E2E5C46D5
:102F200072656552544F535C706F727461626C6568
:102F30005C4D656D4D616E675C686561705F342ED8
:102F4000630000004572726F723A2025732C2025B1
:102F5000640D0A0010B5031F4FF080741C601B1F26
:102F600021F001011960191F024B0B601439403820
:102F70000A6010BD312D0008D0E9013201699A6064
:102F8000D0E901235A604A68824201D182684A60CE
:102F9000002202610868401E08600868704700F15E
:102FA00008014FF0FF32C0E90112C1600161002148
:102FB0000160704700210161704730B50B685A1CF1
:102FC00002D000F1080202E0026904E022465468DF
:102FD00025689D42FAD953684B6099608A605160B8
:102FE00008610168491C016030BD0000502080F379
:102FF0001188BFF34F8FBFF36F8F09494868401C9A
:10300000486001280AD10748006810F0FF0F05D07A
:1030100040F2731204A10FA0FFF744B970470000FB
:103020009000002004ED00E02E2E5C467265655293
:10303000544F535C706F727461626C655C5256449D
:10304000535C41524D5F434D335C706F72742E631D
:10305000000000004572726F723A2025732C202503
:10306000640D0A0010B5084C606828B94FF4BD72B1
:1030700006A111A0FFF716F96068401E606001D13B
:1030800080F3118810BD0000900000202E2E5C46B9
:1030900072656552544F535C706F727461626C65F7
:1030A0005C525644535C41524D5F434D335C706FEC
:1030B00072742E63000000004572726F723A202510
:1030C000732C2025640D0A0070B500282DD0174DF3
:1030D000A0F1080460686969084205D14FF4927252
:1030E00013A11DA0FFF7DEF8206828B140F22512D9
:1030F0000FA119A0FFF7D6F861686869014214D0E2
:103100002268002A11D18143616000F0D9FA606819
:103110006968084468602046FFF744FC2869401C41
:103120002861BDE8704001F02FB870BD700000202C
:103130002E2E5C4672656552544F535C706F7274EC
:1031400061626C655C4D656D4D616E675C68656163
:10315000705F342E630000004572726F723A202552
:10316000732C2025640D0A004FF0E020002101613E
:10317000816105494FF4FA520968B1FBF2F1491E29
:1031800041610321016170471800002010B5FCF770
:10319000FFFF104C10280CD300F1E02090F8F00352
:1031A0002178884205D240F2BB220BA115A0FFF77F
:1031B00079F818480068A16800F4E060884207D9EF
:1031C000BDE8104040F2CB2203A10EA0FFF76AB881
:1031D00010BD0000900000202E2E5C4672656552E6
:1031E000544F535C706F727461626C655C525644EC
:1031F000535C41524D5F434D335C706F72742E636C
:10320000000000004572726F723A2025732C202551
:10321000640D0A000CED00E070B50D46040005D108
:1032200040F6C8220FA114A0FFF73CF80022002DA1
:1032300016D01548002300BF00EBC3014E68A6421C
:1032400002D100EBC30207E01AB950F8336006B9A7
:103250000A465B1C082BEFD3002A01D0C2E90054B8
:1032600070BD00002E2E5C4672656552544F535C53
:1032700071756575652E63004572726F723A20250F
:10328000732C2025640D0A009401002070B51546AA
:103290000E460446FFF7AAFE94F944100020491C8C
:1032A00001D184F8440094F94510491C01D184F8F7
:1032B0004500FFF7D7FEA06B28B92A46314604F136
:1032C000240000F0B7F82046BDE87040FFF774BD59
:1032D00010B5040012D00E48406B28B140F249529C
:1032E0000CA111A0FEF7DEFF00F0EAF90021204654
:1032F000FFF75AF900F048FF002807D10E494FF0B8
:1033000080500860BFF34F8FBFF36F8F10BD000078
:103310001C0000202E2E5C4672656552544F535C93
:103320007461736B732E63004572726F723A20255D
:10333000732C2025640D0A0004ED00E008B5002080
:103340008DF80000FDF7E4F8002201210A2000F0CA
:1033500023FB0B4C606000F02BFA4FF0FF35A060B0
:103360002A466946606800F03FFC012802D0FDF75C
:10337000CFF8F5E79DF80000FDF744F9F0E700000D
:10338000EC00002002490A6A0260C9684160704787
:103390001C00002008B500208DF80000FEF722FB7D
:1033A000002201210A2000F0F7FA094C4FF0FF3506
:1033B00060602A466946606800F016FC012802D069
:1033C000FEF710FBF5E79DF80000FEF747FBF0E77E
:1033D000F800002001490120C86170471C0000204E
:1033E00070B50D46040005D140F61C4207A10CA0A3
:1033F000FEF758FF0E48016820461831FFF7DDFD43
:103400002846BDE870400121FFF7CEB82E2E5C465D
:1034100072656552544F535C7461736B732E630015
:103420004572726F723A2025732C2025640D0A00B4
:103430001C00002070B515460E46040005D140F66C
:10344000524210A114A0FEF72DFF174861680268D0
:10345000D1618A6803681A6202688B6818325A6000
:10346000026818328A60006884622068401C20600C
:103470000DB14FF0FF3629463046BDE87040FFF7EA
:1034800093B800002E2E5C4672656552544F535C13
:103490007461736B732E63004572726F723A2025EC
:1034A000732C2025640D0A001C00002086B0002427
:1034B0008DF80C408DF81040FF208DF800008DF83D
:1034C0000440204D9DF80C009DF81010000440EAC7
:1034D00001209DF80010084302900020029945F851
:1034E0002010401CC0B20628F8D3164A0621183214
:1034F0001448FEF73DFE9DF8040020B99DF8000039
:10350000401F8DF800009DF80400012804D19DF8AB
:103510000000401D8DF800009DF8000010B901204A
:103520008DF804009DF80000FF2801D18DF80440BB
:1035300004484FF480611830FCF759FE6420FFF70F
:10354000C7FEBFE71C30002070B52E4E05460C4666
:10355000706B28B940F6BA422BA130A0FEF7A2FE4C
:1035600044F000402860EC682CB940F6C24226A125
:103570002AA0FEF797FED5E9012128699160D5E9D7
:10358000011251604168A94201D1A968416000223D
:103590002A610168491E0160D4E9023061699860BE
:1035A000D4E9020358604B68201D834201D1E368CF
:1035B0004B6062610A68521E0A60E36A0122356943
:1035C00002FA03F12943316103EB8301174B03EB4B
:1035D00081014968A1608D68E5608D6868608860D8
:1035E000E06A00EB800003EB8001616153F820107A
:1035F000491C43F82010E06A3168C96A884200D942
:10360000F26170BD1C0000202E2E5C467265655272
:10361000544F535C7461736B732E63004572726F09
:10362000723A2025732C2025640D0A00D401002055
:103630007CB516480025CDE900502B46802214A108
:10364000154800F0CDFB114C2C3C012803D100F0B3
:1036500043FE012802D0401C10D015E0502080F31A
:103660001188BFF34F8FBFF36F8F4FF0FF30A06211
:1036700001206061E56000F001F905E04FF40462AB
:1036800006A10BA0FEF70EFE206B7CBD48000020BB
:1036900049444C45000000006D2800082E2E5C4671
:1036A00072656552544F535C7461736B732E630083
:1036B0004572726F723A2025732C2025640D0A0022
:1036C0000248416B491C4163704700001C00002008
:1036D00070B5134C606B10B10120E06170BD00202B
:1036E000E06120690F4EB0FA80F0C0F11F0000EBDE
:1036F000800556F8250028B940F602420AA10FA01D
:10370000FEF7D0FD06EB850000F10802416849682C
:103710004160914201D149684160C868206070BD34
:103720001C000020D40100202E2E5C4672656552DC
:10373000544F535C7461736B732E63004572726FE8
:10374000723A2025732C2025640D0A0070B50E46B0
:10375000040005D140F2E1120AA111A0FEF7A2FD7A
:10376000300E05D04FF4F17206A10DA0FEF79AFDC0
:10377000FFF73CFC256825EA06002060FFF772FC95
:10378000284670BD2E2E5C4672656552544F535CC0
:103790006576656E745F67726F7570732E63000077
:1037A0004572726F723A2025732C2025640D0A0031
:1037B00010B51C20FFF73CFB040004D00020206063
:1037C000201DFFF7ECFB204610BD00002DE9F04165
:1037D00000278846040005D140F221221CA123A025
:1037E000FEF760FD5FEA186005D040F2222218A1C2
:1037F0001EA0FEF757FD261D04F10C05FFF760FF24
:103800002168F06841EA0801216017E0D0E900165C
:1038100001F07F425301236821F07F4102D40B4223
:1038200003D10AE031EA030307D1D20100D50F43E7
:10383000216841F00071FFF787FE3046A842E5D1CC
:103840002068B843206000F09FFC2068BDE8F0814C
:103850002E2E5C4672656552544F535C6576656EDC
:10386000745F67726F7570732E6300004572726FBC
:10387000723A2025732C2025640D0A007CB5294D51
:1038800028780190FF20287028788DF800009DF896
:1038900000009DF8001000F0F000884205D040F2D2
:1038A0001F1221A12BA0FEF7FDFC9DF800002D4C5E
:1038B00000F0500020700720A06005E09DF8001087
:1038C00049008DF80010401E9DF800100906F5D43F
:1038D000A06003280ED040F2331213A11DA0FEF702
:1038E000E1FCA068032805D04FF49E720EA119A038
:1038F000FEF7D8FC207A000200F4E060A060019896
:1039000028701948016841F470010160016841F0B4
:1039100070410160FFF728FC00206060FCF702FCAA
:1039200000207CBD00E400E02E2E5C4672656552EE
:10393000544F535C706F727461626C655C52564494
:10394000535C41524D5F434D335C706F72742E6314
:10395000000000004572726F723A2025732C2025FA
:10396000640D0A009000002020ED00E010B550200A
:1039700080F31188BFF34F8FBFF36F8F00F070FAA1
:1039800018B104494FF080500860002080F311887E
:1039900010BD000004ED00E02DE9F04117460E4691
:1039A00005004FF000041FD0601EB0FBF5F0B042E0
:1039B0001AD305FB06F010F1550F15D85430FFF758
:1039C00037FA040016D004F154005EB12060C4E957
:1039D0000F562046012100F023F884F85070002192
:1039E000A16407E02460F2E74FF4E37203A108A0AA
:1039F000FEF758FC2046BDE8F08100002E2E5C4604
:103A000072656552544F535C71756575652E630020
:103A10004572726F723A2025732C2025640D0A00BE
:103A20002DE9F0410F4604004FF001062BD0E06B6A
:103A300078B3B51EB5FBF0F1206C814229D3FFF7B6
:103A4000D5FAD4E90F20216802FB0011A160002102
:103A5000A163216861600A46D4E90F01401E00FBA2
:103A600001212046E16000F8445F457004F1100038
:103A7000CFB1FFF794FA04F12400FFF790FA00BFEA
:103A8000FFF7F0FA0CE04FF488720FA113A0FEF7D5
:103A900009FC002640F245120BA110A0FEF702FC23
:103AA0003046BDE8F08121690029E9D000F0EEFA46
:103AB0000028E5D00D494FF080500860BFF34F8FCC
:103AC000BFF36F8FDCE700002E2E5C4672656552F7
:103AD000544F535C71756575652E63004572726F46
:103AE000723A2025732C2025640D0A0004ED00E0B5
:103AF0002DE9F0471F4616468A46040005D140F2DC
:103B0000024230A134A0FEF7CDFBBAF1000F07D17D
:103B1000206C28B140F203422AA12FA0FEF7C2FB7D
:103B2000022F08D1E06B012805D040F2044225A104
:103B300029A0FEF7B7FBFFF729FB5021EFF3118017
:103B400081F31188BFF34F8FBFF36F8F8046A06B57
:103B5000E16B884206D3022F04D0002088F311883D
:103B6000BDE8F08794F94550D4F838903A4651466C
:103B70002046FEF714FE681C02D07F2D16D01BE0F5
:103B8000A06C012540B1022F02D1B9F1000F16D16E
:103B90002046FEF757FF05E0606A80B104F124007B
:103BA00000F074FA58B156B1356008E040F28D4229
:103BB00004A109A0FEF776FB6D1C84F84550012096
:103BC000CCE700002E2E5C4672656552544F535C64
:103BD00071756575652E63004572726F723A2025A6
:103BE000732C2025640D0A002DE9F747002683B0C9
:103BF0008A46040005D140F2515245A149A0FEF782
:103C000051FBBAF1000F07D1206C28B140F2555298
:103C10003FA144A0FEF746FB00F00EF938B9059825
:103C200028B140F25A523AA13EA0FEF73BFBDFF822
:103C300004814FF000094FF0805700BFFFF7D6F91D
:103C4000A56BC5B151462046FEF796FD6D1EA563D6
:103C5000206950B104F1100000F018FA28B1C8F83A
:103C60000070BFF34F8FBFF36F8FFFF7FBF9012099
:103C700006B0BDE8F087059808B11EB106E0FFF771
:103C8000F1F927E06846FFF77DFB0126FFF7EAF927
:103C9000FFF716FDFFF7AAF994F94400401C01D183
:103CA00084F8449094F94500401C01D184F8459073
:103CB000FFF7D8F905A9684600F03EF8002820462D
:103CC0000AD0FFF779F800F05FFA2046FEF7ACFE65
:103CD0000028B3D00020CBE7FEF7A6FE90B104F198
:103CE00024000599FFF77CFB2046FFF765F800F0FC
:103CF0004BFA0028A2D1C8F80070BFF34F8FBFF372
:103D00006F8F9BE72046FFF757F800F03DFA95E7E5
:103D10002E2E5C4672656552544F535C7175657505
:103D2000652E63004572726F723A2025732C202530
:103D3000640D0A0004ED00E02DE9F0410C46050099
:103D400005D140F6FD421CA120A0FEF7ABFA2CB92C
:103D500040F6FE4218A11DA0FEF7A4FAFFF746F9AF
:103D60001E49CB686F680868DA1B002690F8590076
:103D700018B1086880F8596018E02068B0F1FF3F7A
:103D800009D0D5F800C0096A8C4506D09F4204D8F6
:103D9000012526600BE0002509E0904205D9801A34
:103DA00020602846FFF7EEFAF5E726600125FFF7C9
:103DB00059F92846BDE8F0812E2E5C4672656552A1
:103DC000544F535C7461736B732E63004572726F52
:103DD000723A2025732C2025640D0A001C00002057
:103DE0002DE9FF5F8346DDE90E87994616468A4630
:103DF0009000FFF71DF805001AD05C20FFF718F8B7
:103E0000040012D025630021CDE90241CDE90087ED
:103E10004B46324651465846FEF758FD2046FEF7BF
:103E20000BFC012004B0BDE8F09F2846FFF74CF9D9
:103E30004FF0FF30F6E700000548416919B1406BCB
:103E400018B1002070470120704702207047000021
:103E50001C0000200148C068704700001C000020C2
:103E60002DE9F041494C0026606B28B1A069401C47
:103E7000A0613046BDE8F081E5686D1CE56011D1B8
:103E8000A06B006828B140F6C72241A145A0FEF70B
:103E900009FAA06BE16BA163E063206A401C206219
:103EA000FEF714FFA16A43488D420FD34FF0000E76
:103EB000A16B096839B1A16BC968C9684A689542A4
:103EC00012D2A26202E04FF0FF31A1622168C96AFA
:103ED00001EB810150F82100012800D90126E06999
:103EE0000028C6D00126C4E7D1E902724B69BA6046
:103EF000D1E902277A605F680A1D974201D1CF6835
:103F00005F60C1F814E01F687F1E1F60D1F828C0F1
:103F1000BCF1000F15D0D1E907379F60D1E9073711
:103F20007B60DCF8047001F118039F4202D10B6A38
:103F3000CCF80430C1F828E0DCF800305B1ECCF887
:103F40000030CB6A0127D4F810C09F4047EA0C0725
:103F5000276103EB830300EB83035B688B609F683F
:103F6000CF609F687A609A60CA6A02EB820200EBB7
:103F700082034B6150F822305B1C40F82230C96A42
:103F80002268D26A914293D3012691E71C00002057
:103F90002E2E5C4672656552544F535C7461736B90
:103FA000732E63004572726F723A2025732C2025A0
:103FB000640D0A00D401002070B504004FF0000623
:103FC0004BD0274D2868844205D041F24F0225A1ED
:103FD00029A0FEF767F9206D28B941F2500221A10E
:103FE00025A0FEF75FF9206D401E2065E26CE16AB6
:103FF000914232D088BB201DFEF7BEFF012130B9AF
:1040000094F82C002A6901FA00F082432A61E06CDE
:10401000E062C0F12000A061E06A2A69814011439A
:104020002961194900EB800001EB80004068A06025
:104030008268E2608368221D5A608260E06A00EB59
:10404000800001EB80006061E06A00EB800051F8C5
:104050002020521C41F820200126304670BD00006F
:104060001C0000202E2E5C4672656552544F535C36
:104070007461736B732E63004572726F723A202500
:10408000732C2025640D0A00D401002070B5C0688F
:10409000C4682CB940F682422FA134A0FEF702F981
:1040A000D4E90720A16A9060D4E9070250604A6809
:1040B00004F11800824201D1226A4A600023A362FF
:1040C0000A68521E0A602D494A6B01259AB12C4B91
:1040D0005A68E26196682662966870609060A36292
:1040E0001868401C1860E06A0A68D26A904231D9A8
:1040F0000120CD6170BDD4E902626069B260D4E98B
:10410000022672604668221D964201D1E66846602A
:10411000636103685B1E0360E06A0E6905FA00F3E1
:1041200033430B61174B00EB800003EB80004068CA
:10413000A0608668E660866872608260E06A00EB74
:10414000800003EB8002626153F82020521C43F888
:104150002020C8E7002070BD2E2E5C467265655297
:10416000544F535C7461736B732E63004572726FAE
:10417000723A2025732C2025640D0A001C000020B3
:104180007C040020D40100202DE9F041454D00249D
:104190002746686B28B940F6B30243A147A0FEF753
:1041A00081F8FEF723FF686B401E6863686B002888
:1041B00072D1A868454B00264FF00108F0BB6BE0B8
:1041C000D868C468D4E90721A06A9160D4E90712CD
:1041D0005160426804F118018A4201D1216A4160AC
:1041E000A6620168491E0160D4E9022160699160FC
:1041F000D4E9021251604268211D8A4201D1E2686D
:10420000426066610268521E0260E26AD5F810C020
:1042100008FA02F040EA0C00286102EB82002C4A06
:1042200002EB80004068A060D0F808C0C4F80CC061
:10423000D0F808C0CCF80410816000E011E0E06A1A
:1042400000EB800002EB8001616152F82010491CF4
:1042500042F82010E06A2968C96A884201D3C5F88B
:104260001C8018680028ABD10CB1FEF72FFDAC699B
:1042700044B100BFFFF7F4FD08B1C5F81C80641E0F
:10428000F8D1AE61E86938B11249012738070860F2
:10429000BFF34F8FBFF36F8FFEF7E4FE3846BDE8E4
:1042A000F08100001C0000202E2E5C4672656552D5
:1042B000544F535C7461736B732E63004572726F5D
:1042C000723A2025732C2025640D0A007C040020FE
:1042D000D401002004ED00E01CB50024FEF724FA10
:1042E0000C48006868B10B491F20091DCDE9000189
:1042F00000234FF4807208A10948FFF771FD040004
:1043000005D140F2191207A10CA0FDF7CBFF204602
:104310001CBD00005C000020546D722053766300C9
:10432000952D00082E2E5C4672656552544F535CE5
:1043300074696D6572732E63000000004572726FC0
:10434000723A2025732C2025640D0A000102020315
:104350000405060708090A0B0C0D0E0F10100000CB
:104360000000000000000102030406070809000025
:1043700000000102030400000001020457AB000822
:104380000000000057AB00093200000057AB0002EC
:104390000800000000000000000C00000000000009
:1043A000000000000000000000000000000000000D
:1043B00000000000000000000000000000000000FD
:1043C00000000000000000000000000000000000ED
:1043D00000000000000000000000002C021E02345B
:1043E0000220022102220224003402260227022592
:1043F000022E0036002D003700380027001E001F57
:104400000020002100220023002400250026023382
:1044100000330236002E02370238021F0204020562
:104420000206020702080209020A020B020C020D30
:10443000020E020F021002110212021302140215E0
:104440000216021702180219021A021B021C021D90
:10445000002F003100300223022D0035000400053A
:104460000006000700080009000A000B000C000D00
:10447000000E000F001000110012001300140015B0
:104480000016001700180019001A001B001C001D60
:10449000022F02310230023500000000010000004E
:1044A00002000000040000000800000010000000EE
:1044B000200000004000000080000000000100001B
:1044C00000020000000400000008000000100000CE
:1044D00000200000004000000080000000000100FB
:1044E00000000200000004000000080000001000AE
:1044F0000000200000004000000080001C45000873
:104500000000002004010000E4220008204600080A
:104510000401002034370000F422000800000000ED
:10452000000000000000000001000000100000007A
:10453000000000000024F400000000000000000063
:10454000000000000000000000000000000000006B
:10455000000000000000000000000000000000005B
:1045600000000000000000001F000000000000002C
:10457000000000000000000000000000000000003B
:10458000000000000000000000000000000000002B
:10459000000000000000000000000000000000001B
:1045A000000000000000000000000000000000000B
:1045B000AAAAAAAA000000000000EF01FFFFFFFF67
:1045C000EF01FFFFFFFF00000000000000000000FF
:1045D000000000000080000000258000000003862D
:1045E0001A29E100000001000D0000000000000099
:1045F00000000000000000000000000000000000BB
:1046000000000000000000000000000000000000AA
:10461000000000000000000000000000000000009A
:04000005080000ED02
:00000001FF
