:020000040800F2
:10000000003900209901000803250008D5210008C7
:100010000125000899030008B12A0008000000002B
:1000200000000000000000000000000001010008C6
:100030006305000800000000450100089126000843
:10004000B3010008B3010008B3010008B3010008C0
:10005000B3010008B3010008B3010008F10500086E
:10006000B3010008B3010008F70500082D050008DA
:10007000B3010008B3010008B3010008B301000890
:10008000B3010008B3010008B3010008B301000880
:10009000B3010008B3010008B3010008FD05000822
:1000A000B3010008B3010008B3010008B301000860
:1000B000B3010008B3010008B3010008B301000850
:1000C000B3010008B3010008B3010008B301000840
:1000D000B3010008492A00087D2A0008B30100087E
:1000E000B3010008B3010008B3010008DFF80CD029
:1000F00000F09EF800480047952E000800390020C7
:10010000224B19680868B0E8F00F80F30988BFF344
:100110006F8F4FF0000080F311884EF00D0E704786
:100120000000000006480068006880F3088862B696
:1001300061B6BFF34F8FBFF36F8F00DF00BF00BF0B
:1001400008ED00E0EFF30980BFF36F8F0F4B1A68E3
:1001500020E9F00F106008B54FF0500080F31188CF
:10016000BFF34F8FBFF36F8F03F0BCFF4FF0000062
:1001700080F31188BDE8084019680868B0E8F00FFE
:1001800080F30988BFF36F8F704700BF2400002001
:10019000EFF3058070470000064880470648004797
:1001A000FEE7FEE7FEE7FEE7FEE7FEE7FEE7FEE727
:1001B000FEE7FEE709270008ED00000840EA01031A
:1001C0009B0703D009E008C9121F08C0042AFAD20D
:1001D00003E011F8013B00F8013B521EF9D27047D1
:1001E000D2B201E000F8012B491EFBD27047002279
:1001F000F6E710B513460A4604461946FFF7F0FF26
:10020000204610BD30B50B460146002020220124B7
:1002100009E021FA02F59D4205D303FA02F5491BD4
:1002200004FA02F52844151EA2F10102F1DC30BDEA
:10023000064C074D06E0E06840F0010394E8070033
:1002400098471034AC42F6D3FFF754FF104F000824
:10025000304F000870B5044600688168C943C9077B
:1002600017D1816821F00101816001F04FF8054646
:100270000AE000BF01F04AF8401B022804D92068B8
:100280008068C043C00706D020688068C043C007AC
:10029000F0D0002070BDA06A40F01000A062E06ABB
:1002A00040F00100E062012070BD10B50146406AD7
:1002B000826A12F0500F05D0006A026BBDE8104050
:1002C00008461047816A41F40071816201688968BB
:1002D000C1F3424107290CD1017B51B9816A21F454
:1002E00080718162816AC90403D4816A41F001018D
:1002F000816200F091FB10BD10B5406A816A41F047
:1003000040018162C16A41F00401C16200F09FFBBB
:1003100010BD10B5406A00F099FB10BDF8B500267D
:100320000446009600688168C943C9072DD08168DA
:1003300041F001018160164816490068B0FBF1F0F8
:1003400000E0401E00900028FBD100F0DFFF0546D2
:1003500016E000BF00F0DAFF401B022810D9206829
:100360008068C043C0070BD0A06A40F01000A062B4
:10037000E06A40F00100E06284F824600120F8BDEA
:1003800020688068C043C007E4D10020F8BD0000A9
:100390002000002040420F00FEE7034610B5002079
:1003A000024604E09C5C521C2044C0B2D2B28A4295
:1003B000F8D310BD2DE9F041294886B0816941F09C
:1003C00004018161816901F004010491816941F0B6
:1003D000080181618069234F00F008004FF48055C7
:1003E000049000222946384600F08BFFDFF8788021
:1003F00000222021404600F084FF0124CDE9005472
:1004000002250326CDE902566946384600F084FEEF
:1004100020208DE871006946404600F07DFE0122F3
:100420002021404600F06DFF10480021017041700E
:1004300000F036F800222021404600F062FF0C4810
:1004400057210170AB2141700021817007480838A5
:100450004170001F0570801E047006B0BDE8F08179
:100460000010024000080140000C0140C0000020C4
:10047000D12E002070B50122084D140321462846D4
:1004800000F03FFF4FF47A7002F0D0FC214628467E
:10049000BDE87040002200F034BF000000080140B9
:1004A00030B58FB0302102A8FFF7A1FE1149124BE1
:1004B0006A46D1E90301CDE900010021084615187B
:1004C0001C5C6C71145C401C2144C0B2C9B237285A
:1004D000F5D38DF837104FF47A7338226946074800
:1004E00001F0D9FD4FF4FA6002F0A0FCFFF7C2FF63
:1004F0000FB030BD8C4D0008C0000020140100205A
:100500000948EF230849037001224270891CFF202B
:10051000087048708870C870091D0B704A70887028
:10052000C870087148717047A6000020014800F0AB
:100530006BBC00001C02002030B590F84050012434
:10054000AC40C56B6C60046863604368102B036843
:1005500003D099600068C26030BD9A600068C160D5
:1005600030BD70471D4810B5816986B041F0040167
:100570008161816901F004010491816941F0080100
:1005800081618069032400F0080004901448019000
:100590004FF4407000900120CDE9020469461148F3
:1005A00000F0BAFD104801900220CDE9020400904D
:1005B00069460E4800F0B0FD00220121172000F02E
:1005C00011FF172000F000FF00220121072000F09A
:1005D00009FF072000F0F8FE06B010BD0010024031
:1005E00000003110000C0140000011100008014013
:1005F000022000F085BD102000F082BD70B50B4CCC
:100600002568E80506D5A01500F07AFD206820F4DD
:1006100080702060A80507D54FF4007000F070FDD1
:10062000206820F40070206070BD000014040140B8
:1006300072B6FEE7114800B5816985B041F004014A
:1006400081618069694600F0040004900C480190C3
:10065000102000900220029003200390094800F02F
:100660005BFD012211460A2000F0BCFE0A2000F0CA
:10067000ABFEFFF745FF05B000BD000000100240D3
:100680000000111000080140044800210160416091
:100690008160C16000F1100101607047D42F00201B
:1006A0002DE9F041254DA879012845D0022843D0F5
:1006B000072841D1687A00283ED821480021806867
:1006C00003F04EFD0646C0074FF000084FF0FE074E
:1006D00005F16D0416D02770222060700A20A070EA
:1006E00084F803802022A4F16301201DFFF766FD3A
:1006F00022212046FFF751FE84F8280025212046BC
:1007000001F0A0FFB00717D52770042060700B2000
:10071000A07084F80380A87A2071E87A6071074895
:1007200004216D30FFF739FEA071BDE8F0410348A8
:1007300008216D3001F086BFBDE8F081E42F002074
:10074000F400002008B501460120009009484068E7
:1007500068B100236A4603F0D5FE009838B1064917
:100760004FF080500860BFF34F8FBFF36F8F0020B2
:1007700008BD0000F400002004ED00E070B537492A
:100780004A790C46012324689AB18A79AAB1CA79B8
:10079000C2B10A7AD2B14A7AE2B18A7AF2B10D795B
:1007A00001F11002092D24D220700B685B1C0B6034
:1007B00025E0EF284DD14B7113E0012849D18B7111
:1007C00023700FE0FF2844D1CB710AE0FF2840D10D
:1007D0000B7206E0FF283CD14B7202E0FF2838D1B3
:1007E0008B7220700868401C08600879401C0871F2
:1007F00031E0CB72137AD47943EA04238B810B79ED
:100800005B1C0B71CB7A012B25D18B8943B18A8973
:10081000521E8A810A6810700868401C08601AE03D
:10082000107A911DD27940EA0220401CC3B2002206
:10083000104604E00C5C401C224492B2C0B29842C4
:10084000F8D3C818B0F8010040BA904201D1FFF7C0
:1008500027FFFFF719FF002070BD0000D42F0020F4
:1008600070B5134B114C1D882580D3F80230C4F8A5
:1008700002300123A3710023E37108232372312383
:100880006372030AA372E0722173100A6073A27389
:10089000207AE17940EA0120401C81B2A01D00F0DD
:1008A00009F8010AE173207470BD0000AC2D00202E
:1008B000A6000020034610B50020024604E09C5C20
:1008C000521C204480B292B28A42F8D310BD00007C
:1008D000114A10B50F491388A1F85630D2F80220FA
:1008E0008A650C4C01215634A1710021E17104216B
:1008F00021721F216172A072207AE17940EA012001
:10090000401C81B2A01DFFF7D5FF010AE1722073E0
:1009100010BD0000AC2D0020A6000020F8B500247A
:10092000009490F824202546012A12D0012280F854
:1009300024204A681F23072A0DD20668776B521EAF
:1009400002EB820293409F430B6893401F437763FF
:1009500019E00220F8BD06680D2A0AD2376BD21FB3
:1009600002EB820293409F430B6893401F4337631F
:1009700009E0F76A0D3A02EB820293409F430B684D
:1009800093401F43F7620A68072306680A2A0AD3BE
:10099000F7680A3A02EB420293409F438B68934008
:1009A0001F43F76008E0376902EB420293409F4320
:1009B0008B6893401F4337610A68102A01D0112ABF
:1009C00020D1124B02689A4217D193681B0219D4A6
:1009D000936843F4000393600968102912D10C490D
:1009E0000C4A0968B1FBF2F101EB8101490000E01A
:1009F000491E00910029FBD104E0816A41F02001E9
:100A00008162012480F824502046F8BD0024014072
:100A10002000002040420F0008B5002000900A4846
:100A200032210288B2FBF1F28DF800204088B0FB41
:100A3000F1F08DF8010004484268002A02D002213A
:100A40006846904708BD00000C00002070477047C2
:100A50002DE9F0414FF0000704003D467ED0A06A2A
:100A6000002628B9E66284F82460204600F07EF86B
:100A70002046FFF7EFFBA16AC90600D420B1A06AA7
:100A800040F01000A06269E0A16A21F4885141F0B1
:100A90000201A1626268E169237B0A4347EA4301DC
:100AA0000A43A1684FF48077B94209D0012907D0E1
:100AB0005FF0000194F814C0BCF1010F02D00AE00D
:100AC0003946F7E7F3B1A36A43F02003A362E36A70
:100AD00043F00103E3622368D3F804C02CF4694CAB
:100AE0004CEA010CC3F804C021688B68DFF870C0C1
:100AF00003EA0C0313438B60A168B9420BD00129B0
:100B000009D00CE0DFF85CC0A3690CEB43330B4366
:100B100043F40061DFE7218A0D05A5F58015216802
:100B2000CB6A23F470032B43CB62216889680E4B98
:100B30001940914208D1E662A16A21F0020141F018
:100B40000101A162BDE8F081A06A20F0020040F03E
:100B50001000A062E06A40F00100E0620120F1E7CD
:100B6000FDF7E1FF00E0FFFFFE0E1FFF70B586B04E
:100B700000250646009501950295039500682149D8
:100B800088423CD12049886940F4007088618869B6
:100B900000F400700490886940F00400886188695E
:100BA00000F004000490886940F0080088618869BA
:100BB000032400F0080004900120CDE900046946F8
:100BC000124800F0A9FA009469461148019400F017
:100BD000A3FA114C0F48C4E900058020C4E9025073
:100BE000400020618000C4E90505C000E0612046A6
:100BF00000F0B4F908B1FFF71BFD3462666206B07D
:100C000070BD0000002401400010024000080140B7
:100C1000000C0140080002401C0200202DE9F047B2
:100C2000894604463B4900683B4F0E1D904688426A
:100C300001D0B84207D1306810F4702F03D00125DD
:100C40002846BDE8F08794F8240001280CD0012044
:100C500084F824002046FFF761FB05004FF00000F8
:100C600004D084F82400EBE70220EAE7A16A40F60A
:100C70000162914341F48071A1622168B94218D1A7
:100C8000326812F4702F14D0A16A41F48011A1626D
:100C90003168490505D5A16A21F4005141F480511C
:100CA000A162A16AC9040AD5E16A21F00601E162E4
:100CB00006E0A26A22F48012A2624968E9E7E062D3
:100CC00084F82400216A15488862216A1448C862A1
:100CD000216A1448086321686FF0020008602068E8
:100CE000816841F480718160216843464A464C31F5
:100CF000206A00F061F920688168C1F34241072948
:100D0000816803D041F48011816099E741F4A0012A
:100D1000FAE700000024014000280140AB0200086F
:100D200013030008F902000810B590F82110002202
:100D3000022905D00421816380F82020012010BD04
:100D400001680B6823F00E030B6001680B6823F049
:100D500001030B6090F84030C46B012101FA03F3EA
:100D6000636080F8211080F82020104610BD00003C
:100D700010B590F821100024022903D004218163CA
:100D800001243DE001680A6822F00E020A60016851
:100D90000A6822F001020A601A4A0168914201D1F0
:100DA000012121E0174A1432914201D110211BE0A8
:100DB000144A2832914201D1891515E0114A3C327A
:100DC000914201D189140FE00E4A5032914202D172
:100DD0004FF4803108E00B4A6432914202D14FF463
:100DE000801101E04FF08071064A083A51600121FC
:100DF00080F82110002180F82010416B01B1884754
:100E0000204610BD080002402DE9F05FC16B0C6860
:100E100001680B68D0F840C0042202FA0CF2494D78
:100E2000DFF824A1494E4A4FDFF828B1DFF828E166
:100E300022422CD05A072AD50A68920603D40A689F
:100E400022F004020A600168A94201D1042219E0DB
:100E5000514501D1402215E0B14202D14FF48062E8
:100E600010E0B94202D14FF480420BE0594502D163
:100E70004FF4802206E0714502D14FF4800201E078
:100E80004FF080622F4908394A60C16A3BE04FF059
:100E9000020808FA0CF818EA040F4FF000094FF0A6
:100EA000010235D05FEA837832D50B689B0605D402
:100EB0000B6823F00A030B6080F821200168A94227
:100EC00001D1022219E0514501D1202215E0B142A1
:100ED00002D14FF4007210E0B94202D14FF4005237
:100EE0000BE0594502D14FF4003206E0714502D1C2
:100EF0004FF4001201E04FF00072124908394A60C5
:100F000080F82090816A00291AD0BDE8F05F084778
:100F1000082505FA0CF5254212D01B0710D50B68E1
:100F200023F00E030B6090F84010C36B02FA01F13E
:100F30005960826380F8212080F82090016BE2E7FD
:100F4000BDE8F09F080002401C0002403000024053
:100F500044000240580002406C00024030B528B303
:100F600008C8134914221944B1FBF2F18900C16386
:100F700010498163022141771A6843F6F0718A4370
:100F8000D0E900142143D0E902452C4321430469F0
:100F9000214344692143846921431143196000219D
:100FA0004163012242770177084630BD012030BD00
:100FB000F8FFFDBF0000024070B5044690F8200025
:100FC000002501280CD0012084F8200094F821602D
:100FD0000020012E06D084F820000225284670BD8E
:100FE000022070BD022684F82160A0632068066894
:100FF00026F0010606602046FFF79EFAE06A002808
:101000002068016802D041F00E0106E021F00401E1
:1010100001602068016841F00A01016020680168F0
:1010200041F001010160D9E72DE9F04702285AD0CB
:10103000102826D04FF48078002501272E4E2F4C03
:101040004FF40079404508D04946884219D13046CE
:1010500000F052F9012826D02CE04146304600F03D
:101060004BF9012806D14946304600F045F908B948
:10107000207828B14146304600F03EF918B110E022
:101080002770BDE8F0874946304600F035F9012861
:1010900007D12078012804D100231A46194601F00F
:1010A00031FA2570EDE74146304600F025F908B9E0
:1010B000607828B14946304600F01EF910B110E0C2
:1010C0006770DEE74146304600F016F9012808D186
:1010D0006078012805D100231A461946FF2001F047
:1010E00011FA6570CDE7BDE8F047022300221146F2
:1010F000104601F007BA0000000C0140F200002089
:10110000044910B50A68024202D00860FFF78CFF5C
:1011100010BD0000140401402DE9F84FDFF8B8912C
:101120000024A9F1040B23460F2709F1040AABF1AF
:10113000040EC9E00125A5402A40AA427DD1674E90
:10114000D1F804C0ACEB0608B44532D014DCBCF1D5
:10115000030F3AD009DCBCF1000F2AD0BCF1010F1B
:101160001CD0BCF1020F31D11DE0BCF1110F17D022
:10117000BCF1120F2AD119E0B8F5881F19D006DC8E
:10118000B8F5803F15D0B8F5801F1FD111E0B8F534
:10119000001F0ED0B8F5041F18D10AE0CB6815E087
:1011A000CB681B1D12E0CB6808330FE0CB680C3313
:1011B0000CE08B682BB1012B4FF0080303D0456185
:1011C00004E0042302E0056100E00023FF2A01D8C7
:1011D000064601E000F104064FEA840501D9A5F1B5
:1011E0002005D6F8008007FA05FC28EA0C0803FA67
:1011F00005F548EA0508C6F800804D68ED0062D59F
:10120000374DAE6946F00106AE61AD6924F00306C4
:1012100005F001050095334D06EB050CDCF8085090
:10122000A607360F07FA06F825EA0805DFF8B880A2
:10123000404503D14FF0000817E044E0DFF8AC80F0
:10124000404502D14FF001080FE0DFF8A48040458F
:1012500002D14FF0020808E0DFF89880404502D143
:101260004FF0030801E04FF0040808FA06F848EAD6
:101270000508CCF808804D68D9F80060ED024D46AD
:1012800001D5164300E096432E604D68DAF8006001
:10129000AD02554601D5164300E096432E604D68D9
:1012A000DBF80060AD035D4601D5164300E09643D0
:1012B0002E604D68DEF80060ED03754601D51643DB
:1012C00000E096432E60641C0D682A46E5407FF4DA
:1012D00031AFBDE8F88F0000080401400000111094
:1012E000001002400000014000080140000C0140D5
:1012F00000100140001401408068084000D0012027
:1013000070470AB1016170470904FBE70148806832
:1013100070470000140000200248816802781144E0
:101320008160704714000020074810B5016841F043
:1013300010010160032000F075F80F2000F006F89E
:1013400000F024F8002010BD0020024070B50D4DC3
:1013500004464FF47A712878B1FBF0F00A49096825
:10136000B1FBF0F000F02DFC48B9102C07D20022A0
:101370002146501E00F036F800206C6070BD012040
:1013800070BD000014000020200000200C4808B5AB
:10139000816941F001018161816901F001010091E0
:1013A000C16941F08051C161C06900F08050009076
:1013B0000448416821F0E06141F00071416008BDDE
:1013C0000010024000000140002809DB00F01F026D
:1013D000012191404009800000F1E020C0F8001197
:1013E00070470000F0B40E4B1B680C46C3F3022399
:1013F000C3F10705042D00D90425191D072901D2C1
:10140000002300E0DB1E012606FA05F1491E2140FB
:1014100099409E40761E16403143F0BC01F0F0BB6F
:101420000CED00E0064900F0070208684FF6FF03E4
:10143000184040EA0220034A104308607047000049
:101440000CED00E00000FA052DE9F0470F4605001D
:1014500061D0434E306800F00700B84209D23068CE
:1014600020F0070038433060306800F00700B842D1
:1014700051D128683B4C810712D5400703D56068DD
:1014800040F4E06060602878000703D5606840F4AD
:10149000605060606068A96820F0F00008436060F8
:1014A0002878C00728D06868012810D02168022851
:1014B00010D0890700292EDA616821F00301014369
:1014C0006160FFF723FF804641F288390DE0216813
:1014D0008903EFE78901EDE7FFF718FFA0EB0801AB
:1014E000494502D90320BDE8F0876068696800F0CB
:1014F0000C00B0EB810FEFD1306800F00700B8426C
:101500000BD9306820F0070038433060306800F0B5
:101510000700B84201D00120E5E72878400705D54B
:101520006068E96820F4E06008436060287800079C
:1015300006D56068296920F4605040EAC100606007
:1015400000F038F86168084AC1F30311515CC840E3
:101550000649086006480068FFF7F8FE0020C2E769
:101560000020024000100240724D000820000020C0
:10157000180000200448054900684968044AC1F37E
:101580000221515CC840704720000020001002403A
:10159000824D00080448054900684968044AC1F3BF
:1015A000C221515CC840704720000020001002405A
:1015B000824D00080F4A516801F00C00042803D046
:1015C000082803D00C4870470C4870470C48C1F3FA
:1015D0008343C903C05C0AD55168094AC1F340413D
:1015E000921E515C054A5043B0FBF1F0704705492B
:1015F000484370470010024000127A000024F400B3
:10160000624D000800093D002DE9F84F040070D03C
:101610002078C04DC00749D06868C0F38100012818
:1016200007D06868C0F38100022809D16868C00348
:1016300006D52868800339D560680028E7D035E0F2
:101640006068B0F5803F0BD010B1B0F5A02F11D07D
:10165000286820F480302860286820F4802002E088
:10166000286840F480302860606890B1FFF74EFE33
:1016700006460AE0286840F480202860F0E700BFB2
:10168000FFF744FE801B642873D828688003F7D5D1
:101690000CE0FFF73BFE064605E000BFFFF736FE15
:1016A000801B6428F0D828688003F7D420789A4EED
:1016B00080074FF001094FF0000839D5686810F035
:1016C0000C0F07D06868C0F38100022809D1686850
:1016D000C00306D42868800714D52069012808D1E2
:1016E00010E02069B0B1C6F80090FFF70FFE074682
:1016F00005E00AE1FFF70AFEC01B0228C4D82868EB
:101700008007F7D52868616920F0F80040EAC10039
:1017100028600DE0C6F80080FFF7F8FD074604E0FA
:10172000FFF7F4FDC01B022823D828688007F7D4F0
:10173000207800072CD57948A169D9B1C0F800906C
:10174000FFF7E4FD074604E0FFF7E0FDC01B0228B9
:101750000FD8686A8007F7D571484FF4FA510068CE
:10176000B0FBF1F0009000BF0098411E0091FAD24A
:101770000EE080E0C0F80080FFF7C8FD074604E0F7
:10178000FFF7C4FDC01B022875D8686A8007F7D42C
:101790002078400760D5E8690027C00008D4E869D0
:1017A00040F08050E861E869012700F08050009027
:1017B0005C480168C90513D40168834641F480710F
:1017C0000160FFF7A3FD824606E000BFFFF79EFD24
:1017D000A0EB0A0064284ED8DBF80000C005F5D560
:1017E000E06801280AD008B1052813D0286A20F043
:1017F00001002862286A20F0040002E0286A40F014
:1018000001002862E06841F2883B98B1FFF77EFD55
:1018100082460BE0286A40F004002862EEE700BF31
:10182000FFF774FDA0EB0A0159455AD8286A8007D2
:10183000F6D50CE0FFF76AFD824605E0FFF766FD8E
:10184000A0EB0A0159454CD8286A8007F6D41FB18D
:10185000E86920F08050E861E06988B36968C1F305
:101860008101022944D00228C6F8608004D0FFF725
:101870004DFD044638E034E0FFF748FD074604E03C
:10188000FFF744FDC01B02282BD828688001F7D43D
:10189000206AB0F5803F05D16868A16820F4003067
:1018A00008436860D4E908010843696821F47411A9
:1018B00008436860C6F86090FFF728FD044606E01C
:1018C00025E000BFFFF722FD001B022809D8286889
:1018D0008001F7D51BE000BFFFF718FD001B0228B1
:1018E00002D90320BDE8F88F28688001F4D40EE007
:1018F0000128F7D06868226A00F48031914204D14F
:10190000616A00F47010884201D00120EAE70020EB
:10191000E8E700000010024000004242800442421A
:10192000200000200070004070B5040009D0606AFB
:10193000002540B125616561A56294F8510040B170
:101940000CE0012070BD6068B0F5827FF4D0E561E5
:10195000F2E784F85050204600F040F8022084F866
:1019600051002068016821F040010160A0882189B0
:1019700000F4827001F404410843A18901F400617C
:101980000843217C01F002010843217D01F001019F
:101990000843218B01F400710843217F01F03801D5
:1019A000084394F8201001F080010843218D01F4D0
:1019B0000051084321680860A069042101EA104031
:1019C000216848602068C16921F40061C1616565D2
:1019D000012084F85100002070BD000000B585B0E2
:1019E0000021009101910291039100681049884201
:1019F0001BD11048C16941F48041C161C16901F442
:101A000080410491816941F00801816180696946E2
:101A100000F0080004904FF4204000900220019054
:101A2000032003900448FFF777FB05B000BD0000DA
:101A30000038004000100240000C01402DE9F84F32
:101A4000044690F850000026984615468A4601281C
:101A50000CD0012784F85070FFF758FC814694F8A9
:101A60005100B346012804D002269AE00220BDE8C6
:101A7000F88FBAF1000F6FD0002D6DD0032084F8DD
:101A80005100C4F854B0C4F830A0A586E586C4F867
:101A900038B0A4F83CB0A4F83EB0C4F844B0C4F8E0
:101AA00040B0A068B0F5004F09D12068016821F06E
:101AB000400101602068016841F4804101602068B4
:101AC0000168490603D4016841F040010160E06803
:101AD000B0F5006F606803D058B3012D29D049E0FC
:101AE00008B1012D1FD1206B21680088C86006E075
:101AF00020688168890709D5216B0988C160206B3E
:101B0000801C2063E08E401EE0860CE0FFF7FEFBA9
:101B1000A0EB0901414503D3B8F1FF3F03D006E034
:101B2000B8F1000F03D0E08E0028E1D125E00326B4
:101B300035E0206B21680078087306E02068816832
:101B400089070AD5216B09780173206B401C20633B
:101B5000E08E401EE0860DE01FE0FFF7D7FBA0EB14
:101B60000901414503D3B8F1FF3F03D0DFE7B8F1E6
:101B7000000FDCD0E08E0028E0D14A4641462046E6
:101B800000F0F4FC08B120206065A06818B9206856
:101B9000C16880680090606D08B1012601E084F89A
:101BA000517084F850B0304661E74FF0E0210428CE
:101BB000086903D020F004000861704740F0040079
:101BC000FAE710B5401EB0F1807F01D3012010BDAF
:101BD0004FF0E02460610F21601701F011F8002040
:101BE000A06107202061002010BD704770470000F1
:101BF000F8B5016804460868CA684B6910F00F0F11
:101C00004FF0000559D003F0010602F490773743F6
:101C100065D0C10705D0D10503D5616C41F0010144
:101C20006164410705D5D90703D0616C41F0020119
:101C30006164810705D5D90703D0616C41F00401C7
:101C40006164010707D502F02001314303D0616CC4
:101C500041F008016164616C00293AD0800604D526
:101C6000900602D5204600F0F6FD20684069616CC0
:101C7000C0F38010090700D460B3204600F0C4FD13
:101C800020684069400621D52068143050E8001FC4
:101C900021F0400140E80012002AF5D1E06BA8B124
:101CA0006D494163E06BFFF763F8002811D0E06BEA
:101CB000416B01B0BDE8F040084783060FD593069D
:101CC0000DD52046BDE8F84000F0C5BD2046FFF721
:101CD0008DFFF8BD2046FFF789FF6564F8BD266BD0
:101CE0002023012E7CD1C6067AD5D60678D5086881
:101CF0004868009048694FF00206400640D5E16B05
:101D0000086840680004000CE8D0A28D8242E5D942
:101D1000E085886920282DD020680C3050E8001F0D
:101D200021F4807140E80012002AF5D120681430B7
:101D300050E8001F21F0010140E80012002AF5D10F
:101D40002068143050E8001F21F0400140E80012E4
:101D5000002AF5D184F84230256320680C3050E821
:101D6000001F21F0100140E80012002AF5D1E06BBD
:101D7000FEF7DAFF6663A08DE18D401A81B22AE09A
:101D8000A08DE18D401A81B2E08D0028A6D00029F7
:101D9000A4D022680C3252E8000F20F4907042E880
:101DA0000007002FF5D12068143050E8002F22F0F2
:101DB000010240E80027002FF5D184F84230256366
:101DC00020680C3050E8002F22F0100240E8002379
:101DD000002BF5D166632046FFF707FFF8BDFFE74C
:101DE00005062BD5150629D594F841002128F5D1F3
:101DF000A068B0F5805F01D12069B0B1206A411CB4
:101E00002162216800784860E08C401E0004000CCC
:101E1000E084E3D12068C16821F08001C1602068BE
:101E2000C16841F04001C160D8E7206A0088C0F372
:101E300008004860206A801C2062E5E74006CDD596
:101E40005006CBD5CA68204622F04002CA6084F80A
:101E5000413000F06DF9C1E7F927000870B50400C2
:101E600004D094F84100002510B106E0012070BDB7
:101E700084F84050204600F023F8242084F84100E4
:101E80002068C16821F40051C160204600F044FD83
:101E90002068016921F4904101612068416921F0C5
:101EA0002A0141612068C16841F40051C160656444
:101EB000202084F8410084F842006563002070BD52
:101EC000F0B585B000240094019402940394036853
:101ED0003F4F02203F4903223F4D4602BB4225D1DE
:101EE0008B6943F480438B618B6903F480430493D3
:101EF0008B6943F004038B618969039201F004014B
:101F000004910102CDE9001069462846FFF704F963
:101F1000CDE90064694628460294FFF7FDF80022E7
:101F200005212520FFF75EFA252028E02B4FBB4234
:101F300029D1CB6943F40033CB61CB6903F400337F
:101F400004938B6943F004038B618969039201F068
:101F5000040104910421CDE9001069462846FFF7E9
:101F6000DBF80820CDE90004694628460294FFF713
:101F7000D3F8002206212620FFF734FA2620FFF7A7
:101F800023FA05B0F0BD164DAB42FAD1CB6943F44C
:101F90008023CB61CB6903F4802304938B6943F0E6
:101FA00008038B6189690F4D01F00801CDE9032118
:101FB000CDE9006069462846FFF7AEF8E814CDE9A0
:101FC0000004694628460294FFF7A6F8D9E7000006
:101FD0000038014000100240000801400044004069
:101FE00000480040000C01402DE9F843044690F8F9
:101FF0004200994616460D46202802D00220BDE830
:10200000F883ADB1A6B100206064222184F84210AB
:102010002063FFF77BF9A6858046E685A0684FF42C
:102020008057B84201D1206920B12E46002526E014
:102030000120E4E7002622E043460022202120463A
:10204000CDF8009000F0C4FC08B10320D7E726B11A
:10205000A068B8421BD038B108E020684068C0F3DF
:10206000080025F8020B07E0206980B1206840686D
:1020700000F07F0006F8010BE08D401EE085E08D4A
:102080000028D9D1202084F842000020B7E720683A
:102090004068EFE770472DE9F843044690F84100A7
:1020A0001F4616460D46202802D00220BDE8F883C0
:1020B0007DB176B100206064212084F84100FFF7F3
:1020C00025F9A6848046E684A068B0F5805F02D03A
:1020D00003E00120EAE7206910B12E4600250EE05A
:1020E00000260CE08021204600F072FCA0B9AEB1C1
:1020F00016F8010B21684860E08C401EE084E08CFB
:1021000043464FF0000200970028EBD14FF040010A
:10211000204600F05DFC30B10320C7E735F8020B24
:10212000C0F30800E6E7202084F841000020BDE766
:102130007047000070B5224C6079FE283DD1A1792E
:10214000601D00F071F8A279E11D515C884234D124
:10215000E07901282FD01B4D4FF47A760A2802D05F
:102160000B2828D10EE00020FEF7B2FB1648017ABA
:10217000C079334641EA002213491448FFF78BFF28
:10218000012115E0607A217A40EA0120A17A227BC0
:10219000E37A42EA0322FEF763FB0D48017AC07935
:1021A000334641EA00220A490848FFF774FF02213A
:1021B000286802F015F8002070BD4FF0FF3070BDA8
:1021C000A0300020FC000020022E00205C01002036
:1021D000AC2D0020FEE7000008B50146012000906C
:1021E0000948406868B100236A4602F08BF90098FC
:1021F00038B106494FF080500860BFF34F8FBFF3EE
:102200006F8F002008BD00000C01002004ED00E0ED
:102210000448002101604160816000F10C0101600F
:10222000704700009430002010B500231A4604E0E7
:10223000845C521C2344DBB2D2B28A42F8D3405CA5
:10224000984201D1002010BD4FF0FF3010BD0000BA
:1022500008B50146012000900948406868B1002394
:102260006A4602F04FF9009838B106494FF08050A5
:102270000860BFF34F8FBFF36F8F002008BD0000D1
:102280000001002004ED00E070B529494C790A46B0
:10229000012312686CB18C797CB1CC798CB10D7949
:1022A00001F10C04052D16D210700A68521C0A6048
:1022B00015E0572837D14B7105E0AB2833D18B712E
:1022C00001E080BBCB7110700868401C0860087981
:1022D000401C087129E00B722279921C4A810A790C
:1022E000521C0A710A7A012A1FD14A8942B14A89CD
:1022F000521E4A810A6810700868401C086014E089
:1023000021790B480C30FFF78FFF60B9E078062881
:1023100009DD082807D0092805D00A2803D0872816
:1023200001D1FFF707FFFFF773FF002070BD00002A
:10233000943000203EB50021174800910191154AC4
:1023400002910260921582600173017502244FF4BC
:1023500060220461C2614160FEF77AFB08B1FEF7BA
:1023600067F908200090012001900720029069463B
:102370000948FEF7D3FA08B1FEF75AF90920CDE96A
:10238000000469460448FEF7C9FA002801D0FEF7A8
:102390004FF93EBD00240140EC010020094808B57A
:1023A000416941F0010141614069002200F00100F2
:1023B000009006210B20FFF715F8BDE808400B2020
:1023C000FFF702B800100240094808B5816941F0E2
:1023D00020018161816901F020010091816941F052
:1023E00004018161806900F00400009008BD0000D4
:1023F00000100240114810B50F4901604FF482717E
:1024000041604FF40041816000210222C0E90312C3
:1024100001224261520282610822C0E90721416221
:1024200081620A21C162FFF77FFA002803D0BDE86C
:102430001040FEF7FDB810BD003800407C2F002092
:1024400010B50E4C0C480C2120604FF41650606003
:102450000020A060E060C4E90401A061E0612046C2
:10246000FFF7FCFC08B1FEF7E3F82068C16841F013
:102470002001C16010BD000000380140140100209F
:1024800010B50E4C0C480C2120604FF46140606088
:102490000020A060E060C4E90401A061E061204682
:1024A000FFF7DCFC08B1FEF7C3F82068C16841F013
:1024B0002001C16010BD0000004400405C0100200C
:1024C00010B50E4C0C480C2120604FF4E1306060D8
:1024D0000020A060E060C4E90401A061E061204642
:1024E000FFF7BCFC08B1FEF7A3F82068C16841F013
:1024F0002001C16010BD000000480040A401002080
:10250000FEE7FEE770B50E4C0525E5702571012547
:102510006571A371E171227260722079401DC1B2B0
:102520002046FDF73AFF2279611D505422794FF47D
:102530007A73491F0348921DFFF7ADFD002070BD5F
:10254000D12E00201401002001494860002070476E
:102550000C000020014908600020704700000020A6
:1025600001494860002070470000002038B50B4644
:10257000009204460022802100F008F8002804D0D0
:10258000606D40F020006065032038BD2DE9F84300
:102590001E46914688460446089DFEF7B7FE401B3E
:1025A000351AFEF7B3FE074625480068C0F3CB3066
:1025B000684338E0701C37D0FEF7A8FEC01BA84265
:1025C00003D215B1009860B32CE02068416821F077
:1025D000E00141606068B0F5827F0BD1A068B0F582
:1025E000004F02D0B0F5806F04D12068016821F05F
:1025F00040010160A06AB0F5005F09D12068016860
:1026000021F4005101602068016841F4005101602B
:10261000012084F85100002084F850000320BDE818
:10262000F8830025401E00902068816838EA010088
:1026300004D000214945BDD10020F0E70121F9E790
:102640002000002010B5412902D94FF0FF3010BD05
:102650000D4C0622E27021710A460146601DFDF70D
:10266000ADFD2079401DC1B22046FDF796FE2279CE
:10267000611D505422794FF47A73491F0348921D0B
:10268000FFF709FD002010BDD12E0020140100200D
:1026900010B5FEF741FE02F0D9F8012803D0BDE8DD
:1026A000104001F06DBE10BD10B590B028216846F5
:1026B000FDF79DFD14210AA8FDF799FD01210804ED
:1026C000CDE900104200029202240491CDE90740B6
:1026D0004FF4E01009906846FEF796FF08B172B615
:1026E000FEE70F20CDE90A0400204FF48061CDE918
:1026F0000C010E9002210AA8FEF7A6FE002801D0C8
:1027000072B6FEE710B010BD704710B501F018F9B1
:1027100000F00AF800F03EF800F056F800F020F85B
:10272000BDE8104001F048B91CB506490320CDE9C9
:1027300000010023C82204A1084802F05BF8002031
:102740001CBD0000F400002046696E67657244619C
:102750007461436F6E74726F6C000000913C0008EE
:102760001CB506490820CDE900010023C82204A1B8
:10277000074802F03FF800201CBD00000C010020BB
:102780004A6F79537469636B5461736B0000000086
:10279000E93C00081CB506490520CDE900010023ED
:1027A000C82204A1074802F025F800201CBD000043
:1027B000000100204B657944617461436F6E74724F
:1027C0006F6C0000A93D00081CB506490720CDE943
:1027D00000010023C82204A1064802F00BF80020E3
:1027E0001CBD00000801002052474250726F636513
:1027F00073730000C13E000810B5406A0021C18516
:10280000C184FFF7F3F910BD01680C3151E8002FC6
:1028100022F4907241E80023002BF5D101681431B5
:1028200051E8002F22F0010241E80023002BF5D1EE
:10283000016B012909D101680C3151E8002F22F008
:10284000100241E80023002BF5D1202180F842102E
:1028500000210163704708B590F84210222901D089
:10286000022008BD82684FF480539A4201D1016969
:1028700021B1816A9A421BD04AB10AE00268816A9A
:102880005268C2F308020A80816A891C08E0026962
:1028900072B10268526802F07F020A70816A491CB4
:1028A0008162C18D491E0904090CC18503D01BE05A
:1028B00002685268F1E70168CA6822F02002CA6023
:1028C0000168CA6822F48072CA6001684A6922F00D
:1028D00001024A61202180F8421000214163026B0D
:1028E000012A03D0FFF7D6FB002008BD0163016871
:1028F0000C3151E8002F22F0100241E80023002B98
:10290000F5D101680A68D20602D50A6849680091C3
:10291000818DFFF76AF9E7E770B504460068016941
:10292000E26821F44051114301612169A068084324
:10293000616908432168CA6841F20C639A43024303
:10294000CA6020684169A26921F440711143416164
:102950001E492068884202D1FEF71CFE01E0FEF706
:1029600009FE00EBC00101EB0012606864218000E9
:10297000B2FBF0F3B3FBF1F36FF018067343B2FB55
:10298000F0F5B2FBF0F605EB8305322303EB0515FA
:10299000B5FBF1F5B6FBF1F605F0F00505EB061514
:1029A000B2FBF0F6B2FBF0F0B0FBF1F06FF0180202
:1029B000504306EB800003EB0010B0FBF1F0216800
:1029C00000F00F002844886070BD0000003801400E
:1029D0002DE9F041984617460E460446069D27E02D
:1029E000681C25D02DB1FEF791FCA0EB0800A84291
:1029F0001ED920680C3050E8001F21F4D07140E847
:102A00000012002AF5D12068143050E8001F21F090
:102A1000010140E80012002AF5D1202084F841008D
:102A200084F84200002084F840000320BDE8F081D3
:102A30002068006836EA000004D00020B842CFD0F9
:102A40000020F3E70120F9E708B500208DF8000029
:102A50000848FFF7CDF80023012269460548FFF733
:102A6000C3FA05480268002A02D00121684690474F
:102A700008BD0000140100200000002008B500205F
:102A80008DF800000848FFF7B3F8002301226946DB
:102A90000548FFF7A9FA05480268002A02D001217B
:102AA0006846904708BD00005C010020040000203B
:102AB000FEE700002DE9F0474FF490770E46804680
:102AC00015463C4639461046FDF791FB4FF47A799E
:102AD0004B46224629460C48FEF7B0FF002408E08A
:102AE00004EB440005EB001158F8240000F00EF848
:102AF000641CB442F4D34B463A462946BDE8F0473D
:102B00000148FEF79BBF00007C2F00202DE9F05FFD
:102B10000C46C0F30721C0F30742090441EA02252D
:102B2000C0B205434FF6F87A4FF4604B1E212046A1
:102B3000FDF75DFB002211465FF00103C1F11700B4
:102B400025FA00F0C0074FF0000022D04FEA0A0734
:102B5000C0F10F0627FA06F6F6070ED004EBD20CEA
:102B600002F007099CF80080C9F1070903FA09F689
:102B700048EA06088CF8008005E004EBD20696F8D7
:102B800000C086F800C0401CC0B2521C1028DFD321
:102B900020E05F46C0F10F0627FA06F6F6070ED0D2
:102BA00004EBD20C02F007099CF80080C9F1070978
:102BB00003FA09F648EA06088CF8008005E004EB01
:102BC000D20696F800C086F800C0401CC0B2521C65
:102BD0001028DFD3491CC9B21829AFD3BDE8F09F34
:102BE0000FB4054B10B503A9044A029800F028F869
:102BF00010BC5DF814FB00007D2E000808000020CA
:102C00000907090E002804DB00F1E02080F8001419
:102C1000704700F00F0000F1E02080F8141D7047AD
:102C200002E008C8121F08C1002AFAD17047704795
:102C3000002001E001C1121F002AFBD170470000F3
:102C40002DE9FF4F8BB09A460F460546002606E059
:102C500025280BD052460D9990476D1C761C28787C
:102C60000028F5D10FB03046BDE8F08F0024A04613
:102C70000122604900E0044315F8013F203B02FABD
:102C800003F00842F7D128782E2817D115F8010F44
:102C900044F004042A280ED06FF02F022878A0F107
:102CA000300109290AD808EB880102EB410100EB49
:102CB00001086D1CF2E757F8048B6D1C2878692811
:102CC0003ED006DC0028CDD063280BD0642804D188
:102CD00036E0732810D075284BD052460D99904796
:102CE000761C85E017F8040B8DF8000000208DF8A5
:102CF0000100E946012003E057F8049B4FF0FF3044
:102D000061074FF0000401D40AE0641C44450DDA69
:102D10008442FADB19F804100029F6D106E0641C9D
:102D20008442FCDB19F804100029F8D1264404E0A1
:102D300019F8010B52460D999047641EF8D257E0DE
:102D400001CF4FF00A0B002802DA40422D2102E0A9
:102D5000210504D52B218DF82410012103E0E10782
:102D600005D02021F7E70DF1200908910CE00021A2
:102D7000F9E701CF4FF00A0BF9E75946FDF742FAA0
:102D800001F1300209F8012D0028F6D1ADEB090060
:102D900000F1200B600701D44FF00108D84502DD97
:102DA000A8EB0B0000E000208046002406E009A804
:102DB0005246005D0D999047641C761C0898844229
:102DC000F5DB04E0302052460D999047761CB8F1AF
:102DD0000001A8F10108F5DC05E019F8010B5246E5
:102DE0000D999047761CBBF10001ABF1010BF4DCAF
:102DF0006D1C34E70928010070B505464FF0E0244A
:102E000000202061FEF7D1FE0749E80808804FF452
:102E10007A714843216941F00201216160612069B2
:102E200040F00100206170BDA400002070B505468F
:102E300000244FF47A7603E0304600F005F8641C75
:102E4000AC42F9D370BD000070B54FF0E024002211
:102E500065690949A36909884843A1699942FCD079
:102E600002D2A3EB010302E0A5EB010633441A44AE
:102E70000B468242F1D370BDA400002004490A68C9
:102E80005206FCD5024AC1B2121D11607047000003
:102E900000480040FEF748FAFFF706FCFFF794FAF7
:102EA000FFF7CEFAFFF7ECFAFFF70AFBFFF7A2FAFB
:102EB000FFF774FAFFF73EFA4820FFF79DFFFDF792
:102EC000B9FBFDF777FA4FF47A70FFF7AFFFFDF724
:102ED00049FB0748FFF73EFB0648FFF741FB064862
:102EE000FFF732FBFFF711FC01F0ACF8FEE7000042
:102EF0005122000845070008D92100082DE9F041BA
:102F0000204C0F460546E6682168002081F85900EC
:102F10002068001D00F0DAFC38B9206890F82C1009
:102F200001208840216981432161681C15D1A7B126
:102F3000154922684868906023688268DA602268D0
:102F40008368121D5A602268121D826020684161E8
:102F50000868401C0860BDE8F08120683544B5422F
:102F60004560216805D2E06BBDE8F041091D00F025
:102F7000CEBCA06B091D00F0CAFCA06A8542EAD253
:102F8000A562E8E724000020700500202DE9F0414B
:102F9000054600F0D5FC354CA068401CA0602068B8
:102FA000334F10B1606930B32BE02560A068012871
:102FB00027D1002606EB860007EB800000F099FC85
:102FC000761C202EF6D32B4800F093FC29481430B1
:102FD00000F08FFC2748283000F08BFC25483C305F
:102FE00000F087FC2348503000F083FC2148A063A8
:102FF0001430E06305E02068E96AC06A884200D8BE
:103000002560606A401C60626864E96A0120226988
:1030100088401043206101EB810007EB800040688D
:10302000A8608168E9608268291D51608160E86A52
:1030300000EB800007EB8001696157F82010491C04
:1030400047F8201000F0B8FC606900280CD0206818
:10305000E96AC06A884207D207494FF08050086089
:10306000BFF34F8FBFF36F8FBDE8F08124000020C6
:10307000A00200202005002004ED00E010B500F0C3
:103080005FFC0E4C2068A0B90D4800F032FC0C48E3
:10309000143000F02EFC0A48E06014302061002259
:1030A0001021052001F082F9206010B105A100F087
:1030B0005DFDBDE8104000F07FBC00006400002012
:1030C00084050020546D72510000000030B4026C81
:1030D0000B46002A0BD0C1681144C1608468A1422C
:1030E00001D30168C16030BC1846FDF767B830BC39
:1030F00070472DE9F041856B174604460026026CA7
:1031000082B1C7B1E068FDF759F8E168206C091A8F
:10311000E1602268914202D2A168081AE060022FA1
:1031200016D017E02068A8B9A06801F04FFC064649
:103130000020A0600EE06068FDF740F8216C606838
:1031400008446060A168884204D32068606001E0A0
:1031500005B16D1E6D1CA5633046BDE8F08110B54C
:103160000446006B00F05AFC2046BDE8104000F019
:1031700055BC000010484FF42051420706D0C01D36
:103180000D4920F00700411AC1F520510B4A0023D8
:103190000144C2E900030839183A21F0070111601F
:1031A0004B600B600B1AC0E9001393604FF00040B6
:1031B0005360506170470000AC0500209000002073
:1031C000144E154CA6F52F774FF08058DFF84C9031
:1031D00012E000BF00F0B4FBF068C568281D00F0E5
:1031E00075FBA068401EA0606068401E606000F033
:1031F000E3FB2846FFF7B3FF60680028EAD1386890
:103200000128F9D9C9F80080BFF34F8FBFF36F8F42
:10321000F2E700005C0500202400002004ED00E03F
:103220002DE9F05FDDE90B940F46154683469100CA
:103230009A460A9EA522206BFCF7D2FF6FF003018D
:10324000206B01EB8501084420F007085FEA487015
:1032500005D04FF458721FA123A0FFF7C1FC002531
:1032600067B100202218395C82F83410395C11B142
:10327000401C1028F6D384F8435001E084F8345001
:10328000202E06D340F2973212A117A0FFF7A8FC18
:103290001F26E662C4E91365201D00F035FB04F12A
:1032A000180000F031FB2461C6F120006462A061C7
:1032B000656584F8585084F859505246594640463E
:1032C00000F0F2FA2060B9F1000F01D0C9F8004017
:1032D000BDE8F09F2E2E5C4672656552544F535CDC
:1032E0007461736B732E63004572726F723A20259E
:1032F000732C2025640D0A0030B5114900E01146F9
:103300000A688242FBD34B685C18844203D1406850
:1033100018444860084643681C18944209D1084C78
:10332000183C2468A24209D052681A4442600A68D4
:1033300012680260814200D0086030BD0460F9E785
:103340009000002070B5002441600B4D0061914257
:1033500006D8D11A8269914206D2011D286907E078
:103360009A4203D2994201D3012403E0011DE86887
:1033700000F0CDFA204670BD6400002010B5044670
:1033800000F0DEFAA06B28B15FF0000400F014FB3F
:10339000204610BD0124F9E7F1B500980026846CA1
:1033A0002CB940F6D53219A11DA0FFF719FCA06B6E
:1033B000E16B884205D340F6D63214A118A0FFF77E
:1033C0000FFCA06BE16B88421ED294F9455000229D
:1033D00069462046FFF78DFE0646681C02D07F2D09
:1033E00009D00EE0606A78B104F1240001F058FBC6
:1033F00050B1012608E040F6F63204A108A0FFF71C
:10340000EFFB6D1C84F845503046F8BD2E2E5C460F
:1034100072656552544F535C71756575652E630016
:103420004572726F723A2025732C2025640D0A00B4
:1034300070B506460D480D46C068C068C468201DBA
:1034400000F044FA94F82800410705D52A46314691
:10345000204600F0D1F803E000F0FE0084F82800D8
:103460002046216ABDE87040084700006400002043
:1034700070B586B03A4E69E00098002806DADDE9BA
:103480000201019A9047009800285FDB029C606966
:1034900010B1201D00F01AFA04A800F0CFF805467C
:1034A00000980A2852D2DFE800F0510505282E4581
:1034B0000505282E94F828002A4640F0010084F8DB
:1034C00028000198A169034601442046FFF73AFF0E
:1034D00078B394F82800410707D50198A1692A46D6
:1034E0000144204600F088F803E000F0FE0084F874
:1034F0002800216A2046884728E014F8280F00F0A9
:10350000FE00207022E094F8280040F0010084F8CA
:1035100028000198A06128B940F2593211A117A0E2
:10352000FFF75EFBA0692B4641191A462046FFF7BC
:1035300009FF0BE094F82800810703D4204600F02F
:103540006DFA03E000F0FE0084F8280000226946CE
:10355000306801F053F800288ED106B070BD00002D
:10356000640000202E2E5C4672656552544F535CF9
:1035700074696D6572732E63000000004572726F8E
:10358000723A2025732C2025640D0A00F8B50D46EB
:10359000064600F09FFD684600F050F8044600988B
:1035A00010B101F0FBFAF8BD1148ADB1016909682D
:1035B000D9B10025311B2A46006800F011FB01F04B
:1035C000EDFA0028EFD10B494FF080500860BFF3AF
:1035D0004F8FBFF36F8FF8BDA642EBD801F0DEFA34
:1035E00021463046FFF724FFF8BD0125E2E7000041
:1035F0006400002004ED00E070B516460C46054658
:1036000004E0A869296A044428468847A869234633
:10361000011932462846FFF795FE0028F1D170BD0A
:103620000548816B096821B1816BC96809688162AD
:1036300070474FF0FF31FAE7240000202DE9F041F8
:10364000064601F011F90E4C0546A068854214D2D9
:103650004FF0FF3704E0C06839460068FFF7E8FE26
:10366000E06801680029F6D12169C4E9031001204E
:1036700030602846A560BDE8F0810020F8E7000032
:103680006400002008484068401C04D0CE2207A1F6
:1036900011A0FFF7A5FA502080F31188BFF34F8FD8
:1036A000BFF36F8FFEE70000980000202E2E5C46CF
:1036B00072656552544F535C706F727461626C65D1
:1036C0005C525644535C41524D5F434D335C706FC6
:1036D00072742E63000000004572726F723A2025EA
:1036E000732C2025640D0A00074CE068016841B185
:1036F000C0680021D0F80000FFF748FFFFF7B8FED0
:10370000F3E701210020F7E7640000202DE9F041F4
:10371000044600F015F994F9455004F124060FE031
:10372000A06C18B12046FFF737FE04E0606A48B18C
:10373000304601F0B5F908B100F056FB6D1E6DB2D0
:10374000002DEDDC4FF0FF3684F8456000F034F9D1
:1037500000F0F6F894F9445004F1100709E02069EC
:1037600048B1384601F09CF908B100F03DFB6D1EF0
:103770006DB2002DF3DC84F84460BDE8F04100F048
:103780001BB900002DE9F0410546002600F0A2FC1F
:10379000364F386808B9FFF7EDFC7869054258D113
:1037A000002D56D005F10804AC4252D960070ED066
:1037B00004F00700C0F108002044A04249D90446A3
:1037C000400704D09C222AA133A0FFF709FA002C5D
:1037D0003FD0786884423CD82448183001460D68B0
:1037E00001E028460D466968A14202D229680029F5
:1037F000F7D13968B8468D422BD006682968016038
:1038000068680836001B10280ED92F19780704D0D5
:10381000CF2217A120A0FFF7E3F96868001B7860AA
:1038200038466C60FFF768FD6A68D8F804104046B7
:10383000891AC8F80410D8F80830994200D281607B
:1038400041690A430021C5E90012C168491CC8F852
:103850000C1001F0A3F9700705D04FF4887204A191
:103860000DA0FFF7BDF93046BDE8F08178000020DB
:103870002E2E5C4672656552544F535C706F7274A5
:1038800061626C655C4D656D4D616E675C6865611C
:10389000705F342E630000004572726F723A20250B
:1038A000732C2025640D0A0010B5031F4FF080749F
:1038B0001C601B1F21F001011960191F024B0B60D6
:1038C000143940380A6010BD85360008D0E901324D
:1038D00001699A60D0E901235A604A68824201D1A5
:1038E00082684A60002202610868401E0860086819
:1038F000704700F108014FF0FF32C0E90112C160CA
:10390000016100210160704700210161704730B5FD
:103910000B685A1C02D000F1080202E0026904E0C0
:103920002246546825689D42FAD953684B609960D5
:103930008A60516008610168491C016030BD000067
:10394000502080F31188BFF34F8FBFF36F8F094969
:103950004868401C486001280AD10748006810F0F8
:10396000FF0F05D040F2731204A10FA0FFF738B982
:10397000704700009800002004ED00E02E2E5C4609
:1039800072656552544F535C706F727461626C65FE
:103990005C525644535C41524D5F434D335C706FF3
:1039A00072742E63000000004572726F723A202517
:1039B000732C2025640D0A0010B5084C606828B9E6
:1039C0004FF4BD7206A111A0FFF70AF96068401E0E
:1039D000606001D180F3118810BD000098000020C4
:1039E0002E2E5C4672656552544F535C706F727434
:1039F00061626C655C525644535C41524D5F434D6D
:103A0000335C706F72742E63000000004572726F39
:103A1000723A2025732C2025640D0A0070B5002809
:103A20002DD0174DA0F1080460686969084205D1DE
:103A30004FF4927213A11DA0FFF7D2F8206828B1AD
:103A400040F225120FA119A0FFF7CAF86168686952
:103A5000014214D02268002A11D18143616000F034
:103A600039FB60686968084468602046FFF744FCD9
:103A70002869401C2861BDE8704001F08FB870BD16
:103A8000780000202E2E5C4672656552544F535CC0
:103A9000706F727461626C655C4D656D4D616E67CF
:103AA0005C686561705F342E630000004572726F60
:103AB000723A2025732C2025640D0A004FF0E02077
:103AC00000210161816105494FF4FA520968B1FB97
:103AD000F2F1491E4161032101617047200000207D
:103AE00010B5FCF755FB104C10280CD300F1E0206A
:103AF00090F8F0032178884205D240F2BB220BA156
:103B000015A0FFF76DF818480068A16800F4E060A0
:103B1000884207D9BDE8104040F2CB2203A10EA095
:103B2000FFF75EB810BD0000980000202E2E5C4606
:103B300072656552544F535C706F727461626C654C
:103B40005C525644535C41524D5F434D335C706F41
:103B500072742E63000000004572726F723A202565
:103B6000732C2025640D0A000CED00E070B50D46A5
:103B7000040005D140F6C8220FA114A0FFF730F8C9
:103B80000022002D16D01548002300BF00EBC30112
:103B90004E68A64202D100EBC30207E01AB950F802
:103BA000336006B90A465B1C082BEFD3002A01D00C
:103BB000C2E9005470BD00002E2E5C46726565524D
:103BC000544F535C71756575652E63004572726F55
:103BD000723A2025732C2025640D0A006002002013
:103BE00070B515460E460446FFF7AAFE94F9441038
:103BF0000020491C01D184F8440094F94510491C67
:103C000001D184F84500FFF7D7FEA06B28B92A46FA
:103C1000314604F1240000F017F92046BDE8704059
:103C2000FFF774BD10B5040012D00E48406B28B1E8
:103C300040F249520CA111A0FEF7D2FF00F04AFA5F
:103C400000212046FFF75AF900F0A8FF002807D10D
:103C50000E494FF080500860BFF34F8FBFF36F8F56
:103C600010BD0000240000202E2E5C4672656552B7
:103C7000544F535C7461736B732E63004572726FA3
:103C8000723A2025732C2025640D0A0004ED00E013
:103C900008B500208DF80000FCF7F6FC0022012199
:103CA0000A2000F083FB0B4C606000F08BFA4FF0B1
:103CB000FF35A0602A466946606800F09FFC012835
:103CC00002D0FCF7E1FCF5E79DF80000FCF756FD9B
:103CD000F0E70000F400002002490A6A0260C968A7
:103CE000416070472400002008B500252C462A4674
:103CF00002210120009500F059FB254E02222549A2
:103D000070602548FCF78AFF6F1E3A466946706866
:103D100000F074FC9DF80010242903D2C1F12400A6
:103D200060F307042C2904D9A1F22B10404260F360
:103D300007049DF80120242A03D2C2F1240060F375
:103D40000F242C2A04D9A2F22B10404260F30F2436
:103D500014F0FF0000D00120C4F3072303B10123B6
:103D600018430BD00DA0FEF73BFF0023C4F307223E
:103D7000E1B21846FEF7C6FB2C4600951E20FFF761
:103D800051FF022203490448FCF748FFBDE7000049
:103D90000C0100200C000020EC010020783D25647F
:103DA0002C793D25640D0A0008B500208DF800002F
:103DB000FEF72EFA002201210A2000F0F7FA094C42
:103DC0004FF0FF3560602A466946606800F016FCD7
:103DD000012802D0FEF71CFAF5E79DF80000FEF777
:103DE00053FAF0E70001002001490120C861704743
:103DF0002400002070B50D46040005D140F61C4299
:103E000007A10CA0FEF7ECFE0E4801682046183111
:103E1000FFF77DFD2846BDE870400121FFF76EB831
:103E20002E2E5C4672656552544F535C7461736B01
:103E3000732E63004572726F723A2025732C202511
:103E4000640D0A002400002070B515460E460400DB
:103E500005D140F6524210A114A0FEF7C1FE17484A
:103E600061680268D1618A6803681A6202688B68B7
:103E700018325A60026818328A60006884622068CA
:103E8000401C20600DB14FF0FF3629463046BDE89A
:103E90007040FFF733B800002E2E5C467265655205
:103EA000544F535C7461736B732E63004572726F71
:103EB000723A2025732C2025640D0A00240000206E
:103EC00086B000248DF80C408DF81040FF208DF84E
:103ED00000008DF80440204D9DF80C009DF8101056
:103EE000000440EA01209DF80010084302900020E1
:103EF000029945F82010401CC0B20628F8D3164A93
:103F0000062118321448FEF7D5FD9DF8040020B9AB
:103F10009DF80000401F8DF800009DF80400012866
:103F200004D19DF80000401D8DF800009DF80000B0
:103F300010B901208DF804009DF80000FF2801D180
:103F40008DF8044004484FF480611830FCF74FF9B5
:103F50006420FFF767FEBFE7E830002070B52E4E03
:103F600005460C46706B28B940F6BA422BA130A02A
:103F7000FEF736FE44F000402860EC682CB940F6AD
:103F8000C24226A12AA0FEF72BFED5E9012128690D
:103F90009160D5E9011251604168A94201D1A96837
:103FA000416000222A610168491E0160D4E90230A3
:103FB00061699860D4E9020358604B68201D834210
:103FC00001D1E3684B6062610A68521E0A60E36ACD
:103FD0000122356902FA03F12943316103EB8301C0
:103FE000174B03EB81014968A1608D68E5608D681E
:103FF00068608860E06A00EB800003EB800161612B
:1040000053F82010491C43F82010E06A3168C96A4F
:10401000884200D9F26170BD240000202E2E5C463B
:1040200072656552544F535C7461736B732E6300F9
:104030004572726F723A2025732C2025640D0A0098
:10404000A00200207CB516480025CDE900502B4683
:10405000802214A1154800F0CDFB114C2C3C012806
:1040600003D100F043FE012802D0401C10D015E01F
:10407000502080F31188BFF34F8FBFF36F8F4FF045
:10408000FF30A06201206061E56000F001F905E009
:104090004FF4046206A10BA0FEF7A2FD206B7CBDCD
:1040A0005000002049444C4500000000C131000888
:1040B0002E2E5C4672656552544F535C7461736B6F
:1040C000732E63004572726F723A2025732C20257F
:1040D000640D0A000248416B491C416370470000AF
:1040E0002400002070B5134C606B10B10120E0611A
:1040F00070BD0020E06120690F4EB0FA80F0C0F181
:104100001F0000EB800556F8250028B940F6024252
:104110000AA10FA0FEF764FD06EB850000F108027E
:10412000416849684160914201D149684160C8686D
:10413000206070BD24000020A00200202E2E5C46CE
:1041400072656552544F535C7461736B732E6300D8
:104150004572726F723A2025732C2025640D0A0077
:1041600070B50E46040005D140F2E1120AA111A07B
:10417000FEF736FD300E05D04FF4F17206A10DA00A
:10418000FEF72EFDFFF7DCFB256825EA0600206020
:10419000FFF712FC284670BD2E2E5C4672656552F4
:1041A000544F535C6576656E745F67726F7570739C
:1041B0002E6300004572726F723A2025732C202501
:1041C000640D0A0010B51C20FFF7DCFA040004D0CF
:1041D00000202060201DFFF78CFB204610BD000052
:1041E0002DE9F04100278846040005D140F2212244
:1041F0001CA123A0FEF7F4FC5FEA186005D040F292
:10420000222218A11EA0FEF7EBFC261D04F10C05CE
:10421000FFF760FF2168F06841EA0801216017E0BC
:10422000D0E9001601F07F425301236821F07F415D
:1042300002D40B4203D10AE031EA030307D1D201D1
:1042400000D50F43216841F00071FFF787FE30462B
:10425000A842E5D12068B843206000F09FFC2068A8
:10426000BDE8F0812E2E5C4672656552544F535C5A
:104270006576656E745F67726F7570732E6300008C
:104280004572726F723A2025732C2025640D0A0046
:104290007CB5294D28780190FF20287028788DF86A
:1042A00000009DF800009DF8001000F0F00088422A
:1042B00005D040F21F1221A12BA0FEF791FC9DF822
:1042C00000002D4C00F0500020700720A06005E099
:1042D0009DF8001049008DF80010401E9DF8001058
:1042E0000906F5D4A06003280ED040F2331213A1C2
:1042F0001DA0FEF775FCA068032805D04FF49E7240
:104300000EA119A0FEF76CFC207A000200F4E06018
:10431000A060019828701948016841F4700101609B
:10432000016841F070410160FFF7C8FB0020606048
:10433000FBF7F8FE00207CBD00E400E02E2E5C467A
:1043400072656552544F535C706F727461626C6534
:104350005C525644535C41524D5F434D335C706F29
:1043600072742E63000000004572726F723A20254D
:10437000732C2025640D0A009800002020ED00E039
:1043800010B5502080F31188BFF34F8FBFF36F8FAC
:1043900000F070FA18B104494FF080500860002016
:1043A00080F3118810BD000004ED00E02DE9F0411C
:1043B00017460E4605004FF000041FD0601EB0FBEC
:1043C000F5F0B0421AD305FB06F010F1550F15D8E1
:1043D0005430FFF7D7F9040016D004F154005EB151
:1043E0002060C4E90F562046012100F023F884F82C
:1043F00050700021A16407E02460F2E74FF4E372FB
:1044000003A108A0FEF7ECFB2046BDE8F081000008
:104410002E2E5C4672656552544F535C71756575FE
:10442000652E63004572726F723A2025732C202529
:10443000640D0A002DE9F0410F4604004FF001061B
:104440002BD0E06B78B3B51EB5FBF0F1206C814248
:1044500029D3FFF775FAD4E90F20216802FB001178
:10446000A1600021A163216861600A46D4E90F01BF
:10447000401E00FB01212046E16000F8445F4570CA
:1044800004F11000CFB1FFF734FA04F12400FFF774
:1044900030FA00BFFFF790FA0CE04FF488720FA1DA
:1044A00013A0FEF79DFB002640F245120BA110A0C1
:1044B000FEF796FB3046BDE8F08121690029E9D07E
:1044C00000F0EEFA0028E5D00D494FF0805008606A
:1044D000BFF34F8FBFF36F8FDCE700002E2E5C46DB
:1044E00072656552544F535C71756575652E630036
:1044F0004572726F723A2025732C2025640D0A00D4
:1045000004ED00E02DE9F0471F4616468A460400F8
:1045100005D140F2024230A134A0FEF761FBBAF1AE
:10452000000F07D1206C28B140F203422AA12FA02E
:10453000FEF756FB022F08D1E06B012805D040F2B0
:10454000044225A129A0FEF74BFBFFF7C9FA502131
:10455000EFF3118081F31188BFF34F8FBFF36F8F9B
:104560008046A06BE16B884206D3022F04D0002066
:1045700088F31188BDE8F08794F94550D4F8389055
:104580003A4651462046FEF7B4FD681C02D07F2D06
:1045900016D01BE0A06C012540B1022F02D1B9F169
:1045A000000F16D12046FEF7F7FE05E0606A80B1E5
:1045B00004F1240000F074FA58B156B1356008E0F7
:1045C00040F28D4204A109A0FEF70AFB6D1C84F89D
:1045D00045500120CCE700002E2E5C4672656552E6
:1045E000544F535C71756575652E63004572726F2B
:1045F000723A2025732C2025640D0A002DE9F74717
:10460000002683B08A46040005D140F2515245A1EC
:1046100049A0FEF7E5FABAF1000F07D1206C28B1E6
:1046200040F255523FA144A0FEF7DAFA00F00EF92D
:1046300038B9059828B140F25A523AA13EA0FEF787
:10464000CFFADFF804814FF000094FF0805700BF28
:10465000FFF776F9A56BC5B151462046FEF736FD4A
:104660006D1EA563206950B104F1100000F018FA26
:1046700028B1C8F80070BFF34F8FBFF36F8FFFF7FB
:104680009BF9012006B0BDE8F087059808B11EB17E
:1046900006E0FFF791F927E06846FFF71DFB0126CA
:1046A000FFF78AF9FFF716FDFFF74AF994F944007E
:1046B000401C01D184F8449094F94500401C01D17C
:1046C00084F84590FFF778F905A9684600F03EF8B0
:1046D000002820460AD0FFF719F800F05FFA2046BC
:1046E000FEF74CFE0028B3D00020CBE7FEF746FED5
:1046F00090B104F124000599FFF77CFB2046FFF7F9
:1047000005F800F04BFA0028A2D1C8F80070BFF3FA
:104710004F8FBFF36F8F9BE72046FEF7F7FF00F048
:104720003DFA95E72E2E5C4672656552544F535CF8
:1047300071756575652E63004572726F723A20253A
:10474000732C2025640D0A0004ED00E02DE9F041F2
:104750000C46050005D140F6FD421CA120A0FEF745
:104760003FFA2CB940F6FE4218A11DA0FEF738FA18
:10477000FFF7E6F81E49CB686F680868DA1B002669
:1047800090F8590018B1086880F8596018E020685E
:10479000B0F1FF3F09D0D5F800C0096A8C4506D0BA
:1047A0009F4204D8012526600BE0002509E09042D5
:1047B00005D9801A20602846FFF78EFAF5E72660B3
:1047C0000125FFF7F9F82846BDE8F0812E2E5C465A
:1047D00072656552544F535C7461736B732E630042
:1047E0004572726F723A2025732C2025640D0A00E1
:1047F000240000202DE9FF5F8346DDE90E879946FE
:1048000016468A469000FEF7BDFF05001AD05C20D0
:10481000FEF7B8FF040012D025630021CDE9024164
:10482000CDE900874B46324651465846FEF7F8FC24
:104830002046FEF7ABFB012004B0BDE8F09F284600
:10484000FFF7ECF84FF0FF30F6E70000054841694C
:1048500019B1406B18B10020704701207047022049
:1048600070470000240000200148C0687047000025
:10487000240000202DE9F041494C0026606B28B14E
:10488000A069401CA0613046BDE8F081E5686D1C60
:10489000E56011D1A06B006828B140F6C72241A1A4
:1048A00045A0FEF79DF9A06BE16BA163E063206A70
:1048B000401C2062FEF7B4FEA16A43488D420FD32C
:1048C0004FF0000EA16B096839B1A16BC968C968C6
:1048D0004A68954212D2A26202E04FF0FF31A16213
:1048E0002168C96A01EB810150F82100012800D933
:1048F0000126E0690028C6D00126C4E7D1E902728A
:104900004B69BA60D1E902277A605F680A1D974255
:1049100001D1CF685F60C1F814E01F687F1E1F607F
:10492000D1F828C0BCF1000F15D0D1E907379F603E
:10493000D1E907377B60DCF8047001F118039F426E
:1049400002D10B6ACCF80430C1F828E0DCF8003062
:104950005B1ECCF80030CB6A0127D4F810C09F4012
:1049600047EA0C07276103EB830300EB83035B68D3
:104970008B609F68CF609F687A609A60CA6A02EB1A
:10498000820200EB82034B6150F822305B1C40F83E
:104990002230C96A2268D26A914293D3012691E7F4
:1049A000240000202E2E5C4672656552544F535CE5
:1049B0007461736B732E63004572726F723A2025B7
:1049C000732C2025640D0A00A002002070B504009D
:1049D0004FF000064BD0274D2868844205D041F2A5
:1049E0004F0225A129A0FEF7FBF8206D28B941F25E
:1049F000500221A125A0FEF7F3F8206D401E20658E
:104A0000E26CE16A914232D088BB201DFEF75EFF66
:104A1000012130B994F82C002A6901FA00F0824390
:104A20002A61E06CE062C0F12000A061E06A2A69BE
:104A3000814011432961194900EB800001EB80009E
:104A40004068A0608268E2608368221D5A608260CC
:104A5000E06A00EB800001EB80006061E06A00EB3F
:104A6000800051F82020521C41F8202001263046B9
:104A700070BD0000240000202E2E5C467265655239
:104A8000544F535C7461736B732E63004572726F85
:104A9000723A2025732C2025640D0A00A002002004
:104AA00070B5C068C4682CB940F682422FA134A00A
:104AB000FEF796F8D4E90720A16A9060D4E90702CE
:104AC00050604A6804F11800824201D1226A4A60AB
:104AD0000023A3620A68521E0A602D494A6B012511
:104AE0009AB12C4B5A68E2619668266296687060AB
:104AF0009060A3621868401C1860E06A0A68D26A75
:104B0000904231D90120CD6170BDD4E90262606963
:104B1000B260D4E9022672604668221D964201D135
:104B2000E6684660636103685B1E0360E06A0E69C5
:104B300005FA00F333430B61174B00EB800003EBE6
:104B400080004068A0608668E66086687260826067
:104B5000E06A00EB800003EB8002626153F82020E2
:104B6000521C43F82020C8E7002070BD2E2E5C4662
:104B700072656552544F535C7461736B732E63009E
:104B80004572726F723A2025732C2025640D0A003D
:104B90002400002048050020A00200202DE9F0415B
:104BA000454D00242746686B28B940F6B30243A15F
:104BB00047A0FEF715F8FEF7C3FE686B401E68635A
:104BC000686B002872D1A868454B00264FF0010899
:104BD000F0BB6BE0D868C468D4E90721A06A916093
:104BE000D4E907125160426804F118018A4201D1E8
:104BF000216A4160A6620168491E0160D4E9022170
:104C000060699160D4E9021251604268211D8A42B4
:104C100001D1E268426066610268521E0260E26A87
:104C2000D5F810C008FA02F040EA0C00286102EB47
:104C300082002C4A02EB80004068A060D0F808C0D7
:104C4000C4F80CC0D0F808C0CCF80410816000E0B3
:104C500011E0E06A00EB800002EB8001616152F834
:104C60002010491C42F82010E06A2968C96A88426D
:104C700001D3C5F81C8018680028ABD10CB1FEF731
:104C8000CFFCAC6944B100BFFFF7F4FD08B1C5F833
:104C90001C80641EF8D1AE61E86938B11249012761
:104CA00038070860BFF34F8FBFF36F8FFEF784FEA6
:104CB0003846BDE8F0810000240000202E2E5C461E
:104CC00072656552544F535C7461736B732E63004D
:104CD0004572726F723A2025732C2025640D0A00EC
:104CE00048050020A002002004ED00E01CB50024CF
:104CF000FEF7C4F90C48006868B10B491F20091D74
:104D0000CDE9000100234FF4807208A10948FFF7A4
:104D100071FD040005D140F2191207A10CA0FDF7A6
:104D20005FFF20461CBD000064000020546D72200F
:104D300053766300E93600082E2E5C467265655294
:104D4000544F535C74696D6572732E6300000000EC
:104D50004572726F723A2025732C2025640D0A006B
:104D6000010202030405060708090A0B0C0D0E0FC9
:104D700010100000000000000000010203040607FC
:104D80000809000000000102030400000001020401
:104D900057AB00080000000057AB000932000000CC
:104DA00057AB00020800000000000000000C0000EB
:104DB00000000000000000000000000000000000F3
:104DC00000000000000000000000000000000000E3
:104DD00000000000000000000000000000000000D3
:104DE0000000000000000000000000000000002C97
:104DF000021E023402200221022202240034022672
:104E000002270225022E0036002D00370038002729
:104E1000001E001F00200021002200230024002586
:104E20000026023300330236002E02370238021FFA
:104E3000020402050206020702080209020A020B26
:104E4000020C020D020E020F0210021102120213D6
:104E5000021402150216021702180219021A021B86
:104E6000021C021D002F003100300223022D0035EC
:104E7000000400050006000700080009000A000BF6
:104E8000000C000D000E000F0010001100120013A6
:104E9000001400150016001700180019001A001B56
:104EA000001C001D022F02310230023500000000FC
:104EB00001000000020000000400000008000000E3
:104EC00010000000200000004000000080000000F2
:104ED00000010000000200000004000000080000C3
:104EE00000100000002000000040000000800000D2
:104EF00000000100000002000000040000000800A3
:104F000000001000000020000000400000008000B1
:104F1000304F00080000002014010000202C000881
:104F20004450000814010020EC370000302C000829
:104F30000000000000000000000000000000000071
:104F40000000000001000000100000000000000050
:104F50000024F40000000000000000000000000039
:104F60000000000000000000000000000000000041
:104F70000000000000000000000000000000000031
:104F8000000000001F000000000000000000000002
:104F90000000000000000000000000000000000011
:104FA0000000000000000000000000000000000001
:104FB00000000000000000000000000000000000F1
:104FC000000000000000000000000000AAAAAAAA39
:104FD000000000000000EF01FFFFFFFFEF01FFFFF7
:104FE000FFFF0000000000000000000000000000C3
:104FF0000080000000258000000003861A29E100DF
:10500000000001000D000000000000000000000092
:105010000000000000000000000000000000000090
:105020000000000000000000000000000000000080
:105030000000000000000000000000000000000070
:04504000000000006C
:04000005080000ED02
:00000001FF
