:020000040800F2
:10000000100B002089010008271C00087D1A000839
:10001000251C0008D30200081D1F00080000000076
:100020000000000000000000000000002B1C000881
:100030009908000800000000291C00082D1C000879
:10004000A3010008A3010008A3010008A301000800
:10005000A3010008A3010008A3010008A3010008F0
:10006000A3010008A301000801090008A30100087A
:10007000A3010008A301000881080008A3010008EB
:10008000A30100088D080008A3010008A3010008CF
:10009000A3010008A3010008A3010008A3010008B0
:1000A000A3010008A3010008A3010008A3010008A0
:1000B000A3010008A3010008A3010008A301000890
:1000C000A3010008A3010008A3010008A301000880
:1000D000A3010008DD1E0008FD1E0008A3010008A2
:1000E000A3010008A3010008A301000800F002F822
:1000F00000F03AF80AA090E8000C82448344AAF188
:100100000107DA4501D100F02FF8AFF2090EBAE885
:100110000F0013F0010F18BFFB1A43F0010318473B
:10012000001F0000201F0000103A24BF78C878C1CB
:10013000FAD8520724BF30C830C144BF04680C60ED
:10014000704700000023002400250026103A28BF35
:1001500078C1FBD8520728BF30C148BF0B60704739
:100160001FB51FBD10B510BD00F07AF81146FFF79E
:10017000F7FF01F0E5FE00F098F803B4FFF7F2FF97
:1001800003BC00F09FF80000094880470948004779
:10019000FEE7FEE7FEE7FEE7FEE7FEE7FEE7FEE737
:1001A000FEE7FEE704480549054A064B7047000094
:1001B0008F1C0008ED00000810050020100B002027
:1001C00010070020100700204FF000020429C0F0A3
:1001D000128010F0030C00F01B80CCF1040CBCF179
:1001E000020F18BF00F8012BA8BF20F8022BA1EBCB
:1001F0000C0100F00DB85FEAC17C24BF00F8012BB0
:1002000000F8012B48BF00F8012B70474FF00002A7
:1002100000B5134694469646203922BFA0E80C50FC
:10022000A0E80C50B1F12001BFF4F7AF090728BFD7
:10023000A0E80C5048BF0CC05DF804EB890028BF53
:1002400040F8042B08BF704748BF20F8022B11F07C
:10025000804F18BF00F8012B7047704770477047F8
:10026000754600F02BF8AE4605006946534620F06F
:100270000700854618B020B5FFF794FFBDE8204081
:100280004FF000064FF000074FF000084FF0000B52
:1002900021F00701AC46ACE8C009ACE8C009ACE805
:1002A000C009ACE8C0098D46704710B50446AFF3ED
:1002B00000802046BDE81040FFF75FBF0048704750
:1002C000AC04002001491820ABBEFEE72600020066
:1002D0007047FEE7F0B506460023184D184C184647
:1002E000EF5CE7545B1CDBB2072BF9D1134B363BB9
:1002F0001D78E571114D5B78523D2372AB786372C6
:100300003378A3727378E372217311786173517833
:10031000A1730F230621625C491C104480B20F298F
:10032000F9DB00F017F90548801F0178E1544078A7
:100330005B1CE0545B1C2B700148F0BDAA00002040
:10034000A5020020F0B506460024184D184B2046A3
:100350002F5D1F55641CE4B2072CF9D1134C343CBB
:100360002578DD71114D6478523D1C72EC785C7219
:100370009E720C78DC724978197311785973517830
:1003800099730F2406215A5C491C104480B20F292E
:10039000F9DB00F0DFF80548801F01781955407837
:1003A000641C1855641C2C700148F0BDAA00002084
:1003B00094020020F0B506460025174F174C28463A
:1003C00017F805C004F805C06D1CEDB2072DF7D174
:1003D000114D163D2F78E7716D7825720E4D523D07
:1003E000AF7C6772A672E172227363730E230621DB
:1003F000625C491C104480B20E29F9DB00F0AAF8B7
:100400000548801F0178E15440785B1CE0545B1C78
:100410002B700248F0BD0000AA0000202F0300202E
:1004200030B50021134A144C0846535C6354491CF0
:10043000C9B20729F9D10F490E4D1439523D0A7836
:10044000E27149782172E97C61720A230621625CBB
:10045000491C104480B20A29F9DB00F07BF80548FA
:10046000801F0178E15440785B1CE0545B1C2B70CA
:1004700030BD0000AA0000203F03002030B5024636
:100480000021144C144B0846655C5D54491CC9B2EC
:100490000729F9D10F490F4D2A39523D0C78DC71EB
:1004A00049781972297A59720B249A7206215A5C7A
:1004B000491C104480B20B29F9DB00F04BF80548C9
:1004C000801F017819554078641C1855641C2C70E5
:1004D000014830BDAA000020EA02002030B500210A
:1004E000134A144C0846535C6354491CC9B207298B
:1004F000F9D10F490E4D2E39523D0A78E2714978F3
:100500002172A97961720A230621625C491C104498
:1005100080B20A29F9DB00F01DF80548801F017838
:10052000E15440785B1CE0545B1C2B70014830BDEB
:10053000AA000020D202002010B5034600205A78FD
:100540000146521C03E05C5C491C2044C0B291424D
:10055000F9DB10BD0249020A0A70487070470000BA
:10056000A40000200C4A10B5002002F13801135CF1
:100570000B54401C0228FADB074A002034320C18C6
:10058000135C401CA3700428F9DB03481A38407838
:1005900088710148383010BD7200002030B500234A
:1005A00041781A464C1C03E0855C521C2B44DBB29C
:1005B000A242F9DB08444078984201D1012030BDC5
:1005C000002030BD70B5064614460D460A2000F0E6
:1005D0009FFC224629463046FFF77CFE4FF47A7393
:1005E00011222449244801F0C1F9244C244D00264D
:1005F00028780128FCD1607A18B1C0B2272824D00D
:100600002CE0A07A032805D164230A221DA12048EA
:1006100001F0ACF9A07A012805D164230A221DA1BA
:100620001B4801F0A3F9A07A062801D02E70DFE75D
:1006300064230A221AA1164801F098F94FF40051D8
:100640001A4800F000FC2E700EE0A07A052805D1B3
:1006500064230A2216A10E4801F088F964230A22B5
:1006600016A10B4801F082F9BDE870400A2000F0A5
:1006700060BC0000A5020020C8010020200100206D
:1006800005000020CAD6D6B8D2C6BFAA0000000016
:1006900084010020B7C5CFC2CAD6D6B8000000007A
:1006A000C2BCC8EBB3C9B9A60000000000100140ED
:1006B000D6B8CEC6D6D8B8B400000000D7A2B2E1F2
:1006C000CAA7B0DC000000000A4610B501460320AE
:1006D000FFF738FE4FF47A7311220F490F4801F0EB
:1006E00045F90F4C20780128FCD10E49487A0028A2
:1006F00010D1897A05290DD14FF400510A4800F034
:10070000A2FB64230A2209A10B4801F02FF9002063
:100710002070012010BD000094020020C8010020BC
:10072000050000202001002000100140D1E9D6A4DE
:10073000B3C9B9A6000000008401002010B5FFF77E
:1007400039FE4FF47A73102209490A4801F00EF974
:10075000094801780129FCD10021017007488179FD
:10076000072901D1407A08B1002010BD012010BD39
:100770002F030020C80100200500002020010020D8
:1007800070B5FFF74DFE4FF47A730C220C490D48FB
:1007900001F0ECF80C4908780128FCD10B48002244
:1007A000437A13B10A70002070BD837A084C4FF66B
:1007B000FF75C07A05EA0323184320800A7070BDD4
:1007C0003F030020C801002005000020FA0300209C
:1007D000B200002010B5FFF781FE4FF47A730C22AF
:1007E00009490A4801F0C2F8094801780129FCD1F9
:1007F000002101700748017A032901D1407A08B12C
:10080000002010BD012010BDD2020020C801002030
:10081000050000202001002030B5002306E0C45C64
:10082000CD5CAC4201D0002030BD5B1C9342F6DBB6
:10083000012030BD70B50C460A4605460F49FFF74A
:10084000EBFF28B10122002311461046FFF776FF87
:100850000A492246891D2846FFF7DEFF08B1FFF747
:100860008FFF064922460C312846FFF7D5FF0028A6
:1008700003D0BDE8704000F063B870BD2A000020CE
:10088000014800F0F3B800000C020020014800F01D
:10089000EDB80000500200207047000010B50420A1
:1008A00000F002FE01494820086010BD0000002051
:1008B00070B5054600244FF47A7603E0304600F028
:1008C00005F8641CAC42F9D370BD000070B54FF060
:1008D000E024002265690949A36909684843A169C0
:1008E0009942FCD002D2A3EB010302E0A5EB010682
:1008F00033441A440B468242F1D370BD00000020FD
:10090000102000F09FB972B6FEE7000030B50B4D25
:10091000144628706A700220921C04E00B1813F829
:10092000023C2B54401C9042F8DB0448FFF704FEC5
:100930002919E41C8870E0B230BD00004804002092
:1009400070B50020FFF79AFD4FF47A730D220A4923
:100950000A4801F00BF80A4908780128FCD1094A35
:10096000094B0A201D18145C401C05F80A4C12287B
:10097000F8DB0020087070BDEA020020C8010020EA
:100980000500002020010020B400002010B590F8E0
:1009900021100022022905D00421816380F8202043
:1009A000012010BD01680B6823F00E030B60016885
:1009B0000B6823F001030B6090F84030C46B0121F9
:1009C00001FA03F3636080F8211080F820201046BC
:1009D00010BD000010B590F821100024022903D0AA
:1009E0000421816301243DE001680A6822F00E02BF
:1009F0000A6001680A6822F001020A601A4A016866
:100A0000914201D1012121E0174A1432914201D1D2
:100A100010211BE0144A2832914201D1891515E0BA
:100A2000114A3C32914201D189140FE00E4A5032F2
:100A3000914202D14FF4803108E00B4A6432914276
:100A400002D14FF4801101E04FF08071064A083A5C
:100A50005160012180F82110002180F82010416BA5
:100A600001B18847204610BD080002402DE9F05F23
:100A7000C16B0C6801680B68D0F840C0042202FA10
:100A80000CF2494DDFF824A1494E4A4FDFF828B156
:100A9000DFF828E122422CD05A072AD50A689206AC
:100AA00003D40A6822F004020A600168A94201D155
:100AB000042219E0514501D1402215E0B14202D192
:100AC0004FF4806210E0B94202D14FF480420BE053
:100AD000594502D14FF4802206E0714502D14FF40E
:100AE000800201E04FF080622F4908394A60C16AF4
:100AF0003BE04FF0020808FA0CF818EA040F4FF038
:100B000000094FF0010235D05FEA837832D50B68D7
:100B10009B0605D40B6823F00A030B6080F82120A4
:100B20000168A94201D1022219E0514501D12022D8
:100B300015E0B14202D14FF4007210E0B94202D187
:100B40004FF400520BE0594502D14FF4003206E059
:100B5000714502D14FF4001201E04FF000721249CA
:100B600008394A6080F82090816A00291AD0BDE8CF
:100B7000F05F0847082505FA0CF5254212D01B073F
:100B800010D50B6823F00E030B6090F84010C36B78
:100B900002FA01F15960826380F8212080F82090E8
:100BA000016BE2E7BDE8F09F080002401C00024034
:100BB0003000024044000240580002406C000240F5
:100BC00030B528B308C8134914221944B1FBF2F117
:100BD0008900C16310498163022141771A6843F695
:100BE000F0718A43D0E900142143D0E902452C4337
:100BF000214304692143446921438469214311430A
:100C0000196000214163012242770177084630BD17
:100C1000012030BDF8FFFDBF000002401CB51028C8
:100C20000BD106A001A90068009005A00068019002
:100C30006846FFF749FDFFF7CDFD1CBDFFFF000033
:100C400000060000044910B50A68024202D008609C
:100C5000FFF7E4FF10BD0000140401402DE9F84F38
:100C6000DFF8B891002409F1040A0AF1040B2346C5
:100C70000F270BF1040EC9E00125A5402A40AA4226
:100C80007DD1674ED1F804C0ACEB0608B44532D034
:100C900014DCBCF1030F3AD009DCBCF1000F2AD000
:100CA000BCF1010F1CD0BCF1020F31D11DE0BCF131
:100CB000110F17D0BCF1120F2AD119E0B8F5881F17
:100CC00019D006DCB8F5803F15D0B8F5801F1FD1CC
:100CD00011E0B8F5001F0ED0B8F5041F18D10AE0D6
:100CE000CB6815E0CB681B1D12E0CB6808330FE022
:100CF000CB680C330CE08B682BB1012B4FF0080351
:100D000003D0456104E0042302E0056100E0002314
:100D1000FF2A01D8064601E000F104064FEA8405E7
:100D200001D9A5F12005D6F8008007FA05FC28EACC
:100D30000C0803FA05F548EA0508C6F800804D6876
:100D4000ED0062D5374DAE6946F00106AE61AD6982
:100D500024F0030605F001050095334D06EB050C64
:100D6000DCF80850A607360F07FA06F825EA08054A
:100D7000DFF8B880404503D14FF0000817E044E0A9
:100D8000DFF8AC80404502D14FF001080FE0DFF8FA
:100D9000A480404502D14FF0020808E0DFF89880B7
:100DA000404502D14FF0030801E04FF0040808FA73
:100DB00006F848EA0508CCF808804D68D9F80060C4
:100DC000ED034D4601D5164300E096432E604D6875
:100DD000DAF80060AD03554601D5164300E09643AE
:100DE0002E604D68DBF80060ED025D4601D51643CC
:100DF00000E096432E604D68DEF80060AD02754657
:100E000001D5164300E096432E60641C0D682A4607
:100E1000E5407FF431AFBDE8F88F000000040140E9
:100E200000001110001002400000014000080140C5
:100E3000000C01400010014000140140806808408F
:100E400000D001207047C26821EA02030A4043EA49
:100E50000241016170470AB1016170470904FBE773
:100E60000148806870470000140000200248816833
:100E7000027811448160704714000020074810B5C3
:100E8000016841F010010160052000F07FF80120A9
:100E900000F006F800F024F8002010BD0020024009
:100EA00070B50D4D04464FF47A712878B1FBF0F01F
:100EB0000A490968B1FBF0F000F002FB48B9102CB8
:100EC00007D200222146501E00F040F800206C603E
:100ED00070BD012070BD0000140000202000002023
:100EE0000A4882B0816941F001018161816901F0A4
:100EF00001010091C16941F08051C161C06900F0F8
:100F000080500090052002B000F040B80010024070
:100F100000280DDB00F01F020121914040098000F4
:100F200000F1E020C0F88011BFF34F8FBFF36F8F47
:100F30007047002809DB00F01F02012191404009A1
:100F4000800000F1E020C0F800117047F0B40E4BB3
:100F50001B680C46C3F30223C3F10705042D00D917
:100F60000425191D072901D2002300E0DB1E0126FC
:100F700006FA05F1491E214099409E40761E164012
:100F80003143F0BC00F0CBBF0CED00E0064900F0AF
:100F9000070208684FF6FF03184040EA0220034AA0
:100FA00010430860704700000CED00E00000FA05F7
:100FB0002DE9F0470F46050061D0434E306800F040
:100FC0000700B84209D2306820F00700384330608B
:100FD000306800F00700B84251D128683B4C8107C7
:100FE00012D5400703D5606840F4E060606028785F
:100FF000000703D5606840F4605060606068A968CD
:1010000020F0F000084360602878C00728D06868A6
:10101000012810D02168022810D0890700292EDA73
:10102000616821F0030101436160FFF719FF804609
:1010300041F288390DE021688903EFE78901EDE786
:10104000FFF70EFFA0EB0801494502D90320BDE8D8
:10105000F0876068696800F00C00B0EB810FEFD199
:10106000306800F00700B8420BD9306820F0070064
:1010700038433060306800F00700B84201D00120EA
:10108000E5E72878400705D56068E96820F4E06066
:10109000084360602878000706D56068296920F455
:1010A000605040EAC100606000F038F86168084AAA
:1010B000C1F30311515CC840064908600648006846
:1010C000FFF7EEFE0020C2E70020024000100240C1
:1010D00008200008200000201800002004480549CE
:1010E00000684968044AC1F30221515CC840704756
:1010F0002000002000100240182000080448054984
:1011000000684968044AC1F3C221515CC840704775
:1011100020000020001002401820000812A185B015
:101120000FC98DE80F0014A0144A0068049051689C
:10113000134801F00C03042B10D0082B0ED1C1F37F
:101140008343C9031DF803000AD5516804AAC1F3FB
:101150004041515C0A4A5043B0FBF1F005B0704782
:1011600008494843FAE70000020304050607080996
:101170000A0B0C0D0E0F10100102000000100240AF
:1011800000127A0000093D002DE9F84F040070D0EC
:101190002078C04DC00749D06868C0F3810001289D
:1011A00007D06868C0F38100022809D16868C003CD
:1011B00006D52868800339D560680028E7D035E077
:1011C0006068B0F5803F0BD010B1B0F5A02F11D002
:1011D000286820F480302860286820F4802002E00D
:1011E000286840F480302860606890B1FFF738FECE
:1011F00006460AE0286840F480202860F0E700BF37
:10120000FFF72EFE801B642873D828688003F7D56B
:101210000CE0FFF725FE064605E000BFFFF720FEC5
:10122000801B6428F0D828688003F7D420789A4E71
:1012300080074FF001094FF0000839D5686810F0B9
:101240000C0F07D06868C0F38100022809D16868D4
:10125000C00306D42868800714D52069012808D166
:1012600010E02069B0B1C6F80090FFF7F9FD07461D
:1012700005E00AE1FFF7F4FDC01B0228C4D8286886
:101280008007F7D52868616920F0F80040EAC100BE
:1012900028600DE0C6F80080FFF7E2FD074604E095
:1012A000FFF7DEFDC01B022823D828688007F7D48B
:1012B000207800072CD57948A169D9B1C0F80090F1
:1012C000FFF7CEFD074604E0FFF7CAFDC01B02286A
:1012D0000FD8686A8007F7D571484FF4FA51006853
:1012E000B0FBF1F0009000BF0098411E0091FAD2CF
:1012F0000EE080E0C0F80080FFF7B2FD074604E092
:10130000FFF7AEFDC01B022875D8686A8007F7D4C6
:101310002078400760D5E8690027C00008D4E86954
:1013200040F08050E861E869012700F080500090AB
:101330005C480168C90513D40168834641F4807193
:101340000160FFF78DFD824606E000BFFFF788FDD4
:10135000A0EB0A0064284ED8DBF80000C005F5D5E4
:10136000E06801280AD008B1052813D0286A20F0C7
:1013700001002862286A20F0040002E0286A40F098
:1013800001002862E06841F2883B98B1FFF768FDF0
:1013900082460BE0286A40F004002862EEE700BFB6
:1013A000FFF75EFDA0EB0A0159455AD8286A80076D
:1013B000F6D50CE0FFF754FD824605E0FFF750FD3F
:1013C000A0EB0A0159454CD8286A8007F6D41FB112
:1013D000E86920F08050E861E06988B36968C1F38A
:1013E0008101022944D00228C6F8608004D0FFF7AA
:1013F00037FD044638E034E0FFF732FD074604E0ED
:10140000FFF72EFDC01B02282BD828688001F7D4D7
:10141000206AB0F5803F05D16868A16820F40030EB
:1014200008436860D4E908010843696821F474112D
:1014300008436860C6F86090FFF712FD044606E0B6
:1014400025E000BFFFF70CFD001B022809D8286823
:101450008001F7D51BE000BFFFF702FD001B02284B
:1014600002D90320BDE8F88F28688001F4D40EE08B
:101470000128F7D06868226A00F48031914204D1D3
:10148000616A00F47010884201D00120EAE7002070
:10149000E8E700000010024000004242800442429F
:1014A00020000020007000404FF0E021042808696F
:1014B00003D020F004000861704740F00400FAE710
:1014C00010B5401EB0F1807F01D3012010BD4FF058
:1014D000E02460610F21601700F021FD0020A06171
:1014E00007202061002010BD70477047F8B50268E2
:1014F00004461068D168536910F00F0F4FF00005D3
:1015000053D003F0010601F4907737435FD0C20750
:1015100005D0CA0503D5226C42F0010222644207BD
:1015200005D5DA0703D0226C42F00202226482075A
:1015300005D5DA0703D0226C42F0040222640207C8
:1015400007D501F02002324303D0226C42F008029A
:101550002264226C002A34D0800604D5880602D585
:10156000204600F0B5FB20684069216CC0F3801074
:10157000090700D430B3204600F092FB206841698F
:1015800049061BD5416921F040014161A06BA8B11A
:1015900058494163A06BFFF71DFA002811D0A06BDA
:1015A000416B01B0BDE8F040084783060FD58B06BC
:1015B0000DD52046BDE8F84000F08ABB2046FFF775
:1015C00094FFF8BD2046FFF790FF2564F8BD266B19
:1015D0002023012E52D1C60650D5CE064ED5106816
:1015E00050680090506940062AD5A16B0868406891
:1015F0000004000CEAD0A68D8642E7D9E085886910
:10160000202818D0D06820F48070D060206841690C
:1016100021F0010141612068416921F040014161EF
:1016200084F83E3025632068C16821F01001C16054
:10163000A06BFFF7ABF9A08DE18D401A81B219E0E4
:10164000A08DE18D401A81B2E08D0028BED0002926
:10165000BCD0D06820F49070D0602068426922F03D
:101660000102426184F83E3025632068C26822F09E
:101670001002C2602046FFF737FFF8BD05062BD5E4
:101680000D0629D594F83D002128F6D1A068B0F5C3
:10169000805F01D12069B0B1206A411C21622168BC
:1016A00000784860E08C401E0004000CE084E4D127
:1016B0002068C16821F08001C1602068C16841F0E4
:1016C0004001C160F8BD206A0088C0F30800506086
:1016D000206A801C2062E5E74006F3D54806F1D574
:1016E000D168204621F04001D16084F83D3000F0FF
:1016F00096F9F8BD911C000870B5040004D094F868
:101700003D00002510B106E0012070BD84F83C507A
:10171000204600F023F8242084F83D002068C168AA
:1017200021F40051C160204600F02EFB20680169C1
:1017300021F4904101612068416921F02A01416151
:101740002068C16841F40051C1602564202084F8FC
:101750003D0084F83E00002070BD00002DE9F041FE
:1017600086B0002400940194029403940646DFF8A6
:1017700010C10368434802220321434D10274FF054
:101780008008634539D1836943F480438361836969
:1017900003F480430493836943F004038361806905
:1017A000039100F0040004901002CDE900026946A4
:1017B0002846FFF753FA2815CDE900046946284664
:1017C0000294FFF74BFA324D30482860C5E90174A6
:1017D000C5E9038480146C61C5E906402846FFF71B
:1017E000EFF908B1FFF78FF8756300220221252079
:1017F0006E62FFF7ABFB25203DE0DFF898C0634544
:101800003BD1C36943F40033C361C36903F40033BC
:101810000493836943F0040383618069039100F0BA
:10182000040004900420CDE9000269462846FFF731
:1018300015FA0820CDE90004694628460294FFF70E
:101840000DFA134D114844353C302860C5E9017448
:10185000C5E903846C61AC612846EC61FFF7B0F91F
:1018600008B1FFF750F875630122114626206E6219
:10187000FFF76CFB2620FFF75CFB06B0BDE8F081AC
:1018800000380140001002400008014044000240BE
:101890000C0200200044004090F83E30202B0ED176
:1018A00059B152B190F83C30012B08D0012380F897
:1018B0003C300023036300F0C3BA012070470220CC
:1018C0007047000070B50646006824490025244C86
:1018D00088421DD1A01C23490278A0880A5410B167
:1018E000012805D007E00978FE2904D0A58070BD45
:1018F0004978891C2170401CA080207840B1207854
:10190000401E2070207818B9164800F089F8A5808C
:10191000154930688842EAD111481249C01C643127
:101920000278E08808280A5403D10A7A0AB1521CC6
:10193000A260401CE080A06838B1A068401EA06092
:10194000A06810B901206070E5800878EF2802D106
:10195000E0886328CBD9E58070BD000000380140E5
:1019600004000020BC000020004400402DE9F843A2
:10197000044690F83D001F4616460D4620284CD1DF
:10198000C5B1BEB194F83C00012846D0012084F8CE
:101990003C004FF00008C4F84080212084F83D004E
:1019A000FFF75EFAA6848146E684A068B0F5805F02
:1019B00003D004E00120BDE8F883206928B12E4659
:1019C0005FF0000584F83C800EE00026FAE78021F5
:1019D000204600F050FAA0B9AEB116F8010B21680C
:1019E0004860E08C401EE084E08C4B464FF00002E3
:1019F00000970028EBD14FF04001204600F03BFA61
:101A000030B10320D7E735F8020BC0F30800E6E752
:101A1000202084F83D000020CDE70220CBE770476E
:101A200010B50446FEF7BAFD2078FE281DD1A07837
:101A30000E49012818D0022815D0102815D1FEF71C
:101A40007FFF08220A491020FEF760FF02464FF48C
:101A50007A7308490848FFF789FFBDE81040642100
:101A60000448FEF7B1BB0020087010BD1000002034
:101A7000B40000204804002084010020FEE700009C
:101A800030B50F4885B0816941F0100181618069EE
:101A90000C4D00F01000049001204403CDE90040FB
:101AA000022002900320039069462846FFF7D6F8EB
:101AB000012221462846FFF7CEF905B030BD0000CF
:101AC00000100240001001400D4808B5416941F086
:101AD000010141614069002200F0010000900321F2
:101AE0000E20FFF733FA0E20FFF723FA012203211D
:101AF0001120FFF72BFABDE808401120FFF719BAB3
:101B00000010024010B586B00020009001900290B5
:101B100003901E48816941F020018161816901F0D3
:101B200020010491816941F004018161816901F022
:101B300004010491816941F0080181618069144CBC
:101B400000F008000490012203212046FFF783F9EA
:101B5000102000900F4801900220029069460E4824
:101B6000FFF77CF801210320CDE9000102910391E8
:101B700069462046FFF772F8022211460A20FFF755
:101B8000E5F90A20FFF7D5F906B010BD00100240B4
:101B9000000C014000001110000801400E4810B573
:101BA0000C4901604FF416514160002181600C2204
:101BB000C160C0E904128161C161FFF79DFD08B1F8
:101BC000FEF7A1FEBDE81040012204490248FFF7DC
:101BD00063BE0000003801408401002006000020A0
:101BE0000E4810B50C4901604FF46141416000217D
:101BF00081600C22C160C0E904128161C161FFF7FC
:101C00007BFD08B1FEF77FFEBDE8104001220449CC
:101C10000248FFF741BE000000440040C801002018
:101C200007000020FEE7FEE770477047FFF71EB988
:101C300030B58FB028216846FEF7E8FA14210AA8CB
:101C4000FEF7E4FA01210804CDE900100024029413
:101C500002250491CDE907504FF4E0100990684641
:101C6000FFF792FA08B172B6FEE70F20CDE90A0538
:101C70004FF48060CDE90C4002210AA80E94FFF7D2
:101C800097F9002801D072B6FEE70FB030BD70475B
:101C900010B5406A0021C185C184FFF726FC10BD44
:101CA0000168CA6822F49072CA6001684A6922F029
:101CB00001024A61016B012904D10168CA6822F05E
:101CC0001002CA60202180F83E1000210163704795
:101CD00008B590F83E10222901D0022008BD826884
:101CE0004FF480539A4201D1016921B1816A9A422D
:101CF0001BD04AB10AE00268816A5268C2F3080246
:101D00000A80816A891C08E0026972B1026852681F
:101D100002F07F020A70816A491C8162C18D491EEE
:101D20000904090CC18503D019E002685268F1E783
:101D30000168CA6822F02002CA600168CA6822F4F9
:101D40008072CA6001684A6922F001024A6120215A
:101D500080F83E10016B012903D0FFF7B3FD00208E
:101D600008BD002101630168CA6822F01002CA6040
:101D700001680A68D20602D50A6849680091818D17
:101D8000FFF7B2FBEBE7000070B50446006801699D
:101D9000E26821F44051114301612169A0680843C0
:101DA000616908432168CA6841F20C639A4302439F
:101DB000CA6020684169A26921F440711143416100
:101DC0001E492068884202D1FFF798F901E0FFF729
:101DD00085F900EBC00101EB00126068642180000E
:101DE000B2FBF0F3B3FBF1F36FF018067343B2FBF1
:101DF000F0F5B2FBF0F605EB8305322303EB051596
:101E0000B5FBF1F5B6FBF1F605F0F00505EB0615AF
:101E1000B2FBF0F6B2FBF0F0B0FBF1F06FF018029D
:101E2000504306EB800003EB0010B0FBF1F021689B
:101E300000F00F002844886070BD000000380140A9
:101E400081628285C28500210164222280F83E20C1
:101E500080F83C100168CA6842F48072CA60016868
:101E60004A6942F001024A610068C16841F02001FC
:101E7000C160002070472DE9F041984617460E4694
:101E80000446069D1DE0681C1BD02DB1FEF7E8FF3F
:101E9000A0EB0800A84214D92068C16821F4D071D1
:101EA000C1602068416921F001014161202084F86E
:101EB0003D0084F83E00002084F83C000320BDE88B
:101EC000F0812068006836EA000004D00020B842A3
:101ED000D9D00020F3E70120F9E7000010B505484C
:101EE000FFF704FBBDE81040012203490148FFF75A
:101EF000D3BC0000840100200600002010B5054876
:101F0000FFF7F4FABDE81040012203490148FFF74A
:101F1000C3BC0000C801002007000020FEE709073D
:101F2000090E002804DB00F1E02080F8001470475F
:101F300000F00F0000F1E02080F8141D7047000051
:101F40001CB5FEF79BFFFFF773FEFFF7DBFDFFF706
:101F5000BBFDFFF723FEFFF743FEFFF791FDFEF702
:101F60009DFCFEF7FFFA1FA000240068CDE90004E5
:101F700001AA04216846FEF725FB64230A221AA160
:101F80001B48FFF7F3FCDFF86C901B4F1B4D1C4EFA
:101F90004FF4FA6A4FF47A7810214846FEF74EFF64
:101FA000012805D13C70FEF715FC5046FEF780FC79
:101FB000288801040BD5C0F30D02434611490C4893
:101FC000FFF7D4FC06210F48FEF734FC2C800022DA
:101FD00001213046FEF73FFF002202213046FEF786
:101FE0003AFFD9E700080000746573740000000030
:101FF00084010020000801400500002008000020A6
:10200000000C0140BC0000200000000000000000A7
:10201000010203040607080900000000010203048E
:102020004020000800000020BC000000280100083B
:10203000FC200008BC000020540A000044010008F5
:102040000000000000000000000000000000000090
:10205000000000000100000010000000000000006F
:102060000024F4000000000000006175746F6964D2
:1020700067657464756D67657474616257AB000859
:10208000000AFF0D0A57AB000F0011FF0D0A617324
:102090006431333537390000000131320C30331DE3
:1020A0001F1213010203050635363C683435361518
:1020B0001819EF01000800080007000300030003DF
:1020C00000040007000700030004000300030006EB
:1020D00000030003000700030004000300030007DF
:1020E000002400040000FFFFFFFF000000000000CC
:0C20F000000000000000000000000000E4
:04000005080000ED02
:00000001FF
