:020000040800F2
:1000000070100020C90100088F1C0008E51A0008C4
:100010008D1C00080F0300083120000800000000BC
:10002000000000000000000000000000931C000819
:10003000A509000800000000911C0008FD1C000834
:10004000E3010008E3010008E3010008E301000800
:10005000E3010008E3010008E3010008E3010008F0
:10006000E3010008E30100080D0A0008E3010008AD
:10007000E3010008E30100088D090008E30100081E
:10008000E301000899090008E3010008E301000802
:10009000E3010008E3010008E3010008E3010008B0
:1000A000E3010008E3010008E3010008E3010008A0
:1000B000E3010008E3010008E3010008E301000890
:1000C000E3010008E3010008E3010008E301000880
:1000D000E3010008AD1F0008B91F0008E301000894
:1000E000E3010008E3010008E301000800F002F862
:1000F00000F05AF80AA090E8000C82448344AAF168
:100100000107DA4501D100F04FF8AFF2090EBAE865
:100110000F0013F0010F18BFFB1A43F0010318473B
:1001200074200000942000000A444FF0000C10F8E6
:10013000013B13F0070408BF10F8014B1D1108BF65
:1001400010F8015B641E05D010F8016B641E01F805
:10015000016BF9D113F0080F1EBF10F8014BAD1C55
:100160000C1B09D16D1E58BF01F801CBFAD505E073
:1001700014F8016B01F8016B6D1EF9D59142D6D3CD
:10018000704700000023002400250026103A28BFF5
:1001900078C1FBD8520728BF30C148BF0B607047F9
:1001A0001FB51FBD10B510BD00F077F81146FFF761
:1001B000F7FF01F04FFF00F095F803B4FFF7F2FFEF
:1001C00003BC00F09DF8000009488047094800473B
:1001D000FEE7FEE7FEE7FEE7FEE7FEE7FEE7FEE7F7
:1001E000FEE7FEE704480549054A064B7047000054
:1001F0005F1D0008ED000008700A0020701000204C
:10020000700C0020700C002010B5431C02E010F8A8
:10021000011B71B18107FAD14FF0013202C88C1A6B
:100220008C4314EAC211F9D0C01A0A0603D0C01ECA
:1002300010BDC01A10BD0A0401D0801E10BD0902F5
:10024000FCD0401E10BD4FF0000200B5134694468E
:100250009646203922BFA0E80C50A0E80C50B1F11E
:100260002001BFF4F7AF090728BFA0E80C5048BF32
:100270000CC05DF804EB890028BF40F8042B08BFD0
:10028000704748BF20F8022B11F0804F18BF00F8CC
:10029000012B7047704770477047754600F02CF887
:1002A000AE4605006946534620F00700854618B063
:1002B00020B5FFF797FFBDE820404FF000064FF054
:1002C00000074FF000084FF0000B21F00701AC468B
:1002D000ACE8C009ACE8C009ACE8C009ACE8C009AA
:1002E0008D46704710B50446AFF300802046BDE848
:1002F0001040FFF762BF000000487047100A00205E
:1003000001491820ABBEFEE7260002007047FEE759
:10031000F0B506460024184D184B20462F5D1F559A
:10032000641CE4B2072CF9D1134C2A3C2578DD710A
:10033000114D6478433D1C72EC785C729E720C78AF
:10034000DC724978197311785973517899730F24B5
:1003500006215A5C491C104480B20F29F9DB00F0D9
:1003600081F90548801F017819554078641C18559B
:10037000641C2C700148F0BD4300002028060020BA
:1003800030B50021134A144C0846535C6354491C91
:10039000C9B20729F9D10F490E4D0E39433D0A78EC
:1003A000E27149782172697C61720A230621625CDC
:1003B000491C104480B20A29F9DB00F053F90548C2
:1003C000801F0178E15440785B1CE0545B1C2B706B
:1003D00030BD000043000020F8060020F0B50646BE
:1003E0000025174F174C284617F805C004F805C01C
:1003F0006D1CEDB2072DF7D1114D163D2F78E77129
:100400006D7825720E4D433D6F7B6772A672E17267
:10041000227363730E230621625C491C104480B270
:100420000E29F9DB00F01EF90548801F0178E15420
:1004300040785B1CE0545B1C2B700248F0BD000050
:1004400043000020C306002030B50021144A154C9B
:100450000846535C6354491CC9B20729F9D11049B5
:100460000F4D1239433D0A78E27149782172E97BD8
:1004700061720A230621625C491C104480B20A2979
:10048000F9DB0021E1545B1C00F0ECF80448801F0C
:100490000178E15440785B1CE0545B1C2B7030BD4C
:1004A00043000020DF06002030B50021134A144C21
:1004B0000846535C6354491CC9B20729F9D10F4956
:1004C0000E4D1439433D0A78E27149782172A97BB7
:1004D00061720A230621625C491C104480B20A2919
:1004E000F9DB00F0BFF80548801F0178E15440783F
:1004F0005B1CE0545B1C2B7030BD000043000020EF
:10050000D306002030B50021134A144C0846535C32
:100510006354491CC9B20729F9D10F490E4D10394E
:10052000433D0A78E27149782172297C61720A237D
:100530000621625C491C104480B20A29F9DB00F0F4
:1005400091F80548801F0178E15440785B1CE05425
:100550005B1C2B7030BD000043000020EC06002027
:1005600030B502460021144C144B0846655C5D54BE
:10057000491CC9B20729F9D10F490F4D2039433D14
:100580000C78DC7149781972297A59720B249A72A5
:1005900006215A5C491C104480B20B29F9DB00F09B
:1005A00061F80548801F017819554078641C18557A
:1005B000641C2C70014830BD430000207E060020E2
:1005C00030B50021134A144C0846535C6354491C4F
:1005D000C9B20729F9D10F490E4D2439433D0A7894
:1005E000E27149782172A97961720A230621625C5D
:1005F000491C104480B20A29F9DB00F033F80548A1
:10060000801F0178E15440785B1CE0545B1C2B7028
:10061000014830BD4300002066060020020330B5CB
:100620000F48090300238488B2FBF4F20281C488D6
:10063000B1FBF4F14181140A047042700D0A857017
:10064000C1700C30C2710472417285720021425C2B
:10065000491C1A44D3B20C29F9DB037330BD0000E6
:10066000A00500200249020A0A7048707047000085
:100670003D0000200C4A10B5002002F12E01135C51
:100680000B54401C0228FADB074A00202A320C18BF
:10069000135C401CA3700428F9DB0348153840782C
:1006A000887101482E3010BD1500002010B5144A85
:1006B0000023C45CD4545B1C052BFADB05200B180B
:1006C00013F8053C1354401C0D28F8DB0D4C00209A
:1006D000115C2378401C194421700D28F8DB5173FC
:1006E000FF2090730D20D0730A2010744FF47A739A
:1006F00011220349044801F09BF90020207010BD2D
:10070000BC07002052000020000900200A4610B556
:1007100001460320FFF7FCFD4FF47A7311220F49C5
:100720000F4801F085F90F4C20780128FCD10E48C4
:10073000417A11B9807A052801D0002010BD4FF40C
:1007400000510A4800F0EBFB40F271214FF4707049
:1007500001F042FC00202070012010BD280600207E
:10076000440900200C0600209C08002000100140D5
:1007700010B5FFF705FE4FF47A730C2208490948BB
:1007800001F056F9084801780129FCD100210170D7
:100790000648407A292801D0012010BD002010BD54
:1007A000F8060020440900200C0600209C080020C8
:1007B00010B5FFF713FE4FF47A73102209490A4867
:1007C00001F036F9094801780129FCD100210170B6
:1007D00007488179072901D1407A08B1002010BD6E
:1007E000012010BDC3060020440900200C06002093
:1007F0009C08002010B5FFF727FE4FF47A730D22F6
:100800000C490D4801F014F90C4A10780128FCD16C
:100810000B49487A00284FF0000009D1094B0C1809
:10082000A47A1C54401C2028F9DB00201070012001
:1008300010BD0000DF060020440900200C06002047
:100840009C0800207C07002070B5FFF72DFE4FF4B8
:100850007A730C220C490D4801F0EAF80C4908782B
:100860000128FCD10B480022437A13B10A70002002
:1008700070BD837A084C4FF6FF75C07A05EA0323F2
:10088000184320800A7070BDD30600204409002060
:100890000C0600206E0700205000002010B5FFF766
:1008A00031FE4FF47A730C2209490A4801F0C0F86E
:1008B000094801780129FCD100210170074881799C
:1008C000072901D1407A08B1002010BD012010BDD8
:1008D000EC060020440900200C0600209C080020A3
:1008E00010B5FFF76DFE4FF47A730C2209490A48E0
:1008F00001F09EF8094801780129FCD1002101701E
:100900000748017A032901D1407A08B1002010BDBF
:10091000012010BD66060020440900200C060020BE
:100920009C08002030B5002306E0C45CCD5CAC42DE
:1009300001D0002030BD5B1C9342F6DB012030BDAE
:1009400070B50C460A4605460F49FFF7EBFF28B184
:100950000122002311461046FFF72AFF0A492246CA
:10096000891D2846FFF7DEFF08B1FFF76DFF064936
:1009700022460C312846FFF7D5FF002803D0BDE8FA
:10098000704000F049B870BD72050020014800F0C9
:10099000D9B8000088090020014800F0D3B8000051
:1009A000CC0900207047000010B5042000F0D8FDED
:1009B00001494820086010BD4C00002070B5054674
:1009C00000244FF47A7603E0304600F005F8641C0A
:1009D000AC42F9D370BD000070B54FF0E0240022A6
:1009E00065690949A36909684843A1699942FCD02E
:1009F00002D2A3EB010302E0A5EB010633441A4443
:100A00000B468242F1D370BD4C000020102000F054
:100A100085B972B6FEE7000070B50020FFF7A0FDB3
:100A20004FF47A730D220A490A4801F001F80A4985
:100A300008780128FCD1094A094B0A201D18145CCA
:100A4000401C05F80A4C2A28F8DB0020087070BD0D
:100A50007E060020440900200C0600209C0800208F
:100A60004E07002010B590F821100022022905D071
:100A70000421816380F82020012010BD01680B68EB
:100A800023F00E030B6001680B6823F001030B6079
:100A900090F84030C46B012101FA03F3636080F8E1
:100AA000211080F82020104610BD000010B590F8ED
:100AB00021100024022903D00421816301243DE098
:100AC00001680A6822F00E020A6001680A6822F0D2
:100AD00001020A601A4A0168914201D1012121E014
:100AE000174A1432914201D110211BE0144A2832D6
:100AF000914201D1891515E0114A3C32914201D150
:100B000089140FE00E4A5032914202D14FF48031E5
:100B100008E00B4A6432914202D14FF4801101E0A7
:100B20004FF08071064A083A5160012180F8211087
:100B3000002180F82010416B01B18847204610BD8C
:100B4000080002402DE9F05FC16B0C6801680B687A
:100B5000D0F840C0042202FA0CF2494DDFF824A17B
:100B6000494E4A4FDFF828B1DFF828E122422CD065
:100B70005A072AD50A68920603D40A6822F00402AA
:100B80000A600168A94201D1042219E0514501D14E
:100B9000402215E0B14202D14FF4806210E0B94228
:100BA00002D14FF480420BE0594502D14FF480222C
:100BB00006E0714502D14FF4800201E04FF08062FF
:100BC0002F4908394A60C16A3BE04FF0020808FA31
:100BD0000CF818EA040F4FF000094FF0010235D06D
:100BE0005FEA837832D50B689B0605D40B6823F047
:100BF0000A030B6080F821200168A94201D102227A
:100C000019E0514501D1202215E0B14202D14FF443
:100C1000007210E0B94202D14FF400520BE0594586
:100C200002D14FF4003206E0714502D14FF40012B8
:100C300001E04FF00072124908394A6080F82090B4
:100C4000816A00291AD0BDE8F05F0847082505FA37
:100C50000CF5254212D01B0710D50B6823F00E03AC
:100C60000B6090F84010C36B02FA01F15960826387
:100C700080F8212080F82090016BE2E7BDE8F09F2A
:100C8000080002401C0002403000024044000240C4
:100C9000580002406C00024030B528B308C8134920
:100CA00014221944B1FBF2F18900C1631049816338
:100CB000022141771A6843F6F0718A43D0E90014A3
:100CC0002143D0E902452C4321430469214344696F
:100CD00021438469214311431960002141630122AA
:100CE00042770177084630BD012030BDF8FFFDBFD7
:100CF000000002401CB510280BD106A001A9006815
:100D0000009005A0006801906846FFF7FFFCFFF720
:100D1000E7FD1CBDFFFF000000060000044910B500
:100D20000A68024202D00860FFF7E4FF10BD00002D
:100D3000140401402DE9F84FDFF8B891002409F1BF
:100D4000040A0AF1040B23460F270BF1040EC9E035
:100D50000125A5402A40AA427DD1674ED1F804C0A2
:100D6000ACEB0608B44532D014DCBCF1030F3AD02A
:100D700009DCBCF1000F2AD0BCF1010F1CD0BCF182
:100D8000020F31D11DE0BCF1110F17D0BCF1120FD1
:100D90002AD119E0B8F5881F19D006DCB8F5803FD4
:100DA00015D0B8F5801F1FD111E0B8F5001F0ED087
:100DB000B8F5041F18D10AE0CB6815E0CB681B1DFD
:100DC00012E0CB6808330FE0CB680C330CE08B6883
:100DD0002BB1012B4FF0080303D0456104E004233D
:100DE00002E0056100E00023FF2A01D8064601E089
:100DF00000F104064FEA840501D9A5F12005D6F8D3
:100E0000008007FA05FC28EA0C0803FA05F548EA11
:100E10000508C6F800804D68ED0062D5374DAE6913
:100E200046F00106AE61AD6924F0030605F0010548
:100E30000095334D06EB050CDCF80850A607360F7D
:100E400007FA06F825EA0805DFF8B880404503D11F
:100E50004FF0000817E044E0DFF8AC80404502D1D5
:100E60004FF001080FE0DFF8A480404502D14FF0B9
:100E7000020808E0DFF89880404502D14FF00308EF
:100E800001E04FF0040808FA06F848EA0508CCF833
:100E900008804D68D9F80060ED034D4601D5164332
:100EA00000E096432E604D68DAF80060AD035546C9
:100EB00001D5164300E096432E604D68DBF80060D4
:100EC000ED025D4601D5164300E096432E604D6865
:100ED000DEF80060AD02754601D5164300E096438A
:100EE0002E60641C0D682A46E5407FF431AFBDE8F2
:100EF000F88F0000000401400000111000100240B3
:100F00000000014000080140000C014000100140B9
:100F1000001401408068084000D001207047C2687A
:100F200021EA02030A4043EA0241016170470AB123
:100F3000016170470904FBE70148806870470000C1
:100F400018060020024881680278114481607047C9
:100F500018060020074810B5016841F01001016033
:100F6000052000F06FF8012000F006F800F024F8EA
:100F7000002010BD0020024070B50D4D04464FF416
:100F80007A712878B1FBF0F00A490968B1FBF0F0FA
:100F900000F0F2FA48B9102C07D200222146501E68
:100FA00000F030F800206C6070BD012070BD0000C2
:100FB00018060020240600200A4882B0816941F00A
:100FC00001018161816901F001010091C16941F074
:100FD0008051C161C06900F080500090052002B0CE
:100FE00000F030B800100240002809DB00F01F02BA
:100FF000012191404009800000F1E020C0F800117B
:1010000070470000F0B40E4B1B680C46C3F302237C
:10101000C3F10705042D00D90425191D072901D2A4
:10102000002300E0DB1E012606FA05F1491E2140DF
:1010300099409E40761E16403143F0BC00F0F9BF47
:101040000CED00E0064900F0070208684FF6FF03C8
:10105000184040EA0220034A10430860704700002D
:101060000CED00E00000FA052DE9F0470F46050001
:1010700061D0434E306800F00700B84209D23068B2
:1010800020F0070038433060306800F00700B842B5
:1010900051D128683B4C810712D5400703D56068C1
:1010A00040F4E06060602878000703D5606840F491
:1010B000605060606068A96820F0F00008436060DC
:1010C0002878C00728D06868012810D02168022835
:1010D00010D0890700292EDA616821F0030101434D
:1010E0006160FFF729FF804641F288390DE02168F1
:1010F0008903EFE78901EDE7FFF71EFFA0EB080189
:10110000494502D90320BDE8F0876068696800F0AE
:101110000C00B0EB810FEFD1306800F00700B8424F
:101120000BD9306820F0070038433060306800F099
:101130000700B84201D00120E5E72878400705D52F
:101140006068E96820F4E060084360602878000780
:1011500006D56068296920F4605040EAC1006060EB
:1011600000F038F86168084AC1F30311515CC840C7
:101170000649086006480068FFF7FEFE0020C2E747
:1011800000200240001002407C21000824060020BC
:101190001C0600200448054900684968044AC1F358
:1011A0000221515CC8407047240600200010024014
:1011B0008C2100080448054900684968044AC1F3C5
:1011C000C221515CC8407047240600200010024034
:1011D0008C21000812A185B00FC98DE80F0014A062
:1011E000144A006804905168134801F00C03042B62
:1011F00010D0082B0ED1C1F38343C9031DF803009F
:101200000AD5516804AAC1F34041515C0A4A5043CF
:10121000B0FBF1F005B0704708494843FAE7000019
:1012200002030405060708090A0B0C0D0E0F101027
:10123000010200000010024000127A0000093D0087
:101240002DE9F84F040070D02078C04DC00749D078
:101250006868C0F38100012807D06868C0F3810086
:10126000022809D16868C00306D52868800339D5EB
:1012700060680028E7D035E06068B0F5803F0BD0AB
:1012800010B1B0F5A02F11D0286820F4803028606C
:10129000286820F4802002E0286840F4803028602C
:1012A000606890B1FFF748FE06460AE0286840F4FF
:1012B00080202860F0E700BFFFF73EFE801B642817
:1012C00073D828688003F7D50CE0FFF735FE064693
:1012D00005E000BFFFF730FE801B6428F0D82868C7
:1012E0008003F7D420789A4E80074FF001094FF021
:1012F000000839D5686810F00C0F07D06868C0F393
:101300008100022809D16868C00306D428688007D4
:1013100014D52069012808D110E02069B0B1C6F8C1
:101320000090FFF709FE074605E00AE1FFF704FE1B
:10133000C01B0228C4D828688007F7D528686169CF
:1013400020F0F80040EAC10028600DE0C6F80080F7
:10135000FFF7F2FD074604E0FFF7EEFDC01B022891
:1013600023D828688007F7D4207800072CD579483F
:10137000A169D9B1C0F80090FFF7DEFD074604E08F
:10138000FFF7DAFDC01B02280FD8686A8007F7D57F
:1013900071484FF4FA510068B0FBF1F0009000BFC3
:1013A0000098411E0091FAD20EE080E0C0F8008063
:1013B000FFF7C2FD074604E0FFF7BEFDC01B022891
:1013C00075D8686A8007F7D42078400760D5E86947
:1013D0000027C00008D4E86940F08050E861E8695F
:1013E000012700F0805000905C480168C90513D4C3
:1013F0000168834641F480710160FFF79DFD8246DC
:1014000006E000BFFFF798FDA0EB0A0064284ED865
:10141000DBF80000C005F5D5E06801280AD008B166
:10142000052813D0286A20F001002862286A20F0DD
:10143000040002E0286A40F001002862E06841F2FE
:10144000883B98B1FFF778FD82460BE0286A40F0B0
:1014500004002862EEE700BFFFF76EFDA0EB0A0173
:1014600059455AD8286A8007F6D50CE0FFF764FD85
:10147000824605E0FFF760FDA0EB0A0159454CD814
:10148000286A8007F6D41FB1E86920F08050E8612F
:10149000E06988B36968C1F38101022944D0022858
:1014A000C6F8608004D0FFF747FD044638E034E01A
:1014B000FFF742FD074604E0FFF73EFDC01B022890
:1014C0002BD828688001F7D4206AB0F5803F05D179
:1014D0006868A16820F4003008436860D4E9080116
:1014E0000843696821F4741108436860C6F8609085
:1014F000FFF722FD044606E025E000BFFFF71CFDD4
:10150000001B022809D828688001F7D51BE000BF1E
:10151000FFF712FD001B022802D90320BDE8F88F57
:1015200028688001F4D40EE00128F7D06868226AA8
:1015300000F48031914204D1616A00F47010884255
:1015400001D00120EAE70020E8E700000010024097
:101550000000424280044242240600200070004005
:101560004FF0E0210428086903D020F0040008614E
:10157000704740F00400FAE710B5401EB0F1807FDC
:1015800001D3012010BD4FF0E02460610F216017EE
:1015900000F04FFD0020A06107202061002010BD59
:1015A00070477047F8B5026804461068D1685369FF
:1015B00010F00F0F4FF0000553D003F0010601F4B7
:1015C000907737435FD0C20705D0CA0503D5226C98
:1015D00042F001022264420705D5DA0703D0226CEB
:1015E00042F002022264820705D5DA0703D0226C9A
:1015F00042F004022264020707D501F020023243C0
:1016000003D0226C42F008022264226C002A34D0FB
:10161000800604D5880602D5204600F0C1FB20686C
:101620004069216CC0F38010090700D430B3204614
:1016300000F09EFB2068416949061BD5416921F0F5
:1016400040014161A06BA8B158494163A06BFFF70D
:101650002DFA002811D0A06B416B01B0BDE8F0401D
:10166000084783060FD58B060DD52046BDE8F84008
:1016700000F096BB2046FFF794FFF8BD2046FFF729
:1016800090FF2564F8BD266B2023012E52D1C6069B
:1016900050D5CE064ED5106850680090506940066F
:1016A0002AD5A16B086840680004000CEAD0A68D1A
:1016B0008642E7D9E0858869202818D0D06820F4D0
:1016C0008070D0602068416921F00101416120688B
:1016D000416921F04001416184F83E302563206872
:1016E000C16821F01001C160A06BFFF7BBF9A08DAC
:1016F000E18D401A81B219E0A08DE18D401A81B2CE
:10170000E08D0028BED00029BCD0D06820F49070B5
:10171000D0602068426922F00102426184F83E30C4
:1017200025632068C26822F01002C2602046FFF7DD
:1017300037FFF8BD05062BD50D0629D594F83D00D9
:101740002128F6D1A068B0F5805F01D12069B0B141
:10175000206A411C2162216800784860E08C401EAC
:101760000004000CE084E4D12068C16821F080010D
:10177000C1602068C16841F04001C160F8BD206AC5
:101780000088C0F308005060206A801C2062E5E7F2
:101790004006F3D54806F1D5D168204621F0400136
:1017A000D16084F83D3000F09CF9F8BD611D00085F
:1017B00070B5040004D094F83D00002510B106E097
:1017C000012070BD84F83C50204600F023F824200E
:1017D00084F83D002068C16821F40051C1602046B2
:1017E00000F03AFB2068016921F490410161206812
:1017F000416921F02A0141612068C16841F400512A
:10180000C1602564202084F83D0084F83E0000205B
:1018100070BD00002DE9F04186B0002400940194D1
:10182000029403940646DFF810C10368434802227D
:101830000321434D10274FF08008634539D1836958
:1018400043F480438361836903F480430493836991
:1018500043F0040383618069039100F00400049065
:101860001002CDE9000269462846FFF763FA281501
:10187000CDE90004694628460294FFF75BFA324D31
:1018800030482860C5E90174C5E9038480146C619F
:10189000C5E906402846FFF7FFF908B1FFF7B9F898
:1018A00075630022022125206E62FFF7ABFB252025
:1018B0003DE0DFF898C063453BD1C36943F4003392
:1018C000C361C36903F400330493836943F00403E1
:1018D00083618069039100F0040004900420CDE945
:1018E000000269462846FFF725FA0820CDE90004E2
:1018F000694628460294FFF71DFA134D11484435F6
:101900003C302860C5E90174C5E903846C61AC61B1
:101910002846EC61FFF7C0F908B1FFF77AF8756364
:101920000122114626206E62FFF76CFB2620FFF78E
:101930005BFB06B0BDE8F0810038014000100240BA
:101940000008014044000240880900200044004093
:1019500090F83E30202B0ED159B152B190F83C3066
:10196000012B08D0012380F83C300023036300F0F2
:10197000CFBA0120704702207047000070B50646BC
:10198000006827490025274C88421FD1A088010400
:1019900015D404F101014204097804D50A290DD1B6
:1019A00040F4004022E00D291ED0C0F30D021E4B72
:1019B000401C80B29954A080632800D9A5801949A1
:1019C00019480122491CC830FFF7C2FF1749306887
:1019D000884224D11348E188801C02781248643080
:1019E0000829425404D007E040F48040A080E6E794
:1019F000027A0AB1521CA260491CE180A16839B187
:101A0000A168491EA160A16811B901212170E5807A
:101A10000078EF2802D1E088632800D9E58070BD06
:101A2000003801400C060020380800200044004027
:101A30002DE9F843044690F83D001F4616460D4632
:101A400020284CD1C5B1BEB194F83C00012846D045
:101A5000012084F83C004FF00008C4F840802120A9
:101A600084F83D00FFF768FAA6848146E684A06802
:101A7000B0F5805F03D004E00120BDE8F883206961
:101A800028B12E465FF0000584F83C800EE0002669
:101A9000FAE78021204600F056FAA0B9AEB116F858
:101AA000010B21684860E08C401EE084E08C4B46CE
:101AB0004FF0000200970028EBD14FF04001204684
:101AC00000F041FA30B10320D7E735F8020BC0F33C
:101AD0000800E6E7202084F83D000020CDE7022042
:101AE000CBE77047FEE7000030B50F4885B081694D
:101AF00041F01001816180690C4D00F010000490EC
:101B000001204403CDE9004002200290032003900D
:101B100069462846FFF70EF9012221462846FFF7BD
:101B200006FA05B030BD0000001002400010014070
:101B30000D4808B5416941F0010141614069002249
:101B400000F00100009003210E20FFF75BFA0E2049
:101B5000FFF74AFA012203211120FFF753FABDE8EB
:101B600008401120FFF740BA0010024010B586B0BF
:101B7000002000900190029003901E48816941F07E
:101B800020018161816901F020010491816941F0A6
:101B900004018161816901F004010491816941F0CE
:101BA000080181618069144C00F008000490012252
:101BB00003212046FFF7BBF9102000900F48019049
:101BC0000220029069460E48FFF7B4F80121032075
:101BD000CDE900010291039169462046FFF7AAF87A
:101BE000022211460A20FFF70DFA0A20FFF7FCF93E
:101BF00006B010BD00100240000C014000001110A2
:101C0000000801400E4810B50C4901604FF4E13165
:101C10004160002181600C22C160C0E90412816131
:101C2000C161FFF7C5FD08B1FEF7F3FEBDE8104046
:101C3000012204490248FFF78BBE00000038014032
:101C4000000900200D0600200E4810B50C49016067
:101C50004FF461414160002181600C22C160C0E904
:101C600004128161C161FFF7A3FD08B1FEF7D1FE47
:101C7000BDE81040012204490248FFF769BE000098
:101C800000440040440900200E060020FEE7FEE765
:101C90007047704710B501460948FEF707FD01205F
:101CA000FEF78CFE06494FF47A7314220D31054875
:101CB000FFF7BEFEBDE810400120FEF77FBE00002A
:101CC00054000020000900202DE9F04100F03AFA0C
:101CD0000024074E074F084D05E0305D57F82000FF
:101CE000FFF7D8FF641C28788442F6DBBDE8F0815A
:101CF000D00700207003002053000020FFF722B916
:101D000030B58FB028216846FEF79DFA14210AA845
:101D1000FEF799FA01210804CDE90010002402948D
:101D200002250491CDE907504FF4E0100990684670
:101D3000FFF786FA08B172B6FEE70F20CDE90A0573
:101D40004FF48060CDE90C4002210AA80E94FFF701
:101D50008BF9002801D072B6FEE70FB030BD704796
:101D600010B5406A0021C185C184FFF71AFC10BD7F
:101D70000168CA6822F49072CA6001684A6922F058
:101D800001024A61016B012904D10168CA6822F08D
:101D90001002CA60202180F83E10002101637047C4
:101DA00008B590F83E10222901D0022008BD8268B3
:101DB0004FF480539A4201D1016921B1816A9A425C
:101DC0001BD04AB10AE00268816A5268C2F3080275
:101DD0000A80816A891C08E0026972B1026852684F
:101DE00002F07F020A70816A491C8162C18D491E1E
:101DF0000904090CC18503D019E002685268F1E7B3
:101E00000168CA6822F02002CA600168CA6822F428
:101E10008072CA6001684A6922F001024A61202189
:101E200080F83E10016B012903D0FFF7A7FD0020C9
:101E300008BD002101630168CA6822F01002CA606F
:101E400001680A68D20602D50A6849680091818D46
:101E5000FFF7A6FBEBE7000070B5044600680169D8
:101E6000E26821F44051114301612169A0680843EF
:101E7000616908432168CA6841F20C639A430243CE
:101E8000CA6020684169A26921F44071114341612F
:101E90001E492068884202D1FFF78CF901E0FFF764
:101EA00079F900EBC00101EB001260686421800049
:101EB000B2FBF0F3B3FBF1F36FF018067343B2FB20
:101EC000F0F5B2FBF0F605EB8305322303EB0515C5
:101ED000B5FBF1F5B6FBF1F605F0F00505EB0615DF
:101EE000B2FBF0F6B2FBF0F0B0FBF1F06FF01802CD
:101EF000504306EB800003EB0010B0FBF1F02168CB
:101F000000F00F002844886070BD000000380140D8
:101F100081628285C28500210164222280F83E20F0
:101F200080F83C100168CA6842F48072CA60016897
:101F30004A6942F001024A610068C16841F020012B
:101F4000C160002070472DE9F041984617460E46C3
:101F50000446069D1DE0681C1BD02DB1FEF7ECFF6A
:101F6000A0EB0800A84214D92068C16821F4D07100
:101F7000C1602068416921F001014161202084F89D
:101F80003D0084F83E00002084F83C000320BDE8BA
:101F9000F0812068006836EA000004D00020B842D2
:101FA000D9D00020F3E70120F9E700000148FFF74E
:101FB000F9BA00000009002010B50548FFF7F2FA51
:101FC000BDE81040012203490148FFF7C1BC0000F1
:101FD000440900200E06002010B5FEF71FFB4FF449
:101FE0007A74234610220C490C48FFF721FD234642
:101FF00010220B490948FFF71BFD2346102209490F
:102000000648FFF715FD0848FFF75EFEBDE81040E3
:102010000648FFF73FBE0000AC0500200009002085
:10202000BC050020CD050020960500209D01002064
:10203000FEE70907090E002804DB00F1E02080F824
:102040000014704700F00F0000F1E02080F8141D2C
:1020500070470000FEF77EFFFFF752FEFFF786FD98
:10206000FFF766FDFFF7CEFDFFF7EEFDFFF73CFD46
:10207000FEF79AFCFEF7FEFA0025FEF70FFC4FF480
:102080007A7628B93346092228492948FFF7D0FC37
:10209000FEF7B0FB30B925493346092209312448FF
:1020A000FFF7C6FCFEF764FB30B92049334609222E
:1020B00012311F48FFF7BCFC072200231146012004
:1020C000FEF776FB30B91949334609221B3118480F
:1020D000FFF7AEFCFEF704FC30B914493346092281
:1020E00024311348FFF7A4FCDFF84880124F134C4B
:1020F0004FF4FA6910214046FEF70CFF012805D184
:102100003D70FEF7EDFB4846FEF758FC20880104C1
:10211000F0D5C0F30D02334609490548FFF788FCA6
:1021200006210748FEF70CFC2580E3E7DE050020CA
:1021300000090020000801400C06002010060020C5
:102140003808002010B50446FEF75EF8C2B2094810
:1021500000214270084802E0635C4354491C134666
:102160009142F9DB1844FF2141700D2181700A2151
:10217000C17010BD52000020D007002000000000F8
:102180000000000001020304060708090000000027
:1021900001020304B421000800000020280600000A
:1021A000280100085824000828060020480A0000DA
:1021B000840100081110170131320C30331D1F1239
:1021C0001335363C68343536151819EF011A0802F4
:1021D00012073A03021A040A490C29065A040A1A79
:1021E000240A111AFF0101111357AB0B1302080D3A
:1021F000550CFF0D0A7235721E721F722072217209
:102200002272237224722572267227722D722E7208
:1022100014721A698A72157217721C6A18A971727F
:10222000127213722F723072317204721672077248
:102230000949F621720B720D720E720F72337234ED
:102240007228721D721B7206721972057211721059
:1022500072367237523812025A35085A1E085A1FFF
:10226000085A20085A21085A22085A23085A2408D2
:102270005A25085A26085A27085A2D085A2E085A4D
:1022800014085A1A085A08085A15085A17085A1CE6
:10229000085A18085A0C085A12085A13085A2F08D4
:1022A0005A30085A31085A04085A16085A07085A68
:1022B00009085A0A085A0B085A0D085A0E085A0FEC
:1022C000085A33085A34085A1D085A1B085A060877
:1022D0005A19085A05085A11085A10085A36085A45
:1022E0003708028C3813FD01142015031C200D0241
:1022F0000819041A1D041A2D041A95181A3D081AF3
:1023000045041A35041A55041ADD1422CD1B20E5A4
:10231000081AED041AC50C1A7D041A85041A8D04D6
:102320001A95041A9D041AA5041AAD041AB5041AC4
:10233000BD041A0D601A8D301A55081AD5101A5D91
:10234000081A65041A05541AC5041A3D0C2A2D1CD6
:10235000190C2A6D6819041AE5042AED8819041A63
:10236000F5041AFD041A05241A4D041A45041A9D91
:10237000101AA5041A5D041A75041ACD041A7D04F6
:102380002A8DB0296019081A25082A85D4296029C0
:10239000D019041A35041A25142A4D38198C2A45E7
:1023A000C819042AB5A029D829A019081A65041A41
:1023B0006D041A15041A75041A7D041A85041AD5B9
:1023C000041ACD042A1D4819041ADD301AF5041A1E
:1023D0004D0C2AFDEC19081ABD041AE50C1AAD08BB
:1023E0001A05041AA5041AAD701ABD042AB5D0192D
:1023F0001061180D6175746F696467657464756D3B
:10240000061674616257AB12081D0AFF0D0A091205
:102410000F1A11096009617364313335373945800A
:10242000073804191F640407024A1F2F19105201AC
:102430001A1010B9212A0F11480A6572726F7220A2
:10244000300D0A096A31096A32096A33091A342ED1
:08245000C1295682101324F487
:04000005080000ED02
:00000001FF
