:020000040800F2
:1000000090100020C9010008471E00089D1C000830
:10001000451E00080F030008FD2100080000000035
:100020000000000000000000000000004B1E00085F
:10003000D10A000800000000491E0008B51E000893
:10004000E3010008E3010008E3010008E301000800
:10005000E3010008E3010008E3010008E3010008F0
:10006000E3010008E3010008390B0008E301000880
:10007000E3010008E3010008B90A0008E3010008F1
:10008000E3010008C50A0008E3010008E3010008D5
:10009000E3010008E3010008E3010008E3010008B0
:1000A000E3010008E3010008E3010008E3010008A0
:1000B000E3010008E3010008E3010008E301000890
:1000C000E3010008E3010008E3010008E301000880
:1000D000E30100086521000885210008E30100080C
:1000E000E3010008E3010008E301000800F002F862
:1000F00000F05AF80AA090E8000C82448344AAF168
:100100000107DA4501D100F04FF8AFF2090EBAE865
:100110000F0013F0010F18BFFB1A43F0010318473B
:10012000DC210000FC2100000A444FF0000C10F814
:10013000013B13F0070408BF10F8014B1D1108BF65
:1001400010F8015B641E05D010F8016B641E01F805
:10015000016BF9D113F0080F1EBF10F8014BAD1C55
:100160000C1B09D16D1E58BF01F801CBFAD505E073
:1001700014F8016B01F8016B6D1EF9D59142D6D3CD
:10018000704700000023002400250026103A28BFF5
:1001900078C1FBD8520728BF30C148BF0B607047F9
:1001A0001FB51FBD10B510BD00F077F81146FFF761
:1001B000F7FF02F035F800F095F803B4FFF7F2FF0F
:1001C00003BC00F09DF8000009488047094800473B
:1001D000FEE7FEE7FEE7FEE7FEE7FEE7FEE7FEE7F7
:1001E000FEE7FEE704480549054A064B7047000054
:1001F000171F0008ED000008900A00209010002052
:10020000900C0020900C002010B5431C02E010F868
:10021000011B71B18107FAD14FF0013202C88C1A6B
:100220008C4314EAC211F9D0C01A0A0603D0C01ECA
:1002300010BDC01A10BD0A0401D0801E10BD0902F5
:10024000FCD0401E10BD4FF0000200B5134694468E
:100250009646203922BFA0E80C50A0E80C50B1F11E
:100260002001BFF4F7AF090728BFA0E80C5048BF32
:100270000CC05DF804EB890028BF40F8042B08BFD0
:10028000704748BF20F8022B11F0804F18BF00F8CC
:10029000012B7047704770477047754600F02CF887
:1002A000AE4605006946534620F00700854618B063
:1002B00020B5FFF797FFBDE820404FF000064FF054
:1002C00000074FF000084FF0000B21F00701AC468B
:1002D000ACE8C009ACE8C009ACE8C009ACE8C009AA
:1002E0008D46704710B50446AFF300802046BDE848
:1002F0001040FFF762BF000000487047300A00203E
:1003000001491820ABBEFEE7260002007047FEE759
:10031000F0B506460024184D184B20462F5D1F559A
:10032000641CE4B2072CF9D1134C343C2578DD7100
:10033000114D6478523D1C72EC785C729E720C78A0
:10034000DC724978197311785973517899730F24B5
:1003500006215A5C491C104480B20F29F9DB00F0D9
:10036000C1F90548801F017819554078641C18555B
:10037000641C2C700148F0BD5200002014060020BF
:10038000F0B506460025174F174C284617F805C04C
:1003900004F805C06D1CEDB2072DF7D1114D163DC7
:1003A0002F78E7716D7825720E4D523DAF7C6772E4
:1003B000A672E172227363730E230621625C491CEC
:1003C000104480B20E29F9DB00F08CF90548801F3B
:1003D0000178E15440785B1CE0545B1C2B700248B0
:1003E000F0BD000052000020AF06002030B50246EC
:1003F0000021144C144B0846655C5D54491CC9B27D
:100400000729F9D10F490F4D2239523D0C78DC7183
:1004100049781972297B59720B249A7206215A5C09
:10042000491C104480B20B29F9DB00F05BF9054848
:10043000801F017819554078641C1855641C2C7075
:1004400030BD0000520000204607002030B50021DA
:10045000134A144C0846535C6354491CC9B207291B
:10046000F9D10F490E4D1439523D0A78E27149789D
:100470002172E97C61720A230621625C491C1044E6
:1004800080B20A29F9DB00F02DF90548801F0178B8
:10049000E15440785B1CE0545B1C2B7030BD0000C5
:1004A00052000020BF06002030B50021134A144C32
:1004B0000846535C6354491CC9B20729F9D10F4956
:1004C0000E4D2439523D0A78E27149782172E97A59
:1004D00061720A230621625C491C104480B20A2919
:1004E000F9DB00F0FFF80548801F0178E1544078FF
:1004F0005B1CE0545B1C2B7030BD000052000020E0
:100500003A07002030B502460021144C144B08462F
:10051000655C5D54491CC9B20729F9D10F490F4DDB
:100520002A39523D0C78DC7149781972297A59724E
:100530000B249A7206215A5C491C104480B20B2984
:10054000F9DB00F0CFF80548801F01781955407895
:10055000641C1855641C2C70014830BD52000020EA
:100560006A06002030B50021134A144C0846535C3B
:100570006354491CC9B20729F9D10F490E4D1E39E0
:10058000523D0A78E27149782172A97B61720A238F
:100590000621625C491C104480B20A29F9DB00F094
:1005A000A1F80548801F0178E15440785B1CE054B5
:1005B0005B1C2B7030BD0000520000205307002050
:1005C00030B50021134A144C0846535C6354491C4F
:1005D000C9B20729F9D10F490E4D2E39523D0A787B
:1005E000E27149782172A97961720A230621625C5D
:1005F000491C104480B20A29F9DB00F073F8054861
:10060000801F0178E15440785B1CE0545B1C2B7028
:10061000014830BD520000205206002070B504464B
:100620000022154D154B1046AE5C9E54521CD2B2A2
:10063000072AF9D1104A1C3A1578DD710E4D52780F
:10064000523D1A72EA7B5A729C720A0ADA72197364
:100650000D2406215A5C491C104480B20D29F9DB97
:1006600000F040F80448801F017819554078641C58
:100670001855641C2C7070BD520000205F070020CC
:10068000020330B50F48090300238488B2FBF4F25B
:100690000281C488B1FBF4F14181140A04704270F4
:1006A0000D0A8570C1700C30C2710472417285727E
:1006B0000021425C491C1A44D3B20C29F9DB0373B4
:1006C00030BD0000B805002010B5034600205A7860
:1006D0000146521C03E05C5C491C2044C0B29142BC
:1006E000F9DB10BD0249020A0A7048707047000029
:1006F0004C0000200C4A10B5002002F13801135CB8
:100700000B54401C0228FADB074A002034320C1834
:10071000135C401CA3700428F9DB03481A384078A6
:1007200088710148383010BD1A00002030B5002310
:1007300041781A464C1C03E0855C521C2B44DBB20A
:10074000A242F9DB08444078984201D1012030BD33
:10075000002030BD10B5144A0023C45CD4545B1C87
:10076000052BFADB05200B1813F8053C1354401C2D
:100770000D28F8DB0D4C0020115C2378401C194437
:1007800021700D28F8DB5173FF2090730D20D0737A
:100790000A2010744FF47A7311220349044801F0BF
:1007A000FFF90020207010BDC80700206A0000205B
:1007B0000C0900200A4610B501460320FFF7A8FDEA
:1007C0004FF47A7311220F490F4801F0E9F90F4CE9
:1007D00020780128FCD10E48417A11B9807A052889
:1007E00001D0002010BD4FF400510A4800F045FC34
:1007F00040F271214FF4707001F0D4FC00202070A1
:10080000012010BD1406002050090020F905002029
:10081000A80800200010014010B5FFF7B1FD4FF40B
:100820007A73102209490A4801F0BAF90948017897
:100830000129FCD10021017007488179072901D1E4
:10084000407A08B1002010BD012010BDAF06002085
:1008500050090020F9050020A808002070B5FFF716
:10086000F5FD4FF47A730C220C490D4801F098F90C
:100870000C4908780128FCD10B480022437A13B1B7
:100880000A70002070BD837A084C4FF6FF75C07A5D
:1008900005EA0323184320800A7070BDBF060020BC
:1008A00050090020F90500207A0700206000002090
:1008B0002DE9F0410D4604460026FFF7F5FD012025
:1008C000FFF794FDFFF74EFE29462046FFF7A6FEF0
:1008D0000A2000F037FC354D354C00274FF47A786C
:1008E00064230C223349344801F05AF92078012856
:1008F000FCD1687A022808D164230A222FA1324849
:1009000001F04EF9404600F0EFF8687A10B1012886
:10091000E6D13AE064230A222CA12B4801F040F9E9
:1009200064230D222C49244801F03AF9207801284B
:10093000FCD1687A48BB64230C2228A1224801F02C
:100940002FF97F1CFFB2042FCAD364230C2227493E
:10095000194801F025F920780128FCD1687AA0B95E
:100960006423082222A1184801F01AF9474640469C
:1009700000F0BAF864230F2220490F4801F010F963
:1009800020780128FCD1687A10B13046BDE8F081AA
:10099000642308221AA10C4801F002F9384600F03D
:1009A000A3F80A2000F0DFFB0020EFE7A8080020F2
:1009B000F90500203A07002050090020C7EBB7C511
:1009C000D6C3D6B8CEC600000C090020BBF1C8A122
:1009D000D6B8CEC60000000046070020C9FAB3C949
:1009E000CCD8D5F7B3C9B9A6000000005307002042
:1009F000B1C8BDCFB3C9B9A6000000005F07002091
:100A0000B4E6B4A2B3C9B9A60000000010B5FFF760
:100A1000D7FD4FF47A730C2209490A4801F0C0F857
:100A2000094801780129FCD1002101700748017AA9
:100A3000032901D1407A08B1002010BD012010BD6A
:100A40005206002050090020F9050020A8080020C7
:100A500030B5002306E0C45CCD5CAC4201D0002080
:100A600030BD5B1C9342F6DB012030BD70B50C46F7
:100A70000A4605460F49FFF7EBFF28B10122002384
:100A800011461046FFF7C8FE0A492246891D28462E
:100A9000FFF7DEFF08B1FFF7E1FE064922460C3101
:100AA0002846FFF7D5FF002803D0BDE8704000F0CE
:100AB00061B870BD8A050020014800F0F1B800005F
:100AC00094090020014800F0EBB80000D80900208C
:100AD0007047000010B5042000F000FE01494820D6
:100AE000086010BD5C00002070B5054600244FF47E
:100AF0007A7603E0304600F005F8641CAC42F9D386
:100B000070BD000070B54FF0E0240022656909490E
:100B1000A36909684843A1699942FCD002D2A3EBBA
:100B2000010302E0A5EB010633441A440B4682425E
:100B3000F1D370BD5C000020102000F09DB972B6AA
:100B4000FEE7000030B50A4C1546207062700220A6
:100B5000921C04E00B1813F8023C2354401C9042F2
:100B6000F8DB0348FFF7B0FD61198870004830BD1D
:100B70001C0A002070B50020FFF7C4FC4FF47A7304
:100B80000D220A490A4801F00BF80A4908780128A1
:100B9000FCD1094A094B0A201D18145C401C05F8B9
:100BA0000A4C1228F8DB0020087070BD6A0600208D
:100BB00050090020F9050020A8080020620000204C
:100BC00010B590F821100022022905D0042181637C
:100BD00080F82020012010BD01680B6823F00E036F
:100BE0000B6001680B6823F001030B6090F8403044
:100BF000C46B012101FA03F3636080F8211080F8CF
:100C00002020104610BD000010B590F821100024DF
:100C1000022903D00421816301243DE001680A68B0
:100C200022F00E020A6001680A6822F001020A60DE
:100C30001A4A0168914201D1012121E0174A143278
:100C4000914201D110211BE0144A2832914201D176
:100C5000891515E0114A3C32914201D189140FE007
:100C60000E4A5032914202D14FF4803108E00B4AD3
:100C70006432914202D14FF4801101E04FF0807153
:100C8000064A083A5160012180F82110002180F8BD
:100C90002010416B01B18847204610BD080002407A
:100CA0002DE9F05FC16B0C6801680B68D0F840C09B
:100CB000042202FA0CF2494DDFF824A1494E4A4FB2
:100CC000DFF828B1DFF828E122422CD05A072AD5D4
:100CD0000A68920603D40A6822F004020A600168D6
:100CE000A94201D1042219E0514501D1402215E069
:100CF000B14202D14FF4806210E0B94202D14FF408
:100D000080420BE0594502D14FF4802206E0714544
:100D100002D14FF4800201E04FF080622F49083980
:100D20004A60C16A3BE04FF0020808FA0CF818EA82
:100D3000040F4FF000094FF0010235D05FEA8378CD
:100D400032D50B689B0605D40B6823F00A030B60B1
:100D500080F821200168A94201D1022219E0514501
:100D600001D1202215E0B14202D14FF4007210E00F
:100D7000B94202D14FF400520BE0594502D14FF471
:100D8000003206E0714502D14FF4001201E04FF04D
:100D90000072124908394A6080F82090816A00295F
:100DA0001AD0BDE8F05F0847082505FA0CF5254282
:100DB00012D01B0710D50B6823F00E030B6090F8C0
:100DC0004010C36B02FA01F15960826380F8212060
:100DD00080F82090016BE2E7BDE8F09F0800024038
:100DE0001C00024030000240440002405800024013
:100DF0006C00024030B528B308C8134914221944C6
:100E0000B1FBF2F18900C16310498163022141778E
:100E10001A6843F6F0718A43D0E900142143D0E9FF
:100E200002452C43214304692143446921438469D9
:100E30002143114319600021416301224277017768
:100E4000084630BD012030BDF8FFFDBF0000024064
:100E50001CB510280BD106A001A90068009005A0C0
:100E6000006801906846FFF7A5FCFFF7CFFD1CBDA9
:100E7000FFFF000000060000044910B50A680242A6
:100E800002D00860FFF7E4FF10BD00001404014029
:100E90002DE9F84FDFF8B891002409F1040A0AF1AE
:100EA000040B23460F270BF1040EC9E00125A540D2
:100EB0002A40AA427DD1674ED1F804C0ACEB0608A7
:100EC000B44532D014DCBCF1030F3AD009DCBCF1DC
:100ED000000F2AD0BCF1010F1CD0BCF1020F31D1A0
:100EE0001DE0BCF1110F17D0BCF1120F2AD119E08F
:100EF000B8F5881F19D006DCB8F5803F15D0B8F5D5
:100F0000801F1FD111E0B8F5001F0ED0B8F5041FE7
:100F100018D10AE0CB6815E0CB681B1D12E0CB6846
:100F200008330FE0CB680C330CE08B682BB1012B3E
:100F30004FF0080303D0456104E0042302E005619B
:100F400000E00023FF2A01D8064601E000F1040674
:100F50004FEA840501D9A5F12005D6F8008007FAEB
:100F600005FC28EA0C0803FA05F548EA0508C6F866
:100F700000804D68ED0062D5374DAE6946F0010640
:100F8000AE61AD6924F0030605F001050095334D0F
:100F900006EB050CDCF80850A607360F07FA06F832
:100FA00025EA0805DFF8B880404503D14FF0000876
:100FB00017E044E0DFF8AC80404502D14FF0010873
:100FC0000FE0DFF8A480404502D14FF0020808E0AE
:100FD000DFF89880404502D14FF0030801E04FF060
:100FE000040808FA06F848EA0508CCF808804D68B5
:100FF000D9F80060ED034D4601D5164300E0964355
:101000002E604D68DAF80060AD03554601D51643F1
:1010100000E096432E604D68DBF80060ED025D460F
:1010200001D5164300E096432E604D68DEF800605F
:10103000AD02754601D5164300E096432E60641C50
:101040000D682A46E5407FF431AFBDE8F88F000017
:101050000004014000001110001002400000014097
:1010600000080140000C0140001001400014014044
:101070008068084000D001207047C26821EA02035E
:101080000A4043EA0241016170470AB101617047B9
:101090000904FBE70148806870470000040600204F
:1010A000024881680278114481607047040600207C
:1010B000074810B5016841F010010160052000F0FB
:1010C0007FF8012000F006F800F024F8002010BDA1
:1010D0000020024070B50D4D04464FF47A71287817
:1010E000B1FBF0F00A490968B1FBF0F000F002FB37
:1010F00048B9102C07D200222146501E00F040F8BB
:1011000000206C6070BD012070BD0000040600204E
:10111000100600200A4882B0816941F00101816116
:10112000816901F001010091C16941F08051C16103
:10113000C06900F080500090052002B000F040B877
:101140000010024000280DDB00F01F020121914039
:101150004009800000F1E020C0F88011BFF34F8FFC
:10116000BFF36F8F7047002809DB00F01F020121D9
:1011700091404009800000F1E020C0F80011704764
:10118000F0B40E4B1B680C46C3F30223C3F10705F2
:10119000042D00D90425191D072901D2002300E0E0
:1011A000DB1E012606FA05F1491E214099409E40AA
:1011B000761E16403143F0BC01F021B80CED00E082
:1011C000064900F0070208684FF6FF03184040EA9E
:1011D0000220034A10430860704700000CED00E055
:1011E0000000FA052DE9F0470F46050061D0434E97
:1011F000306800F00700B84209D2306820F00700DC
:1012000038433060306800F00700B84251D1286898
:101210003B4C810712D5400703D5606840F4E0607D
:1012200060602878000703D5606840F46050606013
:101230006068A96820F0F000084360602878C00763
:1012400028D06868012810D02168022810D08907AA
:1012500000292EDA616821F0030101436160FFF784
:1012600019FF804641F288390DE021688903EFE7D4
:101270008901EDE7FFF70EFFA0EB0801494502D910
:101280000320BDE8F0876068696800F00C00B0EBEF
:10129000810FEFD1306800F00700B8420BD93068F9
:1012A00020F0070038433060306800F00700B84293
:1012B00001D00120E5E72878400705D56068E96896
:1012C00020F4E060084360602878000706D5606875
:1012D000296920F4605040EAC100606000F038F8ED
:1012E0006168084AC1F30311515CC84006490860AF
:1012F00006480068FFF7EEFE0020C2E7002002402B
:1013000000100240E4220008100600200806002019
:101310000448054900684968044AC1F30221515C48
:10132000C84070471006002000100240F422000858
:101330000448054900684968044AC1F3C221515C68
:10134000C84070471006002000100240F422000838
:1013500012A185B00FC98DE80F0014A0144A0068CF
:1013600004905168134801F00C03042B10D0082B93
:101370000ED1C1F38343C9031DF803000AD5516898
:1013800004AAC1F34041515C0A4A5043B0FBF1F05A
:1013900005B0704708494843FAE700000203040516
:1013A000060708090A0B0C0D0E0F101001020000B1
:1013B0000010024000127A0000093D002DE9F84FAC
:1013C000040070D02078C04DC00749D06868C0F3D1
:1013D0008100012807D06868C0F38100022809D184
:1013E0006868C00306D52868800339D5606800287E
:1013F000E7D035E06068B0F5803F0BD010B1B0F5B4
:10140000A02F11D0286820F480302860286820F4AC
:10141000802002E0286840F480302860606890B145
:10142000FFF738FE06460AE0286840F4802028606E
:10143000F0E700BFFFF72EFE801B642873D82868F2
:101440008003F7D50CE0FFF725FE064605E000BF58
:10145000FFF720FE801B6428F0D828688003F7D4AB
:1014600020789A4E80074FF001094FF0000839D5D7
:10147000686810F00C0F07D06868C0F3810002287C
:1014800009D16868C00306D42868800714D520698C
:10149000012808D110E02069B0B1C6F80090FFF72C
:1014A000F9FD074605E00AE1FFF7F4FDC01B02283D
:1014B000C4D828688007F7D52868616920F0F8004B
:1014C00040EAC10028600DE0C6F80080FFF7E2FDA9
:1014D000074604E0FFF7DEFDC01B022823D828687A
:1014E0008007F7D4207800072CD57948A169D9B1B5
:1014F000C0F80090FFF7CEFD074604E0FFF7CAFDF5
:10150000C01B02280FD8686A8007F7D571484FF4CE
:10151000FA510068B0FBF1F0009000BF0098411E46
:101520000091FAD20EE080E0C0F80080FFF7B2FD33
:10153000074604E0FFF7AEFDC01B022875D8686AB5
:101540008007F7D42078400760D5E8690027C000FD
:1015500008D4E86940F08050E861E869012700F0AC
:10156000805000905C480168C90513D40168834627
:1015700041F480710160FFF78DFD824606E000BFF7
:10158000FFF788FDA0EB0A0064284ED8DBF80000C6
:10159000C005F5D5E06801280AD008B1052813D0A8
:1015A000286A20F001002862286A20F0040002E086
:1015B000286A40F001002862E06841F2883B98B157
:1015C000FFF768FD82460BE0286A40F004002862BD
:1015D000EEE700BFFFF75EFDA0EB0A0159455AD8C0
:1015E000286A8007F6D50CE0FFF754FD824605E037
:1015F000FFF750FDA0EB0A0159454CD8286A800737
:10160000F6D41FB1E86920F08050E861E06988B342
:101610006968C1F38101022944D00228C6F86080BC
:1016200004D0FFF737FD044638E034E0FFF732FD21
:10163000074604E0FFF72EFDC01B02282BD82868C0
:101640008001F7D4206AB0F5803F05D16868A168B1
:1016500020F4003008436860D4E908010843696851
:1016600021F4741108436860C6F86090FFF712FD1A
:10167000044606E025E000BFFFF70CFD001B022832
:1016800009D828688001F7D51BE000BFFFF702FDED
:10169000001B022802D90320BDE8F88F28688001CA
:1016A000F4D40EE00128F7D06868226A00F4803193
:1016B000914204D1616A00F47010884201D0012087
:1016C000EAE70020E8E70000001002400000424284
:1016D0008004424210060020007000404FF0E021DC
:1016E0000428086903D020F004000861704740F026
:1016F0000400FAE710B5401EB0F1807F01D301204D
:1017000010BD4FF0E02460610F21601700F077FDFD
:101710000020A06107202061002010BD70477047A5
:10172000F8B5026804461068D168536910F00F0FCD
:101730004FF0000553D003F0010601F490773743D2
:101740005FD0C20705D0CA0503D5226C42F0010262
:101750002264420705D5DA0703D0226C42F0020268
:101760002264820705D5DA0703D0226C42F0040216
:101770002264020707D501F02002324303D0226C15
:1017800042F008022264226C002A34D0800604D57C
:10179000880602D5204600F0DFFB20684069216CF6
:1017A000C0F38010090700D430B3204600F0BCFB22
:1017B0002068416949061BD5416921F0400141611A
:1017C000A06BA8B158494163A06BFFF71DFA002830
:1017D00011D0A06B416B01B0BDE8F0400847830613
:1017E0000FD58B060DD52046BDE8F84000F0B4BB00
:1017F0002046FFF794FFF8BD2046FFF790FF2564D1
:10180000F8BD266B2023012E52D1C60650D5CE0638
:101810004ED5106850680090506940062AD5A16BDB
:10182000086840680004000CEAD0A68D8642E7D91B
:10183000E0858869202818D0D06820F48070D060B6
:101840002068416921F0010141612068416921F06E
:101850004001416184F83E3025632068C16821F071
:101860001001C160A06BFFF7ABF9A08DE18D401AAC
:1018700081B219E0A08DE18D401A81B2E08D00287F
:10188000BED00029BCD0D06820F49070D060206811
:10189000426922F00102426184F83E3025632068EB
:1018A000C26822F01002C2602046FFF737FFF8BD81
:1018B00005062BD50D0629D594F83D002128F6D133
:1018C000A068B0F5805F01D12069B0B1206A411CE9
:1018D0002162216800784860E08C401E0004000C02
:1018E000E084E4D12068C16821F08001C1602068F3
:1018F000C16841F04001C160F8BD206A0088C0F3B2
:1019000008005060206A801C2062E5E74006F3D59D
:101910004806F1D5D168204621F04001D16084F815
:101920003D3000F096F9F8BD191F000870B50400AD
:1019300004D094F83D00002510B106E0012070BDF0
:1019400084F83C50204600F023F8242084F83D0021
:101950002068C16821F40051C160204600F058FBA6
:101960002068016921F4904101612068416921F0FA
:101970002A0141612068C16841F40051C1602564B9
:10198000202084F83D0084F83E00002070BD000057
:101990002DE9F04186B00024009401940294039450
:1019A0000646DFF810C10368434802220321434D75
:1019B00010274FF08008634539D1836943F4804391
:1019C0008361836903F480430493836943F00403D0
:1019D00083618069039100F0040004901002CDE956
:1019E000000269462846FFF753FA2815CDE900049E
:1019F000694628460294FFF74BFA324D304828607A
:101A0000C5E90174C5E9038480146C61C5E9064029
:101A10002846FFF7EFF908B1FFF791F87563002248
:101A2000022125206E62FFF7ABFB25203DE0DFF8A9
:101A300098C063453BD1C36943F40033C361C369B4
:101A400003F400330493836943F0040383618069E2
:101A5000039100F0040004900420CDE900026946DF
:101A60002846FFF715FA0820CDE900046946284604
:101A70000294FFF70DFA134D114844353C302860AD
:101A8000C5E90174C5E903846C61AC612846EC6169
:101A9000FFF7B0F908B1FFF752F87563012211465C
:101AA00026206E62FFF76CFB2620FFF75CFB06B07A
:101AB000BDE8F081003801400010024000080140FC
:101AC00044000240940900200044004090F83E3059
:101AD000202B0ED159B152B190F83C30012B08D0D7
:101AE000012380F83C300023036300F0EDBA0120AD
:101AF000704702207047000070B506460068244910
:101B00000025244C88421DD1A01C23490278A088BE
:101B10000A5410B1012805D007E00978FE2904D045
:101B2000A58070BD4978891C2170401CA080207858
:101B300040B12078401E2070207818B9164800F077
:101B400089F8A580154930688842EAD111481249C0
:101B5000C01C64310278E08808280A5403D10A7A4C
:101B60000AB1521CA260401CE080A06838B1A06895
:101B7000401EA060A06810B901206070E580087860
:101B8000EF2802D1E0886328CBD9E58070BD000042
:101B900000380140F80500204408002000440040BF
:101BA0002DE9F843044690F83D001F4616460D46C1
:101BB00020284CD1C5B1BEB194F83C00012846D0D4
:101BC000012084F83C004FF00008C4F84080212038
:101BD00084F83D00FFF75EFAA6848146E684A0689B
:101BE000B0F5805F03D004E00120BDE8F8832069F0
:101BF00028B12E465FF0000584F83C800EE00026F8
:101C0000FAE78021204600F07AFAA0B9AEB116F8C2
:101C1000010B21684860E08C401EE084E08C4B465C
:101C20004FF0000200970028EBD14FF04001204612
:101C300000F065FA30B10320D7E735F8020BC0F3A6
:101C40000800E6E7202084F83D000020CDE70220D0
:101C5000CBE7704710B50446FEF768FD2078FE28F4
:101C600016D1A078012813D0022811D010280FD146
:101C7000FEF780FF082207491020FEF763FF0146A8
:101C8000BDE810404FF47A730B220348FFF788BF7A
:101C900010BD0000620000200C090020FEE70000DB
:101CA00030B50F4885B0816941F0100181618069CC
:101CB0000C4D00F01000049001204403CDE90040D9
:101CC000022002900320039069462846FFF7E0F8BF
:101CD000012221462846FFF7D8F905B030BD0000A3
:101CE00000100240001001400D4808B5416941F064
:101CF000010141614069002200F0010000900321D0
:101D00000E20FFF73DFA0E20FFF72DFA01220321E6
:101D10001120FFF735FABDE808401120FFF723BA7C
:101D20000010024010B586B0002000900190029093
:101D300003901E48816941F020018161816901F0B1
:101D400020010491816941F004018161816901F000
:101D500004010491816941F0080181618069144C9A
:101D600000F008000490012203212046FFF78DF9BE
:101D7000102000900F4801900220029069460E4802
:101D8000FFF786F801210320CDE9000102910391BC
:101D900069462046FFF77CF8022211460A20FFF729
:101DA000EFF90A20FFF7DFF906B010BD001002407E
:101DB000000C014000001110000801400E4810B551
:101DC0000C4901604FF461414160002181600C22A7
:101DD000C160C0E904128161C161FFF7A7FD08B1CC
:101DE000FEF7ADFEBDE81040012204490248FFF7AE
:101DF0006DBE0000003801400C090020FA050020EB
:101E00000E4810B50C4901604FF46141416000215A
:101E100081600C22C160C0E904128161C161FFF7D9
:101E200085FD08B1FEF78BFEBDE810400122044994
:101E30000248FFF74BBE000000440040500900205C
:101E4000FB050020FEE7FEE77047704710B501462E
:101E50000948FEF77FFC0120FEF746FE06494FF4D5
:101E60007A7314220D310548FFF79AFEBDE8104041
:101E70000120FEF739BE00006C0000200C09002094
:101E80002DE9F04100F012FA0024074E074F084DEB
:101E900005E0305D57F82000FFF7D8FF641C287874
:101EA0008442F6DBBDE8F081DC07002088030020D7
:101EB0006B000020FFF7F4B830B58FB028216846DA
:101EC000FEF7C1F914210AA8FEF7BDF901210804A3
:101ED000CDE900100024029402250491CDE90750B9
:101EE0004FF4E01009906846FFF768FA08B172B63F
:101EF000FEE70F20CDE90A054FF48060CDE90C40E4
:101F000002210AA80E94FFF76DF9002801D072B6DD
:101F1000FEE70FB030BD704710B5406A0021C185A3
:101F2000C184FFF7FCFB10BD0168CA6822F49072FF
:101F3000CA6001684A6922F001024A61016B012905
:101F400004D10168CA6822F01002CA60202180F81A
:101F50003E1000210163704708B590F83E10222919
:101F600001D0022008BD82684FF480539A4201D10B
:101F7000016921B1816A9A421BD04AB10AE0026824
:101F8000816A5268C2F308020A80816A891C08E0EB
:101F9000026972B10268526802F07F020A70816AB7
:101FA000491C8162C18D491E0904090CC18503D0F9
:101FB00019E002685268F1E70168CA6822F020025D
:101FC000CA600168CA6822F48072CA6001684A69FE
:101FD00022F001024A61202180F83E10016B0129A4
:101FE00003D0FFF789FD002008BD002101630168CF
:101FF000CA6822F01002CA6001680A68D20602D5D7
:102000000A6849680091818DFFF788FBEBE70000C3
:1020100070B5044600680169E26821F4405111433B
:1020200001612169A0680843616908432168CA68A1
:1020300041F20C639A430243CA6020684169A26975
:1020400021F44071114341611E492068884202D148
:10205000FFF76EF901E0FFF75BF900EBC00101EB60
:102060000012606864218000B2FBF0F3B3FBF1F36F
:102070006FF018067343B2FBF0F5B2FBF0F605EB18
:102080008305322303EB0515B5FBF1F5B6FBF1F63D
:1020900005F0F00505EB0615B2FBF0F6B2FBF0F02B
:1020A000B0FBF1F06FF01802504306EB800003EB39
:1020B0000010B0FBF1F0216800F00F0028448860A8
:1020C00070BD00000038014081628285C285002118
:1020D0000164222280F83E2080F83C100168CA6822
:1020E00042F48072CA6001684A6942F001024A61A2
:1020F0000068C16841F02001C160002070472DE9EF
:10210000F041984617460E460446069D1DE0681CA1
:102110001BD02DB1FEF7BEFFA0EB0800A84214D9DA
:102120002068C16821F4D071C1602068416921F044
:1021300001014161202084F83D0084F83E00002028
:1021400084F83C000320BDE8F0812068006836EA8E
:10215000000004D00020B842D9D00020F3E70120CD
:10216000F9E7000010B50548FFF7DAFABDE81040BE
:10217000012203490148FFF7A9BC00000C09002017
:10218000FA05002010B50548FFF7CAFABDE810406F
:10219000012203490148FFF799BC000050090020C3
:1021A000FB05002010B5FEF76BFA4FF47A74234656
:1021B00010220C490C48FFF7F3FC234610220B4970
:1021C0000948FFF7EDFC2346102209490648FFF7AE
:1021D000E7FC0848FFF754FEBDE810400648FFF74B
:1021E00035BE0000C40500200C090020D4050020E5
:1021F000E5050020AE050020B5010020FEE7090737
:10220000090E002804DB00F1E02080F8001470477C
:1022100000F00F0000F1E02080F8141D704700006E
:10222000FEF746FFFFF748FEFFF77CFDFFF75CFD7A
:10223000FFF7C4FDFFF7E4FDFFF732FDFEF74AFCB0
:10224000FEF758FA002507210120FEF731FBDFF8E1
:102250004880124E124C4FF4FA694FF47A771021ED
:102260004046FEF705FF012805D13570FEF7CEFB8D
:102270004846FEF739FC20880104F0D5C0F30D0272
:102280003B4608490848FFF78BFC06210548FEF746
:10229000EDFB2580E3E7000000080140F905002080
:1022A000FC050020440800200C09002010B504465D
:1022B000FDF7AAFFC2B2094800214270084802E0B7
:1022C000635C4354491C13469142F9DB1844FF21D7
:1022D00041700D2181700A21C17010BD6A0000207B
:1022E000DC070020000000000000000001020304E1
:1022F0000607080900000000010203041C2300086F
:10230000000000201406000028010008B425000881
:10231000140600207C0A00008401000811101C0132
:1023200031320C30331D1F121301020305063536FE
:102330003C68343536151819EF011A080212073AAD
:1023400003021A040A290C3A040E3A0606891012EE
:10235000071A240A111AFF01011A1357AB0B1302B3
:10236000080D550CFF0D0A7235721E721F72207215
:1023700021722272237224722572267227722D72A4
:102380002E7214721A698A72157217721C6A18A951
:102390007172127213722F7230723172047216726D
:1023A00007720949F621720B720D720E720F7233A9
:1023B00072347228721D721B7206721972057211C4
:1023C000721072367237523812025A35085A1E0885
:1023D0005A1F085A20085A21085A22085A23085A14
:1023E00024085A25085A26085A27085A2D085A2E12
:1023F000085A14085A1A085A08085A15085A170889
:102400005A1C085A18085A0C085A12085A13085A23
:102410002F085A30085A31085A04085A16085A0721
:10242000085A09085A0A085A0B085A0D085A0E0881
:102430005A0F085A33085A34085A1D085A1B085AAA
:1024400006085A19085A05085A11085A10085A3627
:10245000085A3708028C3813150214202D032B203C
:10246000250819041A35041A450413AD011B20551B
:10247000081A5D041A4D041A6D041AF51422E51B9E
:1024800020FD081A05101ADD0C1A95041A9D041A6D
:10249000A5041AAD041AB5041ABD041AC5041ACD50
:1024A000041AD5041A25601AA5341A6D081AED10FD
:1024B0001A75081A7D042A1D4419041A550C2A4558
:1024C0001C190C2A856819041AFD041A05141AAD82
:1024D000081A0D082A153019041A65041A5D041A21
:1024E000B5181ABD041A75041A8D041AE5041A9554
:1024F000042AA5B0296019081A3D082A9DD429602C
:1025000029D019041A4D041A3D142A6538198C1A59
:102510005D101ADD042ACDA029D819041A75041AF1
:102520007D041A85041A2D041A8D041A95041A9D27
:10253000041AED041AE5042A354819041AF5441A58
:102540000D081A65041A15041A25041AD5041AFD73
:10255000181AC5081A1D041ABD041AC5701AD50424
:102560002ACDD0190461180D6175746F69646765AF
:102570007464756D061674616257AB12081D0AFF0C
:102580000D0A09120F1A110960096173643133359C
:1025900037394580073804191F640407024A1F2F82
:1025A000191052011A1010B9212A0F11E1292A829B
:0425B000101324F4EC
:04000005080000ED02
:00000001FF
