:020000040800F2
:100000000008002089010008331800087516000850
:1000100031180008E7020008411B0008000000003A
:100020000000000000000000000000003718000879
:10003000B90300080000000035180008391800084E
:10004000A3010008A3010008A3010008A301000800
:10005000A3010008A3010008A3010008A3010008F0
:10006000A3010008A3010008A3010008A3010008E0
:10007000A3010008A3010008A3010008A3010008D0
:10008000A3010008A3010008A3010008A3010008C0
:10009000A3010008A3010008A30100082904000827
:1000A000A3010008A3010008A3010008A3010008A0
:1000B000A3010008A3010008A3010008A301000890
:1000C000A3010008A3010008A3010008A301000880
:1000D000A3010008011B0008211B0008A301000860
:1000E00021040008A3010008A301000800F002F8A1
:1000F00000F03AF80AA090E8000C82448344AAF188
:100100000107DA4501D100F02FF8AFF2090EBAE885
:100110000F0013F0010F18BFFB1A43F0010318473B
:10012000C41A0000E41A0000103A24BF78C878C14D
:10013000FAD8520724BF30C830C144BF04680C60ED
:10014000704700000023002400250026103A28BF35
:1001500078C1FBD8520728BF30C148BF0B60704739
:100160001FB51FBD10B510BD00F058F81146FFF7C0
:10017000F7FF01F0F7FC00F076F803B4FFF7F2FFA9
:1001800003BC00F07DF8000009488047094800479B
:10019000FEE7FEE7FEE7FEE7FEE7FEE7FEE7FEE737
:1001A000FEE7FEE704480549054A064B7047000094
:1001B000B5180008ED00000800020020000800202B
:1001C00000040020000400204FF0000200B5134698
:1001D00094469646203922BFA0E80C50A0E80C5067
:1001E000B1F12001BFF4F7AF090728BFA0E80C5018
:1001F00048BF0CC05DF804EB890028BF40F8042B11
:1002000008BF704748BF20F8022B11F0804F18BF7D
:1002100000F8012B7047704770477047754600F033
:100220002BF8AE4605006946534620F00700854688
:1002300018B020B5FFF7B6FFBDE820404FF000062C
:100240004FF000074FF000084FF0000B21F00701BE
:10025000AC46ACE8C009ACE8C009ACE8C009ACE801
:10026000C0098D46704710B50446AFF300802046A4
:10027000BDE81040FFF781BF00487047A001002093
:1002800001491820ABBEFEE72600020070470000BF
:1002900070B5044600688168C943C90717D18168F1
:1002A00021F00101816000F0BBFB05460AE000BFC0
:1002B00000F0B6FB401B022804D920688068C043C8
:1002C000C00706D020688068C043C007F0D0002077
:1002D00070BDA06A40F01000A062E06A40F001002A
:1002E000E062012070BDFEE77CB515496A46D1E9A0
:1002F0000001CDE9000100210846135C401C1944AF
:10030000C0B2C9B20528F8D30E4C8DF805100122F1
:100310002021204600F07FFB4FF4FA75284600F0BC
:1003200057F86B0006226946074801F049F928464C
:1003300000F04EF800222021204600F06CFB7CBD2E
:10034000BC1B0008000C0140180100202DE9F04101
:10035000164886B0816941F0040181618069144FBB
:1003600000F004004FF480550490002229463846DE
:1003700000F051FBDFF83C8000222021404600F0D5
:100380004AFB0124CDE9005402250326CDE902569B
:100390006946384600F04AFA20208DE87100694627
:1003A000404600F043FA06B0BDE8F081001002407C
:1003B00000080140000C01407047000010B5042007
:1003C00000F0C2FE01494820086010BD0C0000206A
:1003D00070B5054600244FF47A7603E0304600F00D
:1003E00005F8641CAC42F9D370BD000030B54FF085
:1003F000E02400226569094909684843A169A369A5
:100400008B42FCD002D2A1EB030102E0A5EB01017B
:1004100019440A4419468242F1D330BD0C00002031
:100420004FF4006000F0F6B94FF4807000F0F2B9BC
:1004300072B6FEE7F8B50024009490F82420254613
:10044000012A12D0012280F824204A681F23072A9B
:100450000DD20668776B521E02EB820293409F43D7
:100460000B6893401F43776319E00220F8BD0668CC
:100470000D2A0AD2376BD21F02EB820293409F43B0
:100480000B6893401F43376309E0F76A0D3A02EBAC
:10049000820293409F430B6893401F43F7620A68B0
:1004A000072306680A2A0AD3F7680A3A02EB4202CF
:1004B00093409F438B6893401F43F76008E0376980
:1004C00002EB420293409F438B6893401F43376186
:1004D0000A68102A01D0112A20D1124B02689A42D0
:1004E00017D193681B0219D4936843F400039360F7
:1004F0000968102912D10C490C4A0968B1FBF2F1C4
:1005000001EB8101490000E0491E00910029FBD167
:1005100004E0816A41F020018162012480F82450C6
:100520002046F8BD002401401C00002040420F007E
:100530002DE9F0414FF0000704003D467ED0A06A4F
:10054000002628B9E66284F82460204600F07EF890
:100550002046FFF79DFEA16AC90600D420B1A06A1B
:1005600040F01000A06269E0A16A21F4885141F0D6
:100570000201A1626268E169237B0A4347EA430101
:100580000A43A1684FF48077B94209D0012907D006
:100590005FF0000194F814C0BCF1010F02D00AE032
:1005A0003946F7E7F3B1A36A43F02003A362E36A95
:1005B00043F00103E3622368D3F804C02CF4694CD0
:1005C0004CEA010CC3F804C021688B68DFF870C0E6
:1005D00003EA0C0313438B60A168B9420BD00129D5
:1005E00009D00CE0DFF85CC0A3690CEB43330B438C
:1005F00043F40061DFE7218A0D05A5F58015216828
:10060000CB6A23F470032B43CB62216889680E4BBD
:100610001940914208D1E662A16A21F0020141F03D
:100620000101A162BDE8F081A06A20F0020040F063
:100630001000A062E06A40F00100E0620120F1E7F2
:10064000FDF7E1FF00E0FFFFFE0E1FFF10B586B0D3
:10065000002100910191029103910068154988429F
:1006600026D11548816941F400718161816901F4E5
:1006700000710491816941F004018161816901F097
:1006800004010491816941F00801816180690324BA
:1006900000F0080004900120CDE9000469460748F5
:1006A00000F0C4F8009469460548019400F0BEF8D3
:1006B00006B010BD002401400010024000080140B7
:1006C000000C014010B590F821100022022905D03D
:1006D0000421816380F82020012010BD01680B688F
:1006E00023F00E030B6001680B6823F001030B601D
:1006F00090F84030C46B012101FA03F3636080F885
:10070000211080F82020104610BD000010B590F890
:1007100021100024022903D00421816301243DE03B
:1007200001680A6822F00E020A6001680A6822F075
:1007300001020A601A4A0168914201D1012121E0B7
:10074000174A1432914201D110211BE0144A283279
:10075000914201D1891515E0114A3C32914201D1F3
:1007600089140FE00E4A5032914202D14FF4803189
:1007700008E00B4A6432914202D14FF4801101E04B
:100780004FF08071064A083A5160012180F821102B
:10079000002180F82010416B01B18847204610BD30
:1007A000080002402DE9F04107460A20FFF710FE3D
:1007B00038464FF48077BE01144D154CB84209D02D
:1007C000E7147600B8421ED110E0012231462846D7
:1007D00000F021F93946204600F018F90028F4D03D
:1007E0000AE001223146284600F015F93946204634
:1007F00000F00CF90028F4D031462846BDE8F0415D
:10080000002200F008B9BDE8F0810000000C0140B2
:1008100000080140044910B50A68024202D008608D
:10082000FFF7C0FF10BD0000140401402DE9F84F90
:10083000DFF8B891002409F1040A0AF1040B2346F9
:100840000F270BF1040EC9E00125A5402A40AA425A
:100850007DD1674ED1F804C0ACEB0608B44532D068
:1008600014DCBCF1030F3AD009DCBCF1000F2AD034
:10087000BCF1010F1CD0BCF1020F31D11DE0BCF165
:10088000110F17D0BCF1120F2AD119E0B8F5881F4B
:1008900019D006DCB8F5803F15D0B8F5801F1FD100
:1008A00011E0B8F5001F0ED0B8F5041F18D10AE00A
:1008B000CB6815E0CB681B1D12E0CB6808330FE056
:1008C000CB680C330CE08B682BB1012B4FF0080385
:1008D00003D0456104E0042302E0056100E0002349
:1008E000FF2A01D8064601E000F104064FEA84051C
:1008F00001D9A5F12005D6F8008007FA05FC28EA01
:100900000C0803FA05F548EA0508C6F800804D68AA
:10091000ED0062D5374DAE6946F00106AE61AD69B6
:1009200024F0030605F001050095334D06EB050C98
:10093000DCF80850A607360F07FA06F825EA08057E
:10094000DFF8B880404503D14FF0000817E044E0DD
:10095000DFF8AC80404502D14FF001080FE0DFF82E
:10096000A480404502D14FF0020808E0DFF89880EB
:10097000404502D14FF0030801E04FF0040808FAA7
:1009800006F848EA0508CCF808804D68D9F80060F8
:10099000ED034D4601D5164300E096432E604D68A9
:1009A000DAF80060AD03554601D5164300E09643E2
:1009B0002E604D68DBF80060ED025D4601D5164300
:1009C00000E096432E604D68DEF80060AD0275468B
:1009D00001D5164300E096432E60641C0D682A463C
:1009E000E5407FF431AFBDE8F88F0000000401401E
:1009F00000001110001002400000014000080140FA
:100A0000000C0140001001400014014080680840C3
:100A100000D0012070470AB1016170470904FBE76B
:100A2000014880687047000010000020024881687B
:100A3000027811448160704710000020074810B50B
:100A4000016841F010010160032000F079F80320F3
:100A500000F006F800F024F8002010BD002002404D
:100A600070B50D4D04464FF47A712878B1FBF0F063
:100A70000A490968B1FBF0F000F072FB48B9102C8C
:100A800007D200222146501E00F03AF800206C6088
:100A900070BD012070BD0000100000201C0000206F
:100AA0000E4808B5816941F001018161816901F059
:100AB00001010091C16941F08051C161C06900F03C
:100AC00080500090052000F03BF80548416821F077
:100AD000E06141F00071416008BD0000001002407B
:100AE00000000140002809DB00F01F0201219140B5
:100AF0004009800000F1E020C0F8001170470000BC
:100B0000F0B40E4B1B680C46C3F30223C3F1070578
:100B1000042D00D90425191D072901D2002300E066
:100B2000DB1E012606FA05F1491E214099409E4030
:100B3000761E16403143F0BC01F003B80CED00E026
:100B4000064900F0070208684FF6FF03184040EA24
:100B50000220034A10430860704700000CED00E0DB
:100B60000000FA052DE9F84305460078354CC0072A
:100B700054D0E0690026C00008D4E06940F08050FD
:100B8000E061E069012600F0805000902E48016885
:100B9000C90512D40168804641F480710160FFF7F5
:100BA0003FFF074605E000BFFFF73AFFC01B642880
:100BB00023D8D8F80000C005F6D5206A10F440709C
:100BC00021D0A98801F4407181421CD0206A1F49BC
:100BD000012220F440700A6000220A602062C007EF
:100BE00011D0FFF71DFF074641F2883808E000BF2B
:100BF000FFF716FFC11B414502D90320BDE8F8836A
:100C0000206A8007F4D5206A696820F440700843A0
:100C100020621EB1E06920F08050E06128788007F2
:100C200005D56068A96820F44040084360602878D2
:100C3000C00605D56068E96820F48000084360605C
:100C40000020DBE7001002400070004040044242F8
:100C50002DE9F0470F46050061D0434E306800F0A3
:100C60000700B84209D2306820F0070038433060EE
:100C7000306800F00700B84251D128683B4C81072A
:100C800012D5400703D5606840F4E06060602878C2
:100C9000000703D5606840F4605060606068A96830
:100CA00020F0F000084360602878C00728D068680A
:100CB000012810D02168022810D0890700292EDAD7
:100CC000616821F0030101436160FFF7A9FE8046DE
:100CD00041F288390DE021688903EFE78901EDE7EA
:100CE000FFF79EFEA0EB0801494502D90320BDE8AD
:100CF000F0876068696800F00C00B0EB810FEFD1FD
:100D0000306800F00700B8420BD9306820F00700C7
:100D100038433060306800F00700B84201D001204D
:100D2000E5E72878400705D56068E96820F4E060C9
:100D3000084360602878000706D56068296920F4B8
:100D4000605040EAC100606000F038F86168084A0D
:100D5000C1F30311515CC8400649086006480068A9
:100D6000FFF77EFE0020C2E7002002400010024094
:100D7000CC1B00081C00002014000020044805497A
:100D800000684968044AC1F30221515CC8407047B9
:100D90001C00002000100240DC1B0008044805492C
:100DA00000684968044AC1F3C221515CC8407047D9
:100DB0001C00002000100240DC1B000812A185B0BE
:100DC0000FC98DE80F0014A0144A00680490516800
:100DD000134801F00C03042B10D0082B0ED1C1F3E3
:100DE0008343C9031DF803000AD5516804AAC1F35F
:100DF0004041515C0A4A5043B0FBF1F005B07047E6
:100E000008494843FAE700000203040506070809F9
:100E10000A0B0C0D0E0F1010010200000010024012
:100E200000127A0000093D002DE9F84F040070D04F
:100E30002078C04DC00749D06868C0F38100012800
:100E400007D06868C0F38100022809D16868C00330
:100E500006D52868800339D560680028E7D035E0DA
:100E60006068B0F5803F0BD010B1B0F5A02F11D065
:100E7000286820F480302860286820F4802002E070
:100E8000286840F480302860606890B1FFF7C8FDA2
:100E900006460AE0286840F480202860F0E700BF9A
:100EA000FFF7BEFD801B642873D828688003F7D540
:100EB0000CE0FFF7B5FD064605E000BFFFF7B0FD0B
:100EC000801B6428F0D828688003F7D420789A4ED5
:100ED00080074FF001094FF0000839D5686810F01D
:100EE0000C0F07D06868C0F38100022809D1686838
:100EF000C00306D42868800714D52069012808D1CA
:100F000010E02069B0B1C6F80090FFF789FD0746F0
:100F100005E00AE1FFF784FDC01B0228C4D8286859
:100F20008007F7D52868616920F0F80040EAC10021
:100F300028600DE0C6F80080FFF772FD074604E068
:100F4000FFF76EFDC01B022823D828688007F7D45E
:100F5000207800072CD57948A169D9B1C0F8009054
:100F6000FFF75EFD074604E0FFF75AFDC01B0228AD
:100F70000FD8686A8007F7D571484FF4FA510068B6
:100F8000B0FBF1F0009000BF0098411E0091FAD232
:100F90000EE080E0C0F80080FFF742FD074604E065
:100FA000FFF73EFDC01B022875D8686A8007F7D49A
:100FB0002078400760D5E8690027C00008D4E869B8
:100FC00040F08050E861E869012700F0805000900F
:100FD0005C480168C90513D40168834641F48071F7
:100FE0000160FFF71DFD824606E000BFFFF718FD18
:100FF000A0EB0A0064284ED8DBF80000C005F5D548
:10100000E06801280AD008B1052813D0286A20F02A
:1010100001002862286A20F0040002E0286A40F0FB
:1010200001002862E06841F2883B98B1FFF7F8FCC4
:1010300082460BE0286A40F004002862EEE700BF19
:10104000FFF7EEFCA0EB0A0159455AD8286A800741
:10105000F6D50CE0FFF7E4FC824605E0FFF7E0FC84
:10106000A0EB0A0159454CD8286A8007F6D41FB175
:10107000E86920F08050E861E06988B36968C1F3ED
:101080008101022944D00228C6F8608004D0FFF70D
:10109000C7FC044638E034E0FFF7C2FC074604E032
:1010A000FFF7BEFCC01B02282BD828688001F7D4AC
:1010B000206AB0F5803F05D16868A16820F400304F
:1010C00008436860D4E908010843696821F4741191
:1010D00008436860C6F86090FFF7A2FC044606E08B
:1010E00025E000BFFFF79CFC001B022809D82868F8
:1010F0008001F7D51BE000BFFFF792FC001B022820
:1011000002D90320BDE8F88F28688001F4D40EE0EE
:101110000128F7D06868226A00F48031914204D136
:10112000616A00F47010884201D00120EAE70020D3
:10113000E8E7000000100240000042428004424202
:101140001C000020007000404FF0E02104280869D6
:1011500003D020F004000861704740F00400FAE773
:1011600010B5401EB0F1807F01D3012010BD4FF0BB
:10117000E02460610F21601700F0E3FC0020A06113
:1011800007202061002010BD70477047F8B5026845
:1011900004461068D168536910F00F0F4FF0000536
:1011A00053D003F0010601F4907737435FD0C207B4
:1011B00005D0CA0503D5226C42F001022264420721
:1011C00005D5DA0703D0226C42F0020222648207BE
:1011D00005D5DA0703D0226C42F00402226402072C
:1011E00007D501F02002324303D0226C42F00802FE
:1011F0002264226C002A34D0800604D5880602D5E9
:10120000204600F078FB20684069216CC0F3801014
:10121000090700D430B3204600F055FB206841692F
:1012200049061BD5416921F040014161A06BA8B17D
:1012300058494163A06BFFF769FA002811D0A06BF1
:10124000416B01B0BDE8F040084783060FD58B061F
:101250000DD52046BDE8F84000F04DBB2046FFF715
:1012600094FFF8BD2046FFF790FF2564F8BD266B7C
:101270002023012E52D1C60650D5CE064ED5106879
:1012800050680090506940062AD5A16B08684068F4
:101290000004000CEAD0A68D8642E7D9E085886973
:1012A000202818D0D06820F48070D0602068416970
:1012B00021F0010141612068416921F04001416153
:1012C00084F83E3025632068C16821F01001C160B8
:1012D000A06BFFF7F7F9A08DE18D401A81B219E0FC
:1012E000A08DE18D401A81B2E08D0028BED000298A
:1012F000BCD0D06820F49070D0602068426922F0A1
:101300000102426184F83E3025632068C26822F001
:101310001002C2602046FFF737FFF8BD05062BD547
:101320000D0629D594F83D002128F6D1A068B0F526
:10133000805F01D12069B0B1206A411C216221681F
:1013400000784860E08C401E0004000CE084E4D18A
:101350002068C16821F08001C1602068C16841F047
:101360004001C160F8BD206A0088C0F308005060E9
:10137000206A801C2062E5E74006F3D54806F1D5D7
:10138000D168204621F04001D16084F83D3000F062
:1013900070F9F8BDB718000870B5040004D094F8CF
:1013A0003D00002510B106E0012070BD84F83C50DE
:1013B000204600F023F8242084F83D002068C1680E
:1013C00021F40051C160204600F0F0FA2068016964
:1013D00021F4904101612068416921F02A014161B5
:1013E0002068C16841F40051C1602564202084F860
:1013F0003D0084F83E00002070BD000070B586B04E
:10140000002400940194029403942E4E03682E4904
:10141000022003222D4DB34226D18B6943F4804331
:101420008B618B6903F4804304938B6943F004035D
:101430008B618969039201F0040104910102CDE9F5
:10144000001069462846FFF7F1F92815CDE9000498
:10145000694628460294FFF7E9F901221146252042
:10146000FFF74EFB252028E0194EB34227D1CB6968
:1014700043F40033CB61CB6903F4003304938B69ED
:1014800043F004038B618969039201F00401049124
:101490000421CDE9001069462846FFF7C7F9082066
:1014A000CDE90004694628460294FFF7BFF90022FF
:1014B00001212620FFF724FB2620FFF713FB06B0AF
:1014C00070BD0000003801400010024000080140DB
:1014D0000044004090F83E30202B0ED159B152B15B
:1014E00090F83C30012B08D0012380F83C300023D9
:1014F000036300F0B7BA0120704702207047000074
:1015000070B52B4D0268012400232A49AA422AD132
:101510000A1D294D1678CA88AE5422B1012A0DD071
:10152000042A11D015E02D78572D03D0FE2D03D0BD
:10153000CB8070BD0B700CE00C700AE00E78012EB1
:1015400007D16D78AD1C03E00E7816B92D796D1CAE
:101550004D70521CCA804A782AB14A78521E4A708D
:101560004A7802B9CB800068144A9042E1D1114810
:101570000A89401D057810486430082A855403D133
:10158000057A0DB16D1C8D70521C0A818A7832B1BA
:101590008A78521E8A708A780AB9CC700B810078DA
:1015A000EF2802D108896328C3D90B8170BD0000E0
:1015B000003801400000002050000020004400409E
:1015C0002DE9F843044690F83D001F4616460D46A7
:1015D00020284CD1C5B1BEB194F83C00012846D0BA
:1015E000012084F83C004FF00008C4F8408021201E
:1015F00084F83D00FFF714FAA6848146E684A068CB
:10160000B0F5805F03D004E00120BDE8F8832069D5
:1016100028B12E465FF0000584F83C800EE00026DD
:10162000FAE78021204600F038FAA0B9AEB116F8EA
:10163000010B21684860E08C401EE084E08C4B4642
:101640004FF0000200970028EBD14FF040012046F8
:1016500000F023FA30B10320D7E735F8020BC0F3CE
:101660000800E6E7202084F83D000020CDE70220B6
:10167000CBE77047FEE70000144800B5816985B0EC
:1016800041F0040181618069694600F00400049022
:101690000F4801904FF41060009001200290032049
:1016A00003900C48FFF7C2F8002202211720FFF731
:1016B00027FA1720FFF716FA012202212820FFF748
:1016C0001FFA2820FFF70EFA05B000BD00100240F7
:1016D000000021100008014030B50F4885B0816935
:1016E00041F00801816180690C4D00F008004FF461
:1016F00040440490002221462846FFF78CF901203F
:10170000CDE900400220029003200390694628465C
:10171000FFF78CF805B030BD00100240000C01400E
:101720003EB5002410480094019402940D49846051
:10173000016004730475012505614FF46021446064
:10174000C161FEF7F5FE08B1FEF772FECDE9004576
:10175000694605480294FEF76DFE002801D0FEF7A9
:1017600067FE3EBD00240140200000200D4808B562
:10177000816941F020018161816901F020010091BE
:10178000816941F004018161816901F004010091E6
:10179000816941F008018161806900F008000090D2
:1017A00008BD0000001002400E4810B50C49016051
:1017B0004FF416514160002181600C22C160C0E9E4
:1017C00004128161C161FFF7E7FD08B1FEF730FE49
:1017D000BDE81040012204490248FFF77BBE00002B
:1017E0000038014018010020040000200E4810B508
:1017F0000C4901604FF461414160002181600C227D
:10180000C160C0E904128161C161FFF7C5FD08B183
:10181000FEF70EFEBDE81040012204490248FFF722
:1018200059BE0000004400405C010020050000207B
:10183000FEE7FEE770477047FFF7F8B830B593B0A2
:1018400028216846FEF7C0FC14210AA8FEF7BCFC5C
:10185000002501200F9510951195010412958DE832
:10186000230004904FF4E010CDE9081002240794FF
:101870006846FFF7D9FA08B172B6FEE70AA90F2049
:1018800081E831004FF48060CDE90D0502210AA8FE
:10189000FFF7DEF908B172B6FEE74FF40040119091
:1018A0000F940FA8FFF75EF9002801D072B6FEE78B
:1018B00013B030BD704710B5406A0021C185C184A6
:1018C000FFF763FC10BD0168CA6822F49072CA6019
:1018D00001684A6922F001024A61016B012904D1C1
:1018E0000168CA6822F01002CA60202180F83E1008
:1018F00000210163704708B590F83E10222901D0FD
:10190000022008BD82684FF480539A4201D10169D8
:1019100021B1816A9A421BD04AB10AE00268816A09
:101920005268C2F308020A80816A891C08E00269D1
:1019300072B10268526802F07F020A70816A491C23
:101940008162C18D491E0904090CC18503D019E0CB
:1019500002685268F1E70168CA6822F02002CA6092
:101960000168CA6822F48072CA6001684A6922F07C
:1019700001024A61202180F83E10016B012903D049
:10198000FFF7BEFD002008BD002101630168CA68A1
:1019900022F01002CA6001680A68D20602D50A68FD
:1019A00049680091818DFFF7EFFBEBE770B50446C6
:1019B00000680169E26821F4405111430161216925
:1019C000A0680843616908432168CA6841F20C6352
:1019D0009A430243CA6020684169A26921F44071B8
:1019E000114341611E492068884202D1FFF7D6F9B0
:1019F00001E0FFF7C3F900EBC00101EB00126068E2
:101A000064218000B2FBF0F3B3FBF1F36FF0180632
:101A10007343B2FBF0F5B2FBF0F605EB830532231E
:101A200003EB0515B5FBF1F5B6FBF1F605F0F00596
:101A300005EB0615B2FBF0F6B2FBF0F0B0FBF1F0EF
:101A40006FF01802504306EB800003EB0010B0FB70
:101A5000F1F0216800F00F002844886070BD00009C
:101A60000038014081628285C28500210164222202
:101A700080F83E2080F83C100168CA6842F4807209
:101A8000CA6001684A6942F001024A610068C1689F
:101A900041F02001C160002070472DE9F0419846D7
:101AA00017460E460446069D1DE0681C1BD02DB14E
:101AB000FEF7B6FFA0EB0800A84214D92068C16861
:101AC00021F4D071C1602068416921F001014161B8
:101AD000202084F83D0084F83E00002084F83C007B
:101AE0000320BDE8F0812068006836EA000004D0D9
:101AF0000020B842D9D00020F3E70120F9E7000028
:101B000010B50548FFF742FBBDE81040012203492C
:101B10000148FFF7DFBC000018010020040000208E
:101B200010B50548FFF732FBBDE81040012203491C
:101B30000148FFF7CFBC00005C0100200500002039
:101B4000FEE70907090E002804DB00F1E02080F819
:101B50000014704700F00F0000F1E02080F8141D21
:101B600070470000FEF76AFFFFF768FEFFF7FEFD13
:101B7000FFF7D6FDFFF718FEFFF738FEFEF71EFC55
:101B8000FFF7AAFDFFF778FDFEF7E0FB0A4C012204
:101B900020212046FEF73FFF4FF4FA752846FEF756
:101BA00017FCFEF7A1FB2846FEF712FC00222021BD
:101BB0002046FEF730FFFEE7000C014057AB00085F
:101BC0000000000057AB00093200000000000000D8
:101BD00000000000010203040607080900000000DD
:101BE00001020304041C0008000000202000000083
:101BF00028010008241C000820000020E007000045
:101C00004401000800000000000000000000000087
:101C100000000000010000001000000000000000B3
:041C20000024F400A8
:04000005080000ED02
:00000001FF
