:020000040800F2
:10000000D8130020C9010008C5330008CD3000080E
:10001000C133000865050008ED3A00080000000043
:10002000000000000000000000000000393400085B
:10003000810C000800000000C93300083B340008B0
:10004000E3010008E3010008E3010008E301000800
:10005000E3010008E3010008E3010008A10D000826
:10006000E3010008E3010008E3010008450C000873
:10007000E3010008E3010008E3010008E3010008D0
:10008000E3010008E3010008E3010008E3010008C0
:10009000E3010008E3010008E3010008AD0D0008DA
:1000A000E3010008C9340008E3010008E301000887
:1000B000E3010008E3010008E3010008E301000890
:1000C000E3010008E3010008E3010008E301000880
:1000D000E3010008213900083D390008E301000868
:1000E000E3010008E3010008E301000800F002F862
:1000F00000F05AF80AA090E8000C82448344AAF168
:100100000107DA4501D100F04FF8AFF2090EBAE865
:100110000F0013F0010F18BFFB1A43F0010318473B
:10012000503B0000703B00000A444FF0000C10F8F8
:10013000013B13F0070408BF10F8014B1D1108BF65
:1001400010F8015B641E05D010F8016B641E01F805
:10015000016BF9D113F0080F1EBF10F8014BAD1C55
:100160000C1B09D16D1E58BF01F801CBFAD505E073
:1001700014F8016B01F8016B6D1EF9D59142D6D3CD
:10018000704700000023002400250026103A28BFF5
:1001900078C1FBD8520728BF30C148BF0B607047F9
:1001A0001FB51FBD10B510BD00F0F3F81146FFF7E5
:1001B000F7FF03F0D3FC00F011F903B4FFF7F2FFEF
:1001C00003BC03F0C9FC0000094880470948004708
:1001D000FEE7FEE7FEE7FEE7FEE7FEE7FEE7FEE7F7
:1001E000FEE7FEE704480549054A064B7047000054
:1001F000C7340008ED000008D80D0020D8130020F7
:10020000D80F0020D80F00207047032A40F230801A
:1002100010F0030C00F0158011F8013BBCF1020F47
:10022000624498BF11F801CB00F8013B38BF11F8C8
:10023000013BA2F1040298BF00F801CB38BF00F8DF
:10024000013B11F0030300F07280083AC0F008800F
:1002500051F8043B083A51F804CBA0E80810F5E740
:10026000121D5CBF51F8043B40F8043BAFF3008023
:10027000D20724BF11F8013B11F801CB48BF11F898
:10028000012B24BF00F8013B00F801CB48BF00F868
:10029000012B70474FF000020429C0F0128010F0CB
:1002A000030C00F01B80CCF1040CBCF1020F18BF52
:1002B00000F8012BA8BF20F8022BA1EB0C0100F0E5
:1002C0000DB85FEAC17C24BF00F8012B00F8012BB8
:1002D00048BF00F8012B70474FF0000200B51346ED
:1002E00094469646203922BFA0E80C50A0E80C5056
:1002F000B1F12001BFF4F7AF090728BFA0E80C5007
:1003000048BF0CC05DF804EB890028BF40F8042BFF
:1003100008BF704748BF20F8022B11F0804F18BF6C
:1003200000F8012B7047704770477047704710B551
:10033000203AC0F00B80B1E81850203AA0E81850DD
:10034000B1E81850A0E81850BFF4F5AF5FEA027C9E
:1003500024BFB1E81850A0E8185044BF18C918C00D
:10036000BDE810405FEA827C24BF51F8043B40F8AE
:10037000043B08BF7047D20728BF31F8023B48BF93
:1003800011F8012B28BF20F8023B48BF00F8012BD1
:100390007047754600F02CF8AE4605006946534696
:1003A00020F00700854618B020B5FFF71BFFBDE819
:1003B00020404FF000064FF000074FF000084FF0CC
:1003C000000B21F00701AC46ACE8C009ACE8C0095D
:1003D000ACE8C009ACE8C0098D46704710B50446CA
:1003E000AFF300802046BDE81040FFF7E6BE0000F6
:1003F00000487047780D002070B50446002520683D
:10040000806800F0010018B32068806820F00100C7
:100410002168886001F0C0FB054613E001F0BCFBD9
:10042000401B02280ED92068806800F0010048B106
:10043000A06A40F01000A062E06A40F00100E062B3
:10044000012070BD2068806800F001000028E5D11F
:100450000020F6E770B505466C6AA06A00F050000F
:10046000E0B9A06A40F40070A0622068806800F4DF
:100470006020B0F5602F0DD1207B58B9A06A20F420
:100480008070A062A06A00F4805018B9A06A40F0A1
:100490000100A062204600F0A5FD03E0206A016B88
:1004A0002846884770BD70B505466C6AA06A40F062
:1004B0004000A062E06A40F00400E062204600F0E4
:1004C00093FD70BD70B50446656A284600F08BFD4B
:1004D00070BD000038B5044600250020009020685B
:1004E000806800F0010078BB2068806840F001005F
:1004F00021688860194800681949B0FBF1F0009044
:1005000002E00098401E009000980028F9D101F008
:1005100043FB054619E001F03FFB401B022814D9BC
:100520002068806800F0010078B9A06A40F01000EF
:10053000A062E06A40F00100E06200BF002084F8A1
:10054000240000BF012038BD05E02068806800F06D
:1005500001000028DFD00020F5E70000EC080020B3
:1005600040420F0000BFFEE710B502460020002306
:1005700004E0D45C0444E0B25C1CE3B28B42F8DBE0
:10058000505410BD00B585B000BF2148806940F0CF
:1005900004001F4988610846806900F0040000904B
:1005A00000BF00BF002289141A4801F0EFFA0022B0
:1005B0002021194801F0EAFA01200290000301907D
:1005C000022003900320049001A9124801F046F98B
:1005D000012002902020019002200390032004902B
:1005E00001A90D4801F03AF9012220210A4801F041
:1005F000CDFA002000F05EF8002000F023F800F0B3
:1006000027F800222021044801F0C0FA05B000BDFF
:100610000010024000080140000C014010B501220A
:100620001103074801F0B2FA4FF47A7000F034FB7E
:1006300000224FF48051024801F0A8FA10BD0000DA
:100640000008014001494870704700005800002030
:1006500010B58EB0302102A8FFF73EFE124903C943
:10066000CDE90001002400200AE010490A5C411D88
:100670000DF801201DF800102144CCB2411CC8B275
:100680003728F2DB8DF837404FF47A733822694609
:10069000074802F0B1FC4FF4FA6000F0FDFAFFF7F2
:1006A000BDFF0EB010BD0000503C000858000020F7
:1006B000740A0020014908707047000058000020AB
:1006C000F0B504460E4615460023002708E02548ED
:1006D000C05C2549C854581CC3B2072B00D100E0A8
:1006E000F5E700BF214800781F49C854581CC3B221
:1006F0001E484078C854581CC3B21D480078C854DE
:10070000581CC3B22078C854581CC3B26078C8546F
:10071000581CC3B20846C654581CC3B22878C854E3
:10072000581CC3B26878C854581CC3B2062004E0F1
:100730000D49095C39448FB2401C0F28F8DB38465C
:1007400000F02EF90B4800780749C854581CC3B272
:1007500008484078C854581CC3B20748037008467C
:10076000F0BD000064080020110C00207808002073
:10077000770800206B0800206D0800202DE9F0416B
:1007800004460D4616461F460023984608E02448B6
:10079000C05C2449C854581CC3B2072B00D100E0E8
:1007A000F5E700BF204800781E49C854581CC3B262
:1007B0001D484078C854581CC3B21C480078C8541F
:1007C000581CC3B20846C454581CC3B20846C5548A
:1007D000581CC3B20846C654581CC3B20846C75476
:1007E000581CC3B2062005E00E49095C41441FFABB
:1007F00081F8401C0E28F7DB404600F0D1F80C4889
:1008000000780849C854581CC3B209484078C854F5
:10081000581CC3B2074803700846BDE8F0810000C9
:1008200064080020AC0C0020BA080020B9080020A1
:100830006B0800206D08002070B504460D460023AB
:10084000002608E02248C05C2249C854581CC3B2A4
:10085000072B00D100E0F5E700BF1F4800781D49D5
:10086000C854581CC3B21C484078C854581CC3B262
:100870001A480078C854581CC3B22078C854581C71
:10088000C3B26078C854581CC3B22878C854581CE6
:10089000C3B26878C854581CC3B2062004E00D499E
:1008A000095C31448EB2401C0E28F8DB304600F063
:1008B00077F80B4800780749C854581CC3B2084859
:1008C0004078C854581CC3B206480370084670BD2F
:1008D00064080020330C00207E0800207D080020E2
:1008E0006B0800206D08002030B504460023002569
:1008F00008E01D48C05C1D49C854581CC3B2072BF2
:1009000000D100E0F5E700BF194800781749C85446
:10091000581CC3B216484078C854581CC3B2154876
:100920000078C854581CC3B20846C454581CC3B2FB
:10093000062004E00D49095C29448DB2401C0B28B7
:10094000F8DB284600F02CF80B4800780749C8541B
:10095000581CC3B208484078C854581CC3B2074852
:100960000370084630BD000064080020670C0020BA
:100970008D0800208C0800206B0800206D080020E6
:1009800010B5014600224B78002003E00C5C1444B3
:10099000E2B2401C9C1CA042F8DB104610BD0000D7
:1009A0000112024A11705070704700006B0800205D
:1009B000002004E00B49095C0B4A1154401C02283A
:1009C000F8DB002005E009490A5C074B811C5A54FA
:1009D000401C0428F7DB0648007803498871084664
:1009E000704700006E080020640800207008002096
:1009F0007408002010B5014600224B78002003E067
:100A00000C5C1444E2B2401C5C1CA042F8DB581C95
:100A1000085C904201D1012010BD0020FCE70000DD
:100A2000F8B505460E46174659A000680090002408
:100A30000A2001F02BF93A4631462846FFF740FEDE
:100A40004FF47A7311225349534802F0D5FA98E0D3
:100A50004FF47A7003F04CF8002878D04F48407A71
:100A6000002850D14D48807A032815D111208DF8E7
:100A7000000001208DF801008DF802006846FFF7A4
:100A80007FFF8DF80300642304226946444802F086
:100A9000B3FA0024002000904048807A012816D143
:100AA00011208DF8000001208DF8010002208DF842
:100AB00002006846FFF764FF8DF8030064230422F8
:100AC0006946374802F098FA002400200090334825
:100AD000807A062838D111208DF8000001208DF889
:100AE000010003208DF802006846FFF749FF8DF8EA
:100AF0000300642304226946294802F07DFA00209D
:100B0000284908703EE02548407A27281AD1234812
:100B1000807A052816D111208DF8000001208DF86B
:100B2000010004208DF802006846FFF729FF8DF8C8
:100B30000300642304226946194802F05DFA00208C
:100B4000184908701EE002E0002016490870641C75
:100B500042F21070844211D305208DF802006846DD
:100B6000FFF70EFF8DF803006423042269460C484A
:100B700002F042FA00200B49087003E0012000F067
:100B80008BF865E700BF0A2001F0A2F8F8BD00006D
:100B900011010000110C0020B80A0020100A0020EA
:100BA000740A00201A0000202DE9F04104460D4689
:100BB00016461F463B46324629462046FFF7DEFDD5
:100BC0004FF47A7310220A490A4802F015FA4FF4DA
:100BD0007A7002F08DFF48B107488079072805D167
:100BE0000548407A10B90120BDE8F0810020FBE7FC
:100BF000AC0C0020B80A0020100A002070B5044692
:100C00000D4629462046FFF717FE4FF47A7310224F
:100C100009490A4802F0F0F94FF47A7002F068FFCF
:100C200040B107488079072804D10548407A08B9BF
:100C3000012070BD0020FCE7330C0020B80A002022
:100C4000100A002010B5024800F024FC10BD00007E
:100C50002009002030B590F840500124AC40C56B0D
:100C60006C60046863604468102C04D10468A2605E
:100C70000468E16003E00468A1600468E26030BDDC
:100C80007047000010B5042001F084FC48200149A1
:100C9000086010BD2000002030B50446002504E0A7
:100CA0004FF47A7000F004F86D1CA542F8D330BD03
:100CB00070B50346002400224FF0E02675690E4E01
:100CC000366803FB06F44FF0E026B16910E04FF000
:100CD000E026B06988420BD0884202D20E1A324414
:100CE00002E06E1A064432440146A24200D300E0FC
:100CF000EDE700BF70BD00002000002000B585B00A
:100D000000BF2248806940F00400204988610846FD
:100D1000806900F00400009000BF00BF00BF0846DB
:100D2000806940F0080088610846806900F008008A
:100D3000009000BF00BF164802904FF44070019031
:100D4000012003900320049001A9124800F086FDC1
:100D5000114802900220019003900320049001A901
:100D60000E4800F07BFD00220121172000F0C0FF9B
:100D7000172000F0ADFF01221146072000F0B8FF58
:100D8000072000F0A5FF05B000BD000000100240E4
:100D900000003110000C014000001110000801405B
:100DA00010B5022000F04CFD10BD000010B50E483B
:100DB000046804F4807048B14FF4807000F040FD86
:100DC0000948006820F480700749086004F4007046
:100DD00048B14FF4007000F033FD0348006820F480
:100DE00000700149086010BD1404014072B600BFD4
:100DF000FEE700002DE9F04105460E4614460C487A
:100E000005704470022004E0811E715C084A115490
:100E1000401CA11C8842F7DB0548FFF7B1FD0746DF
:100E20000349A01C0F54E01CC0B2BDE8F0810000D3
:100E3000AD0B002010B50020FFF756FD4FF47A737C
:100E40000D220C490C4802F0D7F84FF47A7002F0EA
:100E50004FFE60B10A2006E008490A5CA0F10A01D1
:100E6000074B5A54401C1228F6DB012010BD00200D
:100E7000FCE70000670C0020B80A0020100A0020E0
:100E80004C00002038B5024600230020009000BF2F
:100E900092F82400012801D1022038BD012082F8F7
:100EA000240000BF4868072812D21068406B0C79F4
:100EB000641E04EB84051F24AC40A0430D796D1E15
:100EC00005EB85050C68AC4020431468606327E09F
:100ED00048680D2812D21068006B0C79E41F04EBEF
:100EE00084051F24AC40A0430D79ED1F05EB85055B
:100EF0000C68AC4020431468206311E01068C06A9D
:100F00000C790D3C04EB84051F24AC40A0430D7903
:100F10000D3D05EB85050C68AC4020431468E0628C
:100F200008680A2812D31068C0680C780A3C04EBE1
:100F300044050724AC40A0430D780A3D05EB450568
:100F40008C68AC4020431468E0600FE010680069D2
:100F50000C7804EB44050724AC40A0430D7805EB66
:100F600045058C68AC40204314682061086810284F
:100F700002D00868112827D1174C1068A0421ED152
:100F80001068806800F40000F0B91068806840F4D0
:100F900000001468A0600868102815D10F48006888
:100FA0000F4CB0FBF4F000EB80004000009002E03A
:100FB0000098401E009000980028F9D104E0906A43
:100FC00040F020009062012300BF002082F824003E
:100FD00000BF184661E7000000240140EC08002033
:100FE00040420F0070477047704700002DE9F04104
:100FF0000446002700250026A84614B90120BDE8B4
:10100000F081A06810B1207D00B100BFA06A30B9A6
:101010000020E06284F82400204600F089F8204691
:10102000FFF7EAF90746A06A00F01000002873D124
:10103000002F71D1A06A20F4885040F00200A06215
:10104000E16960680843217B40EA41000643A068EB
:10105000B0F5807F02D0A068012802D14FF48070E3
:1010600000E000200543207D012811D1207B38B904
:10107000A069401E4FF4006141EA4030054307E09B
:10108000A06A40F02000A062E06A40F00100E06247
:101090002068406820F4694028432168486020683F
:1010A000806821490840304321688860A068B0F515
:1010B000807F02D0A068012802D14FF4807000E048
:1010C0000020B0F5807F03D1208A401E4FEA0058EF
:1010D0002068C06A20F4700040EA08002168C862F5
:1010E0002068806811490840B04208D10020E062C1
:1010F000A06A20F0020040F00100A06211E0A06AA6
:1011000020F0020040F01000A062E06A40F0010010
:10111000E062012705E0FFE7A06A40F01000A0624E
:10112000012738466BE70000FDF7E1FFFE0E1FFFC9
:1011300010B586B0044600200290039004900590FC
:101140002C492068884253D100BF2B48806940F465
:101150000070294988610846806900F40070019098
:1011600000BF00BF00BF0846806940F004008861EE
:101170000846806900F00400019000BF00BF00BF76
:101180000846806940F0080088610846806900F0E0
:101190000800019000BF00BF0120029003200390CF
:1011A00002A9164800F05AFB03200290039002A9FE
:1011B000134800F053FB13481349086000204860AF
:1011C0000021114881608021C160490001618900CE
:1011D0004161002181614FF40051C16100F028FAA2
:1011E00008B1FFF703FE00BF07482062446200BF5A
:1011F00006B010BD0024014000100240000801406C
:10120000000C014008000240200900202DE9F041B7
:1012100004460D461646002757492068884203D0E9
:1012200056492068884205D15348001D006800F4E3
:10123000702000E0002000287ED100BF94F8240038
:10124000012802D10220BDE8F081012084F82400A9
:1012500000BF2046FFF73EF90746002F6DD1A06A78
:1012600040F60161884340F48070A06243492068E1
:10127000884209D14048001D006800F4702008B978
:10128000012002E0002000E0012078B1A06A20F4F3
:101290008010A0622068406800F4806000B3A06AFB
:1012A00020F4005040F48050A06219E0A06A40F49D
:1012B0008010A06230492068884203D02F492068FE
:1012C000884205D12C48001D006800F4806000E0D1
:1012D000002028B1A06A20F4005040F48050A062A1
:1012E000A06A00F4805020B1E06A20F00600E062BD
:1012F00001E00020E06200BF002084F8240000BF6D
:101300001F48216A88621F48216AC8621E48216AF4
:1013100008636FF00200216808602068806840F46C
:10132000807021688860226802F14C0133462A46A9
:10133000206A00F0B1F901E01AE014E0206880684A
:1013400000F46020B0F5602F06D12068806840F47A
:10135000A000216888600CE02068806840F480105C
:101360002168886005E000BF002084F8240000E0C8
:101370000127384667E700000024014000280140AB
:1013800055040008C5040008A7040008014600220F
:1013900091F82100022808D00420886300BF0020B3
:1013A00081F8200000BF012070470868006820F025
:1013B0000E000B6818600868006820F001000B68D8
:1013C000186091F8403001209840CB6B58600120A4
:1013D00081F8210000BF002081F8200000BF1046E6
:1013E000E2E7000070B50446002594F821000228C9
:1013F00003D00420A063012548E02068006820F0A5
:101400000E00216808602068006820F00100216853
:1014100008601F492068884201D1012026E01C494C
:1014200014312068884201D110201FE0184928316A
:101430002068884201D1801518E015493C312068A8
:10144000884201D1801411E011495031206888424E
:1014500002D14FF4803009E00D49643120688842A0
:1014600002D14FF4801001E04FF080700849083934
:101470004860012084F8210000BF002084F820008B
:1014800000BF606B10B12046616B8847284670BD75
:101490000800024070B50446E06B056820680668E5
:1014A00094F84010042088402840002846D006F0D8
:1014B0000400002842D02068006800F0200028B90D
:1014C0002068006820F004002168086057492068FF
:1014D000884201D1042027E0544914312068884211
:1014E00001D1402020E0514928312068884201D1B3
:1014F000001519E04D493C312068884202D14FF473
:10150000804011E0494950312068884202D14FF4AF
:10151000802009E0454964312068884202D14FF4B7
:10152000800001E04FF08060404908394860E06A7F
:1015300000287AD02046E16A884776E094F8401087
:10154000022088402840A0B306F0020088B320683B
:10155000006800F0200040B92068006820F00A0010
:1015600021680860012084F8210030492068884201
:1015700001D1022028E02D4914312068884201D190
:10158000202021E0294928312068884201D14015D6
:101590001AE026493C312068884202D14FF40050BD
:1015A00012E0224950312068884203D14FF40030C4
:1015B0000AE017E01D4964312068884202D14FF4E7
:1015C000001001E04FF0007018490839486000BF72
:1015D000002084F8200000BFA06A30B32046A16A32
:1015E000884722E094F84010082088402840E0B165
:1015F00006F00800C8B12068006820F00E002168DD
:10160000086094F8401001208840E16B4860012098
:10161000A06384F8210000BF002084F8200000BFF0
:10162000206B10B12046216B884770BD0800024036
:101630000146002209B901207047164B0868C01AFC
:101640001423B0FBF3F08000086412480838C86324
:10165000022081F821000868026843F6F070824396
:10166000D1E901031843CB6818430B6918434B6950
:1016700018438B691843CB6918430243086802601A
:1016800000208863012081F82100002081F82000DB
:1016900000BFD1E7080002402DE9F04104460D46A5
:1016A00016461F464FF0000800BF94F8200001289E
:1016B00002D10220BDE8F081012084F8200000BFA3
:1016C00094F8210001282CD1022084F82100002068
:1016D000A0632068006820F00100216808603B4694
:1016E000324629462046FFF7B5FAE06A30B1206855
:1016F000006840F00E00216808600BE02068006878
:1017000020F00400216808602068006840F00A00AA
:10171000216808602068006840F0010021680860C6
:1017200006E000BF002084F8200000BF4FF0020850
:101730004046BFE710B50446022C69D0B4F5807F5F
:1017400003D0B4F5007F73D130E04FF48071394895
:1017500000F014FA01280BD14102364800F00EFACD
:1017600030B93548007818B90120334908701CE0B9
:101770004FF480712F4800F001FA98B94FF40071CE
:101780002C4800F0FBF901280CD12B4800780128E7
:1017900008D100231A46194601F02CFE00202649E4
:1017A000087002E000202449087041E04FF4007105
:1017B000204800F0E3F901280BD101021D4800F098
:1017C000DDF930B91D48007818B901201B490870AF
:1017D0001DE04FF40071174800F0D0F9A0B94FF4A4
:1017E0008071144800F0CAF901280DD1134800781F
:1017F000012809D100231A461946FF2001F0FAFDFD
:1018000000200E49087002E000200C4908700FE02B
:10181000042300221146104601F0ECFD1420FFF7CE
:101820003BFA00231A461946184601F0E3FD00BFB3
:1018300000BF10BD000C0140DB080020DC080020C8
:1018400010B5044604480068204020B102480460F6
:101850002046FFF76FFF10BD140401402DE9F84743
:101860000346002294466EE14FF0010808FA02F4A4
:10187000D1F8008008EA0400A0427DD1DFF8DCA2A4
:10188000D1F80480A8EB0A09D0453AD014DCB8F1AD
:10189000030F50D009DCB8F1000F31D0B8F1010FBF
:1018A0001CD0B8F1020F49D120E0B8F1110F18D0C7
:1018B000B8F1120F42D11EE0B9F5881F25D006DC21
:1018C000B9F5803F20D0B9F5801F37D11AE0B9F5BE
:1018D000001F18D0B9F5041F30D117E0D1F80CC0A3
:1018E0002DE0D1F80C8008F1040C28E0D1F80C8030
:1018F00008F1080C23E0D1F80C8008F10C0C1EE074
:1019000000BF00BF00BF00BF00BF00BFD1F808800C
:10191000B8F1000F02D14FF0040C0BE0D1F80880B1
:10192000B8F1010F03D14FF0080C1C6102E04FF039
:10193000080C5C6103E04FF0000C00E000BF00BF4A
:10194000FF2801D8984601E003F104084646FF2825
:1019500002D84FEA820803E0A2F108084FEA88089B
:101960004746D6F800804FF00F0909FA07F928EA30
:1019700009080CFA07F900E088E048EA0908C6F807
:101980000080D1F8048008F08058B8F1805F7DD1E4
:1019900000BFDFF8CC81D8F8188048F00108DFF8E4
:1019A000C091C9F81880C846D8F8188008F0010816
:1019B000CDF8008000BF00BF4FEAB9384FEA920966
:1019C00058F829504FEA82784FEA18794FF00F08FB
:1019D00008FA09F825EA0805DFF88881434502D1AD
:1019E0004FF0000816E0DFF88081434502D14FF048
:1019F00001080FE0DFF87481434502D14FF002087F
:101A000008E0DFF86C81434502D14FF0030801E0A4
:101A10004FF004084FEA82794FEA197908FA09F879
:101A200048EA0505DFF84C814FEA920948F8295049
:101A3000D1F8048008F48038B8F5803F0AD1DFF887
:101A40003881D8F8008048EA0008DFF82C91C9F8FE
:101A5000008009E0DFF82081D8F8008028EA00083B
:101A6000DFF81491C9F80080D1F8048008F4003838
:101A7000B8F5003F10D1DFF8008108F10408D8F86C
:101A8000008048EA0008DFF8F09000E05AE009F131
:101A90000409C9F800800DE0DFF8DC8008F10408D3
:101AA000D8F8008028EA0008DFF8CC9009F1040992
:101AB000C9F80080D1F8048008F48018B8F5801FB8
:101AC0000ED1DFF8B48008F10808D8F8008048EAA1
:101AD0000008DFF8A49009F10809C9F800800DE0BA
:101AE000DFF8948008F10808D8F8008028EA000898
:101AF000DFF8849009F10809C9F80080D1F8048062
:101B000008F40018B8F5001F0ED1DFF86C8008F15A
:101B10000C08D8F8008048EA0008DFF85C9009F16A
:101B20000C09C9F800800DE0DFF84C8008F10C08C2
:101B3000D8F8008028EA0008DFF83C9009F10C0989
:101B4000C9F80080521CD1F8008028FA02F8B8F1D8
:101B5000000F7FF489AEBDE8F88700000000111087
:101B60000010024000080140000C0140001001403C
:101B7000001401400800014000040140024693683F
:101B80000B400BB1012000E0002070470AB1016159
:101B900001E00B04036170470148006870470000D2
:101BA000E008002003480068034909780844014917
:101BB00008607047E0080020E808002010B50848D9
:101BC000006840F0100006490860032000F0CEF8DD
:101BD000032000F007F800F02BF8002010BD0000F3
:101BE0000020024070B504460E4800784FF47A7128
:101BF000B1FBF0F00C490968B1FBF0F5284600F0A4
:101C0000DDFC08B1012070BD102C07D20022214656
:101C1000501E00F06DF80548046001E00120F2E775
:101C20000020F0E7E8080020EC080020E40800208D
:101C300008B500BF1348806940F001001149886170
:101C40000846806900F00100009000BF00BF00BF9F
:101C50000846C06940F08050C8610846C06900F07D
:101C60008050009000BF00BF052000F07FF800BF4B
:101C70000549486820F0E06040F00070486000BF0F
:101C800008BD0000001002400000014010B50146F0
:101C90000846002817DB00F01F0301229A400B4B77
:101CA000440943F8242000BF00BF00BFBFF34F8F9B
:101CB00000BF00BF00BF00BF00BF00BFBFF36F8FFA
:101CC00000BF00BF00BF00BF10BD000080E100E00A
:101CD00001460846002809DB00F01F0301229A4054
:101CE00043099B0003F1E023C3F8002100BF7047C4
:101CF0002DE9F05F80460D461646002701F010FFE3
:101D0000074639462A46334601F00700C0F1070A64
:101D1000BAF1040F02D94FF0040A01E0C0F1070A3A
:101D2000D14600F1040ABAF1070F02D24FF0000ABF
:101D300001E0A0F1030AD4464FF0010A0AFA09FAB9
:101D4000AAF1010A0AEA020A0AFA0CFA4FF0010B98
:101D50000BFA0CFBABF1010B0BEA030B4AEA0B0489
:101D60002146404601F0E4FEBDE8F09F00BF00F0D0
:101D70000702064B19684FF6FF031940044B0B434B
:101D800043EA0221014B196000BF70470CED00E0EF
:101D90000000FA05F8B5044600260025207800F07A
:101DA000010000286BD000274348C06900F0805034
:101DB00070B900BF4048C06940F080503E49C861DA
:101DC0000846C06900F08050009000BF00BF0127A6
:101DD0003A48006800F48070B0B93848006840F4B0
:101DE000807036490860FFF7D7FE064606E0FFF729
:101DF000D3FE801B642801D90320F8BD2F4800685A
:101E000000F480700028F2D02B48006A00F440757E
:101E10002DB3A08800F44070A84220D02648006A64
:101E200020F44075012026490860002008602248FF
:101E3000056205F0010090B1FFF7AEFE064608E02E
:101E4000FFF7AAFE801B41F28831884201D90320A6
:101E5000D3E71948006A00F002000028F0D01648C5
:101E6000006A20F440706168084313490862012F3A
:101E700004D10846C06920F08050C86100BF2078B6
:101E800000F00200022807D10B48406820F44040CF
:101E9000A168084308494860207800F01000102825
:101EA00007D10548406820F48000E16808430249F2
:101EB00048600020A1E700000010024000700040D0
:101EC0004004424270B504460D460CB9012070BD75
:101ED0005A48006800F00700A8420ED25748006830
:101EE00020F007002843554908600846006800F0C4
:101EF0000700A84201D00120E9E7207800F00200A5
:101F000002281DD1207800F00400042805D14C4897
:101F1000406840F4E0604A494860207800F00800DA
:101F2000082805D14648406840F46050444948605C
:101F30004348406820F0F000A168084340494860E9
:101F4000207800F0010078B36068012806D13C4891
:101F5000006800F4003090B90120B8E760680228FA
:101F600006D13748006800F0007040B90120AEE7A4
:101F70003348006800F0020008B90120A7E73048A4
:101F8000406820F00300616808432D494860FFF76E
:101F900003FE064609E0FFF7FFFD801B41F2883192
:101FA000884202D9032092E707E02548406800F004
:101FB0000C006168B0EB810FEDD12048006800F0A3
:101FC0000700A8420ED91D48006820F007002843EA
:101FD0001A4908600846006800F00700A84201D0CE
:101FE000012074E7207800F00400042807D1144889
:101FF000406820F4E060E1680843114948602078B7
:1020000000F00800082808D10D48406820F460500E
:10201000216940EAC1000A49486000F03FF80849D8
:102020004968C1F30311074A515CC840064908607A
:1020300006480068FFF7D6FD002048E70020024070
:1020400000100240583C0008EC080020E408002082
:102050000148006870470000EC08002000B5FFF759
:10206000F7FF04494968C1F30221034A515CC840A3
:1020700000BD000000100240683C000800B5FFF7FA
:10208000E7FF04494968C1F3C221034A515CC840D3
:1020900000BD000000100240683C0008F0B585B0AB
:1020A0000FF26C0C9CE8E01001A8A0E8E0101CA561
:1020B0002D68009500210022002300240020194DE6
:1020C000696801F00C05F5B1042D02D0082D19D175
:1020D00001E0154819E001ADC1F38346AC5D01F4A0
:1020E000803555B10F4D6D68C5F340451DF805208D
:1020F0000D4D6543B5FBF2F302E00C4D04FB05F317
:10210000184602E000BF084800BF00BF05B0F0BDA0
:1021100002030405060708090A0B0C0D0E0F101028
:10212000010200000010024000127A0000093D0088
:10213000F8B504460CB90120F8BD207800F0010084
:10214000002878D0F848406800F00C0004280CD033
:10215000F548406800F00C00082811D1F2484068AA
:1021600000F48030B0F5803F0AD1EF48006800F4F9
:10217000003000285FD0606800285CD10120DBE7D8
:1021800000BF6068B0F5803F06D1E748006840F4C2
:102190008030E549086028E0606858B9E248006886
:1021A00020F48030E04908600846006820F4802070
:1021B00008601AE06068B0F5A02F0BD1DA4800681B
:1021C00040F48020D84908600846006840F4803018
:1021D00008600AE0D448006820F48030D2490860E2
:1021E0000846006820F48020086000BF606888B15D
:1021F000FFF7D2FC054606E0FFF7CEFC401B642843
:1022000001D9032098E7C848006800F4003000288E
:10221000F2D010E0FFF7C0FC054606E0FFF7BCFC7B
:10222000401B642801D9032086E7BF48006800F4FA
:1022300000300028F2D1207800F00200022857D1A7
:10224000B948406800F00C0050B1B748406800F051
:102250000C00082818D1B448406800F4803098B9C0
:10226000B148006800F0020020B12069012801D0C7
:10227000012061E7AC48006820F0F800616940EA9D
:10228000C100A949086033E02069E8B10120A749ED
:102290000860FFF781FC054606E0FFF77DFC401B68
:1022A000022801D9032047E79F48006800F0020098
:1022B0000028F2D09C48006820F0F800616940EAEC
:1022C000C1009949086013E0002098490860FFF7B1
:1022D00063FC054606E0FFF75FFC401B022801D9BE
:1022E000032029E79048006800F002000028F2D19E
:1022F000207800F0080008282DD1A069B8B101208D
:102300008B490860FFF748FC054606E0FFF744FCF0
:10231000401B022801D903200EE78348406A00F0E1
:1023200002000028F2D0012001F050F813E0002054
:102330007F490860FFF730FC054606E0FFF72CFCFC
:10234000401B022801D90320F6E67748406A00F0D6
:1023500002000028F2D1207800F00400042873D194
:1023600000277148C06900F0805070B900BF6E4806
:10237000C06940F080506C49C8610846C06900F0EF
:102380008050009000BF00BF01276A48006800F439
:102390008070B0B96748006840F480706549086093
:1023A000FFF7FAFB054606E0FFF7F6FB401B642843
:1023B00001D90320C0E65F48006800F4807000285F
:1023C000F2D000BFE068012806D15748006A40F00B
:1023D00001005549086227E0E06858B95248006A90
:1023E00020F00100504908620846006A20F004000D
:1023F000086219E0E06805280BD14B48006A40F0FC
:102400000400494908620846006A40F00100086279
:102410000AE04548006A20F0010043490862084686
:10242000006A20F00400086200BFE068A0B1FFF776
:10243000B3FB054609E0FFF7AFFB401B41F28831D3
:10244000884202D9032077E622E03748006A00F08C
:1024500002000028EFD012E0FFF79EFB054608E0DF
:10246000FFF79AFB401B41F28831884201D90320D3
:1024700062E62D48006A00F002000028F0D1012F2A
:1024800005D12948C06920F080502749C86100BFA4
:10249000E069C8B32448406800F00C00082860D008
:1024A000E069022848D1002020490866FFF774FB44
:1024B000054606E0FFF770FB401B022801D9032008
:1024C0003AE61948006800F000700028F2D1206A4E
:1024D000B0F5803F07D11448406820F40030A1686F
:1024E000084311494860D4E9080108430E49496886
:1024F00021F4741108430C49486001200B49086617
:10250000FFF74AFB054607E03DE0FFF745FB401BB0
:10251000022801D903200FE60348006800F000708C
:102520000028F2D02FE000000010024000004242DC
:102530008004424200700040002014490866FFF702
:102540002BFB054606E0FFF727FB401B022801D9BD
:102550000320F1E50E48006800F000700028F2D179
:1025600011E0E069012800D1E6E50948466806F473
:102570008031206A814204D106F47011606A814280
:1025800001D00120D8E50020D6E50000000042423D
:1025900000100240042808D14FF0E021096941F001
:1025A00004014FF0E022116107E04FF0E0210969DA
:1025B00021F004014FF0E0221161704770B504462C
:1025C0002546681EB0F1807F01D301200FE0681E10
:1025D0004FF0E02148610F214FF0FF3001F0A8FAE1
:1025E00000204FF0E021886107200861002070BDC5
:1025F0007047704730B502460B4600BF92F83C006A
:10260000012801D1022030BD012082F83C0000BF2A
:10261000022082F83D00106844681068816824F048
:1026200070041868044310684460104D1068A84294
:102630000BD01068B0F1804F07D00D4D1068A84244
:1026400003D00C4D1068A84205D121F080015868D4
:10265000014310688160012082F83D0000BF002026
:1026600082F83C0000BF00BFCDE70000002C014015
:10267000000400400008004010B504460CB90120D9
:1026800010BD94F83D0028B9002084F83C00204695
:1026900000F026F8022084F83D00211D206800F09B
:1026A0001BFF012084F8460000BF84F83E00012192
:1026B0003F200155402001554120015500BF00BF7A
:1026C000012084F842004320015544200155452053
:1026D000015500BF012084F83D000020D0E7000034
:1026E00038B504460D492068884215D100BF0C4812
:1026F000806940F400600A4988610846806900F4F6
:102700000060009000BF00BF002203211920FFF7E6
:10271000EFFA1920FFF7DCFA38BD0000002C014069
:1027200000100240014691F83D00012801D001202F
:102730007047022081F83D000868C06840F0010041
:102740000B68D860124B086898420BD00868B0F14B
:10275000804F07D00F4B0868984203D00E4B086893
:1027600098420CD10868806800F00702062A0CD055
:102770000868006840F001000B68186005E0086810
:10278000006840F001000B6818600020D0E70000EE
:10279000002C014000040040000800402DE9F041F9
:1027A00004460D4600BF94F83C00012802D10220E7
:1027B000BDE8F081012084F83C0000BF022084F8CD
:1027C0003D002068866826F0770626F47F4620685C
:1027D00086602868502833D00CDC202850D004DCD8
:1027E00000284BD0102851D149E0302849D040284A
:1027F0004CD139E060282DD0702807D0B0F5805F2B
:1028000003D0B0F5005F41D10DE040E0D5E90213FF
:102810006A68206800F09AFE2068866846F07706AD
:102820002068866033E0D5E902136A68206800F00A
:102830008DFE2068806840F480402168886026E032
:10284000EA686968206800F095FE5021206800F071
:1028500088FE1CE0EA686968206800F09EFE60213E
:10286000206800F07EFE12E0EA686968206800F0E7
:1028700081FE4021206800F074FE08E000BF00BF28
:1028800000BF2968206800F06CFE00E000BF00BFB8
:10289000012084F83D0000BF002084F83C0000BF08
:1028A00000BF85E7704710B5044620680069C0F393
:1028B0004000D8B12068C068C0F34000B0B16FF0EC
:1028C000020021680861012020772068806900F0FB
:1028D000030018B12046FFF7E5FF05E0204600F0B1
:1028E000ADF8204600F0ABF80020207720680069A2
:1028F000C0F38000D8B12068C068C0F38000B0B1D8
:102900006FF0040021680861022020772068806948
:1029100000F4407018B12046FFF7C4FF05E02046E0
:1029200000F08CF8204600F08AF80020207720681C
:102930000069C0F3C000D8B12068C068C0F3C0000F
:10294000B0B16FF00800216808610420207720688A
:10295000C06900F0030018B12046FFF7A3FF05E0AF
:10296000204600F06BF8204600F069F80020207740
:1029700020680069C0F30010D8B12068C068C0F3B7
:102980000010B0B16FF010002168086108202077B6
:102990002068C06900F4407018B12046FFF782FF3C
:1029A00005E0204600F04AF8204600F048F80020F4
:1029B00020772068006900F0010058B12068C068E5
:1029C00000F0010030B16FF001002168086120467D
:1029D00000F036F820680069C0F3C01058B12068D4
:1029E000C068C0F3C01030B16FF08000216808618A
:1029F0002046FFF7FDFD20680069C0F3801058B144
:102A00002068C068C0F3801030B16FF040002168CA
:102A10000861204600F026F820680069C0F34010E5
:102A200058B12068C068C0F3401030B16FF020008A
:102A3000216808612046FFF7DCFD10BD7047704734
:102A400010B504460448844204D1022203490448D4
:102A5000FEF7DCFB10BD0000640900200A00002026
:102A6000F008002070477047704700002DE9F84FCC
:102A70000446206805682068C668206847694FF0EA
:102A80000009CA4605F00F09B9F1000F0AD105F097
:102A9000200038B106F0200020B1204600F0C6FD2D
:102AA000BDE8F88FB9F1000F71D007F0010018B937
:102AB00006F4907000286AD005F0010030B106F4E9
:102AC000807018B1206C40F00100206405F0040013
:102AD00030B107F0010018B1206C40F00200206412
:102AE00005F0020030B107F0010018B1206C40F091
:102AF0000400206405F0080048B106F0200010B979
:102B000007F0010018B1206C40F008002064206C30
:102B100068B305F0200028B106F0200010B120466F
:102B200000F084FD20684069C0F3801A206C00F03A
:102B3000080010B9BAF1000F22D0204600F04BFD7A
:102B40002068406900F04000B0B12068406920F082
:102B5000400021684861A06B50B15648A16B4863A2
:102B6000A06BFEF73FFC10B1A06B416B88470CE0F7
:102B70002046FFF779FF08E02046FFF775FF04E0E5
:102B80002046FFF771FF0020206489E7FFE7206BF4
:102B9000012878D105F01000002874D006F010004C
:102BA000002870D000BF00200090206800680090CE
:102BB00020684068009000BF00BF2068406900F0B6
:102BC0004000C0B3A06B006840681FFA80F8B8F1FD
:102BD000000F2FD0A08D40452CDDA4F82E80A06BD7
:102BE000806920281FD02068C06820F48070216888
:102BF000C8602068406920F00100216848612068B1
:102C0000406920F0400021684861202084F83E009F
:102C1000002020632068C06820F010002168C86090
:102C2000A06BFEF7B3FBA08DE28D801A81B2204627
:102C3000FFF719FF34E7FFE7A08DE18D401A1FFA77
:102C400080F8E08DE8B1B8F1000F1AD02068C068B4
:102C500020F490702168C8602068406920F001006D
:102C600021684861202084F83E000020206320680D
:102C7000C06820F010002168C86041462046FFF778
:102C8000F2FE0DE7FFE705F0800030B106F08000AE
:102C900018B1204600F0DDFD02E705F0400030B13C
:102CA00006F0400018B1204600F0B0FCF8E600BF86
:102CB000F6E60000C335000810B504460CB9012043
:102CC00010BDA06900B100E000BF94F83D0028B934
:102CD000002084F83C00204600F028F8242084F8E6
:102CE0003D002068C06820F400502168C86020467C
:102CF00000F00EFD2068006920F490402168086112
:102D00002068406920F02A00216848612068C06876
:102D100040F400502168C86000202064202084F81E
:102D20003D0084F83E000020CAE7000010B586B0E0
:102D30000446002002900390049005903B492068CF
:102D4000884237D100BF3A48806940F48040384912
:102D500088610846806900F48040019000BF00BF90
:102D600000BF0846806940F0040088610846806919
:102D700000F00400019000BF00BF4815029002203F
:102D800003900320059002A92A48FEF767FD4FF43F
:102D90008060029000200390049002A92548FEF76D
:102DA0005DFD012202212520FEF7A2FF2520FEF76E
:102DB0008FFF39E020492068884235D100BF1C4888
:102DC000C06940F400301A49C8610846C06900F47F
:102DD0000030019000BF00BF00BF0846806940F08E
:102DE000040088610846806900F00400019000BF7B
:102DF00000BF04200290022003900320059002A946
:102E00000C48FEF72BFD0820029000200390049050
:102E100002A90848FEF722FD002201212620FEF724
:102E200067FF2620FEF754FF06B010BD00380140B2
:102E300000100240000801400044004070B5044604
:102E40000D46164694F83E00202816D105B10EB95D
:102E5000012070BD00BF94F83C00012801D1022080
:102E6000F7E7012084F83C0000BF002020633246D1
:102E70002946204600F0CAFCEBE70220E9E7000003
:102E800010B504465049206888425ED14F4800780A
:102E90004F49504A128888544E480088B8B90846AD
:102EA0000078572803D100204B4908700FE04848AC
:102EB0000078FE2803D101204749087007E0002070
:102EC0004449088064214248FDF706FA10BD414894
:102ED000008801280AD140480078012806D13C48E2
:102EE0003C490988405C801C3C490870394800888E
:102EF000042809D13848007830B93548354909885F
:102F0000405C401C3549087032480088401C3149FB
:102F100008803248007888B130480078401E2F4938
:102F200008700846007848B9294800F015FD64216A
:102F30002748FDF7D1F90020264908802548008858
:102F4000642802DB00202349088025492068884244
:102F500038D1244801782448244A128881542348CF
:102F6000008808280BD12048007A40B11E48007A1A
:102F70001D49C97940EA0120401C1D4908801B48B1
:102F80000088401C194908801948008868B1184811
:102F90000088401E164908800846008828B901208C
:102FA000144908700020114908800F480078EF2864
:102FB00003D10E480088632804DD00200D49087005
:102FC0000A49088000BF81E7003801401000002056
:102FD000AC0900201200002016000020170000207D
:102FE0000044004011000020100A002014000020BE
:102FF000180000201A0000202DE9F84F04460E4664
:10300000174699464FF0000A94F83D0020285AD1FF
:1030100006B117B90120BDE8F88F00BF94F83C0055
:10302000012801D10220F6E7012084F83C0000BF0E
:1030300000202064212084F83D00FEF7ADFD82468B
:10304000A784E784A068B0F5805F04D1206910B937
:103050000025B04602E035464FF0000800BF0020D2
:1030600084F83C0000BF1BE053460022802120462C
:10307000CDF8009000F01DFC08B10320CBE745B966
:10308000B8F80000C0F308002168486008F10208A1
:1030900003E02878216848606D1CE08C401EE084C5
:1030A000E08C0028E0D15346002240212046CDF894
:1030B000009000F0FEFB08B10320ACE7202084F86C
:1030C0003D000020A7E70220A5E7704700BFFEE70C
:1030D00000B585B000BF1048806940F008000E4977
:1030E00088610846806900F00800009000BF00BFBA
:1030F000C02001900120029003900320049001A9B8
:103100000648FEF7ABFB0120054908600549C1F8F8
:10311000980105B000BD000000100240000C014005
:103120009C8121420080214200B585B000BF0E483D
:10313000806940F004000C4988610846806900F00D
:103140000400009000BF00BF084802904FF41060D8
:103150000190012003900320049001A90448FEF788
:103160007DFB05B000BD00000010024000002110F2
:103170000008014000B585B000BF1148806940F0EB
:1031800008000F4988610846806900F00800009037
:1031900000BF00BF00224FF440410A48FEF7F6FC92
:1031A000012002904FF44040019002200390032040
:1031B000049001A90348FEF751FB05B000BD0000D3
:1031C00000100240000C01400EB50020009001905C
:1031D000029018481849086081151748816000213D
:1031E000017301754FF46021C161002012494860EC
:1031F000022111480161FDF7F9FE08B1FDF7F6FD66
:1032000008200090012001900720029069460A489A
:10321000FDF738FE08B1FDF7E9FD09200090022016
:10322000019069460448FDF72DFE08B1FDF7DEFD6B
:103230000EBD000000240140F008002008B500BFCA
:103240000A48406940F00100084948610846406961
:1032500000F00100009000BF00BF012203210B20FD
:10326000FEF746FD0B20FEF733FD08BD00100240BF
:1032700008B500BF1348806940F0200011498861FB
:103280000846806900F02000009000BF00BF00BF2A
:103290000846806940F0040088610846806900F0B3
:1032A0000400009000BF00BF00BF0846806940F0E6
:1032B000080088610846806900F00800009000BF9F
:1032C00000BF08BD0010024000B587B00020039089
:1032D00004900590069001900290154815490860E9
:1032E00041F61F4048600021124881606321C1609F
:1032F00000210161FFF7C0F908B1FDF777FD4FF438
:103300008050039003A90B48FFF748FA08B1FDF776
:103310006DFD00200190029001A90648FFF76AF9AF
:1033200008B1FDF763FD0348FFF7FCF907B000BDE6
:10333000002C01406409002010B50D480D490860BB
:103340004FF41650486000210A488160C160016155
:103350000C21416100218161C161FFF7ADFC08B121
:10336000FDF744FD012204490248FFF767FD10BD47
:1033700000380140740A00201000002010B50D48EC
:103380000D4908604FF46140486000210A4881609F
:10339000C16001610C21416100218161C161FFF7C0
:1033A0008BFC08B1FDF722FD012204490248FFF71A
:1033B00045FD10BD00440040B80A00201100002067
:1033C00000BFFEE700BFFEE77047000008B50849F0
:1033D0000968C9084FF47A72B1FBF2F141430091D8
:1033E00000BF00BF00994A1E00920029F9D108BD14
:1033F000EC0800202DE9F04107460C4615461E4614
:103400000B484772C471057286710A21FDF7ACF84A
:103410004FF47A730E2206490648FFF7EDFD0020AF
:1034200003494872C87108728871BDE8F0810000D4
:103430003E000020740A0020704710B5FEF7B2FB72
:1034400010BD00B593B0282109A8FCF745FF142151
:1034500004A8FCF741FF0020009001900290039027
:103460000120099000040A9000200B9001200D908B
:1034700002201090C10311914FF4E011129109A89C
:10348000FEF756FE08B1FDF7B1FC0F2004900220B4
:103490000590002006904FF480600790002008906F
:1034A000022104A8FEF70EFD08B1FDF79FFC0220E3
:1034B0000090800302906846FEF76CFC08B1FDF7AF
:1034C00095FC13B000BD704710B50248FFF7EBF94B
:1034D00010BD00006409002010B50268184B984226
:1034E00008D0B0F1804F05D0164B984202D0164B51
:1034F000984203D122F070024B681A43104B984255
:1035000008D0B0F1804F05D00E4B984202D00E4B40
:10351000984203D122F44072CB681A4322F0800310
:103520004C6943EA040202608B68C3620B688362E1
:10353000034B984201D10B6903630123436110BD22
:10354000002C0140000400400008004030B50C464B
:10355000816821F47F4142EA0325254329438160A4
:1035600030BD0A46816821F0700142F0070319431B
:103570008160704730B50B461446026A056A25F033
:1035800001050562816921F0F00141EA041122F090
:103590000A021A438161026230BD30B50B461446FF
:1035A000056A25F0100505628169026A21F47041FF
:1035B00041EA043122F0A00242EA03128161026270
:1035C00030BD70B505466C6A0020E085E084204679
:1035D000FFF74AFA70BD0168C96821F4907102686A
:1035E000D1600168496921F0010102685161016BF4
:1035F000012905D10168C96821F010010268D16074
:10360000202180F83E1000210163704710B5044668
:103610002068C06820F040002168C860202084F83D
:103620003D002046FFF751FD002010BDF8B50446CF
:1036300094F83E00222869D1A068B0F5805F0CD1D3
:10364000206950B90025A66A20684068C0F30800C8
:103650003080A06A801CA06215E0A56A0026A068E0
:10366000B0F5805F03D0A06828B9206918B9206838
:103670004068287004E02068406800F07F002870EF
:10368000A06A401CA062E08D401E80B2E085A8BB0D
:103690002068C06820F020002168C8602068C068E9
:1036A00020F480702168C8602068406920F0010023
:1036B00021684861202084F83E00206B01281ED13B
:1036C000002020632068C06820F010002168C860D6
:1036D0002068006800F0100010280AD100BF002008
:1036E000009020680068009020684068009000BF4B
:1036F00000BFA18D2046FFF7B6F903E004E02046A5
:10370000FFF7BEFB0020F8BD0020FCE70220FAE72F
:1037100070B504462168096921F44051E2681143FB
:10372000226811612269A1681143626941EA0205B8
:103730002168C96841F20C62914329432268D16033
:103740002168496921F44071A269114322685161DD
:103750002D4A2168914202D1FEF790FC01E0FEF76C
:103760007DFC00EBC00101EB001162689200B1FB2F
:10377000F2F100EBC00202EB001263689B00B2FBA7
:10378000F3F26423B2FBF3F202EBC20303EB021287
:10379000A1EB8201322202EB01116422B1FBF2F1B2
:1037A00001F0F00100EBC00202EB001263689B0025
:1037B000B2FBF3F26423B2FBF3F201EB021200EB73
:1037C000C00101EB001163689B00B1FBF3F100EB5A
:1037D000C00303EB00136668B600B3FBF6F3642680
:1037E000B3FBF6F303EBC30606EB0313A1EB830174
:1037F000322303EB01116423B1FBF3F101F00F015C
:1038000011442268916070BD0038014010B5034634
:1038100099629A85DA8500201864222083F83E0098
:1038200000BF002083F83C0000BF1868C06840F467
:1038300080701C68E0601868406940F001001C68F6
:1038400060611868C06840F020001C68E0600020DB
:1038500010BD014691F83D00212828D18868B0F5B7
:10386000805F0BD1086948B90A6A1088C0F3080064
:103870000B685860086A801C086205E00B6A581CD7
:10388000086218780B685860C88C401E80B2C884E3
:1038900058B90868C06820F080000B68D8600868D4
:1038A000C06840F040000B68D860002070470220DC
:1038B000FCE72DE9F04104460D4617469846069E62
:1038C00021E0701CF8B12EB1FEF766F9A0EB0800FC
:1038D000B04218D92068C06820F4D0702168C86050
:1038E0002068406920F0010021684861202084F8A8
:1038F0003D0084F83E0000BF002084F83C0000BF7B
:103900000320BDE8F081206800682840A84201D16A
:10391000012000E00020B842D3D00020F1E70000F1
:1039200010B50448FFF7A2F8012203490148FFF748
:1039300085FA10BD740A00201000002010B504485C
:10394000FFF794F8012203490148FFF777FA10BD09
:10395000B80A0020110000202DE9FE43044620464D
:10396000FDF748F82578FE2D73D1A678102E12D0D9
:1039700004DC012E07D0022E68D108E0112E25D0DC
:10398000142E63D136E001204F4908705FE000201B
:103990004D4908705BE0FDF74DFA08224B491020B5
:1039A000FDF728FA07466420FDF776F94FF47A739D
:1039B0003A4647494748FFF71FFB64214448FCF754
:1039C00069FC424800210160416040E00020029013
:1039D0000190002720798DF809006779A0798DF88A
:1039E0000400E0798DF8050001AA394602A8FDF728
:1039F00017F82CE0002002900190009020798DF8BB
:103A00000500A0798DF80100694601A8FDF7F6F8D8
:103A10000746012F0CD100200290012202A9142098
:103A2000FDF7E8F9804664212948FCF733FC0CE0F7
:103A300001200290012202A91420FDF7DBF9804643
:103A400064212348FCF726FC00BF00BF00BF39E01B
:103A5000FFE7572D36D1E07881282BD0872813D067
:103A6000882802D089282CD109E032221A491B4823
:103A7000FCF7CBFB64211848FCF70CFC21E0642127
:103A80001548FCF707FC1CE0E079012811D1012260
:103A900020211348FEF77AF80320FCF70BFE0220E2
:103AA000FCF7D0FDFCF7D4FD002220210C48FEF7E6
:103AB0006DF806E0A0790B490870E0790A490870B2
:103AC00000BF00BFBDE8FE83000000204C000020C6
:103AD000AD0B0020740A0020AC0900205800002023
:103AE000000C01408B0000208A00002000BFFEE790
:103AF00070B5054600240DE008480078012804D17F
:103B0000002006490870204670BD6420FDF7D0F8FB
:103B1000601C84B2AC42EFDB0020F5E71A00002005
:103B200002480068C0F30220704700000CED00E07E
:103B300010B5002804DB0A07130E054A135406E0EB
:103B40000A07140E034A00F00F031B1FD45410BDC4
:103B500000E400E018ED00E000BF70471FB5FEF77D
:103B60002DF8FFF76EFCFFF783FBFFF767FBFFF70E
:103B70002BFBFFF7E1FBFFF701FCFFF7A5FBFDF7D0
:103B800081F8FFF7F7FAFFF7CFFAFDF7B7F8FFF77D
:103B90009FFA4FF47A70FDF77FF8FCF7F3FCFCF71F
:103BA00007FF0023012202211046FCF7FDFF4FF41E
:103BB000FA60FDF771F821A103C9CDE902010020E7
:103BC0000090019039E04FF480711E48FDF7D6FF58
:103BD000B0B93220FDF760F805E00123002211465C
:103BE0001046FFF707FC4FF480711648FDF7C6FF3B
:103BF0000028F2D000231A4619461846FFF7FAFBB0
:103C00004FF400610F48FDF7B9FFB0B93220FDF75E
:103C100043F805E00223002211461046FFF7EAFBB5
:103C20004FF400610748FDF7A9FF0028F2D00023F8
:103C30001A4619461846FFF7DDFBC4E7AB0102033D
:103C4000040000000008014057AB0008000000001D
:103C500057AB000932000000000000000000000027
:103C60000102030406070809000000000102030422
:103C7000903C000800000020F00800002801000827
:103C800018400008F0080020E80A0000840100083D
:103C90002100091A981904082184CDAB2009617309
:103CA0006431333537391357AB740407021CFF0DE9
:103CB0000A106C0505010ED13280242580083603D8
:103CC000861A29E11201021F0D194E1B0208051266
:103CD000014A035C1A023F61DA0C5F295E417240BF
:103CE000722072106939720469B449AC29087219DA
:103CF0007235721EDA1F527221722272237224727E
:103D00002572267227722D722E7289722A722B7278
:103D100014DA1ABA72157217721C7218720C7212B7
:103D20007213722F72307231723972047216720706
:103D30007209720A720B720D720E720F7233723444
:103D40007232722872E17264721D721B72067219ED
:103D5000720572117210723672377238728772E59C
:103D600072E072E2722C72E672E47249724C725026
:103D7000724A724D72527251724B724E724F72533E
:103D8000725F725C725972547260725D725A7262C2
:103D900072557261725E725B72637256725772858F
:103DA00072587229723A723B723C723D723E723F97
:103DB0007240724172427243724472457246724757
:103DC000524812025A35085A1E085A1F085A20082B
:103DD0005A21085A22085A23085A24085A25085AF0
:103DE00026085A27085A2D085A2E085A14085A1A13
:103DF000085A08085A15085A17085A1C085A180869
:103E00005A0C085A12085A13085A2F085A30085ADE
:103E100031085A04085A16085A07085A09085A0A53
:103E2000085A0B085A0D085A0E085A0F085A330838
:103E30005A34085A1D085A1B085A06085A19085AB3
:103E400005085A11085A10085A36085A37085238C5
:103E50001357AB4809030201828AFF0D0A0B7B81CD
:103E6000890B7B848C0B115A080B240402027A0DF7
:103E70000D22017A0C0D19F27A0F0D219A040D9A78
:103E8000012729EC9927AA020D9B08130D111A0B83
:103E90000D018013D7021420570414206F052B2026
:103EA000670819041A77041A87041A3F1C1A97081E
:103EB0001A9F041A8F042AAF0C293012011B20A765
:103EC000081AAF041A4F0C1A07041A0F041A170421
:103ED0001A1F041A27041A2F041A37041A3F041A47
:103EE00047041A67602A373419081A5F101AB7088E
:103EF0002ABF0C19541A1F081A97041A87041A2F7C
:103F0000041AC7141A37081A3F041A47041AEF1084
:103F10001A4F082A573019041AA7041A9F041AF7CF
:103F2000181AFF041AB7041ACF041A27141AD7084C
:103F30002AE7B0296019081A7F082ADFD419081A5D
:103F4000CF781ADF041AD7041A7F142AA740211B3E
:103F500020EF101A879C1A77041AFF0C2A8FD419A5
:103F60000C1A0F041A17042AB7D819081A27041AAA
:103F70002F041A97041A8F041ABF182AC74C190461
:103F80001A97041AF7041A9F042AAF1419201A87E3
:103F9000081A6F081AA7081A67081A07841A17045C
:103FA0001A0F041A4F7CA11CEF01FF011501020832
:103FB0003113083213080C13070D130330130333A6
:103FC00013031D13031F1304121307131307011305
:103FD0000329130302130403130305130306130633
:103FE0000413083413033513033613030A1303169B
:103FF00013033C1307071403080E13056813037318
:104000001303344A041F12151307181324199204BA
:08401000321042011324F400F8
:04000005080000ED02
:00000001FF
