:020000040800F2
:10000000700B0020890100086F280008D92500081E
:100010006D280008FD040008BD2D00080000000048
:10002000000000000000000000000000732800082D
:10003000270A000800000000712800087528000841
:10004000A3010008A3010008A3010008A301000800
:10005000A3010008A3010008A3010008A3010008F0
:10006000A3010008A3010008A3010008F10900088A
:10007000A3010008A3010008A3010008A3010008D0
:10008000A3010008A3010008A3010008A3010008C0
:10009000A3010008A3010008A3010008050B000844
:1000A000A3010008F5280008A3010008A301000827
:1000B000A3010008A3010008A3010008A301000890
:1000C000A3010008A3010008A3010008A301000880
:1000D000A3010008212C0008412C0008A3010008FE
:1000E000A3010008A3010008A301000800F002F822
:1000F00000F03AF80AA090E8000C82448344AAF188
:100100000107DA4501D100F02FF8AFF2090EBAE885
:100110000F0013F0010F18BFFB1A43F0010318473B
:100120006C2D00008C2D0000103A24BF78C878C1D7
:10013000FAD8520724BF30C830C144BF04680C60ED
:10014000704700000023002400250026103A28BF35
:1001500078C1FBD8520728BF30C148BF0B60704739
:100160001FB51FBD10B510BD00F0F3F81146FFF725
:10017000F7FF02F04EFE00F011F903B4FFF7F2FFB3
:1001800003BC02F045FE00000948804709480047CB
:10019000FEE7FEE7FEE7FEE7FEE7FEE7FEE7FEE737
:1001A000FEE7FEE704480549054A064B7047000094
:1001B000F1280008ED00000870050020700B0020F9
:1001C00070070020700700207047032A40F230803B
:1001D00010F0030C00F0158011F8013BBCF1020F88
:1001E000624498BF11F801CB00F8013B38BF11F809
:1001F000013BA2F1040298BF00F801CB38BF00F820
:10020000013B11F0030300F07280083AC0F008804F
:1002100051F8043B083A51F804CBA0E80810F5E780
:10022000121D5CBF51F8043B40F8043BAFF3008063
:10023000D20724BF11F8013B11F801CB48BF11F8D8
:10024000012B24BF00F8013B00F801CB48BF00F8A8
:10025000012B70474FF000020429C0F0128010F00B
:10026000030C00F01B80CCF1040CBCF1020F18BF92
:1002700000F8012BA8BF20F8022BA1EB0C0100F025
:100280000DB85FEAC17C24BF00F8012B00F8012BF8
:1002900048BF00F8012B70474FF0000200B513462D
:1002A00094469646203922BFA0E80C50A0E80C5096
:1002B000B1F12001BFF4F7AF090728BFA0E80C5047
:1002C00048BF0CC05DF804EB890028BF40F8042B40
:1002D00008BF704748BF20F8022B11F0804F18BFAD
:1002E00000F8012B7047704770477047704710B592
:1002F000203AC0F00B80B1E81850203AA0E818501E
:10030000B1E81850A0E81850BFF4F5AF5FEA027CDE
:1003100024BFB1E81850A0E8185044BF18C918C04D
:10032000BDE810405FEA827C24BF51F8043B40F8EE
:10033000043B08BF7047D20728BF31F8023B48BFD3
:1003400011F8012B28BF20F8023B48BF00F8012B11
:100350007047754600F02CF8AE46050069465346D6
:1003600020F00700854618B020B5FFF71BFFBDE859
:1003700020404FF000064FF000074FF000084FF00C
:10038000000B21F00701AC46ACE8C009ACE8C0099D
:10039000ACE8C009ACE8C0098D46704710B504460A
:1003A000AFF300802046BDE81040FFF7E6BE000036
:1003B000004870471005002070B504460068816849
:1003C000C943C90717D1816821F00101816001F09B
:1003D000D5F805460AE000BF01F0D0F8401B02281E
:1003E00004D920688068C043C00706D020688068B0
:1003F000C043C007F0D0002070BDA06A40F01000DC
:10040000A062E06A40F00100E062012070BD10B51A
:100410000146406A826A12F0500F05D0006A026BF2
:10042000BDE8104008461047816A41F400718162BE
:1004300001688968C1F3424107290CD1017B51B998
:10044000816A21F480718162816AC90403D4816A5E
:1004500041F00101816200F031FC10BD10B5406A2D
:10046000816A41F040018162C16A41F00401C162C8
:1004700000F026FC10BD10B5406A00F020FC10BD55
:10048000F8B500260446009600688168C943C9078C
:100490002DD0816841F0010181601648164900683D
:1004A000B0FBF1F000E0401E00900028FBD101F00D
:1004B00065F8054616E000BF01F060F8401B022811
:1004C00010D920688068C043C0070BD0A06A40F0F4
:1004D0001000A062E06A40F00100E06284F824604D
:1004E0000120F8BD20688068C043C007E4D1002027
:1004F000F8BD0000E800002040420F00FEE70000C9
:100500002DE9F0411E4886B0816941F00401816106
:1005100080691C4F00F004004FF4805504900022C5
:100520002946384601F025F8DFF85C8000222021BA
:10053000404601F01EF80124CDE9005402250326AF
:10054000CDE902566946384600F016FF20208DE8B6
:1005500071006946404600F00FFF0122202140460D
:1005600001F007F8094800210170417000F02CF8F3
:1005700000222021404600F0FCFF06B0BDE8F081DB
:100580000010024000080140000C01403100002032
:1005900070B50122084D14032146284600F0E9FFFA
:1005A0004FF47A7000F04AFA21462846BDE87040C0
:1005B000002200F0DEBF0000000801400149487041
:1005C000704700003100002030B58FB0302102A804
:1005D000FFF762FE1149124B6A46D1E90201CDE9EB
:1005E00000010021084615181C5C6C71145C401C4D
:1005F0002144C0B2C9B23728F5D38DF837104FF473
:100600007A7338226946074801F08CFF4FF4FA608C
:1006100000F014FAFFF7BCFF0FB030BD642E0008E5
:10062000310000207002002001490870704700006E
:1006300031000020F0B506460023184D184C18462E
:10064000EF5CE7545B1CDBB2072BF9D1134B363B55
:100650001D78E571114D5B78523D2372AB78637262
:100660003378A3727378E3722173117861735178D0
:10067000A1730F230621625C491C104480B20F292C
:10068000F9DB00F0BBF80548801F0178E1544078A1
:100690005B1CE0545B1C2B700148F0BDD3000020B4
:1006A000BB030020F0B506460025174F174C28461F
:1006B00017F805C004F805C06D1CEDB2072DF7D181
:1006C000114D163D2F78E7716D7825720E4D523D14
:1006D000AF7C6772A672E172227363730E230621E8
:1006E000625C491C104480B20E29F9DB00F086F8E8
:1006F0000548801F0178E15440785B1CE0545B1C86
:100700002B700248F0BD0000D300002045040020FB
:1007100070B503460022184D184C1046AE5CA65426
:10072000521CD2B2072AF9D1134A323A1578E57130
:10073000114D5278523D22722A7962721A78A27251
:100740005A78E2720A782273497861730E2306217F
:10075000625C491C104480B20E29F9DB00F04EF8AF
:100760000548801F0178E15440785B1CE0545B1C15
:100770002B70024870BD0000D3000020CC03002085
:1007800030B502460021144C144B0846655C5D549C
:10079000491CC9B20729F9D10F490F4D2A39523DD9
:1007A0000C78DC7149781972297A59720B249A7283
:1007B00006215A5C491C104480B20B29F9DB00F079
:1007C0001DF80548801F017819554078641C18559C
:1007D000641C2C70014830BDD300002000040020B0
:1007E00010B5034600205A780146921C03E05C5C79
:1007F000491C2044C0B29142F9DB10BD0249020AF3
:100800000A70487070470000CD0000200C4A10B5F7
:10081000002002F13801135C0B54401C0228FADB63
:10082000074A002034320C18135C401CA3700428C3
:10083000F9DB03481A38407888710148383010BD18
:100840009B00002030B5002341781A464C1C03E081
:10085000855C521C2B44DBB2A242F9DB0844407891
:10086000984201D1012030BD002030BD2DE9F84370
:10087000074639A01546006800900E4600240A205D
:1008800000F0DEFE2A4631463846FFF7D3FE4FF42D
:100890007A752B4611223149314801F043FEA846B2
:1008A000304D314F0026404602F08AFA78B3687A1C
:1008B00018B1C0B2272833D044E0A87A03280FD15A
:1008C00001208DF802006846FFF78AFF8DF80300CB
:1008D000642304226946254801F024FE0024009682
:1008E000A87A01280FD102208DF802006846FFF790
:1008F00077FF8DF803006423042269461B4801F04A
:1009000011FE00240096A87A062807D03E7042F215
:100910001070641C84421AD3052005E0032003E014
:10092000A87A05280ED104208DF802006846FFF74A
:1009300057FF8DF803006423042269460B4801F039
:10094000F1FD3E700A2000F08CFEBDE8F883012026
:1009500000F074F8A7E7000011010000BB030020BD
:10096000B40200200C0200200800002070020020C9
:1009700010B5FFF797FE4FF47A7423461022094909
:10098000094801F0CFFD204602F01AFA28B10748C5
:100990008179072901D1407A08B1002010BD0120DA
:1009A00010BD000045040020B40200200C0200200D
:1009B00010B5FFF7ADFE4FF47A74234610220949B3
:1009C000094801F0AFFD204602F0FAF928B10748C6
:1009D0008179072901D1407A08B1002010BD01209A
:1009E00010BD0000CC030020B40200200C02002047
:1009F000014800F043BB00001C01002030B590F816
:100A000040500124AC40C56B6C600468636043686F
:100A1000102B036803D099600068C26030BD9A60F3
:100A20000068C16030BD704710B5042001F04AF97C
:100A300001494820086010BD1400002070B505462B
:100A400000244FF47A7603E0304600F005F8641C89
:100A5000AC42F9D370BD000030B54FF0E024002265
:100A60006569094909684843A169A3698B42FCD0BB
:100A700002D2A1EB030102E0A5EB010119440A44F3
:100A800019468242F1D330BD14000020194810B538
:100A9000816986B041F004018161816901F004013E
:100AA0000491816941F0080181618069032400F0AB
:100AB00008000490104801904FF44070009001200D
:100AC000CDE9020469460D4800F056FC0020019073
:100AD0000220CDE9020400906946094800F04CFC70
:100AE00000220121172000F0C9FD172000F0B9FDF8
:100AF00006B010BD0010024000003110000C014093
:100B00000008014070B50B4C2568E80506D5A01516
:100B100000F026FC206820F480702060A80507D52E
:100B20004FF4007000F01CFC206820F4007020607E
:100B300070BD00001404014072B6FEE7704700006B
:100B400070B50B4D144628706A700220921C04E0A8
:100B50000B1813F8023C2B54401C9042F8DB04485D
:100B6000FFF73EFE2919E41C8870E0B270BD00005A
:100B70004603002010B50020FFF702FE4FF47A7400
:100B800023460D220A490B4801F0CCFC204602F016
:100B900017F900280AD00849084A0A2014180B5CE3
:100BA000401C04F80A3C1228F8DB012010BD0000AC
:100BB00000040020B40200200C0200201A000020D3
:100BC000F8B50024009490F824202546012A12D07C
:100BD000012280F824204A681F23072A0DD20668C4
:100BE000776B521E02EB820293409F430B68934047
:100BF0001F43776319E00220F8BD06680D2A0AD268
:100C0000376BD21F02EB820293409F430B689340E5
:100C10001F43376309E0F76A0D3A02EB8202934003
:100C20009F430B6893401F43F7620A6807230668D7
:100C30000A2A0AD3F7680A3A02EB420293409F431A
:100C40008B6893401F43F76008E0376902EB42026C
:100C500093409F438B6893401F4337610A68102A73
:100C600001D0112A20D1124B02689A4217D1936801
:100C70001B0219D4936843F4000393600968102998
:100C800012D10C490C4A0968B1FBF2F101EB810168
:100C9000490000E0491E00910029FBD104E0816A6F
:100CA00041F020018162012480F824502046F8BDE3
:100CB00000240140E800002040420F0070477047C8
:100CC000704700002DE9F0414FF0000704003D4659
:100CD0007ED0A06A002628B9E66284F82460204607
:100CE00000F07EF82046FFF767FBA16AC90600D432
:100CF00020B1A06A40F01000A06269E0A16A21F46E
:100D0000885141F00201A1626268E169237B0A43D4
:100D100047EA43010A43A1684FF48077B94209D0FA
:100D2000012907D05FF0000194F814C0BCF1010F55
:100D300002D00AE03946F7E7F3B1A36A43F0200393
:100D4000A362E36A43F00103E3622368D3F804C0BB
:100D50002CF4694C4CEA010CC3F804C021688B6880
:100D6000DFF870C003EA0C0313438B60A168B9423B
:100D70000BD0012909D00CE0DFF85CC0A3690CEBB3
:100D800043330B4343F40061DFE7218A0D05A5F5EA
:100D900080152168CB6A23F470032B43CB62216852
:100DA00089680E4B1940914208D1E662A16A21F090
:100DB000020141F00101A162BDE8F081A06A20F0CA
:100DC000020040F01000A062E06A40F00100E06222
:100DD0000120F1E7FDF7E1FF00E0FFFFFE0E1FFF3E
:100DE00070B586B0002506460095019502950395DD
:100DF0000068214988423CD12049886940F400704C
:100E00008861886900F400700490886940F00400EB
:100E10008861886900F004000490886940F0080047
:100E200088618869032400F0080004900120CDE95E
:100E300000046946124800F09FFA00946946114880
:100E4000019400F099FA114C0F48C4E90005802084
:100E5000C4E90250400020618000C4E90505C000DB
:100E6000E061204600F0B4F908B1FFF765FE346296
:100E7000666206B070BD0000002401400010024010
:100E800000080140000C0140080002401C01002045
:100E90002DE9F047894604463B4900683B4F0E1D4B
:100EA0009046884201D0B84207D1306810F4702FC4
:100EB00003D001252846BDE8F08794F824000128D6
:100EC0000CD0012084F824002046FFF7D9FA050051
:100ED0004FF0000004D084F82400EBE70220EAE79A
:100EE000A16A40F60162914341F48071A1622168D8
:100EF000B94218D1326812F4702F14D0A16A41F4AB
:100F00008011A1623168490505D5A16A21F400511B
:100F100041F48051A162A16AC9040AD5E16A21F0B5
:100F20000601E16206E0A26A22F48012A262496828
:100F3000E9E7E06284F82400216A15488862216AA2
:100F40001448C862216A1448086321686FF00200DF
:100F500008602068816841F480718160216843469F
:100F60004A464C31206A00F061F920688168C1F37B
:100F700042410729816803D041F48011816099E7DB
:100F800041F4A001FAE700000024014000280140DC
:100F90000F040008770400085D04000810B590F8FD
:100FA00021100022022905D00421816380F820202D
:100FB000012010BD01680B6823F00E030B6001686F
:100FC0000B6823F001030B6090F84030C46B0121E3
:100FD00001FA03F3636080F8211080F820201046A6
:100FE00010BD000010B590F821100024022903D094
:100FF0000421816301243DE001680A6822F00E02A9
:101000000A6001680A6822F001020A601A4A01684F
:10101000914201D1012121E0174A1432914201D1BC
:1010200010211BE0144A2832914201D1891515E0A4
:10103000114A3C32914201D189140FE00E4A5032DC
:10104000914202D14FF4803108E00B4A6432914260
:1010500002D14FF4801101E04FF08071064A083A46
:101060005160012180F82110002180F82010416B8F
:1010700001B18847204610BD080002402DE9F05F0D
:10108000C16B0C6801680B68D0F840C0042202FAFA
:101090000CF2494DDFF824A1494E4A4FDFF828B140
:1010A000DFF828E122422CD05A072AD50A68920696
:1010B00003D40A6822F004020A600168A94201D13F
:1010C000042219E0514501D1402215E0B14202D17C
:1010D0004FF4806210E0B94202D14FF480420BE03D
:1010E000594502D14FF4802206E0714502D14FF4F8
:1010F000800201E04FF080622F4908394A60C16ADE
:101100003BE04FF0020808FA0CF818EA040F4FF021
:1011100000094FF0010235D05FEA837832D50B68C1
:101120009B0605D40B6823F00A030B6080F821208E
:101130000168A94201D1022219E0514501D12022C2
:1011400015E0B14202D14FF4007210E0B94202D171
:101150004FF400520BE0594502D14FF4003206E043
:10116000714502D14FF4001201E04FF000721249B4
:1011700008394A6080F82090816A00291AD0BDE8B9
:10118000F05F0847082505FA0CF5254212D01B0729
:1011900010D50B6823F00E030B6090F84010C36B62
:1011A00002FA01F15960826380F8212080F82090D2
:1011B000016BE2E7BDE8F09F080002401C0002401E
:1011C0003000024044000240580002406C000240DF
:1011D00030B528B308C8134914221944B1FBF2F101
:1011E0008900C16310498163022141771A6843F67F
:1011F000F0718A43D0E900142143D0E902452C4321
:1012000021430469214344692143846921431143F3
:10121000196000214163012242770177084630BD01
:10122000012030BDF8FFFDBF0000024070B504464C
:1012300090F82000002501280CD0012084F820001F
:1012400094F821600020012E06D084F820000225A9
:10125000284670BD022070BD022684F82160A0637C
:101260002068066826F0010606602046FFF7C6FBE8
:10127000E06A00282068016802D041F00E0106E013
:1012800021F0040101602068016841F00A01016059
:101290002068016841F001010160D9E72DE9F047BC
:1012A0004FF48075002601272B4A2C4C4FF4007810
:1012B000A8420AD0414688421DD1C14690461046F8
:1012C00000F04AF9012827D02DE0A9462946154605
:1012D000104600F041F9012806D14146284600F0A9
:1012E0003BF908B9207828B14946284600F034F97E
:1012F00018B10FE02770BDE8F0874146284600F09E
:101300002BF9012806D12078012803D18103284632
:1013100000F027F92670EEE72946404600F01CF958
:1013200008B9607830B149464746404600F014F9A4
:1013300010B10EE06770DEE72946384600F00CF980
:10134000012806D16078012803D1C103384600F096
:1013500008F96670CFE70000000C0140DA000020B9
:10136000044910B50A68024202D00860FFF796FFF0
:1013700010BD0000140401402DE9F84FDFF8B891CA
:10138000002409F1040A0AF1040B23460F270BF18C
:10139000040EC9E00125A5402A40AA427DD1674E2E
:1013A000D1F804C0ACEB0608B44532D014DCBCF173
:1013B000030F3AD009DCBCF1000F2AD0BCF1010FB9
:1013C0001CD0BCF1020F31D11DE0BCF1110F17D0C0
:1013D000BCF1120F2AD119E0B8F5881F19D006DC2C
:1013E000B8F5803F15D0B8F5801F1FD111E0B8F5D2
:1013F000001F0ED0B8F5041F18D10AE0CB6815E025
:10140000CB681B1D12E0CB6808330FE0CB680C33B0
:101410000CE08B682BB1012B4FF0080303D0456122
:1014200004E0042302E0056100E00023FF2A01D864
:10143000064601E000F104064FEA840501D9A5F152
:101440002005D6F8008007FA05FC28EA0C0803FA04
:1014500005F548EA0508C6F800804D68ED0062D53C
:10146000374DAE6946F00106AE61AD6924F0030662
:1014700005F001050095334D06EB050CDCF808502E
:10148000A607360F07FA06F825EA0805DFF8B88040
:10149000404503D14FF0000817E044E0DFF8AC808E
:1014A000404502D14FF001080FE0DFF8A48040452D
:1014B00002D14FF0020808E0DFF89880404502D1E1
:1014C0004FF0030801E04FF0040808FA06F848EA74
:1014D0000508CCF808804D68D9F80060ED034D464A
:1014E00001D5164300E096432E604D68DAF800609F
:1014F000AD03554601D5164300E096432E604D6876
:10150000DBF80060ED025D4601D5164300E096432E
:101510002E604D68DEF80060AD02754601D51643B9
:1015200000E096432E60641C0D682A46E5407FF477
:1015300031AFBDE8F88F0000000401400000111039
:10154000001002400000014000080140000C014072
:1015500000100140001401408068084000D00120C4
:101560007047C26821EA02030A4043EA024101616E
:1015700070470AB1016170470904FBE701488068C0
:1015800070470000DC0000200248816802781144A6
:1015900081607047DC000020074810B5016841F009
:1015A00010010160032000F089F8032000F006F824
:1015B00000F024F8002010BD0020024070B50D4D51
:1015C00004464FF47A712878B1FBF0F00A490968B3
:1015D000B1FBF0F000F082FB48B9102C07D20022DA
:1015E0002146501E00F04AF800206C6070BD0120BA
:1015F00070BD0000DC000020E80000200E4808B5A7
:10160000816941F001018161816901F0010100916D
:10161000C16941F08051C161C06900F08050009003
:10162000052000F04BF80548416821F0E06141F0E9
:101630000071416008BD0000001002400000014040
:1016400000280DDB00F01F020121914040098000BD
:1016500000F1E020C0F88011BFF34F8FBFF36F8F10
:101660007047002809DB00F01F020121914040096A
:10167000800000F1E020C0F800117047F0B40E4B7C
:101680001B680C46C3F30223C3F10705042D00D9E0
:101690000425191D072901D2002300E0DB1E0126C5
:1016A00006FA05F1491E214099409E40761E1640DB
:1016B0003143F0BC01F09CBB0CED00E0064900F0AA
:1016C000070208684FF6FF03184040EA0220034A69
:1016D00010430860704700000CED00E00000FA05C0
:1016E0002DE9F84305460078354CC00754D0E06931
:1016F0000026C00008D4E06940F08050E061E06955
:10170000012600F0805000902E480168C90512D4CF
:101710000168804641F480710160FFF72FFF0746A2
:1017200005E000BFFFF72AFFC01B642823D8D8F8C4
:101730000000C005F6D5206A10F4407021D0A988B9
:1017400001F4407181421CD0206A1F49012220F41B
:1017500040700A6000220A602062C00711D0FFF7C3
:101760000DFF074641F2883808E000BFFFF706FF8B
:10177000C11B414502D90320BDE8F883206A8007D8
:10178000F4D5206A696820F44070084320621EB1D5
:10179000E06920F08050E0612878800705D5606816
:1017A000A96820F44040084360602878C00605D549
:1017B0006068E96820F48000084360600020DBE78F
:1017C0000010024000700040400442422DE9F04702
:1017D0000F46050061D0434E306800F00700B84264
:1017E00009D2306820F0070038433060306800F0DC
:1017F0000700B84251D128683B4C810712D54007F9
:1018000003D5606840F4E06060602878000703D585
:10181000606840F4605060606068A96820F0F00083
:10182000084360602878C00728D06868012810D075
:101830002168022810D0890700292EDA616821F07A
:10184000030101436160FFF799FE804641F2883948
:101850000DE021688903EFE78901EDE7FFF78EFED0
:10186000A0EB0801494502D90320BDE8F087606874
:10187000696800F00C00B0EB810FEFD1306800F028
:101880000700B8420BD9306820F0070038433060B9
:10189000306800F00700B84201D00120E5E7287861
:1018A000400705D56068E96820F4E060084360609F
:1018B0002878000706D56068296920F4605040EA5E
:1018C000C100606000F038F86168084AC1F3031194
:1018D000515CC8400649086006480068FFF76EFE84
:1018E0000020C2E70020024000100240742E0008D1
:1018F000E8000020E000002004480549006849682D
:10190000044AC1F30221515CC8407047E80000203E
:1019100000100240842E0008044805490068496808
:10192000044AC1F3C221515CC8407047E80000205E
:1019300000100240842E000812A185B00FC98DE866
:101940000F0014A0144A006804905168134801F075
:101950000C03042B10D0082B0ED1C1F38343C90311
:101960001DF803000AD5516804AAC1F34041515C37
:101970000A4A5043B0FBF1F005B0704708494843AC
:10198000FAE7000002030405060708090A0B0C0D1C
:101990000E0F1010010200000010024000127A0029
:1019A00000093D002DE9F84F040070D02078C04DAB
:1019B000C00749D06868C0F38100012807D0686873
:1019C000C0F38100022809D16868C00306D52868E1
:1019D000800339D560680028E7D035E06068B0F54D
:1019E000803F0BD010B1B0F5A02F11D0286820F4A3
:1019F00080302860286820F4802002E0286840F4C5
:101A000080302860606890B1FFF7B8FD06460AE0B4
:101A1000286840F480202860F0E700BFFFF7AEFDA3
:101A2000801B642873D828688003F7D50CE0FFF783
:101A3000A5FD064605E000BFFFF7A0FD801B64285A
:101A4000F0D828688003F7D420789A4E80074FF0AA
:101A500001094FF0000839D5686810F00C0F07D065
:101A60006868C0F38100022809D16868C00306D401
:101A70002868800714D52069012808D110E0206962
:101A8000B0B1C6F80090FFF779FD074605E00AE11E
:101A9000FFF774FDC01B0228C4D828688007F7D55B
:101AA0002868616920F0F80040EAC10028600DE074
:101AB000C6F80080FFF762FD074604E0FFF75EFD11
:101AC000C01B022823D828688007F7D42078000795
:101AD0002CD57948A169D9B1C0F80090FFF74EFD27
:101AE000074604E0FFF74AFDC01B02280FD8686ACA
:101AF0008007F7D571484FF4FA510068B0FBF1F058
:101B0000009000BF0098411E0091FAD20EE080E0E4
:101B1000C0F80080FFF732FD074604E0FFF72EFD16
:101B2000C01B022875D8686A8007F7D42078400760
:101B300060D5E8690027C00008D4E86940F080500B
:101B4000E861E869012700F0805000905C48016876
:101B5000C90513D40168834641F480710160FFF721
:101B60000DFD824606E000BFFFF708FDA0EB0A006E
:101B700064284ED8DBF80000C005F5D5E0680128E0
:101B80000AD008B1052813D0286A20F00100286285
:101B9000286A20F0040002E0286A40F00100286270
:101BA000E06841F2883B98B1FFF7E8FC82460BE021
:101BB000286A40F004002862EEE700BFFFF7DEFC71
:101BC000A0EB0A0159455AD8286A8007F6D50CE0DF
:101BD000FFF7D4FC824605E0FFF7D0FCA0EB0A013A
:101BE00059454CD8286A8007F6D41FB1E86920F01F
:101BF0008050E861E06988B36968C1F38101022916
:101C000044D00228C6F8608004D0FFF7B7FC044631
:101C100038E034E0FFF7B2FC074604E0FFF7AEFC23
:101C2000C01B02282BD828688001F7D4206AB0F5A1
:101C3000803F05D16868A16820F4003008436860DF
:101C4000D4E908010843696821F474110843686005
:101C5000C6F86090FFF792FC044606E025E000BF5E
:101C6000FFF78CFC001B022809D828688001F7D5F3
:101C70001BE000BFFFF782FC001B022802D90320F3
:101C8000BDE8F88F28688001F4D40EE00128F7D071
:101C90006868226A00F48031914204D1616A00F4DC
:101CA0007010884201D00120EAE70020E8E7000038
:101CB000001002400000424280044242E80000203E
:101CC000007000404FF0E0210428086903D020F0A4
:101CD00004000861704740F00400FAE710B5401EA8
:101CE000B0F1807F01D3012010BD4FF0E02460618E
:101CF0000F21601701F07CF80020A061072020610F
:101D0000002010BD7047704770B590F83C20012A44
:101D100026D0012480F83C40022280F83D20036850
:101D20005A689D6822F070060A6832435A600D4B6B
:101D300002689A4208D0B2F1804F05D00A4B9A420D
:101D400002D00A4B9A4204D1496825F08003194316
:101D5000916080F83D40002180F83C10084670BD3D
:101D6000022070BD002C014000040040000800402B
:101D700010B5040003D094F83D0010B107E0012035
:101D800010BD002084F83C00204600F01FF802201F
:101D900084F83D00211D206800F0B2FD012084F888
:101DA000460084F83E0084F83F0084F8400084F840
:101DB000410084F8420084F8430084F8440084F829
:101DC000450084F83D00002010BD000008B5006803
:101DD0000B49884212D10B48816941F4006181614D
:101DE0008069002200F40060009003211920FFF7B1
:101DF00045FCBDE808401920FFF733BC08BD0000D2
:101E0000002C01400010024090F83D10012901D043
:101E100001207047022180F83D100168CA6842F035
:101E20000102CA6000680B49884208D0B0F1804FB7
:101E300005D00949884202D00849884204D1816806
:101E400001F00701062903D0016841F0010101609A
:101E500000207047002C01400004004000080040B2
:101E600070B5044690F83C00012817D0012584F88D
:101E70003C50022084F83D002068826822F07702FE
:101E800022F47F4282600868502830D00DDC202880
:101E90004DD005DC98B310283BD148E0022070BD3E
:101EA000302844D0402834D139E0602828D0702828
:101EB00006D0B0F5805F2CD0B0F5005F29D10AE0E4
:101EC000CB68D1E90121206800F050FD20688168CD
:101ED00041F0770109E0CB68D1E90121206800F0E9
:101EE00045FD2068816841F48041816011E0CA6845
:101EF0004968206800F04CFD5021206807E016E09A
:101F0000CA684968206800F054FD6021206800F02C
:101F100037FD84F83D50002084F83C0070BDCA684D
:101F20004968206800F034FD40212068EFE722680E
:101F300001461046EBE7704770B50446006801693A
:101F40004FF00005C943890715D4C168C943890703
:101F500011D4E91E01610120207720688069800783
:101F6000204602D0FFF7E7FF04E000F098F8204693
:101F700000F096F8257720680169C943490717D40E
:101F8000C168C943490713D46FF0040101610220FD
:101F900020772068806910F4407F204602D0FFF748
:101FA000CAFF04E000F07BF8204600F079F82577BE
:101FB00020680169C943090716D4C168C9430907E4
:101FC00012D46FF008010161042020772068C069F5
:101FD0008007204602D0FFF7AEFF04E000F05FF874
:101FE000204600F05DF8257720680169C943C906DD
:101FF00017D4C168C943C90613D46FF01001016139
:10200000082020772068C06910F4407F204602D065
:10201000FFF791FF04E000F042F8204600F040F89E
:10202000257720680169C943C90708D1C168C94338
:10203000C90704D1891E0161204600F033F82068E9
:102040000169C943090609D4C168C943090605D411
:102050006FF0800101612046FFF754FE206801699E
:10206000C943490609D4C168C943490605D46FF07C
:1020700040010161204600F025F820680169C9434C
:1020800089060BD4C168C943890607D46FF02001C3
:1020900001612046BDE87040FFF735BE70BD704756
:1020A000704700000449884204D1022203490448D1
:1020B000FEF7EEBE70470000600100200200002025
:1020C000EC0000207047704770470000F8B50268C8
:1020D00004461068D168536910F00F0F4FF00005E7
:1020E00053D003F0010601F4907737435FD0C20765
:1020F00005D0CA0503D5226C42F0010222644207D2
:1021000005D5DA0703D0226C42F00202226482076E
:1021100005D5DA0703D0226C42F0040222640207DC
:1021200007D501F02002324303D0226C42F00802AE
:102130002264226C002A34D0800604D5880602D599
:10214000204600F068FC20684069216CC0F38010D4
:10215000090700D430B3204600F045FC20684169EF
:1021600049061BD5416921F040014161A06BA8B12E
:1021700058494163A06BFEF735FF002811D0A06BD2
:10218000416B01B0BDE8F040084783060FD58B06D0
:102190000DD52046BDE8F84000F03DBC2046FFF7D5
:1021A00093FFF8BD2046FFF78FFF2564F8BD266B2F
:1021B0002023012E52D1C60650D5CE064ED510682A
:1021C00050680090506940062AD5A16B08684068A5
:1021D0000004000CEAD0A68D8642E7D9E085886924
:1021E000202818D0D06820F48070D0602068416921
:1021F00021F0010141612068416921F04001416104
:1022000084F83E3025632068C16821F01001C16068
:10221000A06BFEF7C3FEA08DE18D401A81B219E0DC
:10222000A08DE18D401A81B2E08D0028BED000293A
:10223000BCD0D06820F49070D0602068426922F051
:102240000102426184F83E3025632068C26822F0B2
:102250001002C2602046FFF736FFF8BD05062BD5F9
:102260000D0629D594F83D002128F6D1A068B0F5D7
:10227000805F01D12069B0B1206A411C21622168D0
:1022800000784860E08C401E0004000CE084E4D13B
:102290002068C16821F08001C1602068C16841F0F8
:1022A0004001C160F8BD206A0088C0F3080050609A
:1022B000206A801C2062E5E74006F3D54806F1D588
:1022C000D168204621F04001D16084F83D3000F013
:1022D00082F9F8BDD729000870B5040004D094F83D
:1022E0003D00002510B106E0012070BD84F83C508F
:1022F000204600F023F8242084F83D002068C168BF
:1023000021F40051C160204600F0E0FB2068016923
:1023100021F4904101612068416921F02A01416165
:102320002068C16841F40051C1602564202084F810
:102330003D0084F83E00002070BD000070B586B0FE
:10234000002400940194029403942E4E03682E49B5
:10235000022003222D4DB34226D18B6943F48043E2
:102360008B618B6903F4804304938B6943F004030E
:102370008B618969039201F0040104910102CDE9A6
:10238000001069462846FEF7F7FF2815CDE900043E
:10239000694628460294FEF7EFFF0022012125201E
:1023A000FFF76CF9252028E0194EB34227D1CB69FD
:1023B00043F40033CB61CB6903F4003304938B699E
:1023C00043F004038B618969039201F004010491D5
:1023D0000421CDE9001069462846FEF7CDFF08200C
:1023E000CDE90004694628460294FEF7C5FF0022A5
:1023F00002212620FFF742F92620FFF732F906B026
:1024000070BD00000038014000100240000801408B
:102410000044004090F83E30202B0ED159B152B10B
:1024200090F83C30012B08D0012380F83C30002389
:10243000036300F0A7BB0120704702207047000033
:102440002DE9F04106460068324901270025324C4B
:10245000884232D1E01C31490278E0880A5420B128
:1024600001280ED0042812D016E00978572904D08C
:10247000FE2904D0E580BDE8F08125700CE02770CE
:102480000AE02278012A07D14978891C03E02278E2
:1024900012B90979491C6170401CE080607860B114
:1024A0006078401E6070607838B91C4800F0D8FB36
:1024B00064211A48FDF7F0FEE5801949306888422A
:1024C000D9D11548154E001D643601782089082899
:1024D000315406D1317A21B1B6F8071049BA491CF6
:1024E0006181401C2081608950B16089401E6081FB
:1024F000608928B909486430FEF720FBA770258160
:102500003078EF2802D120896328B4D9A5702581BD
:10251000B1E700000038014006000020A8010020BB
:10252000004400402DE9F843044690F83D001F4662
:1025300016460D4620284CD1C5B1BEB194F83C00DA
:10254000012846D0012084F83C004FF00008C4F870
:102550004080212084F83D00FFF710F8A6848146D2
:10256000E684A068B0F5805F03D004E00120BDE8F8
:10257000F883206928B12E465FF0000584F83C807E
:102580000EE00026FAE78021204600F016FBA0B9F5
:10259000AEB116F8010B21684860E08C401EE08463
:1025A000E08C4B464FF0000200970028EBD14FF033
:1025B0004001204600F001FB30B10320D7E735F899
:1025C000020BC0F30800E6E7202084F83D0000205D
:1025D000CDE70220CBE77047FEE700000E4810B5BC
:1025E000816986B041F0080181618069012400F0B1
:1025F00008000490C020CDE900040320CDE902408A
:1026000069460648FEF7B8FE0548C0F89C41C0F888
:10261000984106B010BD000000100240000C0140BF
:10262000008021420C4800B5816985B041F0040169
:1026300081618069694600F00400049007480190B8
:102640004FF4106000900120029003200390044892
:10265000FEF792FE05B000BD001002400000211000
:102660000008014030B50F4885B0816941F008018C
:10267000816180690C4D00F008004FF440440490E3
:10268000002221462846FEF774FF0120CDE90040D4
:10269000022002900320039069462846FEF76CFE54
:1026A00005B030BD00100240000C01403EB50021D5
:1026B000174800910191154A0291026092158260BB
:1026C0000173017502244FF460220461C26141600C
:1026D000FEF7F8FA08B1FEF72FFA08200090012063
:1026E00001900720029069460948FEF769FA08B18F
:1026F000FEF722FA0920CDE9000469460448FEF7F6
:102700005FFA002801D0FEF717FA3EBD0024014011
:10271000EC000020094808B5416941F00101416120
:102720004069012200F00100009003210B20FEF718
:10273000A5FFBDE808400B20FEF793BF0010024044
:102740000D4808B5816941F020018161816901F07E
:1027500020010091816941F004018161816901F0EA
:1027600004010091816941F008018161806900F0F4
:102770000800009008BD00000010024010B586B0AF
:10278000002417480094019402940394049413497C
:102790000594016041F61F41C0E901146321C0E9BD
:1027A0000314FFF7E5FA08B1FEF7C6F94FF48050BD
:1027B000009069460A48FFF753FB08B1FEF7BCF9E1
:1027C000049404A906480594FFF79EFA08B1FEF7A1
:1027D000B3F90348FFF718FB06B010BD002C014009
:1027E000600100200E4810B50C4901604FF41651ED
:1027F0004160002181600C22C160C0E90412816146
:10280000C161FFF769FD08B1FEF796F9BDE8104018
:10281000012204490248FFF7FDBD000000380140D5
:1028200070020020090000200E4810B50C4901601C
:102830004FF461414160002181600C22C160C0E918
:1028400004128161C161FFF747FD08B1FEF774F919
:10285000BDE81040012204490248FFF7DBBD00003B
:1028600000440040B40200200A000020FEE7FEE71A
:1028700070477047FEF788BE30B593B02821684690
:10288000FDF70AFD14210AA8FDF706FD0025012029
:102890000F9510951195010412958DE82300049071
:1028A0004FF4E010CDE90810022407946846FFF7C2
:1028B00079F808B172B6FEE70AA90F2081E8310065
:1028C0004FF48060CDE90D0502210AA8FEF77EFFD6
:1028D00008B172B6FEE74FF4004011900F940FA8B4
:1028E000FEF7FEFE002801D072B6FEE713B030BD41
:1028F000704700000148FFF71FBB00006001002087
:10290000F0B50268164B174C174D4FF080479842B0
:1029100005D0B84203D0A04201D0A84203D122F092
:1029200070064A683243984205D0B84203D0A042AC
:1029300001D0A84203D122F44074CA6822434C69F2
:1029400022F08002224302608A68C2620A688262C0
:10295000984201D10969016301214161F0BD000084
:10296000002C0140000400400008004010B58468BD
:1029700042EA032224F47F440A432243826010BDCA
:10298000826822F070020A4342F0070181607047BA
:1029900010B5036A046A24F001040462846924F017
:1029A000F00444EA021423F00A020A43846102623A
:1029B00010BD10B5036A23F0100303628369046A33
:1029C00023F4704343EA023224F0A00343EA0111E6
:1029D0008261016210BD10B5406A0021C185C184C9
:1029E000FFF772FB10BD0168CA6822F49072CA60DA
:1029F00001684A6922F001024A61016B012904D190
:102A00000168CA6822F01002CA60202180F83E10D6
:102A100000210163704708B590F83E10222901D0CB
:102A2000022008BD82684FF480539A4201D10169A7
:102A300021B1816A9A421BD04AB10AE00268816AD8
:102A40005268C2F308020A80816A891C08E00269A0
:102A500072B10268526802F07F020A70816A491CF2
:102A60008162C18D491E0904090CC18503D019E09A
:102A700002685268F1E70168CA6822F02002CA6061
:102A80000168CA6822F48072CA6001684A6922F04B
:102A900001024A61202180F83E10016B012903D018
:102AA000FFF7CEFC002008BD002101630168CA6861
:102AB00022F01002CA6001680A68D20602D50A68CC
:102AC00049680091818DFFF7FEFAEBE770B5044687
:102AD00000680169E26821F44051114301612169F4
:102AE000A0680843616908432168CA6841F20C6321
:102AF0009A430243CA6020684169A26921F4407187
:102B0000114341611E492068884202D1FEF704FF4B
:102B100001E0FEF7F1FE00EBC00101EB001260687E
:102B200064218000B2FBF0F3B3FBF1F36FF0180601
:102B30007343B2FBF0F5B2FBF0F605EB83053223ED
:102B400003EB0515B5FBF1F5B6FBF1F605F0F00565
:102B500005EB0615B2FBF0F6B2FBF0F0B0FBF1F0BE
:102B60006FF01802504306EB800003EB0010B0FB3F
:102B7000F1F0216800F00F002844886070BD00006B
:102B80000038014081628285C285002101642222D1
:102B900080F83E2080F83C100168CA6842F48072D8
:102BA000CA6001684A6942F001024A610068C1686E
:102BB00041F02001C160002070472DE9F0419846A6
:102BC00017460E460446069D1DE0681C1BD02DB11D
:102BD000FEF7D4FCA0EB0800A84214D92068C16815
:102BE00021F4D071C1602068416921F00101416187
:102BF000202084F83D0084F83E00002084F83C004A
:102C00000320BDE8F0812068006836EA000004D0A7
:102C10000020B842D9D00020F3E70120F9E70000F6
:102C200010B50548FFF752FABDE8104001220349EC
:102C30000148FFF7EFBB00007002002009000020F0
:102C400010B50548FFF742FABDE8104001220349DC
:102C50000148FFF7DFBB0000B40200200A0000209B
:102C6000FEB50446FDF7EEFD2078FE280BD0572870
:102C700017D1E07881287CD087286AD088285CD05A
:102C800089280ED15EE0A078012600254FF47A77DE
:102C900010282ED006DC4049012828D0022800D177
:102CA0000D70FEBD112834D01428FAD1009501957D
:102CB000029520798DF80500A0798DF8090002A908
:102CC00001A8FDF775FE012834D08DF800600122BF
:102CD00069461420FDF734FF02463B462F49304831
:102CE000FFF720FC64212D48FDF7B4FAFEBD0E70FD
:102CF000FEBDFDF73FFF08222A491020FDF720FF07
:102D000002463B4625492648FFF70CFC6421234830
:102D10001AE00195009520798DF805006179A07978
:102D20008DF80000E0798DF801006A4601A8FDF7F2
:102D30009DFDFEBD8DF80050C9E732221A491B489F
:102D4000FDF743FA1848642103B0BDE8F040FDF7F1
:102D500081BAE0790128ECD1154C012220212046CE
:102D6000FEF707FC0320FDF75FFC0220FDF726FCC1
:102D700000E009E0FDF728FC03B02046BDE8F04084
:102D800000222021FEF7F5BB0A49A07908700A4904
:102D9000E0790870FEBD000000000020460300201E
:102DA000700200201A000020A8010020310000203D
:102DB000000C01402200002080000020FEE70000FF
:102DC00070B506460024094D07E02878012808D090
:102DD0006420FDF741FE641CA4B2B442F5D3002088
:102DE00070BD00202870204670BD00000800002043
:102DF0000907090E002804DB00F1E02080F8001428
:102E0000704700F00F0000F1E02080F8141D7047BB
:102E10007047FEF7C1FBFFF72FFDFFF791FCFFF7AF
:102E200079FCFFF743FCFFF7DDFCFFF7FDFCFFF744
:102E3000A5FCFDF7F9FDFFF715FCFFF7F3FBFDF728
:102E400025FEFFF7CBFBFDF75BFBFDF7DFFC012267
:102E5000002302211046FDF78BFD4FF4FA60FDF7C9
:102E6000EDFDFEE757AB00080000000057AB00097E
:102E70003200000000000000000000000102030416
:102E8000060708090000000001020304AC2E000838
:102E900000000020EC00000028010008982F000826
:102EA000EC000020840A000044010008000000003B
:102EB0000000000000000000000000000000000012
:102EC0000000000000000000000000000000000002
:102ED00057AB000208000000000000000000800066
:102EE0000000258008000003861A29E10000000187
:102EF000000D0000000000000000000000000000C5
:102F0000000000000000000000000000000000576A
:102F1000AB00010003FF0D0A57AB000208000000E0
:102F200000000000000CFF0D0A000000000001314D
:102F3000320C30331D1F1213010203050635363CD7
:102F400068343536151819EF01000800080007002D
:102F5000030003000300040007000700030004004F
:102F60000300030006000300030007000300040041
:102F70000300030007002400040000FFFFFFFF0020
:102F80000000000000000000010000001000000030
:082F9000000000000024F40021
:04000005080000ED02
:00000001FF
