:020000040800F2
:100000006847002099010008EB49000821450008D5
:10001000E94900089906000809530008000000009B
:1000200000000000000000000000000001010008C6
:10003000F70A00080000000045010008A94D00086B
:10004000B3010008B3010008B3010008B3010008C0
:10005000B3010008B3010008B3010008150C000843
:10006000B30100081B0C0008210C00089D0A0008C1
:10007000A90A0008B50A0008B3010008C10A00086F
:10008000B3010008B3010008B3010008B301000880
:10009000B3010008B3010008B3010008290C0008EF
:1000A000B3010008B3010008B3010008B301000860
:1000B000254E0008B3010008B3010008B301000891
:1000C000B3010008B3010008B3010008B301000840
:1000D000B301000891520008CD520008B301000896
:1000E000E10B0008B3010008B3010008DFF80CD0F1
:1000F00000F0CAF900480047E157000868470020AF
:10010000224B19680868B0E8F00F80F30988BFF344
:100110006F8F4FF0000080F311884EF00D0E704786
:100120000000000006480068006880F3088862B696
:1001300061B6BFF34F8FBFF36F8F00DF00BF00BF0B
:1001400008ED00E0EFF30980BFF36F8F0F4B1A68E3
:1001500020E9F00F106008B54FF0500080F31188CF
:10016000BFF34F8FBFF36F8F06F0E0FE4FF000003C
:1001700080F31188BDE8084019680868B0E8F00FFE
:1001800080F30988BFF36F8F704700BF30000020F5
:10019000EFF3058070470000064880470648004797
:1001A000FEE7FEE7FEE7FEE7FEE7FEE7FEE7FEE727
:1001B000FEE7FEE7214E0008ED000008202A04DBE0
:1001C000203A21FA02F00021704721FA02F3D040D0
:1001D000C2F12002914008431946704740EA0103EA
:1001E0009B0703D009E008C9121F08C0042AFAD2ED
:1001F00003E011F8013B00F8013B521EF9D27047B1
:10020000D2B201E000F8012B491EFBD27047002258
:10021000F6E710B513460A4604461946FFF7F0FF05
:10022000204610BD421C10F8011B0029FBD1801A8A
:100230007047034611F8012B00F8012B002AF9D171
:1002400018467047F0B480EA0102D40F4200B2EBC6
:10025000410F02D20246084611464A0042D0C30D61
:10026000DDB2C1F3C752AD1A202D35DAC1F3160144
:1002700041F4000204B15242C5F1200602FA06F12F
:100280002A411044B3EBD05F23D0C4B1012DA0EBC1
:10029000C35009DCF0BC4FF0004202EAC352DBB2AB
:1002A00000F5000000F0C2B8400000F1807000EBE3
:1002B000C350A0F1807040EAD170490009E04908BC
:1002C00041EAC071A0EBC35000F50000400800EB0C
:1002D000C350F0BC00F0A1B86142012202EB410121
:1002E000001BF6E7F0BC704781F00041AAE780F000
:1002F0000040A7E730B480EA010202F0004530F088
:10030000004221F0004013D090B1C30DD40DC2F3D0
:100310001601C0F31600E41A41F4000140F4000293
:100320007D34914201D3641C00E04900002C02DAC4
:1003300030BC002070474FF400000023914201D3ED
:10034000891A034340084FEA4101F7D151B1914264
:1003500002D14FF0004105E002D24FF0010101E06F
:100360006FF0010103EBC450284430BC00F055B8D5
:1003700096230022114600F059B820F00040C10D2C
:10038000C0F3160040F400007F2901DA0020704716
:10039000962903DCC1F19601C84070479639884020
:1003A00070470000002801DBC0F10040002901DB9C
:1003B000C1F10041814270472DE9F05F0546002000
:1003C00092469B4688460646814640241BE02846C6
:1003D000414647462246FFF7F1FE53465A46C01AA9
:1003E000914110D311461846224600F05FF82D1AAD
:1003F00067EB01084F4622460120002100F056F825
:1004000017EB00094E41201EA4F10104DFDC484631
:1004100031462A464346BDE8F09F0029A8BF7047F1
:10042000401C490008BF20F00100704710B4B0FA2A
:1004300080FC00FA0CF050EA010404BF10BC7047C5
:1004400049B1CCF1200421FA04F411FA0CF118BFDF
:10045000012121430843A3EB0C01CB1D4FEA0061AE
:100460004FEA102042BF002010BC704700EBC35081
:1004700010440029A4BF10BC7047401C490008BFAD
:1004800020F0010010BC7047064C074D06E0E06804
:1004900040F0010394E8070098471034AC42F6D3CB
:1004A000FFF728FE307F0008507F0008202A04DB79
:1004B000203A00FA02F1002070479140C2F1200377
:1004C00020FA03F319439040704770B58C1810F868
:1004D000015B15F0070301D110F8013B2A1106D189
:1004E00010F8012B03E010F8016B01F8016B5B1EA3
:1004F000F9D12B0705D40023521E0DD401F8013B7E
:10050000FAE710F8013BCB1A921C03E013F8015BE9
:1005100001F8015B521EF9D5A142D8D3002070BD6D
:1005200070B5044600688168C943C90717D181685E
:1005300021F00101816002F0A1F905460AE000BF47
:1005400002F09CF9401B022804D920688068C0434F
:10055000C00706D020688068C043C007F0D00020E4
:1005600070BDA06A40F01000A062E06A40F0010097
:10057000E062012070BD10B50146406A826A12F047
:10058000500F05D0006A026BBDE8104008461047C6
:10059000816A41F40071816201688968C1F3424156
:1005A00007290CD1017B51B9816A21F480718162E4
:1005B000816AC90403D4816A41F00101816201F0BA
:1005C00095FC10BD10B5406A816A41F0400181621E
:1005D000C16A41F00401C16201F0A3FC10BD10B575
:1005E000406A01F09DFC10BDF8B500260446009657
:1005F00000688168C943C9072DD0816841F00101B5
:100600008160164816490068B0FBF1F000E0401E1A
:1006100000900028FBD102F031F9054616E000BF3A
:1006200002F02CF9401B022810D920688068C043D2
:10063000C0070BD0A06A40F01000A062E06A40F052
:100640000100E06284F824600120F8BD2068806821
:10065000C043C007E4D10020F8BD00002C000020FA
:1006600040420F0008B5012000900948006968B1B8
:100670006A46002106F00AF9009838B105494FF0A2
:1006800080500860BFF34F8FBFF36F8F002008BD0D
:100690002401002004ED00E0FEE7034610B5002031
:1006A000024604E09C5C521C2044C0B2D2B28A4292
:1006B000F8D310BDF0B5304CDFF8C0E000230226BF
:1006C0004FF0080CAEF10607651D38B3012833D092
:1006D000022845D0032820D1E67084F804C08EF8A3
:1006E00000108EF8022000BF8EF803308EF8043020
:1006F0008EF805308EF806308EF8073057F8060F62
:10070000C4F805007868C4F809002079401DC1B21A
:100710001948FFF7C2FF21794855F0BDE67084F80B
:1007200004C0174810F8121000EB42008EF80010B9
:1007300040788EF80200D7E70320E0700420207193
:100740000F480E49FE3050F82200020C091F4A7073
:10075000020A8A70C870D7F80200C4F80500D4E70E
:10076000E6702671064805492A38891F805C487062
:100770003888A4F80500C8E7442E0020D4000020E3
:10078000C27D000870B5062A02D94FF0FF3070BD57
:10079000174B184C9D1C0226E6700826267118700F
:1007A00000209870D870187158719871D871124BD8
:1007B00007E00E5C401C03EB4606C0B2767805F8F5
:1007C000016B9042F5D30A48801F50F8061FC4F809
:1007D00005104068C4F809002079401DC1B20548E1
:1007E000FFF75BFF22790349491D5054002070BD7B
:1007F000D4000020442E0020C27D00081CB5094909
:10080000D1E90301CDE9000104216846FFF745FF66
:100810008DF805004FF47A7306226946024803F00A
:10082000C4F91CBD987D0008AC0100202DE9F04101
:10083000214886B0816941F004018161816901F03C
:1008400004010491816941F00801816180691B4FB5
:1008500000F008004FF480550490002229463846E5
:1008600002F007F8DFF8588000222021404602F00D
:1008700000F80124CDE9005402250326CDE90256F3
:100880006946384601F000FF20208DE87100694676
:10089000404601F0F9FE0B4857210170AB21417031
:1008A0000021817008484170001F0570801E04708F
:1008B00006B0BDE8F08100000010024000080140D1
:1008C000000C0140442E0020D40000202DE9F0410E
:1008D0000D4680460024124F4FF47A761BE000BF8D
:1008E000002118F804200846FFF7E4FE3A79334661
:1008F0000B490C48921D03F058F9012004F03CFF0D
:1009000033460E220849074803F04FF9012004F04E
:1009100033FF641CA4B2AC42E2D3BDE8F081000016
:10092000442E0020AC010020B47D00080A4610B51A
:1009300001460320FFF7BEFE0B4802794FF47A749C
:10094000014623460948921D03F02FF9012004F0C7
:1009500013FF23460E220649044803F026F9BDE89A
:100960001040012004F008BF442E0020AC010020FC
:10097000B47D000810B5024600210120FFF79AFE61
:100980000B4802794FF47A74014623460948921DB8
:1009900003F00BF9012004F0EFFE23460E22064976
:1009A000044803F002F9BDE81040012004F0E4BE61
:1009B000442E0020AC010020B47D000810B5024692
:1009C00000210220FFF776FE0B4802794FF47A747B
:1009D000014623460948921D03F0E7F8012004F080
:1009E000CBFE23460E220649044803F0DEF8BDE89C
:1009F0001040012004F0C0BE442E0020AC010020B5
:100A0000B47D000810B5FFF7BDFE0C4802794FF425
:100A10007A74014623460A48921D03F0C6F8012065
:100A200004F0AAFE23460E220649054803F0BDF84D
:100A3000BDE81040012004F09FBE0000442E0020BD
:100A4000AC010020B47D000810B5002211466020E2
:100A5000FFF7D8FF10BD0000084882B0416941F09F
:100A6000400141614069074900F04000009004489E
:100A70000860084602B001F0D8BB00000010024038
:100A800000300240B40000208A08890700D0521CC0
:100A90000146014801F0B2BBB4000020014801F05A
:100AA00045BC0000B4020020014801F03FBC00003A
:100AB000D02F0020014801F039BC00008C2F00200D
:100AC000014801F033BC0000482F002030B590F8F9
:100AD00040500124AC40C56B6C600468636043689F
:100AE000102B036803D099600068C26030BD9A6023
:100AF0000068C16030BD704708B5022148B10128C7
:100B000006D100220091C8231146FF2003F0D6FF32
:100B100008BD0022C8230091FF211046F6E700001F
:100B20001D4810B5816986B041F004018161816979
:100B300001F004010491816941F00801816180693B
:100B4000032400F00800049014480190C020009095
:100B50000120CDE902046946114801F095FD1148D4
:100B600001900220CDE90204009069460E4801F090
:100B70008BFD00220B21172001F0ECFE172001F065
:100B8000DBFE00220B21072001F0E4FE072001F02C
:100B9000D3FE06B010BD000000100240000031106E
:100BA000000C0140000011100008014008B50120B0
:100BB00000900948C06868B16A46002105F066FEE9
:100BC000009838B105494FF080500860BFF34F8F4F
:100BD000BFF36F8F002008BD2401002004ED00E06A
:100BE00070B50B4C2568280506D5E01401F040FDD2
:100BF000206820F400602060680407D54FF480402E
:100C000001F036FD206820F48040206070BD0000B7
:100C100014040140022001F02BBD082001F028BD82
:100C2000102001F025BD000070B50F4C2568680646
:100C300006D5402001F01CFD206820F04000206017
:100C4000280606D5802001F013FD206820F08000E2
:100C50002060E80507D54FF4807001F009FD206899
:100C600020F48070206070BD1404014072B6FEE76D
:100C70000948EF230849037001224270891CFF20B4
:100C8000087048708870C8700A310B704A7088709C
:100C9000C870087148717047BC000020034610B549
:100CA0000020024604E09C5C521C204480B292B2B8
:100CB0008A42F8D310BD00001B4800B5816989B095
:100CC00041F004018161806903A900F004000790EC
:100CD00016480490102003900220059003200690EF
:100CE000134801F0D1FC002206210A2001F032FE57
:100CF0000A2001F021FEFFF7BBFF002000900190C9
:100D00000290684601F052F89DF808009DF807101F
:100D1000093040EA01224FF47A736946054802F02F
:100D200044FF09B0002000BD001002400000111077
:100D300000080140F40100200448002101604160E6
:100D40008160C16000F11001016070476C400020BB
:100D50002DE9FF47764EB07901287DD002287BD05F
:100D6000072879D1707A0027724D4FF47A790A28D2
:100D700072D2DFE800F005D7D7D7D7D7D7D7D7C1FA
:100D80000021A86806F010F9694CE860C0074FF030
:100D9000FE0804F16D041AD084F8008022206070EF
:100DA0001020A070E7702022A4F16301201DFFF73E
:100DB00015FA24212046FFF770FC84F82400252131
:100DC000204603F0CBFF0121A86806F0EDF8287B50
:100DD000800747D584F80080042060700B20A07045
:100DE000E770B07A2071F07A6071514806216D3059
:100DF000FFF753FCA0712079012805D02079022843
:100E000002D02079032804D1494807216D3003F02E
:100E1000A5FF2079062825D16079F22822D14448FF
:100E200007216D3003F09AFF0221A86806F0BCF894
:100E30000121A86806F0F8F8009701970297039738
:100E40000021684600F090FF9DF808009DF807100B
:100E5000093040EA012200E064E04B46694636482A
:100E600002F0A3FE287B40072DD584F800800220E5
:100E700060700C20A070E7702D4804216D30FFF7E2
:100E80000CFC20712A4805216D3003F067FF042116
:100E9000A86806F089F80121A86806F0C5F800974F
:100EA0000197029703970021684600F05DFF9DF8C7
:100EB00008009DF80710093040EA01224B466946B8
:100EC0001D4802F072FE287B00072BD5B07A05285A
:100ED00012D1307BF17A40EA0124B07B717B40EA89
:100EE00001264FF40051154801F0BEFC012831469F
:100EF000204619D000F058FA0097019702976846EB
:100F000000F054FF9DF808009DF80710093040EAF2
:100F100001224B466946084802F047FE0821A868AE
:100F200006F042F8BDE8FF8700F00AF8E4E70000A9
:100F30007C40002014010020F4010020000C01403E
:100F40002DE9F04100EBC00101EB00164FF48010D9
:100F500088B000EB860100248DF818400D46012270
:100F600006A800F0C3FD9DF81800E349E34F01EB2C
:100F7000860105287DD2DFE800F00355B5FDFC00B1
:100F80008DF80440012201A8029400F0AFFD9DF805
:100F9000040000286DD0C01C05F012F99DF8042053
:100FA00080462946D21C00F0A1FD9DF80400C01C1B
:100FB000C1B24046FFF768FD05460146D0A004F0E7
:100FC00031FA0A2005F0EAFB9DF80400042200EB48
:100FD000860101F5801102A8C91C00F087FDCDA093
:100FE000029904F01FFA0298A84219D18DF80C401A
:100FF000FFF704FCC82203A9386806F0F1FA9DF84F
:101000000C00800703D539210020FFF78FFCE02179
:101010000020FFF78BFC4FF4C87005F0BFFB4AE0DF
:1010200040461CE18DF80440012201A8029400F022
:101030005DFD9DF8040000281BD0C01C05F0C0F821
:101040009DF8042080462946D21C00F04FFD9DF8F3
:101050000400C01CC1B24046FFF716FD054601461C
:10106000A7A004F0DFF90A2005F098FB9DF8040022
:1010700000E0C2E000EB860101F58011042202A825
:10108000C91C00F033FDA3A0029904F0CBF902982B
:10109000A842C5D18DF80C40FFF7B0FBC82203A9C8
:1010A000386806F09DFA9DF80C00800703D53921B9
:1010B0000020FFF73BFCFFF7C7FC9DF8041008F188
:1010C0000300FFF703FC28210020FFF72FFCFFF7A8
:1010D000BBFC9DF80C008007A2D539210020FFF74A
:1010E00025FC9DE78DF80040A0468DF808400122C0
:1010F0006846059400F0FAFC9DF8001000297CD0A9
:1011000088A004F08FF99DF80000012200EB860111
:1011100001F5801102A8C91C00F0E8FC9DF8081038
:1011200000296AD084A004F07DF99DF800009DF8A4
:1011300008100844401D05F043F804469DF80000DF
:101140009DF80810421829462046521D00F0CEFC9A
:101150009DF800009DF808100844401DC1B22046CB
:10116000FFF792FC0546014678A004F05BF90A20DF
:1011700001E0A4E078E005F011FB9DF800009DF887
:10118000081000EB8600014401F58011042205A837
:10119000491D00F0ABFC72A0059904F043F90598D5
:1011A000A8425BD18DF81C80FFF728FBC82207A955
:1011B000386806F015FA9DF81C00800703D5392120
:1011C0000020FFF7B3FBFFF73FFC9DF8000004F0A1
:1011D000F7FF06469DF8080004F0F2FF05469DF86B
:1011E0000020E11C3046FEF7F9FF9DF800009DF855
:1011F000082021182846091D00E032E0FEF7EEFF26
:101200009DF800103046FFF761FB0A2005F0C6FA92
:101210002B210020FFF78AFB0A2005F0BFFA9DF87A
:1012200008102846FFF752FB322005F0B7FA2821B4
:101230000020FFF77BFB0A2005F0B0FAFFF704FC63
:101240009DF81C00800703D539210020FFF76EFBB5
:10125000304605F05DF9284605F05AF9204605F0BC
:1012600057F908B0BDE8F0818DF810400094019462
:101270008DF80840012202A800F038FC9DF8080013
:101280000028EED01C480122801C00EB860104A837
:1012900000F02CFC9DF80800401E82B21648C01CCD
:1012A00000EB8601684600F021FC9DF808006946C5
:1012B000401EC2B29DF81000FFF7A4FBD1E78DF8E5
:1012C00000400122684600F011FC9DF8000006284D
:1012D000C7D2DFE800F0030507090B0D302008E056
:1012E000312006E0322004E0332002E0342000E028
:1012F000352003F095FBB4E7010010004001002009
:101300006372635F76616C7565203D2025640D0A0C
:10131000000000007265635F637263203D202564F6
:10132000000000006163636F756E74206C656E2051
:101330003D2025640D0A000070617373776F72643D
:10134000206C656E203D2025640D0A006372635F8A
:1013500076616C7565203D2025780D0A000000003F
:101360007265635F637263203D2025780000000092
:1013700008B50146012000900948406868B1002383
:101380006A4606F0B1F8009838B106494FF080502F
:101390000860BFF34F8FBFF36F8F002008BD0000C0
:1013A0001401002004ED00E02DE9F04300EBC00142
:1013B00001EB0016E94889B000EB860100248DF8A6
:1013C00018400D46012206A800F090FBE3499DF865
:1013D0001800E24F491CFF1CDFF88483401F01EB1B
:1013E000860105287ED2DFE800F00354B3FEFD003D
:1013F0008DF80440012201A8029400F077FB9DF8CB
:10140000040000286ED0C01C04F0DAFE9DF8042011
:1014100081462946D21C00F069FB9DF80400C01CDF
:10142000C1B24846FFF730FB05460146CDA003F0A8
:10143000F9FF0A2005F0B2F99DF80400042200EB40
:101440008600C11902A800F051FBCBA0029903F05D
:10145000E9FF0298A8421AD18DF80C40FFF7CEF9A7
:10146000C82203A9D8F8000006F0BAF89DF80C00CD
:10147000800703D539210020FFF758FAE02100202A
:10148000FFF754FA4FF4C87005F088F949E0484670
:1014900019E18DF80440012201A8029400F026FB16
:1014A0009DF8040000281DD0C01C04F089FE9DF8A2
:1014B000042081462946D21C00F018FB9DF8040048
:1014C000C01CC1B24846FFF7DFFA05460146A5A099
:1014D00003F0A8FF0A2005F061F99DF8040000EB75
:1014E000860000E0BFE0C119042202A800F0FEFA65
:1014F000A1A0029903F096FF0298A842C7D18DF8E7
:101500000C40FFF77BF9C82203A9D8F8000006F0C9
:1015100067F89DF80C00800703D539210020FFF7FC
:1015200005FAFFF791FA9DF8041009F10300FFF79F
:10153000CDF928210020FFF7F9F9FFF785FA9DF88A
:101540000C008007A3D539210020FFF7EFF99EE7B3
:101550008DF800408DF8084001226846059400F09F
:10156000C5FA9DF8001000297DD087A003F05AFF2E
:101570009DF80000012200EB8600C11902A800F0CE
:10158000B5FA9DF8081000296DD084A003F04AFF39
:101590009DF800009DF808100844401D04F010FE5E
:1015A00007469DF800009DF8081042182946384665
:1015B000521D00F09BFA9DF800009DF808100844A9
:1015C000401DC1B23846FFF75FFA0546014678A0D4
:1015D00003F028FF0A2005F0E1F89DF8000000EB79
:1015E000860001E09DE073E09DF8081004220844A5
:1015F0005A49491D014405A800F078FA71A00599DF
:1016000003F010FF0598A8425CD18DF81C40FFF74D
:10161000F5F8C82207A9D8F8000005F0E1FF9DF809
:101620001C00800703D539210020FFF77FF9FFF761
:101630000BFA9DF8000004F0C3FD05469DF8080074
:1016400004F0BEFD04469DF80020F91C2846FEF774
:10165000C5FD9DF800009DF8082039182046091D99
:10166000FEF7BCFD00E030E09DF800102846FFF7D3
:101670002DF90A2005F092F82B210020FFF756F9EA
:101680000A2005F08BF89DF808102046FFF71EF998
:10169000322005F083F828210020FFF747F90A20BF
:1016A00005F07CF8FFF7D0F99DF81C00800703D502
:1016B00039210020FFF73AF9284604F029FF204697
:1016C00004F026FF384604F023FF09B0BDE8F0839C
:1016D0008DF81040009401948DF80840012202A872
:1016E00000F004FA9DF808000028EED007EB860110
:1016F000012204A800F0FAF99DF80800401E82B209
:101700001648001D00EB8601684600F0EFF99DF8D1
:1017100008006946401EC2B29DF81000FFF772F93A
:10172000D3E78DF800400122684600F0DFF99DF80C
:1017300000000628C9D2DFE800F0030507090B0DF9
:10174000302008E0312006E0322004E0332002E0BF
:10175000342000E0352003F063F9B6E710271000CD
:10176000400100206372635F76616C7565203D20E7
:1017700025640D0A000000007265635F63726320D8
:101780003D202564000000006163636F756E742066
:101790006C656E203D2025640D0A00007061737336
:1017A000776F7264206C656E203D2025640D0A0001
:1017B0006372635F76616C7565203D2025780D0A44
:1017C000000000007265635F637263203D2025782E
:1017D0000000000070B539494A790C46012324689D
:1017E0009AB18A79AAB1CA79C2B10A7AD2B14A7ACF
:1017F000E2B18A7AF2B10D7901F11002092D24D2F9
:1018000020700B685B1C0B6028E0EF2852D14B71F5
:1018100013E001284ED18B7123700FE0FF2849D1CE
:10182000CB710AE0FF2845D10B7206E0FF2841D1B9
:101830004B7202E0FF283DD18B7220700868401C7B
:1018400008600879401C087136E00C79092C08D131
:10185000CB72137AD47943EA04238B810B795B1C16
:101860000B71CB7A012B27D18B89012B08D08A8968
:10187000521E8A810A6810700868401C08601BE0CC
:1018800009680870117A901DD27941EA0221491C39
:10189000CBB20022114604E0445C491C224492B2BF
:1018A000C9B29942F8D31844008840BA904201D195
:1018B000FFF74EFAFFF740FA002070BD6C400020A1
:1018C00000B587B014216846FEF7A1FC07234FF648
:1018D000FF720321684600F09FF99DF808009DF80B
:1018E0000710093040EA01224FF47A7369460C4828
:1018F00002F05BF9012005900A48806868B105AAEA
:10190000082105F0E9FB059838B107494FF08050F0
:101910000860BFF34F8FBFF36F8F07B0002000BD8B
:10192000F40100201401002004ED00E070B5040370
:1019300000F092F800F089F8074D4FF080502860D1
:10194000202000F045F8204600F070F8A814286028
:10195000BDE8704000F079B8100C01400D4800B5AA
:10196000816985B041F0080181618069694600F0B4
:10197000080004904FF480500090012001900290E4
:1019800003200390044800F07FFE03F003F905B044
:1019900000BD000000100240000C014010B50128FD
:1019A00003D0022803D0032803D0052002E035200D
:1019B00000E01520054C4FF08051216000F008F840
:1019C000FF2000F005F8A114216010BD100C0140AB
:1019D00001B582B04FF47A700090012301AA02A9E8
:1019E000024801F045FB9DF804000EBD14300020B4
:1019F00070B50D4C4FF0805020609020FFF7E8FF4D
:101A00000020FFF7E5FF0020FFF7E2FF0020FFF7CF
:101A1000DFFFFF20FFF7DCFF0502FF20FFF7D8FF05
:101A20002843A114216070BD100C014010B504467C
:101A3000C0F30740FFF7CCFFC4F30720FFF7C8FF50
:101A4000E0B2BDE81040FFF7C3BF10B50120FFF7BB
:101A5000A5FFC007FAD110BD10B5054C4FF080505E
:101A600020600620FFF7B4FFA014206010BD000026
:101A7000100C01402DE9F05F8046C8B2C0F58074BB
:101A80000E461546A24200D81446DFF85C904FF08F
:101A9000805A4FF4807B00BFFFF7DEFFC9F800A03B
:101AA0000220FFF795FF3046FFF7C0FF002705E053
:101AB00018F80700FFF78CFF7F1CBFB2A742F7D3CF
:101AC0004FF48051C9F80010FFF7BFFFA54208D0BE
:101AD000281BA044264485B25C46A542DCD82C468F
:101AE000DAE7BDE8F09F0000100C01402DE9F0415D
:101AF0000D4E07464FF0805015460C4630600320CF
:101B0000FFF766FF2046FFF791FF002405E0FF2066
:101B1000FFF75EFF3855641CA4B2AC42F7D34FF414
:101B200080503060BDE8F081100C01402DE9F05F7D
:101B3000C1F30B06DFF88C800F0BC6F58054894685
:101B400082461546A24200D8144639038B464FF40C
:101B500080524046FFF7CAFF002006E0321818F80E
:101B60000210FF2903D1401C80B2A042F6D3A0424C
:101B700022D23846FFF7DAFE002006E01AF80020ED
:101B80008319401C08F8032080B2A042F6D35946BE
:101B90004FF480524FEA0800FFF76CFFA5420FD0C8
:101BA000281BA244A144002685B24FF480547F1C18
:101BB000A542CAD82C46C8E7224649465046EBE71C
:101BC000BDE8F09F6C30002070B5044611480588D0
:101BD0002580D0F80200C4F802000120A071002086
:101BE000E0710820207231206072080AA072E17250
:101BF0002273180A6073A373207AE17940EA012006
:101C0000401C81B2A01DFFF749F8010AE17320745E
:101C1000002070BDBC00002070B504461148058846
:101C20002580D0F80200C4F802000120A071002035
:101C3000E0710820207232206072A172100AE072F6
:101C40002273180A6073A373207AE17940EA0120B5
:101C5000401C81B2A01DFFF721F8010AE173207436
:101C6000002070BDBC00002070B504461048049DE3
:101C700006882680D0F80200C4F802000120A07176
:101C80000020E071072020723C206072A172E27295
:101C900023736573207AE17940EA0120401C81B208
:101CA000A01DFEF7FBFF010AA173E073002070BDC9
:101CB000BC0000202DE9F041044606A890E8E010A1
:101CC0001448B0F800E0A4F800E0D0F80200C4F82E
:101CD00002000120A0710020E0710B2020723C2046
:101CE00060720720A072E17222736373A573E673BA
:101CF000277484F811C0207AE17940EA0120401C61
:101D000081B2A01DFEF7CAFF010AA174E074002091
:101D1000BDE8F081BC00002010B5044611480388DE
:101D20002380D0F80200C4F802000120A071002036
:101D3000E071072020720C206072080AA072E17224
:101D4000100A20736273207AE17940EA0120401C76
:101D500081B2A01DFEF7A2FF010AA173E07300206B
:101D600010BD0000BC00002010B504460E480288DB
:101D70002280D0F80200C4F802000120A0710020E7
:101D8000E071042020721F206072A172207AE17934
:101D900040EA0120401C81B2A01DFEF77FFF010A2E
:101DA000E1722073002010BDBC00002010B5044675
:101DB0000E4801882180D0F80200C4F802000120FA
:101DC000A0710020E0710320207233206072207A1D
:101DD000E17940EA0120401C81B2A01DFEF75EFFC0
:101DE000010AA172E072002010BD0000BC000020BA
:101DF000F8B50024009490F824202546012A12D03A
:101E0000012280F824204A681F23072A0DD2066881
:101E1000776B521E02EB820293409F430B68934004
:101E20001F43776319E00220F8BD06680D2A0AD225
:101E3000376BD21F02EB820293409F430B689340A3
:101E40001F43376309E0F76A0D3A02EB82029340C1
:101E50009F430B6893401F43F7620A680723066895
:101E60000A2A0AD3F7680A3A02EB420293409F43D8
:101E70008B6893401F43F76008E0376902EB42022A
:101E800093409F438B6893401F4337610A68102A31
:101E900001D0112A20D1124B02689A4217D19368BF
:101EA0001B0219D4936843F4000393600968102956
:101EB00012D10C490C4A0968B1FBF2F101EB810126
:101EC000490000E0491E00910029FBD104E0816A2D
:101ED00041F020018162012480F824502046F8BDA1
:101EE000002401402C00002040420F0008B50020D3
:101EF00000900A4832210288B2FBF1F28DF80020EE
:101F00004088B0FBF1F08DF8010004484268002AD7
:101F100002D002216846904708BD0000180000204A
:101F2000704770472DE9F0414FF0000704003D462F
:101F30007ED0A06A002628B9E66284F82460204694
:101F400000F07EF82046FEF7EBFAA16AC90600D43D
:101F500020B1A06A40F01000A06269E0A16A21F4FB
:101F6000885141F00201A1626268E169237B0A4362
:101F700047EA43010A43A1684FF48077B94209D088
:101F8000012907D05FF0000194F814C0BCF1010FE3
:101F900002D00AE03946F7E7F3B1A36A43F0200321
:101FA000A362E36A43F00103E3622368D3F804C049
:101FB0002CF4694C4CEA010CC3F804C021688B680E
:101FC000DFF870C003EA0C0313438B60A168B942C9
:101FD0000BD0012909D00CE0DFF85CC0A3690CEB41
:101FE00043330B4343F40061DFE7218A0D05A5F578
:101FF00080152168CB6A23F470032B43CB622168E0
:1020000089680E4B1940914208D1E662A16A21F01D
:10201000020141F00101A162BDE8F081A06A20F057
:10202000020040F01000A062E06A40F00100E062AF
:102030000120F1E7FDF7E1FF00E0FFFFFE0E1FFFCB
:1020400070B586B00025064600950195029503956A
:102050000068214988423CD12049886940F40070D9
:102060008861886900F400700490886940F0040079
:102070008861886900F004000490886940F00800D5
:1020800088618869032400F0080004900120CDE9EC
:1020900000046946124800F0F7FA009469461148B6
:1020A000019400F0F1FA114C0F48C4E900058020BA
:1020B000C4E90250400020618000C4E90505C00069
:1020C000E061204600F0DCF908B1FEF7CFFD346294
:1020D000666206B070BD000000240140001002409E
:1020E00000080140000C014008000240B40200203A
:1020F0002DE9F047894604463B4900683B4F0E1DD9
:102100009046884201D0B84207D1306810F4702F51
:1021100003D001252846BDE8F08794F82400012863
:102120000CD0012084F824002046FEF75DFA05005B
:102130004FF0000004D084F82400EBE70220EAE727
:10214000A16A40F60162914341F48071A162216865
:10215000B94218D1326812F4702F14D0A16A41F438
:102160008011A1623168490505D5A16A21F40051A9
:1021700041F48051A162A16AC9040AD5E16A21F043
:102180000601E16206E0A26A22F48012A2624968B6
:10219000E9E7E06284F82400216A15488862216A30
:1021A0001448C862216A1448086321686FF002006D
:1021B00008602068816841F480718160216843462D
:1021C0004A464C31206A00F089F920688168C1F3E1
:1021D00042410729816803D041F48011816099E769
:1021E00041F4A001FAE7000000240140002801406A
:1021F00077050008DF050008C505000830B5022393
:10220000437103689C6844F001049C60002304E06F
:10221000056851F823402C605B1C9342F8D3016899
:10222000096801224271084630BD10B5040002D091
:10223000607910B106E0012010BD00202071204619
:1022400000F004F801206071002010BD704710B547
:1022500090F821100022022905D00421816380F822
:102260002020012010BD01680B6823F00E030B60D5
:1022700001680B6823F001030B6090F84030C46BD9
:10228000012101FA03F3636080F8211080F8202017
:10229000104610BD10B590F821100024022903D07B
:1022A0000421816301243DE001680A6822F00E02E6
:1022B0000A6001680A6822F001020A601A4A01688D
:1022C000914201D1012121E0174A1432914201D1FA
:1022D00010211BE0144A2832914201D1891515E0E2
:1022E000114A3C32914201D189140FE00E4A50321A
:1022F000914202D14FF4803108E00B4A643291429E
:1023000002D14FF4801101E04FF08071064A083A83
:102310005160012180F82110002180F82010416BCC
:1023200001B18847204610BD080002402DE9F05F4A
:10233000C16B0C6801680B68D0F840C0042202FA37
:102340000CF2494DDFF824A1494E4A4FDFF828B17D
:10235000DFF828E122422CD05A072AD50A689206D3
:1023600003D40A6822F004020A600168A94201D17C
:10237000042219E0514501D1402215E0B14202D1B9
:102380004FF4806210E0B94202D14FF480420BE07A
:10239000594502D14FF4802206E0714502D14FF435
:1023A000800201E04FF080622F4908394A60C16A1B
:1023B0003BE04FF0020808FA0CF818EA040F4FF05F
:1023C00000094FF0010235D05FEA837832D50B68FF
:1023D0009B0605D40B6823F00A030B6080F82120CC
:1023E0000168A94201D1022219E0514501D1202200
:1023F00015E0B14202D14FF4007210E0B94202D1AF
:102400004FF400520BE0594502D14FF4003206E080
:10241000714502D14FF4001201E04FF000721249F1
:1024200008394A6080F82090816A00291AD0BDE8F6
:10243000F05F0847082505FA0CF5254212D01B0766
:1024400010D50B6823F00E030B6090F84010C36B9F
:1024500002FA01F15960826380F8212080F820900F
:10246000016BE2E7BDE8F09F080002401C0002405B
:102470003000024044000240580002406C0002401C
:1024800030B528B308C8134914221944B1FBF2F13E
:102490008900C16310498163022141771A6843F6BC
:1024A000F0718A43D0E900142143D0E902452C435E
:1024B0002143046921434469214384692143114331
:1024C000196000214163012242770177084630BD3F
:1024D000012030BDF8FFFDBF0000024070B504468A
:1024E00090F82000002501280CD0012084F820005D
:1024F00094F821600020012E06D084F820000225E7
:10250000284670BD022070BD022684F82160A063B9
:102510002068066826F0010606602046FEF7D6FA17
:10252000E06A00282068016802D041F00E0106E050
:1025300021F0040101602068016841F00A01016096
:102540002068016841F001010160D9E72DE9F041FF
:10255000002501263F4F0146802856D00FDC022976
:102560001AD008291AD0102929D040283CD140215E
:10257000384600F079F9384C012827D02DE037484B
:10258000B1F5807F00681CD0B1F5006F19D0B1F5AE
:10259000804F29D1324813E0324811E00022022353
:1025A0001146104602F068FA142003F0E5F8BDE881
:1025B000F04100231A461946184602F05DBA2A482F
:1025C0000068002810D0BDE8F0410047802138465F
:1025D00000F04AF908B9207828B14021384600F0C7
:1025E00043F918B10FE02670BDE8F081802138462C
:1025F00000F03AF9012806D12078012803D1002300
:102600001A46194623E02570EEE78021384600F08F
:102610002BF9164C012807D14021384600F024F947
:1026200010B920780028DED08021384600F01CF94F
:102630000028E8D14021384600F016F90128E2D1FF
:1026400020780128DFD100231A461946FF2002F026
:1026500013FAD8E7000C01400E010020080000200A
:102660000400002010010020C40000200F01002001
:10267000044910B50A68024202D00860FFF766FFFD
:1026800010BD0000140401402DE9F84FDFF8B891A7
:102690000024A9F1040B23460F2709F1040AABF12A
:1026A000040EC9E00125A5402A40AA427DD1674E0B
:1026B000D1F804C0ACEB0608B44532D014DCBCF150
:1026C000030F3AD009DCBCF1000F2AD0BCF1010F96
:1026D0001CD0BCF1020F31D11DE0BCF1110F17D09D
:1026E000BCF1120F2AD119E0B8F5881F19D006DC09
:1026F000B8F5803F15D0B8F5801F1FD111E0B8F5AF
:10270000001F0ED0B8F5041F18D10AE0CB6815E001
:10271000CB681B1D12E0CB6808330FE0CB680C338D
:102720000CE08B682BB1012B4FF0080303D04561FF
:1027300004E0042302E0056100E00023FF2A01D841
:10274000064601E000F104064FEA840501D9A5F12F
:102750002005D6F8008007FA05FC28EA0C0803FAE1
:1027600005F548EA0508C6F800804D68ED0062D519
:10277000374DAE6946F00106AE61AD6924F003063F
:1027800005F001050095334D06EB050CDCF808500B
:10279000A607360F07FA06F825EA0805DFF8B8801D
:1027A000404503D14FF0000817E044E0DFF8AC806B
:1027B000404502D14FF001080FE0DFF8A48040450A
:1027C00002D14FF0020808E0DFF89880404502D1BE
:1027D0004FF0030801E04FF0040808FA06F848EA51
:1027E0000508CCF808804D68D9F80060ED024D4628
:1027F00001D5164300E096432E604D68DAF800607C
:10280000AD02554601D5164300E096432E604D6853
:10281000DBF80060AD035D4601D5164300E096434A
:102820002E604D68DEF80060ED03754601D5164355
:1028300000E096432E60641C0D682A46E5407FF454
:1028400031AFBDE8F88F000008040140000011100E
:10285000001002400000014000080140000C01404F
:1028600000100140001401408068084000D00120A1
:1028700070470AB1016170470904FBE701488068AD
:10288000704700002000002002488168027811444F
:102890008160704720000020074810B5016841F0B2
:1028A00010010160032000F075F80F2000F006F819
:1028B00000F024F8002010BD0020024070B50D4D3E
:1028C00004464FF47A712878B1FBF0F00A490968A0
:1028D000B1FBF0F000F038FD48B9102C07D200220F
:1028E0002146501E00F036F800206C6070BD0120BB
:1028F00070BD0000200000202C0000200C4808B50E
:10290000816941F001018161816901F0010100915A
:10291000C16941F08051C161C06900F080500090F0
:102920000448416821F0E06141F00071416008BD58
:102930000010024000000140002809DB00F01F02E7
:10294000012191404009800000F1E020C0F8001111
:1029500070470000F0B40E4B1B680C46C3F3022313
:10296000C3F10705042D00D90425191D072901D23B
:10297000002300E0DB1E012606FA05F1491E214076
:1029800099409E40761E16403143F0BC02F05ABD7D
:102990000CED00E0064900F0070208684FF6FF035F
:1029A000184040EA0220034A1043086070470000C4
:1029B0000CED00E00000FA052DE9F0470F46050098
:1029C00061D0434E306800F00700B84209D2306849
:1029D00020F0070038433060306800F00700B8424C
:1029E00051D128683B4C810712D5400703D5606858
:1029F00040F4E06060602878000703D5606840F428
:102A0000605060606068A96820F0F0000843606072
:102A10002878C00728D06868012810D021680228CB
:102A200010D0890700292EDA616821F003010143E3
:102A30006160FFF723FF804641F288390DE021688D
:102A40008903EFE78901EDE7FFF718FFA0EB080125
:102A5000494502D90320BDE8F0876068696800F045
:102A60000C00B0EB810FEFD1306800F00700B842E6
:102A70000BD9306820F0070038433060306800F030
:102A80000700B84201D00120E5E72878400705D5C6
:102A90006068E96820F4E060084360602878000717
:102AA00006D56068296920F4605040EAC100606082
:102AB00000F038F86168084AC1F30311515CC8405E
:102AC0000649086006480068FFF7F8FE0020C2E7E4
:102AD00000200240001002407E7D00082C000020F3
:102AE000240000200448054900684968044AC1F3ED
:102AF0000221515CC84070472C00002000100240A9
:102B00008E7D00080448054900684968044AC1F3FD
:102B1000C221515CC84070472C00002000100240C8
:102B20008E7D00080F4A516801F00C00042803D084
:102B3000082803D00C4870470C4870470C48C1F374
:102B40008343C903C05C0AD55168094AC1F34041B7
:102B5000921E515C054A5043B0FBF1F070470549A5
:102B6000484370470010024000127A000024F4002D
:102B70006E7D000800093D002DE9F84F040070D07B
:102B80002078C04DC00749D06868C0F38100012893
:102B900007D06868C0F38100022809D16868C003C3
:102BA00006D52868800339D560680028E7D035E06D
:102BB0006068B0F5803F0BD010B1B0F5A02F11D0F8
:102BC000286820F480302860286820F4802002E003
:102BD000286840F480302860606890B1FFF74EFEAE
:102BE00006460AE0286840F480202860F0E700BF2D
:102BF000FFF744FE801B642873D828688003F7D54C
:102C00000CE0FFF73BFE064605E000BFFFF736FE8F
:102C1000801B6428F0D828688003F7D420789A4E67
:102C200080074FF001094FF0000839D5686810F0AF
:102C30000C0F07D06868C0F38100022809D16868CA
:102C4000C00306D42868800714D52069012808D15C
:102C500010E02069B0B1C6F80090FFF70FFE0746FC
:102C600005E00AE1FFF70AFEC01B0228C4D8286865
:102C70008007F7D52868616920F0F80040EAC100B4
:102C800028600DE0C6F80080FFF7F8FD074604E075
:102C9000FFF7F4FDC01B022823D828688007F7D46B
:102CA000207800072CD57948A169D9B1C0F80090E7
:102CB000FFF7E4FD074604E0FFF7E0FDC01B022834
:102CC0000FD8686A8007F7D571484FF4FA51006849
:102CD000B0FBF1F0009000BF0098411E0091FAD2C5
:102CE0000EE080E0C0F80080FFF7C8FD074604E072
:102CF000FFF7C4FDC01B022875D8686A8007F7D4A7
:102D00002078400760D5E8690027C00008D4E8694A
:102D100040F08050E861E869012700F080500090A1
:102D20005C480168C90513D40168834641F4807189
:102D30000160FFF7A3FD824606E000BFFFF79EFD9E
:102D4000A0EB0A0064284ED8DBF80000C005F5D5DA
:102D5000E06801280AD008B1052813D0286A20F0BD
:102D600001002862286A20F0040002E0286A40F08E
:102D700001002862E06841F2883B98B1FFF77EFDD0
:102D800082460BE0286A40F004002862EEE700BFAC
:102D9000FFF774FDA0EB0A0159455AD8286A80074D
:102DA000F6D50CE0FFF76AFD824605E0FFF766FD09
:102DB000A0EB0A0159454CD8286A8007F6D41FB108
:102DC000E86920F08050E861E06988B36968C1F380
:102DD0008101022944D00228C6F8608004D0FFF7A0
:102DE0004DFD044638E034E0FFF748FD074604E0B7
:102DF000FFF744FDC01B02282BD828688001F7D4B8
:102E0000206AB0F5803F05D16868A16820F40030E1
:102E100008436860D4E908010843696821F4741123
:102E200008436860C6F86090FFF728FD044606E096
:102E300025E000BFFFF722FD001B022809D8286803
:102E40008001F7D51BE000BFFFF718FD001B02282B
:102E500002D90320BDE8F88F28688001F4D40EE081
:102E60000128F7D06868226A00F48031914204D1C9
:102E7000616A00F47010884201D00120EAE7002066
:102E8000E8E7000000100240000042428004424295
:102E90002C00002000700040704770B5040009D07D
:102EA000606A002540B125616561A56294F8510012
:102EB00040B10CE0012070BD6068B0F5827FF4D0B5
:102EC000E561F2E784F85050204600F03FF8022018
:102ED00084F851002068016821F040010160A08859
:102EE000218900F4827001F404410843A18901F4AE
:102EF00000610843217C01F002010843217D01F0BB
:102F000001010843218B01F400710843217F01F086
:102F10003801084394F8201001F080010843218D06
:102F200001F40051084321680860A069042101EA06
:102F30001040216848602068C16921F40061C161C6
:102F40006565012084F85100002070BD2DE9F04F27
:102F500089B0002504460095019502950395006807
:102F60003A493B4F4FF002094FF0030A4FF0100B64
:102F70004FF08008884236D1B86940F00400B8614B
:102F8000B86904A900F004000890E020CDE9040924
:102F90000120CDE9060A2F48FFF776FB2F4E2E4879
:102FA000C6E9025835617561B561F561C6E9000B86
:102FB0003046FFF765FA08B1FDF758FEA664746263
:102FC0002548274E1438C6E90005C6E90258356180
:102FD0007561B5613046F561FFF752FA08B1FDF74A
:102FE00045FEE66474621F49206888422BD1F86967
:102FF00040F48040F861F86900F480400490B869BA
:1030000040F00800B861B869CDF80CA000F00800E5
:103010000490C813CDE9000969461348FFF734FB53
:10302000124E0D48C6E9025835617561B561283008
:10303000F561C6E9000B3046FFF722FA08B1FDF74B
:1030400015FEA664746209B0BDE8F08F003001403F
:103050000010024000080140300002408C2F002088
:10306000D02F002000380040000C0140482F0020E5
:103070002DE9FF4F81B0044690F8500000260E9FC6
:103080001D4693464FF0010901280FD04FF0010A69
:1030900084F850A0FFF7F2FB804694F85100616875
:1030A00001280DD0B1F5827F08D103E0022005B0E0
:1030B000BDE8F08FA16809B9042801D00226C9E053
:1030C0000298002865D0BBF1000FFBD0002DF9D08D
:1030D00094F85100042802D0052084F85100002003
:1030E0006065C4F838B0E587A58702992163E58655
:1030F000A5862064606420680168490603D40168DD
:1031000041F040010160E068B0F5006F606803D0F5
:10311000F0B3012D47D081E008B1012D3CD1206BE7
:1031200021680088C860206B801C2063E08E401EF0
:10313000E08631E02068816889070FD5E18E69B1AA
:10314000B9F1010F0AD1216B0988C160206B801C85
:103150002063E08E401EE0864FF000092068816801
:10316000C9070CD0E18F51B1C068A16B0880A06B7A
:10317000801CA063E08F401EE0874FF00109FFF73D
:103180007DFBA0EB0800B84206D3781C04D001E018
:1031900009E05BE003265BE0E08E0028CAD1E08F07
:1031A0000028C7D140E0206B216800780873206BAD
:1031B000401C2063E08E401EE0862FE0206881687E
:1031C00089070FD5E18E69B1B9F1010F0AD1216BE1
:1031D00009780173206B401C2063E08E401EE0865E
:1031E0004FF0000920688168C9070CD0E18F51B108
:1031F000C068A16B0870A06B401CA063E08F401EEC
:10320000E0874FF00109FFF739FBA0EB0800B84257
:1032100002D3781C02D0BAE7002FB8D0E08E002885
:10322000CCD1E08F0028C9D142463946204601F072
:1032300029FD18B10126202060650BE0A06818B9AF
:103240002068C16880680090606D08B1012601E0C7
:1032500084F851A0002084F85000304627E7000091
:1032600070B5044690F850000026012809D00120CE
:1032700084F8500094F851000025012803D002265C
:103280004AE0022070BD89B182B1032084F8510068
:1032900065652163A286E286A56365642564A587CA
:1032A000E587A068B0F5004F02D00BE0012633E0BF
:1032B0002068016821F0400101602068016841F444
:1032C00080410160A16C1648C862A16C15488862F3
:1032D000A16C15480863A06C4563E38E2268216BDE
:1032E0000C32A06CFFF7FAF820B1606D40F01000CE
:1032F0006065DBE720680168490603D4016841F096
:10330000400101602068416841F02001416020686F
:10331000416841F00201416084F85050304670BD70
:10332000174C0008214C0008F54B00087047704707
:103330004FF0E0210428086903D020F00400086160
:10334000704740F00400FAE710B5401EB0F1807FEE
:1033500001D3012010BD4FF0E02460610F21601700
:1033600002F070F80020A06107202061002010BD4D
:103370007047704710B5040003D094F83D0010B1B9
:1033800007E0012010BD002084F83C00204600F03A
:103390001FF8022084F83D00211D206801F048FD3F
:1033A000012084F8460084F83E0084F83F0084F849
:1033B000400084F8410084F8420084F8430084F817
:1033C000440084F8450084F83D00002010BD000052
:1033D00008B50068B0F1804F12D10A48C16941F0C8
:1033E0000101C161C069002200F0010000900921C3
:1033F0001C20FFF7AFFABDE808401C20FFF79CBA7D
:1034000008BD00000010024090F83D10012901D0D5
:1034100001207047022180F83D100168CA6842F01F
:103420000102CA6000680B49884208D0B0F1804FA1
:1034300005D00949884202D00849884204D18168F0
:1034400001F00701062903D0016841F00101016084
:1034500000207047002C014000040040000800409C
:103460000168CA6822F00102CA6001680A6A41F272
:1034700011131A4207D10A6A9B101A4203D10A6833
:1034800022F001020A60012180F83D1000207047FF
:10349000704770B50446006801694FF00005C943E4
:1034A000890715D4C168C943890711D4E91E016190
:1034B00001202077206880698007204602D0FFF72E
:1034C000E7FF04E000F098F8204600F096F8257732
:1034D00020680169C943490717D4C168C94349072E
:1034E00013D46FF004010161022020772068806905
:1034F00010F4407F204602D0FFF7CAFF04E000F03E
:103500007BF8204600F079F8257720680169C943E7
:10351000090716D4C168C943090712D46FF008011E
:103520000161042020772068C0698007204602D00E
:10353000FFF7AEFF04E000F05FF8204600F05DF812
:10354000257720680169C943C90617D4C168C943F2
:10355000C90613D46FF0100101610820207720689C
:10356000C06910F4407F204602D0FFF791FF04E0CD
:1035700000F042F8204600F040F825772068016905
:10358000C943C90708D1C168C943C90704D1891E05
:103590000161204600F032F820680169C94309063C
:1035A00009D4C168C943090605D46FF080010161DF
:1035B0002046FFF7DDFE20680169C943490609D4AA
:1035C000C168C943490605D46FF040010161204636
:1035D00000F094F820680169C94389060BD4C168DA
:1035E000C943890607D46FF0200101612046BDE878
:1035F0007040FFF7BEBE70BD7047704770B53C4C61
:103600002078002518B12078012824D051E0616984
:10361000206AFCF769FE2062A169606AFCF764FE1B
:103620006062E169A06AFCF75FFEA0626169206ADE
:10363000FCF7B8FE09D3A169606AFCF7B3FE04D3B6
:10364000E169A06AFCF7AEFE33D20120207025624A
:103650006562A5622DE06169206AFCF7F3FD2062D6
:10366000A169606AFCF7EEFD6062E169A06AFCF79F
:10367000E9FDA0626169E06AFCF736FE216AFCF7A9
:1036800091FE0FD3A169206BFCF72EFE616AFCF757
:1036900089FE07D3E169606BFCF726FEA16AFCF79F
:1036A00081FE06D22570E06A2062206B6062606B4A
:1036B000A062206AFCF761FE0504606AFCF75DFE0B
:1036C00045EA0025A06AFCF758FEC0B20543E56054
:1036D00008490020E26841F82020401CC0B20628BA
:1036E000F8D3BDE87040044A0621024801F00EBE3E
:1036F000440100204C4300202C42002070477047BA
:1037000070470000F8B5016804460868CA684B694C
:1037100010F00F0F4FF0000559D003F0010602F42E
:103720009077374365D0C10705D0D10503D5616CCB
:1037300041F001016164410705D5D90703D0616CEF
:1037400041F002016164810705D5D90703D0616C9E
:1037500041F004016164010707D502F02001314303
:1037600003D0616C41F008016164616C00293AD0BA
:10377000800604D5900602D5204601F090FC206812
:103780004069616CC0F38010090700D460B3204623
:1037900001F05EFC20684069400621D520681430A5
:1037A00050E8001F21F0400140E80012002AF5D146
:1037B000E06BA8B16D494163E06BFEF76BFD00283B
:1037C00011D0E06B416B01B0BDE8F04008478306C3
:1037D0000FD593060DD52046BDE8F84001F05FBC3B
:1037E0002046FFF78DFFF8BD2046FFF789FF65648F
:1037F000F8BD266B2023012E7CD1C6067AD5D606CD
:1038000078D508684868009048694FF0020640067D
:1038100040D5E16B086840680004000CE8D0A28D38
:103820008242E5D9E085886920282DD020680C30B7
:1038300050E8001F21F4807140E80012002AF5D101
:103840002068143050E8001F21F0010140E8001208
:10385000002AF5D12068143050E8001F21F0400103
:1038600040E80012002AF5D184F842302563206830
:103870000C3050E8001F21F0100140E80012002A2F
:10388000F5D1E06BFEF7E3FC6663A08DE18D401A95
:1038900081B22AE0A08DE18D401A81B2E08D00282E
:1038A000A6D00029A4D022680C3252E8000F20F4E0
:1038B000907042E80007002FF5D12068143050E8DE
:1038C000002F22F0010240E80027002FF5D184F8F4
:1038D0004230256320680C3050E8002F22F010029F
:1038E00040E80023002BF5D166632046FFF707FF71
:1038F000F8BDFFE705062BD5150629D594F841003C
:103900002128F5D1A068B0F5805F01D12069B0B160
:10391000206A411C2162216800784860E08C401ECA
:103920000004000CE084E3D12068C16821F080012C
:10393000C1602068C16841F04001C160D8E7206AD9
:103940000088C0F308004860206A801C2062E5E718
:103950004006CDD55006CBD5CA68204622F040029D
:10396000CA6084F8413000F06DF9C1E741500008A9
:1039700070B5040004D094F84100002510B106E0B1
:10398000012070BD84F84050204600F023F8242028
:1039900084F841002068C16821F40051C1602046CC
:1039A00001F0DEFB2068016921F49041016120688B
:1039B000416921F02A0141612068C16841F4005148
:1039C000C1606564202084F8410084F8420065638A
:1039D000002070BDF0B585B00024009401940294DD
:1039E000039403683F4F02203F4903223F4D4602A4
:1039F000BB4225D18B6943F480438B618B6903F40F
:103A0000804304938B6943F004038B6189690392BB
:103A100001F0040104910102CDE900106946284635
:103A2000FEF732FECDE90064694628460294FEF7AF
:103A30002BFE002206212520FEF78CFF252028E002
:103A40002B4FBB4229D1CB6943F40033CB61CB6907
:103A500003F4003304938B6943F004038B61896999
:103A6000039201F0040104910421CDE9001069469C
:103A70002846FEF709FE0820CDE9000469462846DD
:103A80000294FEF701FE002206212620FEF762FFC7
:103A90002620FEF751FF05B0F0BD164DAB42FAD11E
:103AA000CB6943F48023CB61CB6903F48023049377
:103AB0008B6943F008038B6189690F4D01F00801A0
:103AC000CDE90321CDE9006069462846FEF7DCFD1B
:103AD000E814CDE90004694628460294FEF7D4FDB7
:103AE000D9E7000000380140001002400008014002
:103AF0000044004000480040000C01402DE9F8431C
:103B0000044690F84200994616460D46202802D0F9
:103B10000220BDE8F883ADB1A6B100206064222187
:103B200084F842102063FEF7A9FEA6858046E6854C
:103B3000A0684FF48057B84201D1206920B12E46C9
:103B4000002526E00120E4E7002622E0434600228B
:103B500020212046CDF8009001F05EFB08B1032043
:103B6000D7E726B1A068B8421BD038B108E020687A
:103B70004068C0F3080025F8020B07E0206980B117
:103B80002068406800F07F0006F8010BE08D401EC1
:103B9000E085E08D0028D9D1202084F84200002063
:103BA000B7E720684068EFE770472DE9F84304461F
:103BB00090F841001F4616460D46202802D00220EC
:103BC000BDE8F8837DB176B100206064212084F8DF
:103BD0004100FEF753FEA6848046E684A068B0F557
:103BE000805F02D003E00120EAE7206910B12E4691
:103BF00000250EE000260CE08021204601F00CFBA1
:103C0000A0B9AEB116F8010B21684860E08C401EE7
:103C1000E084E08C43464FF0000200970028EBD18F
:103C20004FF04001204601F0F7FA30B10320C7E71A
:103C300035F8020BC0F30800E6E7202084F84100C5
:103C40000020BDE7704700002DE9F04FF74D89B027
:103C5000A879801CC1B2681D00F0B0FC6979C0B2BF
:103C6000FE2900D120B109B04FF0FF30BDE8F08F40
:103C7000E879EE4EEE4C002747364FF47A7B4FF052
:103C80000209142861D2DFE800F06060FD60606026
:103C9000606060606020416160770A9CFCFB009777
:103CA00001970297039700216846FEF75DF89DF89B
:103CB00008009DF80710093040EA01225B4669467A
:103CC000DC48FFF772FF01213CE0E87AA97A2E7BFD
:103CD00040EA0127A87B697B40EA01251421684658
:103CE000FCF795FA2B46324639466846FDF76CFFDD
:103CF0009DF808009DF80710093040EA01225B4654
:103D00006946CC48FFF751FF02211BE0E87AA97A07
:103D100040EA0121687B2A7B009740EA0222019752
:103D2000029703976846FDF7F7FF9DF808009DF896
:103D30000710093040EA01225B466946BD48FFF79B
:103D400034FF0421206803F06FF9CBE3A97AEA7A03
:103D50002B7B687B0197029703970497009001A83B
:103D6000FDF782FF9DF80C009DF80B10093040EA2A
:103D700001225B4601A920E095F80AA095F80B9076
:103D800095F80C806E7BAF7BEC7B2D7C142104A816
:103D9000FCF73DFA43464A46514604A8CDE90245A0
:103DA000CDE90067FDF786FF9DF818009DF8171014
:103DB000093040EA01225B4604A99E48FFF7F5FE60
:103DC00090E3687A297A9C4C40EA0120A080A97A85
:103DD0004FF48018002952D1012801D028B14EE0BB
:103DE000E87AA070287B207049E0E87AA1788842C0
:103DF00045D10097377020787070B770002105E0CA
:103E00006A18127B7318491CDA70C9B202468142E3
:103E1000F6D3D01CC1B285484730FCF735FE0146C9
:103E2000009086A001F0FEFAA078227800EBC00195
:103E300001EB00117D4808EB81014730D21CFDF7F2
:103E400075FE0A2002F0AAFCA078042200EBC00153
:103E500001EB0010217801EB800101F5801168462B
:103E6000C91CFDF763FEA77027706770A78000204C
:103E7000FCF742FE6D4864214730FCF7C8F902E0C8
:103E800034E3CBE2DDE2A87A012850D1A0880128F2
:103E900001D028B14BE0E87AA070287B207046E082
:103EA000E87AA178884242D10120009730702178C9
:103EB0007170B770002005E02A18127B3318401C7F
:103EC000DA70C0B20A468842F6D35848D11CC9B24B
:103ED0004730FCF7D9FD0090A078227800EBC001B4
:103EE00001EB0011514808EB81014730D21CFDF76E
:103EF0001DFE0A2002F052FCA078042200EBC00153
:103F000001EB0010217801EB800101F5801168467A
:103F1000C91CFDF70BFEA77027706770A7800020F3
:103F2000FCF7EAFD414864214730FCF770F9A87AB4
:103F300002286FD1A288022A02D0012A07D01BE0F2
:103F4000E87AA070287B2070687B607062E0E87A75
:103F5000A17888425ED186F8009021787170B770A0
:103F6000002007E02B181B7B06EB000C401C8CF894
:103F70000330C0B28842F5D3EABBE87AA178884220
:103F800048D100972178627870189146C270077105
:103F9000002008E02B181B7B01EB000CB444401CF4
:103FA0008CF80430C0B29042F4D301EB0900001D3C
:103FB000C1B21E484730FCF767FD0146009024A0BF
:103FC00001F030FA207861784218A078521D00EB99
:103FD000C00101EB0011154808EB81014730FDF7E6
:103FE000A5FD0A2002F0DAFBA07800EBC00101EB8E
:103FF0000010217800E00DE001EB800061780422E0
:10400000014401F580116846491DFDF78FFD002030
:10401000FCF772FDA97ADFF814B003290BF10C0B41
:104020005BD1A08801281DD008B356E0384100209C
:104030001C010020F4010020240100206372635F52
:1040400076616C7565203D2025640D0A0000000036
:1040500073746F726520637263203D2025780D0AAA
:1040600000000000E87AA070287B207035E0E87A34
:10407000A178884231D10320009730702278727085
:10408000B7705946F01CFCF7A9F82078C01CC1B2E3
:10409000FE48FCF7F9FC0090A078227800EBC00104
:1040A00001EB001108EB8101F848D21CFDF73EFD41
:1040B0000A2002F073FBA078042200EBC00101EBA0
:1040C0000010217801EB800101F580116846C91CC0
:1040D000FDF72CFD0020FCF70FFDA87A042820D165
:1040E000009795F80B90287B042131707070B770A1
:1040F0000321E648FCF7C8FC09EBC90101EB0919EB
:10410000009008EB89010322E048FDF70FFD0A202B
:1041100002F044FBDE49042201EB89016846FDF709
:1041200005FDA87ADFF86C83052808F1030950D152
:10413000A088012801D028B14BE0E87AA070287B44
:10414000207046E0E87AA178884242D105200097A5
:10415000307020787070B770002105E06A18127B0B
:104160007318491CDA70C9B202468142F6D3D01CDA
:10417000C1B2C648FCF788FC01460090AFF244107B
:1041800001F050F9A078227800EBC00101EB00119A
:1041900008EB8101BD48D21CFDF7C8FC0A2002F0E3
:1041A000FDFAA078042200EBC00101EB0010217899
:1041B00001EB800149446846FDF7B8FCA770277001
:1041C0006770A7800020FCF797FC6421AF48FCF7DC
:1041D0001EF8A87A06284BD1A088012801D028B162
:1041E00046E0E87AA070287B207041E0E87AA17868
:1041F00088423DD106200097307021787170B770E9
:10420000002005E02A18127B3318401CDA70C0B277
:104210000A468842F6D3D11CC9B29C48FCF734FC4C
:104220000090A078227800EBC00101EB001108EBB0
:1042300081019648D21CFDF779FC0A2002F0AEFA03
:10424000A078042200EBC00101EB0010217801EB03
:10425000800149446846FDF769FCA77027706770C4
:10426000A7800020FCF748FC64218848FBF7CFFFBB
:10427000A87A07286ED1A288022A02D0012A07D084
:104280001BE0E87AA070287B2070687B607061E09A
:10429000E87AA17888425DD107203070217871706A
:1042A000B770002007E02B181B7B06EB000C401CAE
:1042B0008CF80330C0B28842F5D3E2BBE87AA1782B
:1042C000884247D100972178627870189246C27070
:1042D0000771002008E02B181B7B01EB000CB44495
:1042E000401C8CF80430C0B29042F4D301EB0A00B9
:1042F000001DC1B26548FCF7C7FB01460090AFF254
:10430000B02001F08FF8207861784218A078521D13
:1043100000EBC00101EB001108EB81015B48FDF7E8
:1043200005FC0A2002F03AFAA07800EBC00101EB8C
:104330000011207800E00DE000EB8100617804229C
:1043400008445449491D01446846FDF7EFFB00202D
:10435000FCF7D2FBA87A08283DD1A088012801D01B
:1043600028B138E0E87AA070287B207033E0E87A42
:10437000A17888422FD1082000973070227872707F
:10438000B7705946F01CFBF729FF2078C01CC1B25A
:104390003E48FCF779FB0090A078227800EBC00142
:1043A00001EB001108EB81013848D21CFDF7BEFB80
:1043B0000A2002F0F3F9A078042200EBC00101EB1F
:1043C0000010217801EB800149446846FDF7AEFBFF
:1043D0000020FCF791FBA87A09281ED10097EC7AFF
:1043E000287B092131707070B77003212748FCF7D2
:1043F0004BFB009004EBC40000EB041408EB8401B9
:1044000003222248FDF792FB0A2002F0C7F909EBCC
:10441000840104226846FDF789FB63E0A97AEB7A00
:104420002A7B687B090641EA034141EA02210143F4
:104430001948009100231A466946006802F08EFF71
:1044400050E0009701970297039714A103A80497DF
:10445000FBF7EFFE03A914A000F0E4FF14A16846E7
:10446000FBF7E7FE694610A000F0DCFF134CFE20CE
:1044700020701520607084F80290E77000986060EA
:104480000198A060BDF80800A08119E07F410020DC
:1044900003001000102710004C01002032313A3286
:1044A000353A32330000000025730D0A0000000089
:1044B0004F6374203233203230323300E940002021
:1044C0009DF80A00A0730398C4F80F000498C4F87C
:1044D000130017212046FCF7E0F8E075182120466C
:1044E00000F03CFC09B00020BDE8F08FA87AE97A22
:1044F0003070717002210848FCF7C6FA0090022261
:1045000006490548FDF712FB0A2002F047F9034966
:104510000422891C7EE700007F410020204E10000D
:10452000FEE700000E4810B5816986B041F0080131
:1045300081618069012400F0080004904FF440700C
:10454000CDE900040320CDE9024069460548FEF7A5
:104550009BF80548C0F8A441C0F8A04106B010BDC2
:1045600000100240000C01400080214208B50146C5
:10457000012000900948406868B100236A4602F0B3
:10458000B3FF009838B106494FF080500860BFF380
:104590004F8FBFF36F8F002008BD00007C0100200B
:1045A00004ED00E00448002101604160816000F1F9
:1045B0000C010160704700002C41002010B5002361
:1045C0001A4604E0845C521C2344DBB2D2B28A4215
:1045D000F8D3405C984201D1002010BD4FF0FF306D
:1045E00010BD000008B51048C17801F00F0108297E
:1045F00014D2DFE801F013041313131313144179D9
:104600008279C3798DF8003008A000F00BFF1348C1
:1046100000231A466946C06902F0A0FE08BDBDE845
:104620000840FFF711BB0000384100207665727327
:10463000696F6E203D2025782C636F6E6E65637404
:10464000696F6E203D2025782C6C65645F73746102
:104650007465203D2025780D0A000000240100200B
:1046600008B50146012000900948806968B100231F
:104670006A4602F039FF009838B106494FF0805081
:104680000860BFF34F8FBFF36F8F002008BD00009D
:104690002401002004ED00E070B52B4C0546627942
:1046A00020460121006882B1A27992B1E279A2B1DB
:1046B000227904F10C06052A19D205702068401CE5
:1046C00020602079401C20711FE0572D37D1617187
:1046D00005E0AB2D33D1A17101E085BBE17105701F
:1046E0002068401C20602079401C207129E020793E
:1046F00005280AD12172307960812079401C20710F
:104700006089402801D9FFF74DFF207A012818D190
:10471000608940B16089401E608120680570206812
:10472000401C20600DE0206805703079401DC1B24A
:1047300005480C30FFF742FF08B9FFF753FFFFF7BA
:1047400031FF002070BD00002C4100203EB500214B
:10475000174800910191154A0291026092158260FA
:104760000173017502244FF460220461C26141604B
:10477000FDF7D8FB08B1FCF779FA0820009001207A
:1047800001900720029069460948FDF731FB08B106
:10479000FCF76CFA0920CDE9000469460448FDF7EE
:1047A00027FB002801D0FCF761FA3EBD0024014040
:1047B00084020020154808B5416941F001014161BA
:1047C0004069002200F00100009006210B20FEF756
:1047D000C1F80B20FEF7B0F8002206210C20FEF7EE
:1047E000B9F80C20FEF7A8F8002206210D20FEF7EC
:1047F000B1F80D20FEF7A0F8002206210F20FEF7E9
:10480000A9F8BDE808400F20FEF796B80010024056
:1048100030B52B4885B0816941F00401816181691F
:1048200001F004010491816941F00801816181690D
:1048300001F008010491816941F0100181618169F1
:1048400001F010010491816941F0200181618069CA
:10485000012400F0200004904FF4106000901948EB
:10486000CDE901040320039069461748FDF70CFFCA
:10487000600300900020CDE90104144D69462846EC
:104880000394FDF701FFA00300901148CDE9010456
:10489000694628460394FDF7F7FE00220B211720F6
:1048A000FEF758F81720FEF747F8002209212820C4
:1048B000FEF750F82820FEF73FF805B030BD0000A5
:1048C000001002400000311000080140000C0140BF
:1048D0000000211010B5134C1148022120604FF444
:1048E000827060604FF40040A0600020C4E90301C2
:1048F000012161614902A1610821C4E907106062D8
:10490000A0620A20E0622046FEF7C7FA08B1FCF771
:10491000ADF92068016841F04001016010BD000060
:1049200000380040F02E002010B50E4C0C480C2131
:1049300020604FF4165060600020A060E060C4E981
:104940000401A061E0612046FFF712F808B1FCF70E
:104950008DF92068C16841F02001C16010BD0000E0
:1049600000380140AC01002010B50E4C0C480C2161
:1049700020604FF4614060600020A060E060C4E906
:104980000401A061E0612046FEF7F2FF08B1FCF7E8
:104990006DF92068C16841F02001C16010BD0000C0
:1049A00000440040F401002010B50E4C0C480C21CE
:1049B00020604FF4E13060600020A060E060C4E956
:1049C0000401A061E0612046FEF7D2FF08B1FCF7C8
:1049D0004DF92068C16841F02001C16010BD0000A0
:1049E000004800403C020020FEE7FEE708B5012039
:1049F00000900948406968B16A46002101F046FF0D
:104A0000009838B105494FF080500860BFF34F8FD0
:104A1000BFF36F8F002008BD2401002004ED00E0EB
:104A200031B59DF800003038062802D34FF0FF3032
:104A300038BD012269469020FBF7A4FE0B4802799D
:104A40004FF47A74014623460948921DFFF7ADF8EA
:104A5000012000F091FE23460E2206490448FFF78C
:104A6000A4F8012000F088FE002038BD442E00206C
:104A7000AC010020B47D000870B50E4C0525E57032
:104A8000257101256571A371E1712272607220792F
:104A9000401DC1B22046FBF700FE2279611D505433
:104AA00022794FF47A73491F0348921DFFF77DF86E
:104AB000002070BD442E0020AC0100202DE9F047FD
:104AC00081469A46164688461B48089FFEF7C8FC52
:104AD00000241A4D29E000BF4FEA094141EA0821AC
:104AE0003143002045F82010401CC0B20628F9D3FD
:104AF000114A06214832114800F008FC504601F0E6
:104B00004DFE00214FEA010045F82010401CC0B2C4
:104B10000628F9D3084A06214832084800F0F6FB77
:104B2000504601F03BFE641CE4B2BC42D4D3BDE865
:104B3000F0470148FEF768BCE44100204C430020E8
:104B400001494860002070471800002001490860B2
:104B500000207047040000200149086000207047D1
:104B6000100100200149886000207047BC0000202F
:104B70000149486000207047040000200149086096
:104B8000002070470C000020014948600020704759
:104B90000C00002038B51448816941F480518161CE
:104BA0008069134C00F480500090104820604FF44E
:104BB0008270606000200221A060C4E9030101212D
:104BC00061614902A1611021C4E907106062A0621D
:104BD0000720E0622046FEF760F92068016841F096
:104BE0004001016038BD000000100240003001406B
:104BF0001430002010B5406A01684A6822F00302B0
:104C00004A60416D41F010014165012180F8511069
:104C1000FEF742F910BD10B5406AFEF788FB10BDE3
:104C200038B50546446AFDF729FE02462868006843
:104C3000800623D42068416821F02001416020686B
:104C4000416821F0020141606421204600F01AF819
:104C500018B1606D40F020006065A068002118B9AF
:104C60002068C26880680090E186012084F85100C5
:104C7000606D18B12046FEF70FF938BD2046FEF7EB
:104C800055FB38BD38B50B46009204460022802102
:104C900000F008F8002804D0606D40F02000606546
:104CA000032038BD2DE9F8431E4691468846044648
:104CB000089DFDF7E3FD401B351AFDF7DFFD0746B4
:104CC00025480068C0F3CB30684338E0701C37D00B
:104CD000FDF7D4FDC01BA84203D215B1009860B304
:104CE0002CE02068416821F0E00141606068B0F587
:104CF000827F0BD1A068B0F5004F02D0B0F5806F75
:104D000004D12068016821F040010160A06AB0F57B
:104D1000005F09D12068016821F40051016020681A
:104D2000016841F400510160012084F85100002025
:104D300084F850000320BDE8F8830025401E009051
:104D40002068816838EA010004D000214945BDD1BE
:104D50000020F0E70121F9E72C00002010B54129DF
:104D600002D94FF0FF3010BD0D4C0622E2702171C8
:104D70000A460146601DFBF731FA2079401DC1B299
:104D80002046FBF78AFC2279611D505422794FF4AA
:104D90007A73491F03480932FEF707FF002010BD50
:104DA000442E0020AC01002010B5FDF76DFD02F08F
:104DB0003FFD012803D0BDE8104002F00DBA10BD40
:104DC00010B590B028216846FBF721FA14210AA8F3
:104DD000FBF71DFA01210804CDE900104200029200
:104DE00002240491CDE907404FF4E0100990684691
:104DF000FDF7C2FE08B172B6FEE70F20CDE90A0446
:104E000000204FF48061CDE90C010E9002210AA828
:104E1000FDF7D2FD002801D072B6FEE710B010BD3C
:104E2000704700000148FEF734BB0000E441002059
:104E3000F0B50268164B174C174D4FF0804798425B
:104E400005D0B84203D0A04201D0A84203D122F03D
:104E500070064A683243984205D0B84203D0A04257
:104E600001D0A84203D122F44074CA6822434C699D
:104E700022F08002224302608A68C2620A6882626B
:104E8000984201D10969016301214161F0BD00002F
:104E9000002C014000040040000800401CB50649F9
:104EA0000620CDE900010023642204A1084802F095
:104EB00093FC00201CBD0000340100204163746994
:104EC0006F6E4B6579436F6E74726F6C00000000FB
:104ED0001967000810B501F0ADFA00F011F800F004
:104EE00045F800F079F800F027F800F08DF8FFF7AA
:104EF000D5FF00F055F8BDE8104001F0D7BA00002A
:104F00001CB506490320CDE900010023C82204A1F5
:104F1000084802F061FC00201CBD000014010020C4
:104F200046696E67657244617461436F6E74726F37
:104F30006C000000096800081CB506490820CDE98E
:104F400000010023642204A1074802F045FC002070
:104F50001CBD00007C0100204A6F79537469636BAB
:104F60005461736B00000000E56900081CB5064938
:104F70000520CDE900010023C82204A1074802F062
:104F80002BFC00201CBD00002C0100204B65794447
:104F9000617461436F6E74726F6C0000AD6A0008DB
:104FA0001CB506490420CDE900010023642204A1B8
:104FB000084802F011FC00201CBD00003801002050
:104FC0004E6F726D616C4B6579436F6E74726F6C6E
:104FD000000000003D6B00081CB506490720CDE924
:104FE00000010023C82204A1064802F0F5FB0020BE
:104FF0001CBD00004801002052474250726F63659B
:1050000073730000A16C00081CB506490320CDE9AC
:1050100000010023642204A1084802F0DDFB002007
:105020001CBD000030010020536964656261724458
:10503000617461436F6E74726F6C0000556E00088E
:1050400010B5406A0021C185C184FEF759FB10BD2F
:1050500001680C3151E8002F22F4907241E80023DE
:10506000002BF5D10168143151E8002F22F0010224
:1050700041E80023002BF5D1016B012909D101681A
:105080000C3151E8002F22F0100241E80023002BE0
:10509000F5D1202180F8421000210163704708B546
:1050A00090F84210222901D0022008BD82684FF4F6
:1050B00080539A4201D1016921B1816A9A421BD081
:1050C0004AB10AE00268816A5268C2F308020A80A3
:1050D000816A891C08E0026972B10268526802F0B4
:1050E0007F020A70816A491C8162C18D491E0904D0
:1050F000090CC18503D01BE002685268F1E7016822
:10510000CA6822F02002CA600168CA6822F480726C
:10511000CA6001684A6922F001024A61202180F8D0
:10512000421000214163026B012A03D0FEF73CFDCF
:10513000002008BD016301680C3151E8002F22F006
:10514000100241E80023002BF5D101680A68D2065D
:1051500002D50A6849680091818DFEF7D0FAE7E729
:1051600070B5044600680169E26821F440511143BA
:1051700001612169A0680843616908432168CA6820
:1051800041F20C639A430243CA6020684169A269F4
:1051900021F44071114341611E492068884202D1C7
:1051A000FDF7B0FC01E0FDF79DFC00EBC00101EB59
:1051B0000012606864218000B2FBF0F3B3FBF1F3EE
:1051C0006FF018067343B2FBF0F5B2FBF0F605EB97
:1051D0008305322303EB0515B5FBF1F5B6FBF1F6BC
:1051E00005F0F00505EB0615B2FBF0F6B2FBF0F0AA
:1051F000B0FBF1F06FF01802504306EB800003EBB8
:105200000010B0FBF1F0216800F00F002844886026
:1052100070BD0000003801402DE9F0419846174666
:105220000E460446069D27E0681C25D02DB1FDF7EB
:1052300025FBA0EB0800A8421ED920680C3050E8DE
:10524000001F21F4D07140E80012002AF5D1206837
:10525000143050E8001F21F0010140E80012002A3C
:10526000F5D1202084F8410084F84200002084F821
:1052700040000320BDE8F0812068006836EA0000A5
:1052800004D00020B842CFD00020F3E70120F9E796
:1052900008B500208DF800000A48FEF733FA002315
:1052A000012269460748FEF729FC0748026812B147
:1052B00001216846904703480068C16841F0200119
:1052C000C16008BDAC0100200C00002008B5002022
:1052D0008DF800000A48FEF715FA002301226946FE
:1052E0000748FEF70BFC0748026812B10121684627
:1052F000904703480068C16841F02001C16008BDC3
:10530000F401002010000020FEE700002DE9F0412C
:105310000F4680464FF49076154631461046FAF710
:1053200076FF002409E000BF04EB440005EB001108
:1053300058F8240000F00CF8641CBC42F4D3324648
:105340002946BDE8F0410148FDF78ABFF02E002054
:105350002DE9F05F0C46C0F30721C0F307420904B2
:1053600041EA0225C0B205434FF6F87A4FF4604B8C
:105370001E212046FAF74BFF002211465FF0010381
:10538000C1F1170025FA00F0C0074FF0000022D04D
:105390004FEA0A07C0F10F0627FA06F6F6070ED005
:1053A00004EBD20C02F007099CF80080C9F1070950
:1053B00003FA09F648EA06088CF8008005E004EBD9
:1053C000D20696F800C086F800C0401CC0B2521C3D
:1053D0001028DFD320E05F46C0F10F0627FA06F65B
:1053E000F6070ED004EBD20C02F007099CF80080FF
:1053F000C9F1070903FA09F648EA06088CF80080A3
:1054000005E004EBD20696F800C086F800C0401C08
:10541000C0B2521C1028DFD3491CC9B21829AFD31F
:10542000BDE8F09F0FB4054B10B503A9044A0298DC
:1054300000F028F810BC5DF814FB0000C957000804
:10544000140000200907090E002804DB00F1E02009
:1054500080F80014704700F00F0000F1E02080F8A1
:10546000141D704702E008C8121F08C1002AFAD1B3
:1054700070477047002001E001C1121F002AFBD1D4
:10548000704700002DE9FF4F8DB09B460F46044644
:10549000002606E025280BD05A460F999047641C39
:1054A000761C20780028F5D111B03046BDE8F08F89
:1054B0000025A8460122984900E0054314F8013F61
:1054C000203B02FA03F00842F7D120782E2817D1AA
:1054D00014F8010F45F004052A280ED06FF02F02B2
:1054E0002078A0F1300109290AD808EB880102EBE5
:1054F000410100EB0108641CF2E757F8048B641CBF
:1055000020786C280DD004DC4C2812D06A2811D1E8
:1055100004E074280DD07A280CD10AE045F4001577
:1055200007E0617845F48015814202D1641C05F5DD
:105530008015641C2278692A45D008DC002AB3D083
:10554000582A69D0632A10D0642A08D13BE0702A17
:1055500067D0732A13D0752A5CD0782A5CD01046A5
:105560005A460F999047761CD3E017F8040B8DF834
:10557000000000208DF80100E946012003E057F803
:10558000049B4FF0FF3069074FF0000501D40AE09B
:105590006D1C45450DDA8542FADB19F80510002926
:1055A000F6D106E06D1C8542FCDB19F805100029D8
:1055B000F8D12E4404E019F8010B5A460F99904790
:1055C0006D1EF8D2A5E00A200021CDE90801C5F33F
:1055D000025002280DD001CFC117031E71F1000344
:1055E0000DDA4FF0000CD0EB0C006CEB01012D2319
:1055F00008E0FF1D27F00707F7E80201EDE72B059C
:1056000004D52B238DF8283001233BE0EB0739D05C
:105610002023F7E70A2000E010200021CDE908014F
:1056200007E01020002145F00405CDE908014FF006
:105630000808C5F3025002280FD001CF00214FF017
:10564000000A2B071FD5702A0DD0DDE908C38CF0A6
:10565000100C5CEA030C0CD015E0FF1D27F00707C7
:10566000F7E80201EBE740228DF828204FF0010A0D
:105670000BE050EA010306D030238DF828308DF876
:10568000292002239A46582A04D024A20DF1200989
:105690000B9209E026A2F9E7DDE90823FAF78CFE70
:1056A0000B9B9B5C09F8013D50EA0102F4D1ADEB84
:1056B000090020300890680701D44FF001080899CC
:1056C000884502DDA8EB010000E0002080460025AF
:1056D00006E00AA85A46405D0F9990476D1C761C5B
:1056E0005545F6DB04E030205A460F999047761C6A
:1056F000B8F10001A8F10108F5DC05E019F8010B8B
:105700005A460F999047761C0899481E0890002920
:10571000F4DC641CC5E60000092801003031323396
:1057200034353637383961626364656600000000DD
:1057300030313233343536373839414243444546C7
:105740000000000070B505464FF0E0240020206105
:10575000FDF7EEFD0749E80808804FF47A714843E9
:10576000216941F0020121616061206940F001007E
:10577000206170BDB000002070B5054600244FF4D4
:105780007A7603E0304600F005F8641CAC42F9D3A9
:1057900070BD000070B54FF0E02400226569094932
:1057A000A36909884843A1699942FCD002D2A3EBBE
:1057B000010302E0A5EB010633441A440B46824282
:1057C000F1D370BDB000002004490A685206FCD530
:1057D000024AC1B2121D116070470000004800402B
:1057E000FDF75AF8FFF7ECFAFFF712F8FFF79CF80D
:1057F000FFF7BAF8FFF7D8F8FEF7DCFFFEF7A6FFD1
:10580000FCF7ACF8FFF766F84820FFF79BFFFEF7C0
:1058100089FEFBF751FAFBF709F84FF47A76304628
:10582000FFF7AAFFFBF77CF9FBF716F928A0FFF7B3
:10583000F9FD2B4C2068FAF7F5FC0246294821684F
:10584000FAF7CCFCFCF7D4F8044675104FF6FF7756
:105850000BE025A0FFF7E6FD2846FFF78DFF27A008
:10586000FFF7E0FD2846FFF787FF002CF1D0BC4290
:10587000EFD03046FFF780FF1A480A2200211C387B
:10588000FCF734F9174D00241C3D21A0295DFFF7DA
:10589000C9FD641CE4B2142CF7D32048FFF76EF95D
:1058A0001F48FFF771F91F48FFF74AF91E48FFF735
:1058B00059F91E48FFF750F91D48FFF747F91D48F1
:1058C000FFF756F9FFF706FB01F0E0FAFEE70000EC
:1058D00068656C6C6F2066696E6765720D0A000002
:1058E00000000020A0010020464C4153482043689E
:1058F00065636B204661696C65642100506C65616D
:10590000736520436865636B2120202020202000E0
:1059100064617461203A2025640D0A006146000824
:10592000711300086D450008C1180008AD0B000890
:1059300065060008ED4900082DE9F041204C0F46AE
:105940000546E6682168002081F859002068001D9E
:1059500000F034FD38B9206890F82C100120884000
:10596000216981432161681C15D1A7B115492268BD
:105970004868906023688268DA6022688368121D34
:105980005A602268121D8260206841610868401CCC
:105990000860BDE8F08120683544B5424560216863
:1059A00005D2E06BBDE8F041091D00F02ABDA06BF7
:1059B000091D00F026FDA06A8542EAD2A562E8E74B
:1059C00030000020080600202DE9F041054600F0D7
:1059D00031FD354CA068401CA0602068334F10B1E9
:1059E000606930B32BE02560A068012827D100262C
:1059F00006EB860007EB800000F0F5FC761C202EFD
:105A0000F6D32B4800F0EFFC2948143000F0EBFCF3
:105A10002748283000F0E7FC25483C3000F0E3FC44
:105A20002348503000F0DFFC2148A0631430E063CD
:105A300005E02068E96AC06A884200D82560606A8B
:105A4000401C60626864E96A012022698840104352
:105A5000206101EB810007EB80004068A86081684D
:105A6000E9608268291D51608160E86A00EB80006E
:105A700007EB8001696157F82010491C47F8201096
:105A800000F014FD606900280CD02068E96AC06A43
:105A9000884207D207494FF080500860BFF34F8F0C
:105AA000BFF36F8FBDE8F081300000203803002085
:105AB000B805002004ED00E010B500F0BBFC0E4C72
:105AC0002068A0B90D4800F08EFC0C48143000F09E
:105AD0008AFC0A48E0601430206100221021052071
