:020000040800F2
:1000000098480020990100088D4D000869490008B2
:10001000894D00083106000835580008000000002E
:1000200000000000000000000000000001010008C6
:10003000D50A0008000000004501000835520008FC
:10004000B3010008B3010008B3010008B3010008C0
:10005000B3010008B3010008B30100087D0B0008DC
:10006000B3010008B3010008870B0008690A000803
:10007000790A0008890A0008B3010008990A0008F3
:10008000B3010008B3010008B3010008B301000880
:10009000B3010008B3010008B3010008910B000888
:1000A000B3010008B3010008B3010008B301000860
:1000B000B1520008B3010008B3010008B301000801
:1000C000B3010008B3010008B3010008B301000840
:1000D000B3010008AD570008F1570008B30100084C
:1000E000B3010008B3010008B3010008DFF80CD029
:1000F00000F0CAF900480047895D000898480020D0
:10010000224B19680868B0E8F00F80F30988BFF344
:100110006F8F4FF0000080F311884EF00D0E704786
:100120000000000006480068006880F3088862B696
:1001300061B6BFF34F8FBFF36F8F00DF00BF00BF0B
:1001400008ED00E0EFF30980BFF36F8F0F4B1A68E3
:1001500020E9F00F106008B54FF0500080F31188CF
:10016000BFF34F8FBFF36F8F07F04AFA4FF00000D5
:1001700080F31188BDE8084019680868B0E8F00FFE
:1001800080F30988BFF36F8F704700BF28000020FD
:10019000EFF3058070470000064880470648004797
:1001A000FEE7FEE7FEE7FEE7FEE7FEE7FEE7FEE727
:1001B000FEE7FEE7AF520008ED000008202A04DB4E
:1001C000203A21FA02F00021704721FA02F3D040D0
:1001D000C2F12002914008431946704740EA0103EA
:1001E0009B0703D009E008C9121F08C0042AFAD2ED
:1001F00003E011F8013B00F8013B521EF9D27047B1
:10020000D2B201E000F8012B491EFBD27047002258
:10021000F6E710B513460A4604461946FFF7F0FF05
:10022000204610BD421C10F8011B0029FBD1801A8A
:100230007047034611F8012B00F8012B002AF9D171
:1002400018467047F0B480EA0102D40F4200B2EBC6
:10025000410F02D20246084611464A0042D0C30D61
:10026000DDB2C1F3C752AD1A202D35DAC1F3160144
:1002700041F4000204B15242C5F1200602FA06F12F
:100280002A411044B3EBD05F23D0C4B1012DA0EBC1
:10029000C35009DCF0BC4FF0004202EAC352DBB2AB
:1002A00000F5000000F0C2B8400000F1807000EBE3
:1002B000C350A0F1807040EAD170490009E04908BC
:1002C00041EAC071A0EBC35000F50000400800EB0C
:1002D000C350F0BC00F0A1B86142012202EB410121
:1002E000001BF6E7F0BC704781F00041AAE780F000
:1002F0000040A7E730B480EA010202F0004530F088
:10030000004221F0004013D090B1C30DD40DC2F3D0
:100310001601C0F31600E41A41F4000140F4000293
:100320007D34914201D3641C00E04900002C02DAC4
:1003300030BC002070474FF400000023914201D3ED
:10034000891A034340084FEA4101F7D151B1914264
:1003500002D14FF0004105E002D24FF0010101E06F
:100360006FF0010103EBC450284430BC00F055B8D5
:1003700096230022114600F059B820F00040C10D2C
:10038000C0F3160040F400007F2901DA0020704716
:10039000962903DCC1F19601C84070479639884020
:1003A00070470000002801DBC0F10040002901DB9C
:1003B000C1F10041814270472DE9F05F0546002000
:1003C00092469B4688460646814640241BE02846C6
:1003D000414647462246FFF7F1FE53465A46C01AA9
:1003E000914110D311461846224600F05FF82D1AAD
:1003F00067EB01084F4622460120002100F056F825
:1004000017EB00094E41201EA4F10104DFDC484631
:1004100031462A464346BDE8F09F0029A8BF7047F1
:10042000401C490008BF20F00100704710B4B0FA2A
:1004300080FC00FA0CF050EA010404BF10BC7047C5
:1004400049B1CCF1200421FA04F411FA0CF118BFDF
:10045000012121430843A3EB0C01CB1D4FEA0061AE
:100460004FEA102042BF002010BC704700EBC35081
:1004700010440029A4BF10BC7047401C490008BFAD
:1004800020F0010010BC7047064C074D06E0E06804
:1004900040F0010394E8070098471034AC42F6D3CB
:1004A000FFF728FE5089000870890008202A04DB25
:1004B000203A00FA02F1002070479140C2F1200377
:1004C00020FA03F319439040704770B58C1810F868
:1004D000015B15F0070301D110F8013B2A1106D189
:1004E00010F8012B03E010F8016B01F8016B5B1EA3
:1004F000F9D12B0705D40023521E0DD401F8013B7E
:10050000FAE710F8013BCB1A921C03E013F8015BE9
:1005100001F8015B521EF9D5A142D8D3002070BD6D
:1005200070B505466C6AA06A00F05000E0B9A06A98
:1005300040F40070A0622068806800F46020B0F58C
:10054000602F0DD1207B58B9A06A20F48070A06282
:10055000A06A00F4805018B9A06A40F00100A062BF
:10056000204601F09BFB03E0206A016B2846884788
:1005700070BD70B505466C6AA06A40F04000A0628C
:10058000E06A40F00400E062204601F0A8FB70BD84
:1005900070B50446656A284601F0A0FB70BD0000F6
:1005A00038B504460025002000902068806800F0DF
:1005B000010078BB2068806840F0010021688860F5
:1005C000194800681949B0FBF1F0009002E000986A
:1005D000401E009000980028F9D102F089F80546E5
:1005E00019E002F085F8401B022814D920688068C1
:1005F00000F0010078B9A06A40F01000A062E06A43
:1006000040F00100E06200BF002084F8240000BF39
:10061000012038BD05E02068806800F00100002856
:10062000DFD00020F5E700002400002040420F004A
:1006300000BFFEE710B502460023002004E0145C72
:100640001C44E3B2441CE0B28842F8DB184610BDFB
:10065000572007490870AB20487000208870054972
:10066000487002200449087001200449087070474E
:10067000792F0020C0000020C8000020CC000020FE
:10068000F0B506460F46144636B1012E2BD0022E89
:1006900047D0032E7ED15BE002204049C87008207D
:1006A00008713F4810F814003E4908703C4800EBC0
:1006B0004400407888700020C870087148718871C3
:1006C000C8713648401D0A68026049684160401F91
:1006D0000079401DC1B23148FFF7ACFF2F490A79BC
:1006E000491D885457E0002501202C49C87004207A
:1006F00008712D4850F82450280C2C494870280ABD
:100700008870CD7025480968C0F805100079401D33
:10071000C1B22248FFF78EFF20490A79491D88544B
:1007200039E002201D49C87008712148005D214947
:1007300048701A480988A0F805100079401DC1B218
:100740001648FFF777FF15490A79491D885422E0BA
:1007500002201249C870082008711248077084707E
:1007600000201049C870087148718871C8710B4821
:10077000401D0A68026049684160401F0079401DC1
:10078000C1B20648FFF756FF04490A79491D88544B
:1007900001E0FFE700BF00BFF0BD0000792F00209F
:1007A000CE870008C0000020CC880008C8000020C8
:1007B00030890008CC000020F0B506460F461446EC
:1007C000062C02DD4FF0FF30F0BD194D0220194913
:1007D000C87008200871A81E06700020A91E887025
:1007E000C870087148718871C87100BF08E0395C31
:1007F000114A02EB4101497829706D1C411CC8B2B5
:10080000A042F4DB0B48401D0949891E0A680260BA
:1008100049684160401F0079401DC1B20548FFF79B
:1008200009FF014603480279401D81540020CBE7AF
:10083000C2000020792F0020CE87000800B585B0C7
:1008400000BF2048806940F004001E4988610846C6
:10085000806900F00400009000BF00BF00BF0846A0
:10086000806940F0080088610846806900F008004F
:10087000009000BF00BF00228914134801F032FF2E
:1008800000222021114801F02DFF012002900003D9
:100890000190022003900320049001A90A4801F06E
:1008A00089FD012002902020019002200390032066
:1008B000049001A9054801F07DFDFFF7C9FE05B0D0
:1008C00000BD00000010024000080140000C014083
:1008D00070B505460E4600241CE02A5D002108463E
:1008E000FFF7CEFE0D480079821D4FF47A730B4955
:1008F0000B4803F08AFC012005F008FA4FF47A73E4
:100900000E220849064803F080FC012005F0FEF99C
:10091000601C84B2B442E0DB70BD0000792F00207F
:1009200098010020C087000870B504460D462A468D
:1009300021460320FFF7A4FE0B480079821D4FF4E7
:100940007A730949094803F060FC012005F0DEF9DB
:100950004FF47A730E220649044803F056FC012036
:1009600005F0D4F970BD0000792F00209801002017
:10097000C087000870B504460D4616463246294623
:100980002046FFF719FF0B480079821D4FF47A7358
:100990000849094803F039FC012005F0B7F94FF484
:1009A0007A730E220549044803F02FFC012005F05C
:1009B000ADF970BD792F002098010020C087000894
:1009C000EF200A49087001204870FF20084908708C
:1009D00048708870C870EF20064908700120487080
:1009E000FF208870C870087148717047B4000020FB
:1009F000B6000020BA00002010B5024600230020F7
:100A000004E0145C1C44A3B2441CE0B28842F8DB4E
:100A1000481C105C545C40EA0420984201D100203C
:100A200010BD4FF0FF30FBE72DE9F04105460C46C5
:100A3000002700262046E11704EB9171C1F38706D9
:100A4000E11704EB91718910A4EB810109B1701CCD
:100A5000C6B232462946034801F002FA0746384634
:100A6000BDE8F081AC00002010B5024801F090FA1A
:100A700010BD0000A002002010B5024801F088FA65
:100A800010BD00000431002010B5024801F080FACA
:100A900010BD0000C030002010B5024801F078FA07
:100AA00010BD00007C30002030B590F8405001248B
:100AB000AC40C56B6C60046863604468102C04D162
:100AC0000468A2600468E16003E00468A16004684F
:100AD000E26030BD7047000000B585B000BF22481D
:100AE000806940F00400204988610846806900F070
:100AF0000400009000BF00BF00BF0846806940F0BE
:100B0000080088610846806900F00800009000BF76
:100B100000BF164802904FF44070019001200390EE
:100B20000320049001A9124801F044FC11480290EE
:100B30000220019003900320049001A90E4801F0C7
:100B400039FC00220121172001F058FE172001F086
:100B500045FE00220121072001F050FE072001F090
:100B60003DFE05B000BD0000001002400000311045
:100B7000000C0140000011100008014010B50220D7
:100B800001F00AFC10BD10B5102001F005FC10BDED
:100B900010B50E48046804F4807048B14FF48070BA
:100BA00001F0FAFB0948006820F4807007490860EA
:100BB00004F4007048B14FF4007001F0EDFB0348FD
:100BC000006820F400700149086010BD1404014061
:100BD00072B600BFFEE7000000B585B000BF1A483E
:100BE000806940F00400184988610846806900F077
:100BF0000400009000BF00BF144802901020019034
:100C0000022003900320049001A9114801F0D2FBB7
:100C1000002206210A2001F0F1FD0A2001F0DEFD8C
:100C2000FFF7CEFE01F008F80A48007A09300949BA
:100C3000C97940EA01224FF47A730649064803F065
:100C4000E4FA05B000BD00000010024000001110E1
:100C5000000801406E2E0020E00100200448002121
:100C6000016041608160C1600248014908607047CD
:100C7000A0410020B041002070B5C748807901280C
:100C800006D0022805D0072805D008287ED101E02B
:100C900080E17FE17EE1C048407A342877D2DFE806
:100CA00000F01AFEFDFCFBFAF9F8F7F6F5F4F3F2A2
:100CB000F1F0EFEEEDECEBEAE9E8E7E6E5E4E3E29C
:100CC000E1E0DFDEDDDCDBDAD9D8D7D6D5D4D3D28C
:100CD000D1D0CFCECDCC0021B048006806F0E4FCE6
:100CE000AF4908600846007800F00100F8B1FE2026
:100CF000AC49087022204870102088700020C8700D
:100D00002022A5490A31A748001DFFF767FA2421D0
:100D1000A448FFF78FFCA34981F824002521A148AE
:100D200004F05AFA01219D48006806F0BDFC9C4879
:100D3000007800F0020000284DD0FE20994908708C
:100D4000042048700B2088700020C8709248807A78
:100D500008719148C17A934841710621FFF76AFCF6
:100D60009049887108460079012807D00846007923
:100D7000022803D008460079032803D107218948B7
:100D800004F02AFA87480079062801E001E1FDE035
:100D900021D184484079F2281DD10721814804F0EF
:100DA0001BFA02217D48006806F07EFC01217B4889
:100DB000006806F0C1FC002000F00AFF7A48007AC3
:100DC00009307949C97940EA01224FF47A737649AA
:100DD000764803F01AFA7248007800F0040058B31D
:100DE000FE2070490870022048700C208870002096
:100DF000C87004216B48FFF71DFC6A490871052182
:100E0000684804F0E9F904216448006806F04CFCE5
:100E100001216248006806F08FFC002000F0D8FE37
:100E20006148007A09306049C97940EA01224FF4EB
:100E30007A735D495D4833E034E0A6E0A4E0A2E0C7
:100E4000A0E09EE09CE09AE098E096E094E092E0DA
:100E500090E08EE08CE08AE088E086E084E082E04A
:100E600080E07EE07CE07AE078E076E074E072E0BA
:100E700070E06EE06CE06AE068E066E064E062E02A
:100E800060E05EE05CE05AE058E056E054E03EE0AE
:100E90003CE03AE038E036E034E032E030E02EE0AA
:100EA00003F0B3F93E48007800F0080030B33A4848
:100EB000807A05280ED13848017BC07A41EA0024A7
:100EC0003548817B407B41EA00252946204600F0D9
:100ED00071F800BF00F0B0FE3548007A093034499F
:100EE000C97940EA01224FF47A7331492F4803F05F
:100EF0008CF908212948006806F0D6FB47E046E057
:100F000045E044E043E042E041E040E03FE000F003
:100F100093FE2748007A09302549C97940EA012221
:100F20004FF47A732249214803F06FF908211B48D6
:100F3000006806F0B9FB2AE029E028E027E026E077
:100F400025E024E023E022E021E020E01FE01EE095
:100F50001DE01CE01BE01AE019E018E017E016E0C5
:100F600015E014E013E012E011E010E00FE00EE0F5
:100F70000DE00CE00BE00AE009E008E007E006E025
:100F800005E004E003E002E001E000E000BF00BF94
:100F900000E000BF00BF70BDB04100201001002084
:100FA000140100201D420020862E0020E0010020B8
:100FB0006E2E00202DE9F04385B004460F46002038
:100FC000049004EBC40000EB04104FF4801202EB19
:100FD0008001012204A800F027FC9DF8100030B128
:100FE000012868D002287BD0032814D17CE100209E
:100FF00003900025029004EBC40000EB04104FF4B2
:10100000801202EB8000411C012203A800F00CFCBE
:101010009DF80C0000B9A4E19DF80C00C01C05F07F
:10102000D9FC064604EBC40000EB04104FF4801218
:1010300002EB80019DF80C20D21C304600F0F4FB3E
:101040009DF80C00C01CC1B23046FFF7EDFC054610
:101050002946C6A004F096FC0A2005F07DFF04EBAB
:10106000C40000EB04104FF4801202EB80009DF8E6
:101070000C201044C11C042202A800F0D5FBC0A023
:10108000029904F07FFC0298A84210D1E0210020D0
:10109000FFF74AFC4FF4C87005F05EFF9DF80C1096
:1010A000F01CFFF715FC28210020FFF73DFC30461F
:1010B00005F024FE55E1002003900025029004EB8A
:1010C000C40000EB04104FF4801202EB8000411CBE
:1010D000012203A800F0A8FB9DF80C0008B940E12C
:1010E00046E09DF80C00C01C05F074FC064604EBBD
:1010F000C40000EB04104FF4801202EB80019DF855
:101100000C20D21C304600F08FFB9DF80C00C01C58
:10111000C1B23046FFF788FC0546294693A004F08B
:1011200031FC0A2005F018FF04EBC40000EB0410AA
:101130004FF4801202EB80009DF80C201044C11C7B
:10114000042202A800F070FB8DA0029904F01AFCA2
:101150000298A84208D19DF80C10F01CFFF7B8FBCC
:1011600028210020FFF7E0FB304605F0C7FDF8E03E
:101170000020039002900026019004EBC40000EBD5
:1011800004104FF4801202EB8000411C012203A8DE
:1011900000F04AFB9DF80C0000B9E2E09DF80C104D
:1011A0007BA004F0EFFB04EBC40000EB04104FF451
:1011B000801202EB8000C01C9DF80C2081180122D7
:1011C00002A800F031FB9DF8080000B9C9E09DF8C5
:1011D000081074A004F0D6FB9DF80C109DF80820B0
:1011E0001144481D05F0F6FB05469DF80C009DF8DE
:1011F00008301844421D04EBC40000EB04104FF407
:10120000801303EB8001284600F00EFB9DF80C00D4
:101210009DF808201044401DC1B22846FFF704FC89
:101220000646314664A004F0ADFB0A2005F094FEAA
:1012300004EBC40000EB04104FF4801202EB8000BA
:101240009DF80C2010449DF808201044411D0422F4
:1012500001A800F0E9FA5DA0019904F093FB019860
:10126000B0423DD19DF80C0005F0B4FB80469DF8DE
:10127000080005F0AFFB81469DF80C20E91C4046B4
:10128000FEF7ACFF9DF80C00001D41199DF80820E9
:101290004846FEF7A3FF9DF80C104046FFF718FBE9
:1012A0000A2005F059FE2B210020FFF73DFB0A2004
:1012B00005F052FE9DF808104846FFF709FB322062
:1012C00005F04AFE28210020FFF72EFB0A2005F03A
:1012D00043FE404605F012FD484605F00FFD00BFF5
:1012E000284605F00BFD3CE00020039001900290A1
:1012F000009004EBC40000EB04104FF4801202EBEA
:101300008000411C0122684600F08EFA9DF8000022
:1013100000B926E004EBC40000EB04104FF4801287
:1013200002EB8000C11C012203A800F07DFA9DF8A9
:101330000000401E82B204EBC40000EB04104FF426
:10134000801303EB8000011D01A800F06DFA9DF8E9
:101350000000401EC2B201A99DF80C00FFF70AFB75
:1013600000BF00BF05B0BDE8F08300006372635F9B
:1013700076616C7565203D2025640D0A0000000033
:101380007265635F637263203D2025640000000086
:101390006163636F756E74206C656E203D202564FB
:1013A0000D0A000070617373776F7264206C656E54
:1013B000203D2025640D0A006372635F76616C75C1
:1013C00065203D2025780D0A000000007265635FEE
:1013D000637263203D2025780000000038B5044684
:1013E0000D46012000900C48006890B100236A4629
:1013F00021460948006806F07FFC00BF009838B11C
:101400004FF0805005490860BFF34F8FBFF36F8FD7
:1014100000BF002038BD00000C01002004ED00E0FA
:1014200070B504466E48407998B9EF2C0ED1012072
:101430006B49487108460068047008460068401C03
:10144000086008460079401C0871C7E0FFF706FCF9
:10145000C4E06348807998B9012C0ED1012060491D
:10146000887108460068047008460068401C0860DF
:1014700008460079401C0871B0E0FFF7EFFBADE0D3
:101480005748C07998B9FF2C0ED101205449C87132
:1014900008460068047008460068401C086008465A
:1014A0000079401C087199E0FFF7D8FB96E04C48A2
:1014B000007A98B9FF2C0ED10120494908720846DC
:1014C0000068047008460068401C086008460079FF
:1014D000401C087182E0FFF7C1FB7FE04048407A82
:1014E00098B9FF2C0ED101203D494872084600688A
:1014F000047008460068401C086008460079401CDB
:1015000008716BE0FFF7AAFB68E03548807A98B96C
:10151000FF2C0ED101203249887208460068047001
:1015200008460068401C086008460079401C0871A5
:1015300054E0FFF793FB51E02948007909280CDAC1
:1015400027480068047026480068401C2449086049
:1015500008460079401C087112E0214800790928EA
:101560000ED101201E49C8721E48007A1D49C97952
:1015700040EA01201A49888108460079401C087118
:101580001748C07A012829D115488089401E60B1CA
:1015900013488089401E12498881084600680470FB
:1015A00008460068401C086018E00D480068047098
:1015B0000C48007A0B4AD27940EA0220401CC1B2A2
:1015C0000848801DFFF718FA054625B9FFF754FBB8
:1015D000FFF744FB01E0FFF741FB00BF002070BDB7
:1015E000A0410020B041002010B50446240300F0C3
:1015F000C3F800F0B7F84FF080500749086020208A
:1016000000F070F8204600F09FF84FF48050024937
:10161000086000F0A7F810BD100C014000B585B0BF
:1016200000BF0E48806940F008000C4988610846F8
:10163000806900F00800009000BF00BF881401908E
:101640000120029003900320049001A9044800F0B7
:10165000B1FE03F0F5FB05B000BD00000010024034
:10166000000C014070B504460D4616464FF0805000
:1016700006490860032000F035F8284600F064F8B9
:1016800032462146024801F075FD70BD100C014044
:101690004831002070B5044600250026012C04D0F6
:1016A000022C04D0032C06D103E0052605E03526E4
:1016B00003E0152601E0052600BF00BF4FF0805073
:1016C00007490860304600F00DF8FF2000F00AF8E6
:1016D00005464FF4805002490860284670BD00005E
:1016E000100C014001B582B04FF47A70012301AAB9
:1016F00002A90090024801F0E4FD9DF804000EBD2F
:101700004831002010B54FF080500E4908609020FD
:10171000FFF7E8FF0020FFF7E5FF0020FFF7E2FFFB
:101720000020FFF7DFFFFF20FFF7DCFF0402FF20B0
:10173000FFF7D8FF04434FF4805002490860204669
:1017400010BD0000100C014010B50446C4F3074062
:10175000FFF7C8FFC4F30720FFF7C4FFE0B2FFF7AD
:10176000C1FF10BD10B500BF0120FFF793FF00F0CF
:1017700001000028F8D110BD10B54FF08050054988
:1017800008600620FFF7AEFF4FF480500149086063
:1017900010BD0000100C01402DE9F04105460E4639
:1017A0001746FFF7E9FF4FF080500C490860022010
:1017B000FFF798FF3046FFF7C7FF002404E0285DDD
:1017C000FFF790FF601C84B2BC42F8DB4FF48050FE
:1017D00002490860FFF7C6FFBDE8F081100C014028
:1017E0002DE9F04107460E461446F0B2C0F580756B
:1017F000AC4200DC254612E02A4631463846FFF767
:10180000CBFFAC4200D10BE02F442E44601B84B2CE
:10181000B4F5807F02DD4FF4807500E02546EBE7EC
:1018200000BFBDE8F08100002DE9F04105460E46FD
:1018300017464FF080500C4908600320FFF752FF15
:101840003046FFF781FF002405E0FF20FFF74AFF45
:101850002855601C84B2BC42F7DB4FF4805002492B
:101860000860BDE8F0810000100C01402DE9F05F38
:1018700081460F461646DFF8A8B04FEA1738C7F37F
:101880000B0ACAF58054A64200DC344644E04FEA15
:1018900008314FF480525846FFF7C6FF002508E094
:1018A0000AEB05001BF80000FF2800D003E0681CCD
:1018B00085B2A542F4DB00BFA54216DA4046FFF729
:1018C00093FE002507E019F8050005EB0A010BF867
:1018D0000100681C85B2A542F5DB4FEA08314FF4E0
:1018E00080525846FFF77CFF04E0224639464846BE
:1018F000FFF776FFA64200D10FE008F101084FF094
:10190000000AA1442744301B86B2B6F5805F02DD91
:101910004FF4805400E03446B9E700BFBDE8F09FC3
:10192000A03100202DE9F04104460E46154600275F
:10193000184819490988018018490968C0F8021037
:1019400001201449887116480078C87114484178FC
:101950001048017231200F494872201288720846DF
:10196000C47206732812487308468573007A0A46C3
:10197000D27940EA0220401C81B20648801D00F066
:1019800051F8074638120349C87308460774BDE882
:10199000F0810000302E0020B4000020B6000020AE
:1019A000578700082DE9F04106460C4615460027EA
:1019B000184819490988018018490968C0F80210B7
:1019C00001201449887116480078C871144841787C
:1019D0001048017232200F49487208468672201260
:1019E000C872084604732812487308468573007A43
:1019F0000A46D27940EA0220401C81B20548801D87
:101A000000F010F8074638120249C87308460774F8
:101A1000BDE8F081412E0020B4000020B600002077
:101A20005A87000810B502460023002004E0145C29
:101A30001C44A3B2441CA0B28842F8DB184610BD77
:101A40002DE9F04104460D4616461F464FF00008AA
:101A5000174818490988018017490968C0F8021019
:101A600001201349887115480078C87113484178DE
:101A70000F4801723C200E49487208468472C572B4
:101A800006734773007A0A46D27940EA0220401C66
:101A900081B20748801DFFF7C5FF80464FEA282026
:101AA00003498873084680F80F80BDE8F081000084
:101AB000552F0020B4000020B600002099870008B0
:101AC0002DE9F05F04460D4616461F46DDE90BABD7
:101AD000DDF828904FF000081B481C490988018058
:101AE0001B490968C0F8021001201749887119487C
:101AF0000078C87117484178134801723C20124998
:101B00004872072088720846C4720573467387734B
:101B100080F80F9080F810A080F811B0007A0A4683
:101B2000D27940EA0220401C81B20748801DFFF7AD
:101B300079FF80464FEA282003498874084680F8D8
:101B40001380BDE8F09F0000652F0020B400002046
:101B5000B60000209C87000870B504460D4600269C
:101B6000174818490988018017490968C0F8021008
:101B700001201349887115480078C87113484178CD
:101B80000F4801720C200E494872201288720846D4
:101B9000C4722812087308464573007A0A46D2793F
:101BA00040EA0220401C81B20548801DFFF73AFF41
:101BB00006463012024988730846C67370BD00009D
:101BC000522E0020B4000020B60000205D870008DF
:101BD00070B5044600251448144909880180144949
:101BE0000968C0F8021001200F4988711148007877
:101BF000C871104841780C4801721F200A49487288
:101C000008468472007A0A46D27940EA0220401CD3
:101C100081B20548801DFFF705FF054628120249DD
:101C2000C8720846057370BD862E0020B4000020DF
:101C3000B60000206C87000810B500241348144932
:101C40000988018013490968C0F8021001200F4972
:101C5000887111480078C8710F4841780B480172AB
:101C600033200A4948720846007A0A46D27940EA87
:101C70000220401C81B20548801DFFF7D3FE0446B8
:101C80002012024988720846C47210BD6E2E0020D0
:101C9000B4000020B60000206687000838B504466E
:101CA000002000900B480088322190FBF1F0C0B278
:101CB0008DF800000748408890FBF1F0C0B28DF825
:101CC00001000548006820B102216846024A1268F6
:101CD000904738BD10000020140000207047704766
:101CE0002DE9F04104460D46164600275749206865
:101CF000884203D056492068884205D15348001DC8
:101D0000006800F4702000E0002000287ED100BFB1
:101D100094F82400012802D10220BDE8F0810120BE
:101D200084F8240000BF2046FEF73AFC0746002F47
:101D30006DD1A06A40F60161884340F48070A062D2
:101D400043492068884209D14048001D006800F4DA
:101D5000702008B9012002E0002000E0012078B1E5
:101D6000A06A20F48010A0622068406800F48060BF
:101D700000B3A06A20F4005040F48050A06219E043
:101D8000A06A40F48010A06230492068884203D0E5
:101D90002F492068884205D12C48001D006800F4B6
:101DA000806000E0002028B1A06A20F4005040F4D8
:101DB0008050A062A06A00F4805020B1E06A20F058
:101DC0000600E06201E00020E06200BF002084F82D
:101DD000240000BF1F48216A88621F48216AC86228
:101DE0001E48216A08636FF00200216808602068BD
:101DF000806840F4807021688860226802F14C019C
:101E000033462A46206A00F0C5F901E01AE014E0E2
:101E10002068806800F46020B0F5602F06D120684B
:101E2000806840F4A000216888600CE02068806829
:101E300040F480102168886005E000BF002084F82D
:101E4000240000E00127384667E700000024014035
:101E500000280140210500089105000873050008CD
:101E600070B503460C46002002255D71002104E098
:101E700054F821501E683560491C9142F8D31D6802
:101E8000286801255D7170BD0146002291F821008E
:101E9000022808D00420886300BF002081F82000B9
:101EA00000BF012070470868006820F00E000B6832
:101EB00018600868006820F001000B68186091F84D
:101EC000403001209840CB6B5860012081F8210000
:101ED00000BF002081F8200000BF1046E2E70000AC
:101EE00070B50446002594F82100022803D0042090
:101EF000A063012548E02068006820F00E002168FA
:101F000008602068006820F00100216808601F490F
:101F10002068884201D1012026E01C491431206844
:101F2000884201D110201FE01849283120688842DA
:101F300001D1801518E015493C312068884201D153
:101F4000801411E0114950312068884202D14FF4C9
:101F5000803009E00D4964312068884202D14FF495
:101F6000801001E04FF08070084908394860012076
:101F700084F8210000BF002084F8200000BF606BBF
:101F800010B12046616B8847284670BD08000240AA
:101F900070B50446E06B05682068066894F8401048
:101FA000042088402840002846D006F0040000287D
:101FB00042D02068006800F0200028B9206800683E
:101FC00020F004002168086057492068884201D148
:101FD000042027E0544914312068884201D1402070
:101FE00020E0514928312068884201D1001519E0CC
:101FF0004D493C312068884202D14FF4804011E0C5
:10200000494950312068884202D14FF4802009E0CC
:10201000454964312068884202D14FF4800001E0D4
:102020004FF08060404908394860E06A00287AD063
:102030002046E16A884776E094F840100220884004
:102040002840A0B306F0020088B32068006800F0C2
:10205000200040B92068006820F00A00216808606C
:10206000012084F8210030492068884201D10220F3
:1020700028E02D4914312068884201D1202021E038
:10208000294928312068884201D140151AE02649A3
:102090003C312068884202D14FF4005012E02249BE
:1020A00050312068884203D14FF400300AE017E035
:1020B0001D4964312068884202D14FF4001001E0CC
:1020C0004FF0007018490839486000BF002084F8BC
:1020D000200000BFA06A30B32046A16A884722E0F2
:1020E00094F84010082088402840E0B106F008002D
:1020F000C8B12068006820F00E002168086094F8DC
:10210000401001208840E16B48600120A06384F802
:10211000210000BF002084F8200000BF206B10B118
:102120002046216B884770BD08000240014600220E
:1021300009B901207047164B0868C01A1423B0FB78
:10214000F3F08000086412480838C863022081F860
:1021500021000868026843F6F0708243D1E9010368
:102160001843CB6818430B6918434B6918438B69B4
:102170001843CB6918430243086802600020886353
:10218000012081F82100002081F8200000BFD1E764
:10219000080002402DE9F04104460D4616461F4650
:1021A0004FF0000800BF94F82000012802D102205F
:1021B000BDE8F081012084F8200000BF94F82100E0
:1021C00001282CD1022084F821000020A06320687F
:1021D000006820F00100216808603B46324629462D
:1021E0002046FEF761FCE06A30B12068006840F0EC
:1021F0000E00216808600BE02068006820F00400F1
:10220000216808602068006840F00A0021680860C2
:102210002068006840F001002168086006E000BF07
:10222000002084F8200000BF4FF002084046BFE7BE
:1022300038B50446022C6BD0102C71D0B4F5807FD9
:1022400003D0B4F5007F30D130E04FF480714B48BB
:1022500000F040FA01280BD14102484800F03AFA58
:1022600030B94748007818B90120454908701CE08A
:102270004FF48071414800F02DFA98B94FF4007185
:102280003E4800F027FA01280CD13D48007801288B
:1022900008D100231A46194602F08EFD0020384965
:1022A000087002E000203649087064E04FF40071C5
:1022B000324800F00FFA01280BD101022F4800F03C
:1022C00009FA30B92F48007818B901202D49087053
:1022D0001DE04FF40071294800F0FCF9A0B94FF45B
:1022E0008071264800F0F6F901280DD125480078C4
:1022F000012809D100231A461946FF2002F05CFD8F
:1023000000202049087002E000201E49087032E0D9
:10231000022300221146104602F04EFD2BE0FFE79B
:1023200007224FF6FF710320FFF73CFB1648007AA7
:1023300009301549C97940EA01224FF47A731249EC
:10234000124801F062FF012000901148006888B136
:102350006A4608210E48006805F062FA00BF00983E
:1023600038B14FF080500B490860BFF34F8FBFF377
:102370006F8F00BF00BF00BF38BD0000000C0140E0
:102380000001002001010020412E0020E00100207A
:102390001001002004ED00E010B504460448006878
:1023A000204020B1024804602046FFF741FF10BDE5
:1023B000140401402DE9F8470346002294466EE1DB
:1023C0004FF0010808FA02F4D1F8008008EA04008E
:1023D000A0427DD1DFF8DCA2D1F80480A8EB0A0985
:1023E000D0453AD014DCB8F1030F50D009DCB8F175
:1023F000000F31D0B8F1010F1CD0B8F1020F49D154
:1024000020E0B8F1110F18D0B8F1120F42D11EE040
:10241000B9F5881F25D006DCB9F5803F20D0B9F585
:10242000801F37D11AE0B9F5001F18D0B9F5041F85
:1024300030D117E0D1F80CC02DE0D1F80C8008F1B4
:10244000040C28E0D1F80C8008F1080C23E0D1F846
:102450000C8008F10C0C1EE000BF00BF00BF00BFE5
:1024600000BF00BFD1F80880B8F1000F02D14FF0D3
:10247000040C0BE0D1F80880B8F1010F03D14FF044
:10248000080C1C6102E04FF0080C5C6103E04FF0A7
:10249000000C00E000BF00BFFF2801D8984601E013
:1024A00003F104084646FF2802D84FEA820803E0F9
:1024B000A2F108084FEA88084746D6F800804FF096
:1024C0000F0909FA07F928EA09080CFA07F900E0E8
:1024D00088E048EA0908C6F80080D1F8048008F0CE
:1024E0008058B8F1805F7DD100BFDFF8CC81D8F88B
:1024F000188048F00108DFF8C091C9F81880C84674
:10250000D8F8188008F00108CDF8008000BF00BF9F
:102510004FEAB9384FEA920958F829504FEA8278C1
:102520004FEA18794FF00F0808FA09F825EA08056C
:10253000DFF88881434502D14FF0000816E0DFF84C
:102540008081434502D14FF001080FE0DFF874812C
:10255000434502D14FF0020808E0DFF86C814345A3
:1025600002D14FF0030801E04FF004084FEA8279EE
:102570004FEA197908FA09F848EA0505DFF84C81AD
:102580004FEA920948F82950D1F8048008F48018DD
:10259000B8F5801F0AD1DFF83881D8F8008048EA02
:1025A0000008DFF82C91C9F8008009E0DFF82081ED
:1025B000D8F8008028EA0008DFF81491C9F80080F4
:1025C000D1F8048008F40018B8F5001F10D1DFF826
:1025D000008108F10408D8F8008048EA0008DFF814
:1025E000F09000E05AE009F10409C9F800800DE01C
:1025F000DFF8DC8008F10408D8F8008028EA000839
:10260000DFF8CC9009F10409C9F80080D1F8048002
:1026100008F40038B8F5003F0ED1DFF8B480A8F117
:102620000408D8F8008048EA0008DFF8A490A9F16F
:102630000409C9F800800DE0DFF89480A8F10408CF
:10264000D8F8008028EA0008DFF88490A9F104098E
:10265000C9F80080D1F8048008F48038B8F5803FCC
:102660000ED1DFF86C80A8F10808D8F8008048EA9D
:102670000008DFF85C90A9F10809C9F800800DE0B6
:10268000DFF84C80A8F10808D8F8008028EA000894
:10269000DFF83C90A9F10809C9F80080521CD1F874
:1026A000008028FA02F8B8F1000F7FF489AEBDE887
:1026B000F8870000000011100010024000080140DF
:1026C000000C0140001001400014014008000140CE
:1026D00008040140024693680B400BB1012000E062
:1026E000002070470AB1016101E00B0403617047EB
:1026F0000148006870470000180000200348006887
:10270000034909780844014908607047180000200F
:102710002000002010B50848006840F0100006496D
:102720000860032000F0A8F80F2000F007F800F080
:102730002BF8002010BD00000020024070B50446B8
:102740000E4800784FF47A71B1FBF0F00C4909683B
:10275000B1FBF0F5284601F020F808B1012070BD6A
:10276000102C07D200222146501E00F047F80548E1
:10277000046001E00120F2E70020F0E720000020E3
:10278000240000201C00002008B500BF114880690B
:1027900040F001000F4988610846806900F001009F
:1027A000009000BF00BF00BF0846C06940F08050E5
:1027B000C8610846C06900F08050009000BF00BFAB
:1027C00000BF0549486820F0E06040F000704860B4
:1027D00000BF08BD0010024000000140014608464D
:1027E000002809DB00F01F0301229A4043099B00E7
:1027F00003F1E023C3F8002100BF70472DE9F05F2B
:1028000080460D461646002703F0CCF807463946A9
:102810002A46334601F00700C0F1070ABAF1040F57
:1028200002D94FF0040A01E0C0F1070AD14600F1D5
:10283000040ABAF1070F02D24FF0000A01E0A0F13A
:10284000030AD4464FF0010A0AFA09FAAAF1010A6A
:102850000AEA020A0AFA0CFA4FF0010B0BFA0CFB17
:10286000ABF1010B0BEA030B4AEA0B04214640468D
:1028700003F0A0F8BDE8F09F00BF00F00702064B90
:1028800019684FF6FF031940044B0B4343EA02213A
:10289000014B196000BF70470CED00E00000FA0525
:1028A00070B504460D460CB9012070BD5A48006849
:1028B00000F00700A8420ED25748006820F0070039
:1028C0002843554908600846006800F00700A84200
:1028D00001D00120E9E7207800F0020002281DD194
:1028E000207800F00400042805D14C48406840F4EA
:1028F000E0604A494860207800F00800082805D1C7
:102900004648406840F46050444948604348406845
:1029100020F0F000A168084340494860207800F0AA
:10292000010078B36068012806D13C48006800F4D3
:10293000003090B90120B8E76068022806D1374816
:10294000006800F0007040B90120AEE7334800682D
:1029500000F0020008B90120A7E73048406820F0E5
:102960000300616808432D494860FFF7C1FE064631
:1029700009E0FFF7BDFE801B41F28831884202D991
:10298000032092E707E02548406800F00C006168EA
:10299000B0EB810FEDD12048006800F00700A8429D
:1029A0000ED91D48006820F0070028431A49086026
:1029B0000846006800F00700A84201D0012074E733
:1029C000207800F00400042807D11448406820F45F
:1029D000E060E168084311494860207800F0080091
:1029E000082808D10D48406820F46050216940EA69
:1029F000C1000A49486000F03FF808494968C1F33E
:102A00000311074A515CC84006490860064800683F
:102A1000FFF794FE002048E700200240001002402B
:102A20003E870008240000201C00002001480068A8
:102A3000704700002400002000B5FFF7F7FF0449AD
:102A40004968C1F30221034A515CC84000BD00003F
:102A5000001002404E87000800B5FFF7E7FF044969
:102A60004968C1F3C221034A515CC84000BD00005F
:102A7000001002404E87000870B50021002200249B
:102A800000230020134D696801F00C05F5B1042DF9
:102A900002D0082D19D101E00F4819E00F4DC1F304
:102AA0008346AB5D01F4803555B10A4D6D68C5F3C1
:102AB00040450B4E725D084D5D43B5FBF2F402E0FC
:102AC000084D03FB05F4204602E000BF064800BFA6
:102AD00000BF70BD001002400024F4002C870008E5
:102AE0003C87000800093D0000127A00F8B5044652
:102AF0000CB90120F8BD207800F00100002878D042
:102B0000F848406800F00C0004280CD0F5484068F4
:102B100000F00C00082811D1F248406800F4803021
:102B2000B0F5803F0AD1EF48006800F4003000287B
:102B30005FD0606800285CD10120DBE700BF6068DF
:102B4000B0F5803F06D1E748006840F48030E549A1
:102B5000086028E0606858B9E248006820F48030D6
:102B6000E04908600846006820F4802008601AE008
:102B70006068B0F5A02F0BD1DA48006840F48020DF
:102B8000D84908600846006840F4803008600AE0D0
:102B9000D448006820F48030D249086008460068B4
:102BA00020F48020086000BF606888B1FFF7A0FDB6
:102BB000054606E0FFF79CFD401B642801D9032071
:102BC00098E7C848006800F400300028F2D010E010
:102BD000FFF78EFD054606E0FFF78AFD401B6428DF
:102BE00001D9032086E7BF48006800F400300028C0
:102BF000F2D1207800F00200022857D1B94840688D
:102C000000F00C0050B1B748406800F00C000828F4
:102C100018D1B448406800F4803098B9B1480068D1
:102C200000F0020020B12069012801D0012061E7F5
:102C3000AC48006820F0F800616940EAC100A94989
:102C4000086033E02069E8B10120A7490860FFF778
:102C50004FFD054606E0FFF74BFD401B022801D95A
:102C6000032047E79F48006800F002000028F2D0E8
:102C70009C48006820F0F800616940EAC100994969
:102C8000086013E0002098490860FFF731FD054611
:102C900006E0FFF72DFD401B022801D9032029E79C
:102CA0009048006800F002000028F2D1207800F07F
:102CB000080008282DD1A069B8B101208B4908600F
:102CC000FFF716FD054606E0FFF712FD401B022840
:102CD00001D903200EE78348406A00F00200002873
:102CE000F2D0012002F054F813E000207F49086080
:102CF000FFF7FEFC054606E0FFF7FAFC401B022842
:102D000001D90320F6E67748406A00F00200002867
:102D1000F2D1207800F00400042873D10027714814
:102D2000C06900F0805070B900BF6E48C06940F0C3
:102D300080506C49C8610846C06900F0805000901E
:102D400000BF00BF01276A48006800F48070B0B976
:102D50006748006840F4807065490860FFF7C8FC68
:102D6000054606E0FFF7C4FC401B642801D9032098
:102D7000C0E65F48006800F480700028F2D000BF11
:102D8000E068012806D15748006A40F00100554923
:102D9000086227E0E06858B95248006A20F0010054
:102DA000504908620846006A20F00400086219E0F1
:102DB000E06805280BD14B48006A40F004004949FF
:102DC00008620846006A40F0010008620AE04548CF
:102DD000006A20F00100434908620846006A20F0BA
:102DE0000400086200BFE068A0B1FFF781FC05465F
:102DF00009E0FFF77DFC401B41F28831884202D98F
:102E0000032077E622E03748006A00F0020000283D
:102E1000EFD012E0FFF76CFC054608E0FFF768FC16
:102E2000401B41F28831884201D9032062E62D48D7
:102E3000006A00F002000028F0D1012F05D12948D6
:102E4000C06920F080502749C86100BFE069C8B35D
:102E50002448406800F00C00082860D0E06902288F
:102E600048D1002020490866FFF742FC054606E0ED
:102E7000FFF73EFC401B022801D903203AE619481F
:102E8000006800F000700028F2D1206AB0F5803FA1
:102E900007D11448406820F40030A1680843114964
:102EA0004860D4E9080108430E49496821F47411C7
:102EB00008430C49486001200B490866FFF718FCDD
:102EC000054607E03DE0FFF713FC401B022801D94F
:102ED00003200FE60348006800F000700028F2D0DD
:102EE0002FE00000001002400000424280044242F5
:102EF00000700040002014490866FFF7F9FB054602
:102F000006E0FFF7F5FB401B022801D90320F1E59D
:102F10000E48006800F000700028F2D111E0E0696E
:102F2000012800D1E6E50948466806F48031206AA8
:102F3000814204D106F47011606A814201D00120FF
:102F4000D8E50020D6E50000000042420010024013
:102F5000704710B504460CB9012010BD606A38B93D
:102F60006068B0F5827F00D105E00021E16102E0F8
:102F70000021216161610021A16294F8510028B90A
:102F8000002084F85000204600F042F8022084F827
:102F900051002068006820F0400021680860A08887
:102FA00000F48270218901F404410843A18901F4ED
:102FB00000610843217C01F002010843217D01F0FA
:102FC00001010843218B01F400710843217F01F0C6
:102FD000380108432021095D01F080010843218D5B
:102FE00001F400510843216808600421A06901EA46
:102FF0001040216848602068C06920F400602168A2
:10300000C86100206065012084F851000020A4E719
:1030100010B58AB0044600200690079008900990E9
:103020004B49206888424DD100BF4A48806940F032
:103030000400484988610846806900F00400019056
:1030400000BF00BFE0200290022003900120049006
:103050000320059002A94048FFF7ACF93F484049DA
:1030600008601020486000213D4881608021C160D7
:103070000021016141618161C161FFF757F808B129
:10308000FDF7A6FD00BF3648A064446200BF334888
:1030900014383449086000204860002131488160BC
:1030A0008021C1600021016141618161C161FFF73F
:1030B0003DF808B1FDF78CFD00BF2A48E06444628A
:1030C00000BF00BF2849206888423FD100BF214887
:1030D000C06940F480401F49C8610846C06900F4D7
:1030E0008040059000BF00BF00BF0846806940F0E7
:1030F000080088610846806900F00800059000BF5C
:1031000000BF4FF460400690022007900320099012
:1031100006A91648FFF74EF91048283014490860F0
:10312000102048600021124881608021C160002188
:10313000016141618161C161FEF7F8FF08B1FDF7EE
:1031400047FD00BF0A48A064446200BF0AB010BD3A
:1031500000300140001002400008014030000240F1
:10316000C03000200431002000380040000C014035
:103170007C3000202DE9F04104460E46154600271C
:1031800094F85100012801D0022770E0A06870B9BE
:103190006068B0F5827F0AD1042084F851002B4684
:1031A00032463146204600F0ADF9BDE8F08100BF5F
:1031B00094F85000012801D10220F6E7012084F89C
:1031C000500000BF06B10DB9012750E0042084F87B
:1031D000510000206065A663A587E58720646064D0
:1031E000A086E086A068B0F5004F0BD1206800688B
:1031F00020F04000216808602068006820F48040CA
:10320000216808601D48E16CC8621D48E16C886255
:103210001C48E16C08630020E16C4863E38FD4F83C
:1032200000C00CF10C01A26BE06CFEF7B3FF28B1FB
:10323000606D40F010006065012718E020680068AC
:1032400000F04000402805D02068006840F04000B1
:10325000216808602068406840F0200021684860CC
:103260002068406840F001002168486000BF00BF4E
:10327000002084F8500000BF384696E7D94E000879
:10328000034F0008B14E000810B5044605492068F8
:10329000884205D180140449086004A002F072FB42
:1032A00010BD000000300140100C01407370692017
:1032B000646D6120726563206F6B0D0A0000000071
:1032C00070472DE9FF5F0446884691461D460E9ED5
:1032D000012002900020019000BF94F850000128C6
:1032E00003D1022004B0BDE8F09F012084F8500013
:1032F00000BFFFF7FDF9074694F851B060680390EE
:10330000AA46BBF1010F0BD00398B0F5827F04D120
:10331000A06810B9BBF1040F02D002200190E9E0CF
:10332000B8F1000F03D0B9F1000F00D015B901209A
:103330000190DFE094F85100042802D0052084F8C1
:10334000510000206065C4F83890E587A587C4F86F
:103350003080E586A586206460642068006800F0FF
:103360004000402805D02068006840F040002168F7
:103370000860E068B0F5006F4DD1606810B1BAF137
:10338000010F09D1206B00882168C860206B801C68
:103390002063E08E401EE08636E02068806800F002
:1033A0000200022810D1E08E70B1029801280BD1E2
:1033B000206B00882168C860206B801C2063E08E31
:1033C000401EE086002002902068806800F0010026
:1033D00068B1E08F58B12068C068A16B0880A06B0D
:1033E000801CA063E08F401EE08701200290FFF761
:1033F0007FF9C01BB04207D3701C28B10320019095
:10340000012084F8510075E0E08E0028C5D1E08FDE
:103410000028C2D14DE0606810B1BAF1010F09D1A6
:10342000206B007821680873206B401C2063E08EBD
:10343000401EE08637E02068806800F00200022825
:1034400010D1E08E70B1029801280BD1206B00786A
:1034500021680873206B401C2063E08E401EE086CC
:10346000002002902068806800F0010068B1E08FC1
:1034700058B12068C068A16B0870A06B401CA063A5
:10348000E08F401EE08701200290FFF731F9C01B5A
:10349000B04201D3701C00B92EB903200190012065
:1034A00084F8510026E0E08E0028C4D1E08F002887
:1034B000C1D13A463146204601F00EFE20B101202E
:1034C00001902020606515E0A06850B900BF002081
:1034D00000902068C068009020688068009000BF5D
:1034E00000BF606D10B10120019002E0012084F85E
:1034F000510000BF00BF002084F8500000BF0198B9
:10350000F0E600002DE9F04704460E4617461D463A
:103510004FF0000A00BF94F85000012802D10220A9
:10352000BDE8F087012084F8500000BF94F8518076
:10353000D4F80490B8F1010F0AD0B9F5827F04D114
:10354000A06810B9B8F1040F02D04FF0020A77E07A
:103550000EB107B115B94FF0010A71E094F85100AE
:10356000042802D0052084F85100002060652663FD
:10357000A586E586A763A587E5872064606494F83F
:103580005100042806D13248E16CC8623148E16C30
:10359000886205E03048E16CC8623048E16C8862BE
:1035A0002F48E16C08630020E16C4863E38FD4F896
:1035B00000C00CF10C01A26BE06CFEF7EBFD30B12A
:1035C000606D40F0100060654FF0010A38E020683F
:1035D000406840F00100216848600020A16CC8628A
:1035E000A16C8862A16C0863A16C4863E38ED4F877
:1035F00000C00CF10C02216BA06CFEF7CBFD30B1CA
:10360000606D40F0100060654FF0010A18E020681E
:10361000006800F04000402805D02068006840F0B5
:103620004000216808602068406840F02000216860
:1036300048602068406840F002002168486000BF90
:1036400000BF002084F8500000BF504668E700002B
:10365000D94E0008034F0008F54E0008FB4F000844
:10366000B14E00082DE9F04104460E4615460027EC
:1036700000BF94F85000012802D10220BDE8F0817B
:10368000012084F8500000BF94F85100012801D0B7
:10369000022755E006B10DB9012751E0032084F857
:1036A0005100002060652663A586E586A0636064FE
:1036B0002064A087E087A068B0F5004F0BD1206898
:1036C000006820F04000216808602068006840F42D
:1036D0008040216808601E48A16CC8621D48A16C2A
:1036E00088621D48A16C08630020A16C4863E38ECA
:1036F000D4F800C00CF10C02216BA06CFEF74AFD5F
:1037000028B1606D40F010006065012718E0206866
:10371000006800F04000402805D02068006840F0B4
:103720004000216808602068406840F0200021685F
:1037300048602068406840F002002168486000BF8F
:1037400000BF002084F8500000BF384696E7000014
:10375000E74E00087D4F0008B14E0008024A01689C
:10376000914200D100BF7047003800407047704759
:103770007047042808D14FF0E021096941F00401A5
:103780004FF0E022116107E04FF0E021096921F0DC
:1037900004014FF0E0221161704770B504462546E0
:1037A000681EB0F1807F01D301200FE0681E4FF04A
:1037B000E02148610F214FF0FF3002F0FBF80020BC
:1037C0004FF0E021886107200861002070BD70473C
:1037D000704710B504460CB9012010BD94F83D00A7
:1037E00028B9002084F83C00204600F025F802208B
:1037F00084F83D00211D206801F062FD012084F85D
:10380000460000BF84F83E0001213F2001554020C2
:1038100001554120015500BF00BF012084F842003E
:1038200043200155442001554520015500BF01208A
:1038300084F83D000020D0E738B504462068B0F198
:10384000804F15D100BF0B48C06940F00100094905
:10385000C8610846C06900F00100009000BF00BFC9
:10386000002209211C20FEF7C9FF1C20FEF7B6FF2D
:1038700038BD000000100240014691F83D000128CB
:1038800001D001207047022081F83D000868C0681F
:1038900040F001000B68D860124B086898420BD0CA
:1038A0000868B0F1804F07D00F4B0868984203D0EA
:1038B0000E4B086898420CD10868806800F0070237
:1038C000062A0CD00868006840F001000B681860F8
:1038D00005E00868006840F001000B6818600020EF
:1038E000D0E70000002C0140000400400008004028
:1038F00001460868C06820F001000A68D06000BF77
:103900000868006A41F21112104050B90868006A54
:103910009210104028B90868006820F001000A6879
:10392000106000BF012081F83D0000207047704703
:1039300010B5044620680069C0F34000D8B1206883
:10394000C068C0F34000B0B16FF0020021680861A8
:10395000012020772068806900F0030018B120461C
:10396000FFF7E5FF05E0204600F0ADF8204600F047
:10397000ABF80020207720680069C0F38000D8B140
:103980002068C068C0F38000B0B16FF00400216807
:103990000861022020772068806900F4407018B127
:1039A0002046FFF7C4FF05E0204600F08CF82046D3
:1039B00000F08AF80020207720680069C0F3C0007A
:1039C000D8B12068C068C0F3C000B0B16FF0080083
:1039D00021680861042020772068C06900F0030096
:1039E00018B12046FFF7A3FF05E0204600F06BF872
:1039F000204600F069F80020207720680069C0F3B5
:103A00000010D8B12068C068C0F30010B0B16FF0EA
:103A1000100021680861082020772068C06900F440
:103A2000407018B12046FFF782FF05E0204600F005
:103A30004AF8204600F048F8002020772068006906
:103A400000F0010058B12068C06800F0010030B1FA
:103A50006FF0010021680861204600F037F8206807
:103A60000069C0F3C01058B12068C068C0F3C0102E
:103A700030B16FF08000216808612046FFF7A7FE93
:103A800020680069C0F3801058B12068C068C0F396
:103A9000801030B16FF0400021680861204600F0CE
:103AA000E3F820680069C0F3401058B12068C0688E
:103AB000C0F3401030B16FF020002168086120464B
:103AC000FFF786FE10BD70477047000070B50546D1
:103AD00058480078002837D157480168574800688F
:103AE000FCF702FC554908605548016855480068D4
:103AF000FCF7FAFB534908605348016853480068D3
:103B0000FCF7F2FB514908604B4801684B480068DC
:103B1000FCF748FC0DD34A4801684A480068FCF7A6
:103B200041FC06D34848016848480068FCF73AFC65
:103B30005CD201203F49087000204049086041499B
:103B400008604249086051E03A48007801284DD1A8
:103B50003948016839480068FCF774FB3749086048
:103B60003748016837480068FCF76CFB3549086046
:103B70003548016835480068FCF764FB3349086044
:103B80002D48016832480068FCF7AEFB04462B481C
:103B900001682046FCF706FC19D3294801682D4826
:103BA0000068FCF7A1FB0446264801682046FCF7A4
:103BB000F9FB0CD32448016827480068FCF794FB04
:103BC0000446224801682046FCF7ECFB0ED2002098
:103BD000184908701E480068184908601D480068A8
:103BE000184908601C4800681849086013480068B4
:103BF000FCF7C3FB040413480068FCF7BEFB44EA6F
:103C0000002412480068FCF7B8FBC0B20443134814
:103C10000460002006E011490968114A42F82010AA
:103C2000411CC8B20628F6DB0E4A06210C4801F0FA
:103C300003FE70BD4C01002054010020340100201F
:103C400058010020380100205C0100203C010020C8
:103C500040010020440100204801002030010020E4
:103C60008044002060430020704770477047000088
:103C70002DE9F84F0446206805682068C66820686A
:103C800047694FF00009CA4605F00F09B9F1000F66
:103C90000AD105F0200038B106F0200020B12046FE
:103CA00001F00EFCBDE8F88FB9F1000F7BD007F0F2
:103CB000010018B906F49070002874D005F00100D6
:103CC00030B106F4807018B1606C40F0010060649F
:103CD00005F0040030B107F0010018B1606C40F04D
:103CE0000200606405F0020030B107F0010018B175
:103CF000606C40F00400606405F0080048B106F014
:103D0000200010B907F0010018B1606C40F0080005
:103D10006064606C002845D005F0200028B106F0F2
:103D2000200010B1204601F0CBFB20684069C0F3B1
:103D3000801A606C00F0080010B9BAF1000F2CD0A6
:103D4000204601F077FB2068406900F0400000B396
:103D500000BF00BF2168143151E8001F21F040006E
:103D60002168143141E80002002AF3D100BFE06B62
:103D700050B17748E16B4863E06BFEF7B1F888B16A
:103D8000E06B416B88470DE02046FFF76FFF09E0CD
:103D900009E02046FFF76AFF04E02046FFF766FFD0
:103DA000002060647EE7206B012877D105F01000C9
:103DB000002873D006F010000028FAD000BF0020C1
:103DC000009020680068009020684068009000BF64
:103DD00000BF2068406900F0400000285FD0E06B21
:103DE000006840681FFA80F8B8F1000F55D0A08D28
:103DF000404552DDA4F82E80E06B8069202843D036
:103E000000BF00BF21680C3151E8001F21F4807011
:103E100021680C3141E80002002AF3D100BF00BF45
:103E200000BF2168143151E8001F21F00100216812
:103E3000143141E80002002AF3D100BF00BF00BFE7
:103E40002168143151E8001F21F04000216814312D
:103E500041E80002002AF3D100BF202084F842008C
:103E60000020206300BF00BF21680C3151E8001F13
:103E700021F0100021680C3141E80002002AF3D142
:103E800000BFE06BFEF700F802206063A08DE28DBA
:103E9000801A81B22046FFF7E8FE03E742E0A08DDA
:103EA000E18D401A1FFA80F8E08DD0B3B8F1000F11
:103EB00037D000BF00BF21680C3151E8001F21F44A
:103EC000907021680C3141E80002002AF3D100BF54
:103ED00000BF00BF2168143151E8001F21F001002C
:103EE0002168143141E80002002AF3D100BF2020EC
:103EF00084F842000020206300BF00BF21680C311D
:103F000051E8001F21F0100021680C3141E8000247
:103F1000002AF3D100BF0220606341462046FFF72C
:103F2000A4FEBFE605F0800030B106F0800018B1B5
:103F3000204601F0C1FBB5E605F0400030B106F0C7
:103F4000400018B1204601F0ABFAABE600BFA9E68D
:103F50002154000810B504460CB9012010BDA06919
:103F600000B100E000BF94F8410028B9002084F8B7
:103F70004000204600F02AF8242084F84100206800
:103F8000C06820F400502168C860204601F016FB8C
:103F90002068006920F49040216808612068406929
:103FA00020F02A00216848612068C06840F4005071
:103FB0002168C86000206064202084F8410084F8F3
:103FC00042000020606300BFC8E7000010B586B063
:103FD0000446002002900390049005905549206803
:103FE000884237D100BF5448806940F4804052492C
:103FF00088610846806900F48040019000BF00BFDE
:1040000000BF0846806940F0040088610846806966
:1040100000F00400019000BF00BF4815029002208C
:1040200003900320059002A94448FEF7C3F94FF41A
:104030008060029000200390049002A93F48FEF7A0
:10404000B9F9002206212520FEF7D8FB2520FEF72E
:10405000C5FB6DE03A492068884236D100BF36483A
:10406000C06940F400303449C8610846C06900F4B2
:104070000030019000BF00BF00BF0846806940F0DB
:10408000040088610846806900F00400019000BFC8
:1040900000BF04200290022003900320059002A993
:1040A0002648FEF787F9082002900020039004902C
:1040B00002A92248FEF77EF9002206212620FEF7FB
:1040C0009DFB2620FEF78AFB32E01E4920688842CD
:1040D0002ED100BF1848C06940F480201649C8613D
:1040E0000846C06900F48020019000BF00BF00BFF7
:1040F0000846806940F0080088610846806900F041
:104100000800019000BF00BF081502900220039034
:104110000320059002A90C48FEF74CF94FF400600B
:10412000029000200390049002A90748FEF742F98C
:1041300006B010BD003801400010024000080140E8
:104140000044004000480040000C01402DE9F84FB9
:1041500004460E46174699464FF0000A94F842006E
:1041600020284FD106B117B90120BDE8F88F0020F3
:104170006064222084F8420000202063FEF7B8FA31
:104180008246A785E785A068B0F5805F04D12069E5
:1041900010B90025B04602E035464FF0000829E08E
:1041A0005346002220212046CDF8009001F0B4FAB9
:1041B00008B10320D9E745B920684068C0F308007A
:1041C000A8F8000008F1020811E0A068B0F5805FCF
:1041D00003D0A06828B9206918B920684068287001
:1041E00004E02068406800F07F0028706D1CE08DBE
:1041F000401EE085E08D0028D2D1202084F84200C6
:104200000020B2E70220B0E770472DE9F84F0446DE
:104210000E46174699464FF0000A94F841002028B0
:104220004AD106B117B90120BDE8F88F00206064BB
:10423000212084F84100FEF75BFA8246A784E784D8
:10424000A068B0F5805F04D1206910B90025B046A0
:1042500002E035464FF000081BE053460022802163
:104260002046CDF8009001F057FA08B10320DBE7B3
:1042700045B9B8F80000C0F308002168486008F1AB
:10428000020803E02878216848606D1CE08C401E1D
:10429000E084E08C0028E0D15346002240212046F3
:1042A000CDF8009001F038FA08B10320BCE72020D7
:1042B00084F841000020B7E70220B5E7704700000E
:1042C0002DE9F04F89B0FD488079801CC1B2FB48D0
:1042D000401D00F07BFBC4B2F8484079FE2873D142
:1042E000002CFCD1F548C0790D2871D008DC0128DC
:1042F0000FD002286AD00B2822D00C2867D142E0C8
:104300000F287DD0102805D011287AD01228F5D199
:10431000A2E2F7E20020FDF75BFCE948007A0930F1
:10432000E749C97940EA01224FF47A73E449E54844
:10433000FFF76BFF0121E448006803F0FDF9E1E2BB
:10434000DE48C17A807A41EA0026DC48057B817B21
:10435000407B41EA00273A4629463046FDF7E2FA1B
:10436000DA48007A0930D949C97940EA01224FF484
:104370007A73D649D348FFF748FF0221D248006834
:1043800003F0DAF9BEE2CD48C17A807A41EA00252D
:10439000CA48417B007B41EA002631462846FDF7AA
:1043A000DBFBCB48007A0930C949C97940EA0122D0
:1043B0004FF47A73C649C348FFF727FF0421C24868
:1043C000006803F0B9F99DE29DE201E05BE298E24A
:1043D000BA48857AC67A077B90F80D8043463A46FC
:1043E00031462846FDF72CFBBA48007A0930B94916
:1043F000C97940EA01224FF47A73B649B14801E025
:1044000003E024E0FFF701FF7CE2AC48857AC67A3E
:10441000077B90F80D8090F80E9090F80FA090F820
:1044200010B043463A46314628468DE8000EFDF767
:1044300047FBA948007A0930A749C97940EA012217
:104440004FF47A73A4499F48FFF7DFFE5AE29B4876
:10445000417A007A41EA0020A04908809748807A92
:1044600000286CD108460088012807D19348C07AFB
:104470009B4908709148007B9A49087097480088CA
:1044800000285CD18D48C07A95490978884256D178
:1044900000200890944908709248007848700020E5
:1044A000887000BF08E0C11D844A521D525CC11CC7
:1044B0008D4B5A54411CC8B28A4909788842F2DBB4
:1044C00088480078C01CC1B28748FCF7ADFA089054
:1044D00086A0089901F056FA8148007800EBC002E6
:1044E00002EB00104FF4801202EB80017D4802784D
:1044F000D21C7D48FDF7BAF90A2002F02DFD78485C
:10450000007800EBC00202EB00104FF4801202EBC7
:104510008000744A12781044C11C042208A8FDF7D8
:10452000A5F900206E4908706E490870744908703A
:104530006A49088064216C48FBF769FE00BF5F4848
:10454000807A012869D165480088012807D15B4835
:10455000C07A634908705948007B624908705F4817
:104560000088002859D15548C07A5D4909788842A9
:1045700053D10020089001205B4908705948007809
:1045800048700020887000BF08E0C11D4B4A521DD2
:10459000525CC11C544B5A54411CC8B25149097851
:1045A0008842F2DB4F480078C01CC1B24E48FCF78D
:1045B0003BFA08904A48007800EBC00202EB00107A
:1045C0004FF4801202EB800146480278D21C464824
:1045D000FDF74CF90A2002F0BFFC4148007800EBDF
:1045E000C00202EB00104FF4801202EB80003D4A43
:1045F00012781044C11C042208A8FDF737F90020E6
:1046000037490870374908703D49087033490880B8
:1046100064213548FBF7FBFD00BF2848807A02285B
:104620004BD12E48008802280BD12448C07A2C494F
:1046300008702248007B2B4908702048407B304995
:1046400008702648008801281CD11C48C07A2449DB
:104650000978884216D10220234908702148007841
:1046600048700020887000BF08E0C11D134A521D29
:10467000525CC11C1C4B5A54411CC8B219490978E0
:104680008842F2DB15480088002816D10B48C07A12
:104690001349097888427FD100BF0020089018484C
:1046A0000178114A0F480078C01C115400210D48B0
:1046B0000078001D115400202FE06DE06C420020B6
:1046C000862E0020E001002010010020302E002066
:1046D000522E0020552F0020652F002020010020A1
:1046E0002401002022010020B34200206372635F96
:1046F00076616C7565203D2025640D0A0000000080
:1047000023010020C11D834A525C83490978091D99
:104710000144824B5A54411CC8B2814909788842ED
:10472000F0DB7D4800787E4A12781044001DC1B24B
:104730007A48FCF779F908907AA0089901F022F9F3
:1047400075480078764B1B781844421D7A480078EB
:1047500000EBC00303EB00104FF4801303EB800168
:104760006E48FDF783F80A2002F0F6FB72480078E5
:1047700000EBC00202EB00104FF4801202EB80004D
:10478000654A12781044664A12781044411D04228A
:1047900008A8FDF76BF800BF5E48401F807A032829
:1047A00059D166480088012809D15A48401FC07A6B
:1047B000614908705748401F007B574908705F489F
:1047C0000088E0BB5348401FC07A5B4909788842A3
:1047D00041D1002008900320504908704E480078CD
:1047E0004870002088704C4802784A4908314B488C
:1047F000C01CFBF7F3FC48480078C01CC1B2474816
:10480000FCF712F908904C48007800EBC00202EB6C
:1048100000104FF4801202EB80013F480278D21C56
:104820003E48FDF723F80A2002F096FB4248007844
:1048300000EBC00202EB00104FF4801200E00AE02F
:1048400002EB8000344A12781044C11C042208A8EC
:10485000FDF70CF800BF55E02E48401F857AC67A58
:10486000077B90F80D80280640EA064040EA0720C2
:1048700040EA0800089000231A4608A9304800685A
:1048800003F050F93EE00020069007900890049055
:10489000059000900190029003902AA104A8FBF7D4
:1048A000C8FC04A92AA001F06DF82BA106A8FBF70B
:1048B000C0FC06A926A001F065F8FE202949087071
:1048C00015204870022088700020C870084606999C
:1048D000416007998160BDF8201081819DF8221008
:1048E00081730F30049901600599416017210F38D9
:1048F000FBF7A0FE1B49C87518211A4800F06CFC94
:1049000000E000BF04E04FF0FF3009B0BDE8F08FD9
:104910000020FAE77142002022010020B34200206B
:104920002301002073746F726520637263203D2041
:1049300025780D0A0000000024010020200100203D
:104940002C01002031333A33323A3231000000007A
:1049500025730D0A000000004F63742020322032BE
:10496000303233001D42002000BFFEE738B5044658
:104970000D46012000900C48006890B100236A4663
:1049800021460948006803F0B7F900BF009838B124
:104990004FF0805005490860BFF34F8FBFF36F8F12
:1049A00000BF002038BD00006C01002004ED00E0D5
:1049B00004480021016041608160034801490860AA
:1049C00070470000604200206C42002010B5024693
:1049D0000023002004E0145C1C44E3B2441CE0B259
:1049E0008842F8DB505C984201D1002010BD4FF0A6
:1049F000FF30FBE710B51248C078062815D006DC5A
:104A0000062819D2DFE800F0180C0D0E0F10082848
:104A10000FD009280ED00A280DD087280CD105E028
:104A20000BE00AE009E008E007E006E0FFF748FCD9
:104A300003E002E001E000E000BF00BF10BD0000A5
:104A40006C42002038B504460D46012000900C4809
:104A5000006890B100236A4621460948006803F0C7
:104A60004BF900BF009838B14FF0805005490860FD
:104A7000BFF34F8FBFF36F8F00BF002038BD000022
:104A80001C01002004ED00E070B50446494840795F
:104A900098B9572C0ED10120464948710846006844
:104AA000047008460068401C086008460079401CF5
:104AB00008717CE0FFF77CFF79E03E48807998B987
:104AC000AB2C0ED101203B49887108460068047068
:104AD00008460068401C086008460079401C0871C0
:104AE00065E0FFF765FF62E03248C07990B974B9BC
:104AF00001203049C8710846006804700846006803
:104B0000401C086008460079401C08714FE0FFF720
:104B10004FFF4CE02748007905280CDA254800684B
:104B2000047024480068401C224908600846007947
:104B3000401C087113E01F48007905280FD101209F
:104B40001C4908721C480079488108460079401CBD
:104B5000087108464089402801DDFFF729FF154804
:104B6000007A012823D11348408960B11148408957
:104B7000401E1049488108460068047008460068D5
:104B8000401C086013E00B48006804700A48007974
:104B9000401DC1B20848FFF719FF054625B9FFF7C8
:104BA00029FFFFF705FF01E0FFF702FF00BF00202C
:104BB00070BD0000604200206C420020014670473A
:104BC00008B500BF1248406940F001001049486133
:104BD0000846406900F00100009000BF00BF0022BD
:104BE00006210C20FDF70AFE0C20FDF7F7FD002240
:104BF00006210D20FDF702FE0D20FDF7EFFD00223E
:104C000006210F20FDF7FAFD0F20FDF7E7FD08BD97
:104C10000010024008B500BF0D48806940F0200038
:104C20000B4988610846806900F02000009000BFB1
:104C300000BF00BF0846806940F004008861084654
:104C4000806900F00400009000BF00BF08BD0000B4
:104C50000010024010B51448144908604FF48270E7
:104C600048604FF40041114881600021C160022179
:104C7000016101214161490281610821C161002175
:104C80000162416281620A21C162FEF762F908B1E4
:104C9000FBF79EFF05480068006840F040000349AC
:104CA0000968086010BD0000003800402430002072
:104CB00010B50F480F4908604FF4165048600021A6
:104CC0000C488160C16001610C214161002181615A
:104CD000C161FFF73FF908B1FBF77AFF05480068AB
:104CE000C06840F0200003490968C86010BD00009A
:104CF000003801409801002010B50F480F490860A6
:104D00004FF46140486000210C488160C16001613E
:104D10000C21416100218161C161FFF71BF908B1DC
:104D2000FBF756FF05480068C06840F020000349C3
:104D30000968C86010BD000000440040E001002088
:104D400010B50F480F4908604FF4E130486000216A
:104D50000C488160C16001610C21416100218161C9
:104D6000C161FFF7F7F808B1FBF732FF05480068AB
:104D7000C06840F0200003490968C86010BD000009
:104D8000004800402802002000BFFEE700BFFEE709
:104D900008B508490968C9084FF47A72B1FBF2F105
:104DA0004143009100BF00BF00994A1E00920029B4
:104DB000F9D108BD240000202DE9F04104460D463C
:104DC00016461F4605201049C87008710120487119
:104DD00008468771C571067244720079401DC1B2E0
:104DE0000948FBF727FC08490A79491D8854481FE0
:104DF0000079821D4FF47A73491F0448FFF705FAC2
:104E00000020BDE8F0810000792F002098010020EB
:104E10000146024801600020704700001400002095
:104E20000146024801600020704700000800002091
:104E30000146024801600020704700000C0000207D
:104E400008B500BF1748806940F480501549886153
:104E50000846806900F48050009000BF00BF1248EF
:104E6000124908604FF48270486000210F48816049
:104E7000C16002210161012141614902816110216A
:104E8000C16100210162416281620721C162FEF7B6
:104E900060F806480068006840F04000034909686F
:104EA000086008BD00100240003001404831002079
:104EB00070B505466C6A2068406820F003002168E0
:104EC0004860606D40F010006065012084F851007A
:104ED0002046FEF73DF870BD70B50446656A284669
:104EE000FEF7EEF970BD70B50446656A2846FEF718
:104EF0003DFC70BD70B50446656A2846FEF738FC77
:104F000070BD70B505466C6AFDF7F2FB0646286871
:104F1000006800F0200020282BD02068406820F096
:104F2000200021684860A06850B96068B0F5827FB1
:104F300006D12068406820F003002168486005E041
:104F40002068406820F001002168486032466421F2
:104F5000204600F085F808B1202060650020E08739
:104F6000012084F85100606D18B12046FDF7F0FF74
:104F700070BD2046FEF788F900BFF9E7F8B5054691
:104F80006C6AFDF7B5FB06462868006800F0200053
:104F900020282DD02068406820F02000216848603B
:104FA0002068406820F00200216848603246642191
:104FB000204600F091F818B1606D40F02000606567
:104FC000A06850B900BF002000902068C068009021
:104FD00020688068009000BF00BF0020E0860120AC
:104FE00084F85100606D18B12046FDF7B1FFF8BD9F
:104FF0002046FEF7B3FB00BFF9E770B505466C6AC3
:10500000FDF776FB06462868006800F0200020289F
:1050100021D02068406820F0200021684860324696
:105020006421204600F058F818B1606D40F020006F
:1050300060652068406820F0030021684860002017
:10504000E086E087012084F85100606D18B12046A9
:10505000FDF77EFF70BD2046FEF789FB00BFF9E734
:10506000F8B504460E4615466068B0F5827F0DD14E
:10507000A068B0F5004F03D0A068B0F5806F05D1EF
:105080002068006820F04000216808606068B0F582
:10509000827F11D1A068B0F5806F0DD13346002218
:1050A00001212046009500F02BF898B1606D40F08A
:1050B000200060650320F8BD334600228021204691
:1050C000009500F01DF828B1606D40F0200060658B
:1050D0000320F0E70020EEE7F8B504460D4616463B
:1050E0002B46002280212046009600F009F828B1C6
:1050F000606D40F0200060650320F8BD0020FCE7F3
:105100002DE9F84F04460D4690461E46DDF82890DE
:10511000FDF7EEFAA0EB0900371AFDF7E9FA82462F
:105120002C480068C0F3CB307843009045E0701CF9
:10513000002842D0FDF7DCFAA0EB0A00B84200D20A
:10514000A7BB2068406820F0E000216848606068E4
:10515000B0F5827F0DD1A068B0F5004F03D0A068F4
:10516000B0F5806F05D12068006820F0400021680C
:105170000860A06AB0F5005F0DD100BF206800682C
:1051800020F40050216808602068006840F4005056
:105190002168086000BF012084F8510000BF002092
:1051A00084F8500000BF0320BDE8F88FFFE70098A7
:1051B00000B900270098401E0090206880682840B1
:1051C000A84201D1012000E000204045AFD10020DD
:1051D000EAE700002400002070B505460C46412C8B
:1051E00002DD4FF0FF3070BD06201049C870084640
:1051F000047122462946401DFAF7F0FF0B4800795A
:10520000401DC1B20948FBF715FA08490A79491D42
:105210008854481F007900F109024FF47A73491F3E
:105220000348FEF7F2FF0020DDE70000792F0020A1
:105230009801002010B5FDF761FA02F03DFF01284A
:1052400001D002F09FFB10BD00B58FB0282105A84A
:10525000FAF7DDFF14216846FAF7D9FF012005901F
:1052600000040690400007900120099002200C9055
:10527000C1030D914FF4E0110E9105A8FDF736FC26
:1052800008B1FBF7A5FC0F20009002200190002040
:1052900002904FF480600390002004900221684641
:1052A000FDF7FEFA08B1FBF793FC0FB000BD7047A5
:1052B00010B50248FEF73CFB10BD0000184300206B
:1052C00010B50268184B984208D0B0F1804F05D055
:1052D000164B984202D0164B984203D122F070022E
:1052E0004B681A43104B984208D0B0F1804F05D05C
:1052F0000E4B984202D00E4B984203D122F44072DA
:10530000CB681A4322F080034C6943EA040202602E
:105310008B68C3620B688362034B984201D10B69AF
:1053200003630123436110BD002C014000040040D1
:105330000008004010B501F065FC00F009F800F02D
:105340003DF800F055F800F01FF801F09FFC10BD8B
:105350001CB5064803210023C822CDE9001004A192
:10536000084802F079FE00201CBD00000401002066
:1053700046696E67657244617461436F6E74726FE3
:105380006C000000CD6F00081CB506480821002302
:105390006422CDE9001004A1074802F05DFE002060
:1053A0001CBD0000680100204A6F79537469636B6B
:1053B0005461736B000000006D7000081CB5064856
:1053C00005210023C822CDE9001004A1074802F0FE
:1053D00043FE00201CBD0000180100204B657944ED
:1053E000617461436F6E74726F6C000071710008BC
:1053F0001CB5064807210023C822CDE9001004A1EE
:10540000064802F029FE00201CBD000028010020F3
:1054100052474250726F636573730000D172000887
:1054200070B505466C6A0020E085E0842046FEF7F2
:105430001DFC70BD00BF00BF02680C3252E8002F97
:1054400022F4907102680C3242E80013002BF3D171
:1054500000BF00BF00BF0268143252E8002F22F0E4
:1054600001010268143242E80013002BF3D100BF9F
:10547000016B01290ED100BF00BF02680C3252E857
:10548000002F22F0100102680C3242E80013002BBA
:10549000F3D100BF202180F8421000210163704742
:1054A00010B504462068C06820F040002168C8603C
:1054B000202084F841002046FEF700FF002010BDA8
:1054C000F8B5044694F84200222875D1A068B0F5DA
:1054D000805F0CD1206950B90025A66A2068406819
:1054E000C0F308003080A06A801CA06215E0A56AA5
:1054F0000026A068B0F5805F03D0A06828B92069B5
:1055000018B920684068287004E02068406800F0FE
:105510007F002870A06A401CA062E08D401E80B20F
:10552000E085002846D12068C06820F0200021686E
:10553000C8602068C06820F480702168C860206856
:10554000406920F0010021684861202084F8420071
:1055500000206063206B012826D10020206300BF5B
:1055600000BF21680C3151E8001F21F010002168B4
:105570000C3141E80002002AF3D100BF2068006826
:1055800000F0100010280AD100BF00200090206811
:105590000068009020684068009000BF00BFA18DA7
:1055A0002046FEF762FB02E02046FEF72DFE0020BB
:1055B000F8BD01E00020FBE70220F9E770B50446E2
:1055C0002168096921F44051E268114322681161A0
:1055D0002269A1681143626941EA02052168C9682C
:1055E00041F20C62914329432268D16021684969E4
:1055F00021F44071A2691143226851612D4A21684A
:10560000914202D1FDF728FA01E0FDF715FA00EB0F
:10561000C00101EB001162689200B1FBF2F100EBF6
:10562000C00202EB001263689B00B2FBF3F264233A
:10563000B2FBF3F202EBC20303EB0212A1EB820115
:10564000322202EB01116422B1FBF2F101F0F00110
:1056500000EBC00202EB001263689B00B2FBF3F2A6
:105660006423B2FBF3F201EB021200EBC00101EB89
:10567000001163689B00B1FBF3F100EBC00303EB87
:1056800000136668B600B3FBF6F36426B3FBF6F3CB
:1056900003EBC30606EB0313A1EB8301322303EBF9
:1056A00001116423B1FBF3F101F00F0111442268F1
:1056B000916070BD00380140014691F841002128F9
:1056C00028D18868B0F5805F0BD1086948B90A6AAB
:1056D0001088C0F308000B685860086A801C0862D4
:1056E00005E00B6A581C086218780B685860C88C73
:1056F000401E80B2C88458B90868C06820F0800095
:105700000B68D8600868C06840F040000B68D8603B
:10571000002070470220FCE72DE9F04104460D46C9
:1057200017469846069E34E0701C88B32EB1FCF7ED
:10573000DFFFA0EB0800B0422BD900BF00BF2168FB
:105740000C3151E8001F21F4D07021680C3141E880
:105750000002002AF3D100BF00BF00BF216814314E
:1057600051E8001F21F001002168143141E80002D6
:10577000002AF3D100BF202084F8410084F84200C1
:1057800000BF002084F8400000BF0320BDE8F08186
:10579000FFE7206800682840A84201D1012000E00E
:1057A0000020B842C0D00020F0E7000008B500207B
:1057B00000900D48FEF75CFA0023012269460A4872
:1057C000FEF7C4FC0948006820B101216846074A79
:1057D0001268904704480068C06840F02000024901
:1057E0000968C86008BD000098010020080000207A
:1057F00008B5002000900D48FEF73AFA0023012278
:1058000069460A48FEF7A2FC0948006820B1012158
:105810006846074A1268904704480068C06840F02C
:10582000200002490968C86008BD0000E0010020AE
:105830000C00002000BFFEE72DE9F04106460F46B0
:1058400014464FF4907841462046FAF7E0FC0025D4
:1058500008E005EB450204EB021156F8250000F0C4
:105860000DF86D1CBD42F4D34FF4907221460248EE
:10587000FDF7F8FEBDE8F081243000202DE9FE4F51
:1058800007460D464FF6F87001904FF460400090C7
:10589000C7F30749C7F3072A07F0FF0B4FEA0A408F
:1058A00040EA092040EA0B0002901E212846FAF740
:1058B000AEFC0024002080465FE0C8F1170102988A
:1058C000C84000F0010050B3002625E0C6F10F01EA
:1058D0004FF6F870084100F0010068B105EBD40004
:1058E000007804F00701C1F107020121914008434B
:1058F00005EBD40108700CE005EBD400007804F04F
:105900000701C1F1070200219140084305EBD401D2
:105910000870641C701CC6B2102ED7DB29E000266C
:1059200025E0C6F10F014FF46040084100F001008E
:1059300068B105EBD400007804F00701C1F107025B
:1059400001219140084305EBD40108700CE005EB00
:10595000D400007804F00701C1F107020021914052
:10596000084305EBD4010870641C701CC6B2102EED
:10597000D7DB08F10100C0B28046B8F1180F9CDBFC
:10598000BDE8FE8F0FB4054B10B503A9044A029879
:1059900000F034F810BC5DF814FB00006D5D0008E9
:1059A0000400002002480068C0F302207047000095
:1059B0000CED00E010B5002804DB0A07130E054AC1
:1059C000135406E00A07140E034A00F00F031B1FCE
:1059D000D45410BD00E400E018ED00E002E008C877
:1059E000121F08C1002AFAD170477047002001E059
:1059F00001C1121F002AFBD1704700002DE9FF4FA3
:105A00008DB09B460F460446002606E025280BD0A5
:105A10005A460F999047641C761C20780028F5D1CF
:105A200011B03046BDE8F08F0025A8460122984904
:105A300000E0054314F8013F203B02FA03F008425E
:105A4000F7D120782E2817D114F8010F45F004055E
:105A50002A280ED06FF02F022078A0F130010929FA
:105A60000AD808EB880102EB410100EB0108641C35
:105A7000F2E757F8048B641C20786C280DD004DC06
:105A80004C2812D06A2811D104E074280DD07A284D
:105A90000CD10AE045F4001507E0617845F4801563
:105AA000814202D1641C05F58015641C2278692AA4
:105AB00045D008DC002AB3D0582A69D0632A10D018
:105AC000642A08D13BE0702A67D0732A13D0752A64
:105AD0005CD0782A5CD010465A460F999047761CC5
